{"contracts/DownStrategy.sol":{"DownStrategy":{"abi":[{"inputs":[{"internalType":"address","name":"_hypeliquidRouter","type":"address"},{"internalType":"uint256","name":"_platformFeeBps","type":"uint256"}],"stateMutability":"nonpayable","type":"constructor"},{"anonymous":false,"inputs":[{"indexed":true,"internalType":"address","name":"previousAdmin","type":"address"},{"indexed":true,"internalType":"address","name":"newAdmin","type":"address"}],"name":"AdminTransferred","type":"event"},{"anonymous":false,"inputs":[{"indexed":true,"internalType":"address","name":"owner","type":"address"}],"name":"Initialized","type":"event"},{"anonymous":false,"inputs":[{"indexed":false,"internalType":"uint8","name":"newLeverage","type":"uint8"}],"name":"LeverageUpdated","type":"event"},{"anonymous":false,"inputs":[{"indexed":false,"internalType":"uint256","name":"newPlatformFeeBps","type":"uint256"}],"name":"PlatformFeeUpdated","type":"event"},{"anonymous":false,"inputs":[{"indexed":true,"internalType":"address","name":"owner","type":"address"},{"indexed":false,"internalType":"string","name":"action","type":"string"},{"indexed":false,"internalType":"uint256","name":"amount","type":"uint256"}],"name":"PositionUpdated","type":"event"},{"anonymous":false,"inputs":[{"indexed":true,"internalType":"address","name":"owner","type":"address"}],"name":"Rebalanced","type":"event"},{"anonymous":false,"inputs":[{"indexed":true,"internalType":"address","name":"owner","type":"address"},{"components":[{"internalType":"uint256","name":"timestamp","type":"uint256"},{"internalType":"string","name":"tradeType","type":"string"},{"internalType":"address","name":"assetIn","type":"address"},{"internalType":"uint256","name":"amountIn","type":"uint256"},{"internalType":"address","name":"assetOut","type":"address"},{"internalType":"uint256","name":"amountOut","type":"uint256"},{"internalType":"uint256","name":"feeAmount","type":"uint256"},{"internalType":"address","name":"feeAsset","type":"address"}],"indexed":false,"internalType":"struct Trade","name":"trade","type":"tuple"}],"name":"TradeRecorded","type":"event"},{"inputs":[],"name":"USDC","outputs":[{"internalType":"address","name":"","type":"address"}],"stateMutability":"view","type":"function"},{"inputs":[],"name":"WBTC","outputs":[{"internalType":"address","name":"","type":"address"}],"stateMutability":"view","type":"function"},{"inputs":[],"name":"WETH","outputs":[{"internalType":"address","name":"","type":"address"}],"stateMutability":"view","type":"function"},{"inputs":[],"name":"WSOL","outputs":[{"internalType":"address","name":"","type":"address"}],"stateMutability":"view","type":"function"},{"inputs":[{"internalType":"uint256","name":"amount","type":"uint256"},{"internalType":"address","name":"feeRecipient","type":"address"}],"name":"addLiquidity","outputs":[],"stateMutability":"nonpayable","type":"function"},{"inputs":[],"name":"admin","outputs":[{"internalType":"address","name":"","type":"address"}],"stateMutability":"view","type":"function"},{"inputs":[],"name":"execute","outputs":[],"stateMutability":"nonpayable","type":"function"},{"inputs":[],"name":"getBalance","outputs":[{"internalType":"uint256","name":"balance","type":"uint256"}],"stateMutability":"view","type":"function"},{"inputs":[],"name":"getCoinType","outputs":[{"internalType":"enum CoinType","name":"","type":"uint8"}],"stateMutability":"pure","type":"function"},{"inputs":[],"name":"getHoldings","outputs":[{"components":[{"internalType":"address","name":"asset","type":"address"},{"internalType":"uint256","name":"amount","type":"uint256"},{"internalType":"uint256","name":"valueUsd","type":"uint256"}],"internalType":"struct Holding[]","name":"holdings","type":"tuple[]"}],"stateMutability":"view","type":"function"},{"inputs":[],"name":"getLeverage","outputs":[{"internalType":"uint32","name":"","type":"uint32"}],"stateMutability":"pure","type":"function"},{"inputs":[],"name":"getOwner","outputs":[{"internalType":"address","name":"ownerAddress","type":"address"}],"stateMutability":"view","type":"function"},{"inputs":[],"name":"getPortfolioIndices","outputs":[{"internalType":"uint16[]","name":"","type":"uint16[]"}],"stateMutability":"view","type":"function"},{"inputs":[],"name":"getPositionDirection","outputs":[{"internalType":"enum PositionDirection","name":"","type":"uint8"}],"stateMutability":"pure","type":"function"},{"inputs":[],"name":"getProfitLoss","outputs":[{"internalType":"int256","name":"pnl","type":"int256"}],"stateMutability":"view","type":"function"},{"inputs":[],"name":"getTradeHistory","outputs":[{"components":[{"internalType":"uint256","name":"timestamp","type":"uint256"},{"internalType":"string","name":"tradeType","type":"string"},{"internalType":"address","name":"assetIn","type":"address"},{"internalType":"uint256","name":"amountIn","type":"uint256"},{"internalType":"address","name":"assetOut","type":"address"},{"internalType":"uint256","name":"amountOut","type":"uint256"},{"internalType":"uint256","name":"feeAmount","type":"uint256"},{"internalType":"address","name":"feeAsset","type":"address"}],"internalType":"struct Trade[]","name":"history","type":"tuple[]"}],"stateMutability":"view","type":"function"},{"inputs":[],"name":"hypeliquidRouter","outputs":[{"internalType":"address","name":"","type":"address"}],"stateMutability":"view","type":"function"},{"inputs":[{"internalType":"address","name":"_owner","type":"address"}],"name":"initialize","outputs":[],"stateMutability":"nonpayable","type":"function"},{"inputs":[],"name":"leverage","outputs":[{"internalType":"uint8","name":"","type":"uint8"}],"stateMutability":"view","type":"function"},{"inputs":[{"internalType":"address","name":"holder","type":"address"},{"internalType":"uint64","name":"usdcAmount","type":"uint64"}],"name":"openPositions","outputs":[{"internalType":"uint16[]","name":"indices","type":"uint16[]"},{"internalType":"bool[]","name":"isBuy","type":"bool[]"},{"internalType":"uint64[]","name":"sz","type":"uint64[]"}],"stateMutability":"nonpayable","type":"function"},{"inputs":[],"name":"platformFeeBps","outputs":[{"internalType":"uint256","name":"","type":"uint256"}],"stateMutability":"view","type":"function"},{"inputs":[],"name":"proxyOwner","outputs":[{"internalType":"address","name":"","type":"address"}],"stateMutability":"view","type":"function"},{"inputs":[{"internalType":"uint256","name":"amount","type":"uint256"},{"internalType":"address","name":"feeRecipient","type":"address"}],"name":"removeLiquidity","outputs":[],"stateMutability":"nonpayable","type":"function"},{"inputs":[{"internalType":"uint256","name":"","type":"uint256"}],"name":"strategyAssets","outputs":[{"internalType":"address","name":"","type":"address"}],"stateMutability":"view","type":"function"},{"inputs":[{"internalType":"address","name":"_newAdmin","type":"address"}],"name":"transferAdmin","outputs":[],"stateMutability":"nonpayable","type":"function"},{"inputs":[{"internalType":"uint8","name":"_newLeverage","type":"uint8"}],"name":"updateLeverage","outputs":[],"stateMutability":"nonpayable","type":"function"},{"inputs":[{"internalType":"uint256","name":"_newPlatformFeeBps","type":"uint256"}],"name":"updatePlatformFee","outputs":[],"stateMutability":"nonpayable","type":"function"}],"evm":{"bytecode":{"linkReferences":{},"object":"60a06040523480156200001157600080fd5b50604051620027ca380380620027ca8339810160408190526200003491620003c3565b818160036001600160a01b038316620000a85760405162461bcd60e51b815260206004820152602b60248201527f4261736553747261746567793a20526f757465722063616e6e6f74206265207a60448201526a65726f206164647265737360a81b60648201526084015b60405180910390fd5b6103e8821115620000fc5760405162461bcd60e51b815260206004820152601a60248201527f4261736553747261746567793a2046656520746f6f206869676800000000000060448201526064016200009f565b60008160ff16118015620001145750600a8160ff1611155b620001625760405162461bcd60e51b815260206004820152601e60248201527f4261736553747261746567793a20496e76616c6964206c65766572616765000060448201526064016200009f565b600080546001600160a01b03851660805260018490556001600160a81b0319163360ff60a01b19811691909117600160a01b60ff8516021782556040519091907ff8ccb027dfcd135e000e9d45e6cc2d662578a8825d4c45b5e32e0adf67e79ec6908290a36040518281527f45610d581145924dd7090a5017e5f2b1d6f42213bb2e95707ff86846bbfcb1ca9060200160405180910390a160405160ff821681527fe0ce029e30f26500c1c82ed34083b224b849ea080699f46c290e6216cf35a07d9060200160405180910390a1505060408051606081018252732260fac5e5542a773aa44fbcfedf7c193bc2c599815273c02aaa39b223fe8d0a0e5c4f27ead9083c756cc2602082015273d31a59c85ae9d8edefec411d448f90841571b89c918101919091526200029a9150600290600362000342565b50506003602052507f292c1cbcd8fcde54e8ba0732ed4e92022ba7ccc86bf9c562e47c88a765f35ad1805461ffff199081169091557f67aa9b7d2b6d14f3837d07b1073399a41e4104b1d98f169f02cc04f44f14f4b080548216600117905573d31a59c85ae9d8edefec411d448f90841571b89c6000527fb9584cfb4115640001ada8b6a0dca86dfb6cb53435c9d1bad0c07df22182e8b180549091166002179055620003ff565b8280548282559060005260206000209081019282156200039a579160200282015b828111156200039a57825182546001600160a01b0319166001600160a01b0390911617825560209092019160019091019062000363565b50620003a8929150620003ac565b5090565b5b80821115620003a85760008155600101620003ad565b60008060408385031215620003d757600080fd5b82516001600160a01b0381168114620003ef57600080fd5b6020939093015192949293505050565b60805161238c6200043e600039600081816101ab01528181610c4b01528181610e6901528181610f7d015281816114af0152611abe015261238c6000f3fe608060405234801561001057600080fd5b50600436106101495760003560e01c8063025313a21461014e57806305fe138b1461017e5780630a02630f146101935780630e5930f5146101a657806312065fe0146101cd57806322d860c8146101e357806322dcd13e146101f35780632c86d98e146101fc578063343447051461022257806345f2a434146102445780634dede3de1461024c5780635e293a4a14610267578063614619541461027c57806375829def14610284578063893d20e81461029757806389a30271146102a857806394149c1a146102c35780639543de6f146102ca578063aa0b5988146102e5578063ad5c4648146102f8578063b2db983a14610313578063baba68de14610326578063c4d66de814610335578063c95f9d0e14610348578063d251c05a1461035b578063d353ac7c14610370578063f851a44014610385575b600080fd5b600454610161906001600160a01b031681565b6040516001600160a01b0390911681526020015b60405180910390f35b61019161018c366004611c3c565b610398565b005b6101916101a1366004611c68565b61077e565b6101617f000000000000000000000000000000000000000000000000000000000000000081565b6101d5610860565b604051908152602001610175565b60015b6040516101759190611cac565b6101d560015481565b60005461021090600160a01b900460ff1681565b60405160ff9091168152602001610175565b610235610230366004611cbf565b610892565b60405161017593929190611d41565b6101d5610a83565b610161732260fac5e5542a773aa44fbcfedf7c193bc2c59981565b61026f610ab4565b6040516101759190611ddb565b610191610b8f565b610191610292366004611dee565b6110b3565b6004546001600160a01b0316610161565b61016173a0b86991c6218b36c1d19d4a2e9eb0ce3606eb4881565b60006101e6565b61016173d31a59c85ae9d8edefec411d448f90841571b89c81565b6101916102f3366004611e09565b611197565b61016173c02aaa39b223fe8d0a0e5c4f27ead9083c756cc281565b610161610321366004611e09565b611245565b60405160038152602001610175565b610191610343366004611dee565b61126f565b610191610356366004611c3c565b611384565b610363611847565b6040516101759190611ede565b6103786119bc565b6040516101759190611f40565b600054610161906001600160a01b031681565b6004546001600160a01b03166103c95760405162461bcd60e51b81526004016103c090611fa2565b60405180910390fd5b6005548211156104275760405162461bcd60e51b8152602060048201526024808201527f446f776e53747261746567793a20496e73756666696369656e74206c697175696044820152636469747960e01b60648201526084016103c0565b600061043283611bb5565b600254909150839060005b818110156104e65760006002828154811061045a5761045a611fd9565b60009182526020808320909101546001600160a01b03168083526007909152604082205460055491935091906104908a84612005565b61049a9190612032565b905080156104d0576001600160a01b038316600090815260076020526040812080548392906104ca908490612046565b90915550505b50505080806104de90612059565b91505061043d565b5081600560000160008282546104fc9190612046565b909155505060005461051890600160a01b900460ff1683612005565b6006805460009061052a908490612046565b9091555050604080516101008101825242815281518083018352601481527321b637b9b29029b437b93a102837b9b4ba34b7b760611b602082810191909152820190815260009282018390526060820183905273a0b86991c6218b36c1d19d4a2e9eb0ce3606eb486080830181905260a0830186905260c0830187905260e0830152600980546001810182559352815160089093026000805160206123608339815191528101938455905191928392909160008051602061234083398151915201906105f6908261210b565b506040828101516002830180546001600160a01b03199081166001600160a01b03938416179091556060850151600385015560808501516004808601805484169285169290921790915560a0860151600586015560c0860151600686015560e090950151600790940180549091169382169390931790925591549151911690600080516020612320833981519152906106909084906121ca565b60405180910390a2831561071c5760405163a9059cbb60e01b815273a0b86991c6218b36c1d19d4a2e9eb0ce3606eb489063a9059cbb906106d790889088906004016121dd565b6020604051808303816000875af11580156106f6573d6000803e3d6000fd5b505050506040513d601f19601f8201168201806040525081019061071a91906121f6565b505b600454604080518181526014818301527321b637b9b29029b437b93a102837b9b4ba34b7b760611b60608201526020810189905290516001600160a01b03909216916000805160206123008339815191529181900360800190a2505050505050565b6000546001600160a01b031633146107a85760405162461bcd60e51b81526004016103c090612218565b60008160ff161180156107bf5750600a8160ff1611155b61080b5760405162461bcd60e51b815260206004820152601e60248201527f4261736553747261746567793a20496e76616c6964206c65766572616765000060448201526064016103c0565b6000805460ff60a01b1916600160a01b60ff8416908102919091179091556040519081527fe0ce029e30f26500c1c82ed34083b224b849ea080699f46c290e6216cf35a07d906020015b60405180910390a150565b6004546000906001600160a01b031661088b5760405162461bcd60e51b81526004016103c090611fa2565b5060055490565b600454606090819081906001600160a01b03166108c15760405162461bcd60e51b81526004016103c090611fa2565b600254806001600160401b038111156108dc576108dc612072565b604051908082528060200260200182016040528015610905578160200160208202803683370190505b509350806001600160401b0381111561092057610920612072565b604051908082528060200260200182016040528015610949578160200160208202803683370190505b509250806001600160401b0381111561096457610964612072565b60405190808252806020026020018201604052801561098d578160200160208202803683370190505b509150600061099c828761225d565b905060005b82811015610a795760036000600283815481106109c0576109c0611fd9565b60009182526020808320909101546001600160a01b03168352820192909252604001902054865161ffff90911690879083908110610a0057610a00611fd9565b602002602001019061ffff16908161ffff16815250506000858281518110610a2a57610a2a611fd9565b60200260200101901515908115158152505081848281518110610a4f57610a4f611fd9565b6001600160401b039092166020928302919091019091015280610a7181612059565b9150506109a1565b5050509250925092565b6004546000906001600160a01b0316610aae5760405162461bcd60e51b81526004016103c090611fa2565b50600090565b6002546060906000906001600160401b03811115610ad457610ad4612072565b604051908082528060200260200182016040528015610afd578160200160208202803683370190505b50905060005b600254811015610b89576003600060028381548110610b2457610b24611fd9565b60009182526020808320909101546001600160a01b03168352820192909252604001902054825161ffff90911690839083908110610b6457610b64611fd9565b61ffff9092166020928302919091019091015280610b8181612059565b915050610b03565b50919050565b6004546001600160a01b0316610bb75760405162461bcd60e51b81526004016103c090611fa2565b60025460009081906001600160401b03811115610bd657610bd6612072565b604051908082528060200260200182016040528015610bff578160200160208202803683370190505b50905060005b600254811015610d7757600060028281548110610c2457610c24611fd9565b60009182526020822001546040516342ac91a560e01b81526001600160a01b0391821693507f0000000000000000000000000000000000000000000000000000000000000000909116906342ac91a590610c82908690600401612283565b602060405180830381865afa158015610c9f573d6000803e3d6000fd5b505050506040513d601f19601f82011682018060405250810190610cc39190612292565b905060008111610ce55760405162461bcd60e51b81526004016103c0906122ab565b6001600160a01b038216600090815260076020526040902054670de0b6b3a764000090610d13908390612005565b610d1d9190612032565b848481518110610d2f57610d2f611fd9565b602002602001018181525050838381518110610d4d57610d4d611fd9565b602002602001015185610d6091906122ec565b945050508080610d6f90612059565b915050610c05565b5081600003610d84575050565b600254600090610d949084612032565b905060006064610da5836005612005565b610daf9190612032565b905060005b60025481101561107457600060028281548110610dd357610dd3611fd9565b600091825260208220015486516001600160a01b039091169250610e1190879085908110610e0357610e03611fd9565b602002602001015186611bea565b90508381111561105f5784868481518110610e2e57610e2e611fd9565b60200260200101511115610f5057600085878581518110610e5157610e51611fd9565b6020026020010151610e639190612046565b905060007f00000000000000000000000000000000000000000000000000000000000000006001600160a01b03166342ac91a5866040518263ffffffff1660e01b8152600401610eb39190612283565b602060405180830381865afa158015610ed0573d6000803e3d6000fd5b505050506040513d601f19601f82011682018060405250810190610ef49190612292565b9050600081610f0b84670de0b6b3a7640000612005565b610f159190612032565b6001600160a01b038616600090815260076020526040812080549293508392909190610f42908490612046565b9091555061105f9350505050565b6000868481518110610f6457610f64611fd9565b602002602001015186610f779190612046565b905060007f00000000000000000000000000000000000000000000000000000000000000006001600160a01b03166342ac91a5866040518263ffffffff1660e01b8152600401610fc79190612283565b602060405180830381865afa158015610fe4573d6000803e3d6000fd5b505050506040513d601f19601f820116820180604052508101906110089190612292565b905060008161101f84670de0b6b3a7640000612005565b6110299190612032565b6001600160a01b0386166000908152600760205260408120805492935083929091906110569084906122ec565b90915550505050505b5050808061106c90612059565b915050610db4565b506004546040516001600160a01b03909116907fb8815e3a0b9733f6390f55ab413c696ef91fca3267f27f6c7e60fcd0984262cd90600090a250505050565b6000546001600160a01b031633146110dd5760405162461bcd60e51b81526004016103c090612218565b6001600160a01b0381166111475760405162461bcd60e51b815260206004820152602b60248201527f4261736553747261746567793a204e65772061646d696e20697320746865207a60448201526a65726f206164647265737360a81b60648201526084016103c0565b600080546001600160a01b038381166001600160a01b0319831681178455604051919092169283917ff8ccb027dfcd135e000e9d45e6cc2d662578a8825d4c45b5e32e0adf67e79ec69190a35050565b6000546001600160a01b031633146111c15760405162461bcd60e51b81526004016103c090612218565b6103e88111156112105760405162461bcd60e51b815260206004820152601a602482015279084c2e6caa6e8e4c2e8cacef274408ccaca40e8dede40d0d2ced60331b60448201526064016103c0565b60018190556040518181527f45610d581145924dd7090a5017e5f2b1d6f42213bb2e95707ff86846bbfcb1ca90602001610855565b6002818154811061125557600080fd5b6000918252602090912001546001600160a01b0316905081565b60085460ff16156112cc5760405162461bcd60e51b815260206004820152602160248201527f446f776e53747261746567793a20416c726561647920696e697469616c697a656044820152601960fa1b60648201526084016103c0565b6001600160a01b03811661132d5760405162461bcd60e51b815260206004820152602260248201527f446f776e53747261746567793a204f776e65722063616e6e6f74206265207a65604482015261726f60f01b60648201526084016103c0565b600480546001600160a01b0319166001600160a01b0383169081179091556008805460ff191660011790556040517f908408e307fc569b417f6cbec5d5a06f44a0a505ac0479b47d421a4b2fd6a1e690600090a250565b6004546001600160a01b03166113ac5760405162461bcd60e51b81526004016103c090611fa2565b6000821161140a5760405162461bcd60e51b815260206004820152602560248201527f446f776e53747261746567793a20416d6f756e74206d75737420626520706f73604482015264697469766560d81b60648201526084016103c0565b600061141583611bb5565b905060006114238285612046565b9050806005600001600082825461143a91906122ec565b909155505060025460008054829061145c90600160a01b900460ff1685612005565b6114669190612032565b905060005b828110156115b25760006002828154811061148857611488611fd9565b60009182526020822001546040516342ac91a560e01b81526001600160a01b0391821693507f0000000000000000000000000000000000000000000000000000000000000000909116906342ac91a5906114e6908690600401612283565b602060405180830381865afa158015611503573d6000803e3d6000fd5b505050506040513d601f19601f820116820180604052508101906115279190612292565b9050600081116115495760405162461bcd60e51b81526004016103c0906122ab565b60008161155e86670de0b6b3a7640000612005565b6115689190612032565b6001600160a01b0384166000908152600760205260408120805492935083929091906115959084906122ec565b9250508190555050505080806115aa90612059565b91505061146b565b506000546115ca90600160a01b900460ff1684612005565b600680546000906115dc9084906122ec565b9091555050604080516101008101825242815281518083018352601281527120b2321029b437b93a102837b9b4ba34b7b760711b602082810191909152820190815273a0b86991c6218b36c1d19d4a2e9eb0ce3606eb489282018390526060820189905260006080830181905260a0830181905260c0830188905260e0830193909352600980546001810182559352815160089093026000805160206123608339815191528101938455905191928392909160008051602061234083398151915201906116a9908261210b565b506040828101516002830180546001600160a01b03199081166001600160a01b03938416179091556060850151600385015560808501516004808601805484169285169290921790915560a0860151600586015560c0860151600686015560e090950151600790940180549091169382169390931790925591549151911690600080516020612320833981519152906117439084906121ca565b60405180910390a260008511801561176357506001600160a01b03861615155b156117e65760405163a9059cbb60e01b815273a0b86991c6218b36c1d19d4a2e9eb0ce3606eb489063a9059cbb906117a190899089906004016121dd565b6020604051808303816000875af11580156117c0573d6000803e3d6000fd5b505050506040513d601f19601f820116820180604052508101906117e491906121f6565b505b600454604080518181526012818301527120b2321029b437b93a102837b9b4ba34b7b760711b6060820152602081018a905290516001600160a01b03909216916000805160206123008339815191529181900360800190a250505050505050565b6004546060906001600160a01b03166118725760405162461bcd60e51b81526004016103c090611fa2565b6009805480602002602001604051908101604052809291908181526020016000905b828210156119b3578382906000526020600020906008020160405180610100016040529081600082015481526020016001820180546118d290612088565b80601f01602080910402602001604051908101604052809291908181526020018280546118fe90612088565b801561194b5780601f106119205761010080835404028352916020019161194b565b820191906000526020600020905b81548152906001019060200180831161192e57829003601f168201915b505050918352505060028201546001600160a01b039081166020808401919091526003840154604084015260048401548216606084015260058401546080840152600684015460a08401526007909301541660c0909101529082526001929092019101611894565b50505050905090565b6004546060906001600160a01b03166119e75760405162461bcd60e51b81526004016103c090611fa2565b6002546001600160401b03811115611a0157611a01612072565b604051908082528060200260200182016040528015611a5f57816020015b611a4c604051806060016040528060006001600160a01b0316815260200160008152602001600081525090565b815260200190600190039081611a1f5790505b50905060005b600254811015611bb157600060028281548110611a8457611a84611fd9565b60009182526020808320909101546001600160a01b03908116808452600790925260408084205490516342ac91a560e01b815292945092917f0000000000000000000000000000000000000000000000000000000000000000909116906342ac91a590611af5908790600401612283565b602060405180830381865afa158015611b12573d6000803e3d6000fd5b505050506040513d601f19601f82011682018060405250810190611b369190612292565b90506000670de0b6b3a7640000611b4d8385612005565b611b579190612032565b90506040518060600160405280856001600160a01b0316815260200184815260200182815250868681518110611b8f57611b8f611fd9565b6020026020010181905250505050508080611ba990612059565b915050611a65565b5090565b6000600154600003611bc957506000919050565b61271060015483611bda9190612005565b611be49190612032565b92915050565b6000818311611c0257611bfd8383612046565b611c0c565b611c0c8284612046565b9392505050565b6001600160a01b03169052565b80356001600160a01b0381168114611c3757600080fd5b919050565b60008060408385031215611c4f57600080fd5b82359150611c5f60208401611c20565b90509250929050565b600060208284031215611c7a57600080fd5b813560ff81168114611c0c57600080fd5b60028110611ca957634e487b7160e01b600052602160045260246000fd5b50565b60208101611cb983611c8b565b91905290565b60008060408385031215611cd257600080fd5b611cdb83611c20565b915060208301356001600160401b0381168114611cf757600080fd5b809150509250929050565b600081518084526020808501945080840160005b83811015611d3657815161ffff1687529582019590820190600101611d16565b509495945050505050565b606081526000611d546060830186611d02565b82810360208481019190915285518083528682019282019060005b81811015611d8d578451151583529383019391830191600101611d6f565b50508481036040860152855180825290820192508186019060005b81811015611dcd5782516001600160401b031685529383019391830191600101611da8565b509298975050505050505050565b602081526000611c0c6020830184611d02565b600060208284031215611e0057600080fd5b611c0c82611c20565b600060208284031215611e1b57600080fd5b5035919050565b600061010082518452602080840151828287015280518084880152600093505b80841015611e6157818401830151878501610120015292820192611e42565b6101209350600084828901015260408601519250611e826040880184611c13565b6060860151606088015260808601519250611ea06080880184611c13565b60a086015160a088015260c086015160c088015260e08601519250611ec860e0880184611c13565b601f01601f191695909501909101949350505050565b6000602080830181845280855180835260408601915060408160051b870101925083870160005b82811015611f3357603f19888603018452611f21858351611e22565b94509285019290850190600101611f05565b5092979650505050505050565b602080825282518282018190526000919060409081850190868401855b82811015611f9557815180516001600160a01b0316855286810151878601528501518585015260609093019290850190600101611f5d565b5091979650505050505050565b6020808252601d908201527f446f776e53747261746567793a204e6f7420696e697469616c697a6564000000604082015260600190565b634e487b7160e01b600052603260045260246000fd5b634e487b7160e01b600052601160045260246000fd5b8082028115828204841417611be457611be4611fef565b634e487b7160e01b600052601260045260246000fd5b6000826120415761204161201c565b500490565b81810381811115611be457611be4611fef565b60006001820161206b5761206b611fef565b5060010190565b634e487b7160e01b600052604160045260246000fd5b600181811c9082168061209c57607f821691505b602082108103610b8957634e487b7160e01b600052602260045260246000fd5b601f82111561210657600081815260208120601f850160051c810160208610156120e35750805b601f850160051c820191505b81811015612102578281556001016120ef565b5050505b505050565b81516001600160401b0381111561212457612124612072565b612138816121328454612088565b846120bc565b602080601f83116001811461216d57600084156121555750858301515b600019600386901b1c1916600185901b178555612102565b600085815260208120601f198616915b8281101561219c5788860151825594840194600190910190840161217d565b50858210156121ba5787850151600019600388901b60f8161c191681555b5050505050600190811b01905550565b602081526000611c0c6020830184611e22565b6001600160a01b03929092168252602082015260400190565b60006020828403121561220857600080fd5b81518015158114611c0c57600080fd5b60208082526025908201527f4261736553747261746567793a2043616c6c6572206973206e6f74207468652060408201526430b236b4b760d91b606082015260800190565b60006001600160401b03838116806122775761227761201c565b92169190910492915050565b61ffff91909116815260200190565b6000602082840312156122a457600080fd5b5051919050565b60208082526021908201527f446f776e53747261746567793a20496e76616c696420617373657420707269636040820152606560f81b606082015260800190565b80820180821115611be457611be4611fef56fe911b89887f1e582512acfc0bb4b560349d3ba9c1e9d2b3038d38c3b05dc8fcfbae31fcd154d1849fa3b90ec3e0e5d3408c8cc0b6212d292966266b71e43cff806e1540171b6c0c960b71a7020d9f60077f6af931a8bbf590da0223dacf75c7b06e1540171b6c0c960b71a7020d9f60077f6af931a8bbf590da0223dacf75c7afa164736f6c6343000814000a","opcodes":"PUSH1 0xA0 PUSH1 0x40 MSTORE CALLVALUE DUP1 ISZERO PUSH3 0x11 JUMPI PUSH1 0x0 DUP1 REVERT JUMPDEST POP PUSH1 0x40 MLOAD PUSH3 0x27CA CODESIZE SUB DUP1 PUSH3 0x27CA DUP4 CODECOPY DUP2 ADD PUSH1 0x40 DUP2 SWAP1 MSTORE PUSH3 0x34 SWAP2 PUSH3 0x3C3 JUMP JUMPDEST DUP2 DUP2 PUSH1 0x3 PUSH1 0x1 PUSH1 0x1 PUSH1 0xA0 SHL SUB DUP4 AND PUSH3 0xA8 JUMPI PUSH1 0x40 MLOAD PUSH3 0x461BCD PUSH1 0xE5 SHL DUP2 MSTORE PUSH1 0x20 PUSH1 0x4 DUP3 ADD MSTORE PUSH1 0x2B PUSH1 0x24 DUP3 ADD MSTORE PUSH32 0x4261736553747261746567793A20526F757465722063616E6E6F74206265207A PUSH1 0x44 DUP3 ADD MSTORE PUSH11 0x65726F2061646472657373 PUSH1 0xA8 SHL PUSH1 0x64 DUP3 ADD MSTORE PUSH1 0x84 ADD JUMPDEST PUSH1 0x40 MLOAD DUP1 SWAP2 SUB SWAP1 REVERT JUMPDEST PUSH2 0x3E8 DUP3 GT ISZERO PUSH3 0xFC JUMPI PUSH1 0x40 MLOAD PUSH3 0x461BCD PUSH1 0xE5 SHL DUP2 MSTORE PUSH1 0x20 PUSH1 0x4 DUP3 ADD MSTORE PUSH1 0x1A PUSH1 0x24 DUP3 ADD MSTORE PUSH32 0x4261736553747261746567793A2046656520746F6F2068696768000000000000 PUSH1 0x44 DUP3 ADD MSTORE PUSH1 0x64 ADD PUSH3 0x9F JUMP JUMPDEST PUSH1 0x0 DUP2 PUSH1 0xFF AND GT DUP1 ISZERO PUSH3 0x114 JUMPI POP PUSH1 0xA DUP2 PUSH1 0xFF AND GT ISZERO JUMPDEST PUSH3 0x162 JUMPI PUSH1 0x40 MLOAD PUSH3 0x461BCD PUSH1 0xE5 SHL DUP2 MSTORE PUSH1 0x20 PUSH1 0x4 DUP3 ADD MSTORE PUSH1 0x1E PUSH1 0x24 DUP3 ADD MSTORE PUSH32 0x4261736553747261746567793A20496E76616C6964206C657665726167650000 PUSH1 0x44 DUP3 ADD MSTORE PUSH1 0x64 ADD PUSH3 0x9F JUMP JUMPDEST PUSH1 0x0 DUP1 SLOAD PUSH1 0x1 PUSH1 0x1 PUSH1 0xA0 SHL SUB DUP6 AND PUSH1 0x80 MSTORE PUSH1 0x1 DUP5 SWAP1 SSTORE PUSH1 0x1 PUSH1 0x1 PUSH1 0xA8 SHL SUB NOT AND CALLER PUSH1 0xFF PUSH1 0xA0 SHL NOT DUP2 AND SWAP2 SWAP1 SWAP2 OR PUSH1 0x1 PUSH1 0xA0 SHL PUSH1 0xFF DUP6 AND MUL OR DUP3 SSTORE PUSH1 0x40 MLOAD SWAP1 SWAP2 SWAP1 PUSH32 0xF8CCB027DFCD135E000E9D45E6CC2D662578A8825D4C45B5E32E0ADF67E79EC6 SWAP1 DUP3 SWAP1 LOG3 PUSH1 0x40 MLOAD DUP3 DUP2 MSTORE PUSH32 0x45610D581145924DD7090A5017E5F2B1D6F42213BB2E95707FF86846BBFCB1CA SWAP1 PUSH1 0x20 ADD PUSH1 0x40 MLOAD DUP1 SWAP2 SUB SWAP1 LOG1 PUSH1 0x40 MLOAD PUSH1 0xFF DUP3 AND DUP2 MSTORE PUSH32 0xE0CE029E30F26500C1C82ED34083B224B849EA080699F46C290E6216CF35A07D SWAP1 PUSH1 0x20 ADD PUSH1 0x40 MLOAD DUP1 SWAP2 SUB SWAP1 LOG1 POP POP PUSH1 0x40 DUP1 MLOAD PUSH1 0x60 DUP2 ADD DUP3 MSTORE PUSH20 0x2260FAC5E5542A773AA44FBCFEDF7C193BC2C599 DUP2 MSTORE PUSH20 0xC02AAA39B223FE8D0A0E5C4F27EAD9083C756CC2 PUSH1 0x20 DUP3 ADD MSTORE PUSH20 0xD31A59C85AE9D8EDEFEC411D448F90841571B89C SWAP2 DUP2 ADD SWAP2 SWAP1 SWAP2 MSTORE PUSH3 0x29A SWAP2 POP PUSH1 0x2 SWAP1 PUSH1 0x3 PUSH3 0x342 JUMP JUMPDEST POP POP PUSH1 0x3 PUSH1 0x20 MSTORE POP PUSH32 0x292C1CBCD8FCDE54E8BA0732ED4E92022BA7CCC86BF9C562E47C88A765F35AD1 DUP1 SLOAD PUSH2 0xFFFF NOT SWAP1 DUP2 AND SWAP1 SWAP2 SSTORE PUSH32 0x67AA9B7D2B6D14F3837D07B1073399A41E4104B1D98F169F02CC04F44F14F4B0 DUP1 SLOAD DUP3 AND PUSH1 0x1 OR SWAP1 SSTORE PUSH20 0xD31A59C85AE9D8EDEFEC411D448F90841571B89C PUSH1 0x0 MSTORE PUSH32 0xB9584CFB4115640001ADA8B6A0DCA86DFB6CB53435C9D1BAD0C07DF22182E8B1 DUP1 SLOAD SWAP1 SWAP2 AND PUSH1 0x2 OR SWAP1 SSTORE PUSH3 0x3FF JUMP JUMPDEST DUP3 DUP1 SLOAD DUP3 DUP3 SSTORE SWAP1 PUSH1 0x0 MSTORE PUSH1 0x20 PUSH1 0x0 KECCAK256 SWAP1 DUP2 ADD SWAP3 DUP3 ISZERO PUSH3 0x39A JUMPI SWAP2 PUSH1 0x20 MUL DUP3 ADD JUMPDEST DUP3 DUP2 GT ISZERO PUSH3 0x39A JUMPI DUP3 MLOAD DUP3 SLOAD PUSH1 0x1 PUSH1 0x1 PUSH1 0xA0 SHL SUB NOT AND PUSH1 0x1 PUSH1 0x1 PUSH1 0xA0 SHL SUB SWAP1 SWAP2 AND OR DUP3 SSTORE PUSH1 0x20 SWAP1 SWAP3 ADD SWAP2 PUSH1 0x1 SWAP1 SWAP2 ADD SWAP1 PUSH3 0x363 JUMP JUMPDEST POP PUSH3 0x3A8 SWAP3 SWAP2 POP PUSH3 0x3AC JUMP JUMPDEST POP SWAP1 JUMP JUMPDEST JUMPDEST DUP1 DUP3 GT ISZERO PUSH3 0x3A8 JUMPI PUSH1 0x0 DUP2 SSTORE PUSH1 0x1 ADD PUSH3 0x3AD JUMP JUMPDEST PUSH1 0x0 DUP1 PUSH1 0x40 DUP4 DUP6 SUB SLT ISZERO PUSH3 0x3D7 JUMPI PUSH1 0x0 DUP1 REVERT JUMPDEST DUP3 MLOAD PUSH1 0x1 PUSH1 0x1 PUSH1 0xA0 SHL SUB DUP2 AND DUP2 EQ PUSH3 0x3EF JUMPI PUSH1 0x0 DUP1 REVERT JUMPDEST PUSH1 0x20 SWAP4 SWAP1 SWAP4 ADD MLOAD SWAP3 SWAP5 SWAP3 SWAP4 POP POP POP JUMP JUMPDEST PUSH1 0x80 MLOAD PUSH2 0x238C PUSH3 0x43E PUSH1 0x0 CODECOPY PUSH1 0x0 DUP2 DUP2 PUSH2 0x1AB ADD MSTORE DUP2 DUP2 PUSH2 0xC4B ADD MSTORE DUP2 DUP2 PUSH2 0xE69 ADD MSTORE DUP2 DUP2 PUSH2 0xF7D ADD MSTORE DUP2 DUP2 PUSH2 0x14AF ADD MSTORE PUSH2 0x1ABE ADD MSTORE PUSH2 0x238C PUSH1 0x0 RETURN INVALID PUSH1 0x80 PUSH1 0x40 MSTORE CALLVALUE DUP1 ISZERO PUSH2 0x10 JUMPI PUSH1 0x0 DUP1 REVERT JUMPDEST POP PUSH1 0x4 CALLDATASIZE LT PUSH2 0x149 JUMPI PUSH1 0x0 CALLDATALOAD PUSH1 0xE0 SHR DUP1 PUSH4 0x25313A2 EQ PUSH2 0x14E JUMPI DUP1 PUSH4 0x5FE138B EQ PUSH2 0x17E JUMPI DUP1 PUSH4 0xA02630F EQ PUSH2 0x193 JUMPI DUP1 PUSH4 0xE5930F5 EQ PUSH2 0x1A6 JUMPI DUP1 PUSH4 0x12065FE0 EQ PUSH2 0x1CD JUMPI DUP1 PUSH4 0x22D860C8 EQ PUSH2 0x1E3 JUMPI DUP1 PUSH4 0x22DCD13E EQ PUSH2 0x1F3 JUMPI DUP1 PUSH4 0x2C86D98E EQ PUSH2 0x1FC JUMPI DUP1 PUSH4 0x34344705 EQ PUSH2 0x222 JUMPI DUP1 PUSH4 0x45F2A434 EQ PUSH2 0x244 JUMPI DUP1 PUSH4 0x4DEDE3DE EQ PUSH2 0x24C JUMPI DUP1 PUSH4 0x5E293A4A EQ PUSH2 0x267 JUMPI DUP1 PUSH4 0x61461954 EQ PUSH2 0x27C JUMPI DUP1 PUSH4 0x75829DEF EQ PUSH2 0x284 JUMPI DUP1 PUSH4 0x893D20E8 EQ PUSH2 0x297 JUMPI DUP1 PUSH4 0x89A30271 EQ PUSH2 0x2A8 JUMPI DUP1 PUSH4 0x94149C1A EQ PUSH2 0x2C3 JUMPI DUP1 PUSH4 0x9543DE6F EQ PUSH2 0x2CA JUMPI DUP1 PUSH4 0xAA0B5988 EQ PUSH2 0x2E5 JUMPI DUP1 PUSH4 0xAD5C4648 EQ PUSH2 0x2F8 JUMPI DUP1 PUSH4 0xB2DB983A EQ PUSH2 0x313 JUMPI DUP1 PUSH4 0xBABA68DE EQ PUSH2 0x326 JUMPI DUP1 PUSH4 0xC4D66DE8 EQ PUSH2 0x335 JUMPI DUP1 PUSH4 0xC95F9D0E EQ PUSH2 0x348 JUMPI DUP1 PUSH4 0xD251C05A EQ PUSH2 0x35B JUMPI DUP1 PUSH4 0xD353AC7C EQ PUSH2 0x370 JUMPI DUP1 PUSH4 0xF851A440 EQ PUSH2 0x385 JUMPI JUMPDEST PUSH1 0x0 DUP1 REVERT JUMPDEST PUSH1 0x4 SLOAD PUSH2 0x161 SWAP1 PUSH1 0x1 PUSH1 0x1 PUSH1 0xA0 SHL SUB AND DUP2 JUMP JUMPDEST PUSH1 0x40 MLOAD PUSH1 0x1 PUSH1 0x1 PUSH1 0xA0 SHL SUB SWAP1 SWAP2 AND DUP2 MSTORE PUSH1 0x20 ADD JUMPDEST PUSH1 0x40 MLOAD DUP1 SWAP2 SUB SWAP1 RETURN JUMPDEST PUSH2 0x191 PUSH2 0x18C CALLDATASIZE PUSH1 0x4 PUSH2 0x1C3C JUMP JUMPDEST PUSH2 0x398 JUMP JUMPDEST STOP JUMPDEST PUSH2 0x191 PUSH2 0x1A1 CALLDATASIZE PUSH1 0x4 PUSH2 0x1C68 JUMP JUMPDEST PUSH2 0x77E JUMP JUMPDEST PUSH2 0x161 PUSH32 0x0 DUP2 JUMP JUMPDEST PUSH2 0x1D5 PUSH2 0x860 JUMP JUMPDEST PUSH1 0x40 MLOAD SWAP1 DUP2 MSTORE PUSH1 0x20 ADD PUSH2 0x175 JUMP JUMPDEST PUSH1 0x1 JUMPDEST PUSH1 0x40 MLOAD PUSH2 0x175 SWAP2 SWAP1 PUSH2 0x1CAC JUMP JUMPDEST PUSH2 0x1D5 PUSH1 0x1 SLOAD DUP2 JUMP JUMPDEST PUSH1 0x0 SLOAD PUSH2 0x210 SWAP1 PUSH1 0x1 PUSH1 0xA0 SHL SWAP1 DIV PUSH1 0xFF AND DUP2 JUMP JUMPDEST PUSH1 0x40 MLOAD PUSH1 0xFF SWAP1 SWAP2 AND DUP2 MSTORE PUSH1 0x20 ADD PUSH2 0x175 JUMP JUMPDEST PUSH2 0x235 PUSH2 0x230 CALLDATASIZE PUSH1 0x4 PUSH2 0x1CBF JUMP JUMPDEST PUSH2 0x892 JUMP JUMPDEST PUSH1 0x40 MLOAD PUSH2 0x175 SWAP4 SWAP3 SWAP2 SWAP1 PUSH2 0x1D41 JUMP JUMPDEST PUSH2 0x1D5 PUSH2 0xA83 JUMP JUMPDEST PUSH2 0x161 PUSH20 0x2260FAC5E5542A773AA44FBCFEDF7C193BC2C599 DUP2 JUMP JUMPDEST PUSH2 0x26F PUSH2 0xAB4 JUMP JUMPDEST PUSH1 0x40 MLOAD PUSH2 0x175 SWAP2 SWAP1 PUSH2 0x1DDB JUMP JUMPDEST PUSH2 0x191 PUSH2 0xB8F JUMP JUMPDEST PUSH2 0x191 PUSH2 0x292 CALLDATASIZE PUSH1 0x4 PUSH2 0x1DEE JUMP JUMPDEST PUSH2 0x10B3 JUMP JUMPDEST PUSH1 0x4 SLOAD PUSH1 0x1 PUSH1 0x1 PUSH1 0xA0 SHL SUB AND PUSH2 0x161 JUMP JUMPDEST PUSH2 0x161 PUSH20 0xA0B86991C6218B36C1D19D4A2E9EB0CE3606EB48 DUP2 JUMP JUMPDEST PUSH1 0x0 PUSH2 0x1E6 JUMP JUMPDEST PUSH2 0x161 PUSH20 0xD31A59C85AE9D8EDEFEC411D448F90841571B89C DUP2 JUMP JUMPDEST PUSH2 0x191 PUSH2 0x2F3 CALLDATASIZE PUSH1 0x4 PUSH2 0x1E09 JUMP JUMPDEST PUSH2 0x1197 JUMP JUMPDEST PUSH2 0x161 PUSH20 0xC02AAA39B223FE8D0A0E5C4F27EAD9083C756CC2 DUP2 JUMP JUMPDEST PUSH2 0x161 PUSH2 0x321 CALLDATASIZE PUSH1 0x4 PUSH2 0x1E09 JUMP JUMPDEST PUSH2 0x1245 JUMP JUMPDEST PUSH1 0x40 MLOAD PUSH1 0x3 DUP2 MSTORE PUSH1 0x20 ADD PUSH2 0x175 JUMP JUMPDEST PUSH2 0x191 PUSH2 0x343 CALLDATASIZE PUSH1 0x4 PUSH2 0x1DEE JUMP JUMPDEST PUSH2 0x126F JUMP JUMPDEST PUSH2 0x191 PUSH2 0x356 CALLDATASIZE PUSH1 0x4 PUSH2 0x1C3C JUMP JUMPDEST PUSH2 0x1384 JUMP JUMPDEST PUSH2 0x363 PUSH2 0x1847 JUMP JUMPDEST PUSH1 0x40 MLOAD PUSH2 0x175 SWAP2 SWAP1 PUSH2 0x1EDE JUMP JUMPDEST PUSH2 0x378 PUSH2 0x19BC JUMP JUMPDEST PUSH1 0x40 MLOAD PUSH2 0x175 SWAP2 SWAP1 PUSH2 0x1F40 JUMP JUMPDEST PUSH1 0x0 SLOAD PUSH2 0x161 SWAP1 PUSH1 0x1 PUSH1 0x1 PUSH1 0xA0 SHL SUB AND DUP2 JUMP JUMPDEST PUSH1 0x4 SLOAD PUSH1 0x1 PUSH1 0x1 PUSH1 0xA0 SHL SUB AND PUSH2 0x3C9 JUMPI PUSH1 0x40 MLOAD PUSH3 0x461BCD PUSH1 0xE5 SHL DUP2 MSTORE PUSH1 0x4 ADD PUSH2 0x3C0 SWAP1 PUSH2 0x1FA2 JUMP JUMPDEST PUSH1 0x40 MLOAD DUP1 SWAP2 SUB SWAP1 REVERT JUMPDEST PUSH1 0x5 SLOAD DUP3 GT ISZERO PUSH2 0x427 JUMPI PUSH1 0x40 MLOAD PUSH3 0x461BCD PUSH1 0xE5 SHL DUP2 MSTORE PUSH1 0x20 PUSH1 0x4 DUP3 ADD MSTORE PUSH1 0x24 DUP1 DUP3 ADD MSTORE PUSH32 0x446F776E53747261746567793A20496E73756666696369656E74206C69717569 PUSH1 0x44 DUP3 ADD MSTORE PUSH4 0x64697479 PUSH1 0xE0 SHL PUSH1 0x64 DUP3 ADD MSTORE PUSH1 0x84 ADD PUSH2 0x3C0 JUMP JUMPDEST PUSH1 0x0 PUSH2 0x432 DUP4 PUSH2 0x1BB5 JUMP JUMPDEST PUSH1 0x2 SLOAD SWAP1 SWAP2 POP DUP4 SWAP1 PUSH1 0x0 JUMPDEST DUP2 DUP2 LT ISZERO PUSH2 0x4E6 JUMPI PUSH1 0x0 PUSH1 0x2 DUP3 DUP2 SLOAD DUP2 LT PUSH2 0x45A JUMPI PUSH2 0x45A PUSH2 0x1FD9 JUMP JUMPDEST PUSH1 0x0 SWAP2 DUP3 MSTORE PUSH1 0x20 DUP1 DUP4 KECCAK256 SWAP1 SWAP2 ADD SLOAD PUSH1 0x1 PUSH1 0x1 PUSH1 0xA0 SHL SUB AND DUP1 DUP4 MSTORE PUSH1 0x7 SWAP1 SWAP2 MSTORE PUSH1 0x40 DUP3 KECCAK256 SLOAD PUSH1 0x5 SLOAD SWAP2 SWAP4 POP SWAP2 SWAP1 PUSH2 0x490 DUP11 DUP5 PUSH2 0x2005 JUMP JUMPDEST PUSH2 0x49A SWAP2 SWAP1 PUSH2 0x2032 JUMP JUMPDEST SWAP1 POP DUP1 ISZERO PUSH2 0x4D0 JUMPI PUSH1 0x1 PUSH1 0x1 PUSH1 0xA0 SHL SUB DUP4 AND PUSH1 0x0 SWAP1 DUP2 MSTORE PUSH1 0x7 PUSH1 0x20 MSTORE PUSH1 0x40 DUP2 KECCAK256 DUP1 SLOAD DUP4 SWAP3 SWAP1 PUSH2 0x4CA SWAP1 DUP5 SWAP1 PUSH2 0x2046 JUMP JUMPDEST SWAP1 SWAP2 SSTORE POP POP JUMPDEST POP POP POP DUP1 DUP1 PUSH2 0x4DE SWAP1 PUSH2 0x2059 JUMP JUMPDEST SWAP2 POP POP PUSH2 0x43D JUMP JUMPDEST POP DUP2 PUSH1 0x5 PUSH1 0x0 ADD PUSH1 0x0 DUP3 DUP3 SLOAD PUSH2 0x4FC SWAP2 SWAP1 PUSH2 0x2046 JUMP JUMPDEST SWAP1 SWAP2 SSTORE POP POP PUSH1 0x0 SLOAD PUSH2 0x518 SWAP1 PUSH1 0x1 PUSH1 0xA0 SHL SWAP1 DIV PUSH1 0xFF AND DUP4 PUSH2 0x2005 JUMP JUMPDEST PUSH1 0x6 DUP1 SLOAD PUSH1 0x0 SWAP1 PUSH2 0x52A SWAP1 DUP5 SWAP1 PUSH2 0x2046 JUMP JUMPDEST SWAP1 SWAP2 SSTORE POP POP PUSH1 0x40 DUP1 MLOAD PUSH2 0x100 DUP2 ADD DUP3 MSTORE TIMESTAMP DUP2 MSTORE DUP2 MLOAD DUP1 DUP4 ADD DUP4 MSTORE PUSH1 0x14 DUP2 MSTORE PUSH20 0x21B637B9B29029B437B93A102837B9B4BA34B7B7 PUSH1 0x61 SHL PUSH1 0x20 DUP3 DUP2 ADD SWAP2 SWAP1 SWAP2 MSTORE DUP3 ADD SWAP1 DUP2 MSTORE PUSH1 0x0 SWAP3 DUP3 ADD DUP4 SWAP1 MSTORE PUSH1 0x60 DUP3 ADD DUP4 SWAP1 MSTORE PUSH20 0xA0B86991C6218B36C1D19D4A2E9EB0CE3606EB48 PUSH1 0x80 DUP4 ADD DUP2 SWAP1 MSTORE PUSH1 0xA0 DUP4 ADD DUP7 SWAP1 MSTORE PUSH1 0xC0 DUP4 ADD DUP8 SWAP1 MSTORE PUSH1 0xE0 DUP4 ADD MSTORE PUSH1 0x9 DUP1 SLOAD PUSH1 0x1 DUP2 ADD DUP3 SSTORE SWAP4 MSTORE DUP2 MLOAD PUSH1 0x8 SWAP1 SWAP4 MUL PUSH1 0x0 DUP1 MLOAD PUSH1 0x20 PUSH2 0x2360 DUP4 CODECOPY DUP2 MLOAD SWAP2 MSTORE DUP2 ADD SWAP4 DUP5 SSTORE SWAP1 MLOAD SWAP2 SWAP3 DUP4 SWAP3 SWAP1 SWAP2 PUSH1 0x0 DUP1 MLOAD PUSH1 0x20 PUSH2 0x2340 DUP4 CODECOPY DUP2 MLOAD SWAP2 MSTORE ADD SWAP1 PUSH2 0x5F6 SWAP1 DUP3 PUSH2 0x210B JUMP JUMPDEST POP PUSH1 0x40 DUP3 DUP2 ADD MLOAD PUSH1 0x2 DUP4 ADD DUP1 SLOAD PUSH1 0x1 PUSH1 0x1 PUSH1 0xA0 SHL SUB NOT SWAP1 DUP2 AND PUSH1 0x1 PUSH1 0x1 PUSH1 0xA0 SHL SUB SWAP4 DUP5 AND OR SWAP1 SWAP2 SSTORE PUSH1 0x60 DUP6 ADD MLOAD PUSH1 0x3 DUP6 ADD SSTORE PUSH1 0x80 DUP6 ADD MLOAD PUSH1 0x4 DUP1 DUP7 ADD DUP1 SLOAD DUP5 AND SWAP3 DUP6 AND SWAP3 SWAP1 SWAP3 OR SWAP1 SWAP2 SSTORE PUSH1 0xA0 DUP7 ADD MLOAD PUSH1 0x5 DUP7 ADD SSTORE PUSH1 0xC0 DUP7 ADD MLOAD PUSH1 0x6 DUP7 ADD SSTORE PUSH1 0xE0 SWAP1 SWAP6 ADD MLOAD PUSH1 0x7 SWAP1 SWAP5 ADD DUP1 SLOAD SWAP1 SWAP2 AND SWAP4 DUP3 AND SWAP4 SWAP1 SWAP4 OR SWAP1 SWAP3 SSTORE SWAP2 SLOAD SWAP2 MLOAD SWAP2 AND SWAP1 PUSH1 0x0 DUP1 MLOAD PUSH1 0x20 PUSH2 0x2320 DUP4 CODECOPY DUP2 MLOAD SWAP2 MSTORE SWAP1 PUSH2 0x690 SWAP1 DUP5 SWAP1 PUSH2 0x21CA JUMP JUMPDEST PUSH1 0x40 MLOAD DUP1 SWAP2 SUB SWAP1 LOG2 DUP4 ISZERO PUSH2 0x71C JUMPI PUSH1 0x40 MLOAD PUSH4 0xA9059CBB PUSH1 0xE0 SHL DUP2 MSTORE PUSH20 0xA0B86991C6218B36C1D19D4A2E9EB0CE3606EB48 SWAP1 PUSH4 0xA9059CBB SWAP1 PUSH2 0x6D7 SWAP1 DUP9 SWAP1 DUP9 SWAP1 PUSH1 0x4 ADD PUSH2 0x21DD JUMP JUMPDEST PUSH1 0x20 PUSH1 0x40 MLOAD DUP1 DUP4 SUB DUP2 PUSH1 0x0 DUP8 GAS CALL ISZERO DUP1 ISZERO PUSH2 0x6F6 JUMPI RETURNDATASIZE PUSH1 0x0 DUP1 RETURNDATACOPY RETURNDATASIZE PUSH1 0x0 REVERT JUMPDEST POP POP POP POP PUSH1 0x40 MLOAD RETURNDATASIZE PUSH1 0x1F NOT PUSH1 0x1F DUP3 ADD AND DUP3 ADD DUP1 PUSH1 0x40 MSTORE POP DUP2 ADD SWAP1 PUSH2 0x71A SWAP2 SWAP1 PUSH2 0x21F6 JUMP JUMPDEST POP JUMPDEST PUSH1 0x4 SLOAD PUSH1 0x40 DUP1 MLOAD DUP2 DUP2 MSTORE PUSH1 0x14 DUP2 DUP4 ADD MSTORE PUSH20 0x21B637B9B29029B437B93A102837B9B4BA34B7B7 PUSH1 0x61 SHL PUSH1 0x60 DUP3 ADD MSTORE PUSH1 0x20 DUP2 ADD DUP10 SWAP1 MSTORE SWAP1 MLOAD PUSH1 0x1 PUSH1 0x1 PUSH1 0xA0 SHL SUB SWAP1 SWAP3 AND SWAP2 PUSH1 0x0 DUP1 MLOAD PUSH1 0x20 PUSH2 0x2300 DUP4 CODECOPY DUP2 MLOAD SWAP2 MSTORE SWAP2 DUP2 SWAP1 SUB PUSH1 0x80 ADD SWAP1 LOG2 POP POP POP POP POP POP JUMP JUMPDEST PUSH1 0x0 SLOAD PUSH1 0x1 PUSH1 0x1 PUSH1 0xA0 SHL SUB AND CALLER EQ PUSH2 0x7A8 JUMPI PUSH1 0x40 MLOAD PUSH3 0x461BCD PUSH1 0xE5 SHL DUP2 MSTORE PUSH1 0x4 ADD PUSH2 0x3C0 SWAP1 PUSH2 0x2218 JUMP JUMPDEST PUSH1 0x0 DUP2 PUSH1 0xFF AND GT DUP1 ISZERO PUSH2 0x7BF JUMPI POP PUSH1 0xA DUP2 PUSH1 0xFF AND GT ISZERO JUMPDEST PUSH2 0x80B JUMPI PUSH1 0x40 MLOAD PUSH3 0x461BCD PUSH1 0xE5 SHL DUP2 MSTORE PUSH1 0x20 PUSH1 0x4 DUP3 ADD MSTORE PUSH1 0x1E PUSH1 0x24 DUP3 ADD MSTORE PUSH32 0x4261736553747261746567793A20496E76616C6964206C657665726167650000 PUSH1 0x44 DUP3 ADD MSTORE PUSH1 0x64 ADD PUSH2 0x3C0 JUMP JUMPDEST PUSH1 0x0 DUP1 SLOAD PUSH1 0xFF PUSH1 0xA0 SHL NOT AND PUSH1 0x1 PUSH1 0xA0 SHL PUSH1 0xFF DUP5 AND SWAP1 DUP2 MUL SWAP2 SWAP1 SWAP2 OR SWAP1 SWAP2 SSTORE PUSH1 0x40 MLOAD SWAP1 DUP2 MSTORE PUSH32 0xE0CE029E30F26500C1C82ED34083B224B849EA080699F46C290E6216CF35A07D SWAP1 PUSH1 0x20 ADD JUMPDEST PUSH1 0x40 MLOAD DUP1 SWAP2 SUB SWAP1 LOG1 POP JUMP JUMPDEST PUSH1 0x4 SLOAD PUSH1 0x0 SWAP1 PUSH1 0x1 PUSH1 0x1 PUSH1 0xA0 SHL SUB AND PUSH2 0x88B JUMPI PUSH1 0x40 MLOAD PUSH3 0x461BCD PUSH1 0xE5 SHL DUP2 MSTORE PUSH1 0x4 ADD PUSH2 0x3C0 SWAP1 PUSH2 0x1FA2 JUMP JUMPDEST POP PUSH1 0x5 SLOAD SWAP1 JUMP JUMPDEST PUSH1 0x4 SLOAD PUSH1 0x60 SWAP1 DUP2 SWAP1 DUP2 SWAP1 PUSH1 0x1 PUSH1 0x1 PUSH1 0xA0 SHL SUB AND PUSH2 0x8C1 JUMPI PUSH1 0x40 MLOAD PUSH3 0x461BCD PUSH1 0xE5 SHL DUP2 MSTORE PUSH1 0x4 ADD PUSH2 0x3C0 SWAP1 PUSH2 0x1FA2 JUMP JUMPDEST PUSH1 0x2 SLOAD DUP1 PUSH1 0x1 PUSH1 0x1 PUSH1 0x40 SHL SUB DUP2 GT ISZERO PUSH2 0x8DC JUMPI PUSH2 0x8DC PUSH2 0x2072 JUMP JUMPDEST PUSH1 0x40 MLOAD SWAP1 DUP1 DUP3 MSTORE DUP1 PUSH1 0x20 MUL PUSH1 0x20 ADD DUP3 ADD PUSH1 0x40 MSTORE DUP1 ISZERO PUSH2 0x905 JUMPI DUP2 PUSH1 0x20 ADD PUSH1 0x20 DUP3 MUL DUP1 CALLDATASIZE DUP4 CALLDATACOPY ADD SWAP1 POP JUMPDEST POP SWAP4 POP DUP1 PUSH1 0x1 PUSH1 0x1 PUSH1 0x40 SHL SUB DUP2 GT ISZERO PUSH2 0x920 JUMPI PUSH2 0x920 PUSH2 0x2072 JUMP JUMPDEST PUSH1 0x40 MLOAD SWAP1 DUP1 DUP3 MSTORE DUP1 PUSH1 0x20 MUL PUSH1 0x20 ADD DUP3 ADD PUSH1 0x40 MSTORE DUP1 ISZERO PUSH2 0x949 JUMPI DUP2 PUSH1 0x20 ADD PUSH1 0x20 DUP3 MUL DUP1 CALLDATASIZE DUP4 CALLDATACOPY ADD SWAP1 POP JUMPDEST POP SWAP3 POP DUP1 PUSH1 0x1 PUSH1 0x1 PUSH1 0x40 SHL SUB DUP2 GT ISZERO PUSH2 0x964 JUMPI PUSH2 0x964 PUSH2 0x2072 JUMP JUMPDEST PUSH1 0x40 MLOAD SWAP1 DUP1 DUP3 MSTORE DUP1 PUSH1 0x20 MUL PUSH1 0x20 ADD DUP3 ADD PUSH1 0x40 MSTORE DUP1 ISZERO PUSH2 0x98D JUMPI DUP2 PUSH1 0x20 ADD PUSH1 0x20 DUP3 MUL DUP1 CALLDATASIZE DUP4 CALLDATACOPY ADD SWAP1 POP JUMPDEST POP SWAP2 POP PUSH1 0x0 PUSH2 0x99C DUP3 DUP8 PUSH2 0x225D JUMP JUMPDEST SWAP1 POP PUSH1 0x0 JUMPDEST DUP3 DUP2 LT ISZERO PUSH2 0xA79 JUMPI PUSH1 0x3 PUSH1 0x0 PUSH1 0x2 DUP4 DUP2 SLOAD DUP2 LT PUSH2 0x9C0 JUMPI PUSH2 0x9C0 PUSH2 0x1FD9 JUMP JUMPDEST PUSH1 0x0 SWAP2 DUP3 MSTORE PUSH1 0x20 DUP1 DUP4 KECCAK256 SWAP1 SWAP2 ADD SLOAD PUSH1 0x1 PUSH1 0x1 PUSH1 0xA0 SHL SUB AND DUP4 MSTORE DUP3 ADD SWAP3 SWAP1 SWAP3 MSTORE PUSH1 0x40 ADD SWAP1 KECCAK256 SLOAD DUP7 MLOAD PUSH2 0xFFFF SWAP1 SWAP2 AND SWAP1 DUP8 SWAP1 DUP4 SWAP1 DUP2 LT PUSH2 0xA00 JUMPI PUSH2 0xA00 PUSH2 0x1FD9 JUMP JUMPDEST PUSH1 0x20 MUL PUSH1 0x20 ADD ADD SWAP1 PUSH2 0xFFFF AND SWAP1 DUP2 PUSH2 0xFFFF AND DUP2 MSTORE POP POP PUSH1 0x0 DUP6 DUP3 DUP2 MLOAD DUP2 LT PUSH2 0xA2A JUMPI PUSH2 0xA2A PUSH2 0x1FD9 JUMP JUMPDEST PUSH1 0x20 MUL PUSH1 0x20 ADD ADD SWAP1 ISZERO ISZERO SWAP1 DUP2 ISZERO ISZERO DUP2 MSTORE POP POP DUP2 DUP5 DUP3 DUP2 MLOAD DUP2 LT PUSH2 0xA4F JUMPI PUSH2 0xA4F PUSH2 0x1FD9 JUMP JUMPDEST PUSH1 0x1 PUSH1 0x1 PUSH1 0x40 SHL SUB SWAP1 SWAP3 AND PUSH1 0x20 SWAP3 DUP4 MUL SWAP2 SWAP1 SWAP2 ADD SWAP1 SWAP2 ADD MSTORE DUP1 PUSH2 0xA71 DUP2 PUSH2 0x2059 JUMP JUMPDEST SWAP2 POP POP PUSH2 0x9A1 JUMP JUMPDEST POP POP POP SWAP3 POP SWAP3 POP SWAP3 JUMP JUMPDEST PUSH1 0x4 SLOAD PUSH1 0x0 SWAP1 PUSH1 0x1 PUSH1 0x1 PUSH1 0xA0 SHL SUB AND PUSH2 0xAAE JUMPI PUSH1 0x40 MLOAD PUSH3 0x461BCD PUSH1 0xE5 SHL DUP2 MSTORE PUSH1 0x4 ADD PUSH2 0x3C0 SWAP1 PUSH2 0x1FA2 JUMP JUMPDEST POP PUSH1 0x0 SWAP1 JUMP JUMPDEST PUSH1 0x2 SLOAD PUSH1 0x60 SWAP1 PUSH1 0x0 SWAP1 PUSH1 0x1 PUSH1 0x1 PUSH1 0x40 SHL SUB DUP2 GT ISZERO PUSH2 0xAD4 JUMPI PUSH2 0xAD4 PUSH2 0x2072 JUMP JUMPDEST PUSH1 0x40 MLOAD SWAP1 DUP1 DUP3 MSTORE DUP1 PUSH1 0x20 MUL PUSH1 0x20 ADD DUP3 ADD PUSH1 0x40 MSTORE DUP1 ISZERO PUSH2 0xAFD JUMPI DUP2 PUSH1 0x20 ADD PUSH1 0x20 DUP3 MUL DUP1 CALLDATASIZE DUP4 CALLDATACOPY ADD SWAP1 POP JUMPDEST POP SWAP1 POP PUSH1 0x0 JUMPDEST PUSH1 0x2 SLOAD DUP2 LT ISZERO PUSH2 0xB89 JUMPI PUSH1 0x3 PUSH1 0x0 PUSH1 0x2 DUP4 DUP2 SLOAD DUP2 LT PUSH2 0xB24 JUMPI PUSH2 0xB24 PUSH2 0x1FD9 JUMP JUMPDEST PUSH1 0x0 SWAP2 DUP3 MSTORE PUSH1 0x20 DUP1 DUP4 KECCAK256 SWAP1 SWAP2 ADD SLOAD PUSH1 0x1 PUSH1 0x1 PUSH1 0xA0 SHL SUB AND DUP4 MSTORE DUP3 ADD SWAP3 SWAP1 SWAP3 MSTORE PUSH1 0x40 ADD SWAP1 KECCAK256 SLOAD DUP3 MLOAD PUSH2 0xFFFF SWAP1 SWAP2 AND SWAP1 DUP4 SWAP1 DUP4 SWAP1 DUP2 LT PUSH2 0xB64 JUMPI PUSH2 0xB64 PUSH2 0x1FD9 JUMP JUMPDEST PUSH2 0xFFFF SWAP1 SWAP3 AND PUSH1 0x20 SWAP3 DUP4 MUL SWAP2 SWAP1 SWAP2 ADD SWAP1 SWAP2 ADD MSTORE DUP1 PUSH2 0xB81 DUP2 PUSH2 0x2059 JUMP JUMPDEST SWAP2 POP POP PUSH2 0xB03 JUMP JUMPDEST POP SWAP2 SWAP1 POP JUMP JUMPDEST PUSH1 0x4 SLOAD PUSH1 0x1 PUSH1 0x1 PUSH1 0xA0 SHL SUB AND PUSH2 0xBB7 JUMPI PUSH1 0x40 MLOAD PUSH3 0x461BCD PUSH1 0xE5 SHL DUP2 MSTORE PUSH1 0x4 ADD PUSH2 0x3C0 SWAP1 PUSH2 0x1FA2 JUMP JUMPDEST PUSH1 0x2 SLOAD PUSH1 0x0 SWAP1 DUP2 SWAP1 PUSH1 0x1 PUSH1 0x1 PUSH1 0x40 SHL SUB DUP2 GT ISZERO PUSH2 0xBD6 JUMPI PUSH2 0xBD6 PUSH2 0x2072 JUMP JUMPDEST PUSH1 0x40 MLOAD SWAP1 DUP1 DUP3 MSTORE DUP1 PUSH1 0x20 MUL PUSH1 0x20 ADD DUP3 ADD PUSH1 0x40 MSTORE DUP1 ISZERO PUSH2 0xBFF JUMPI DUP2 PUSH1 0x20 ADD PUSH1 0x20 DUP3 MUL DUP1 CALLDATASIZE DUP4 CALLDATACOPY ADD SWAP1 POP JUMPDEST POP SWAP1 POP PUSH1 0x0 JUMPDEST PUSH1 0x2 SLOAD DUP2 LT ISZERO PUSH2 0xD77 JUMPI PUSH1 0x0 PUSH1 0x2 DUP3 DUP2 SLOAD DUP2 LT PUSH2 0xC24 JUMPI PUSH2 0xC24 PUSH2 0x1FD9 JUMP JUMPDEST PUSH1 0x0 SWAP2 DUP3 MSTORE PUSH1 0x20 DUP3 KECCAK256 ADD SLOAD PUSH1 0x40 MLOAD PUSH4 0x42AC91A5 PUSH1 0xE0 SHL DUP2 MSTORE PUSH1 0x1 PUSH1 0x1 PUSH1 0xA0 SHL SUB SWAP2 DUP3 AND SWAP4 POP PUSH32 0x0 SWAP1 SWAP2 AND SWAP1 PUSH4 0x42AC91A5 SWAP1 PUSH2 0xC82 SWAP1 DUP7 SWAP1 PUSH1 0x4 ADD PUSH2 0x2283 JUMP JUMPDEST PUSH1 0x20 PUSH1 0x40 MLOAD DUP1 DUP4 SUB DUP2 DUP7 GAS STATICCALL ISZERO DUP1 ISZERO PUSH2 0xC9F JUMPI RETURNDATASIZE PUSH1 0x0 DUP1 RETURNDATACOPY RETURNDATASIZE PUSH1 0x0 REVERT JUMPDEST POP POP POP POP PUSH1 0x40 MLOAD RETURNDATASIZE PUSH1 0x1F NOT PUSH1 0x1F DUP3 ADD AND DUP3 ADD DUP1 PUSH1 0x40 MSTORE POP DUP2 ADD SWAP1 PUSH2 0xCC3 SWAP2 SWAP1 PUSH2 0x2292 JUMP JUMPDEST SWAP1 POP PUSH1 0x0 DUP2 GT PUSH2 0xCE5 JUMPI PUSH1 0x40 MLOAD PUSH3 0x461BCD PUSH1 0xE5 SHL DUP2 MSTORE PUSH1 0x4 ADD PUSH2 0x3C0 SWAP1 PUSH2 0x22AB JUMP JUMPDEST PUSH1 0x1 PUSH1 0x1 PUSH1 0xA0 SHL SUB DUP3 AND PUSH1 0x0 SWAP1 DUP2 MSTORE PUSH1 0x7 PUSH1 0x20 MSTORE PUSH1 0x40 SWAP1 KECCAK256 SLOAD PUSH8 0xDE0B6B3A7640000 SWAP1 PUSH2 0xD13 SWAP1 DUP4 SWAP1 PUSH2 0x2005 JUMP JUMPDEST PUSH2 0xD1D SWAP2 SWAP1 PUSH2 0x2032 JUMP JUMPDEST DUP5 DUP5 DUP2 MLOAD DUP2 LT PUSH2 0xD2F JUMPI PUSH2 0xD2F PUSH2 0x1FD9 JUMP JUMPDEST PUSH1 0x20 MUL PUSH1 0x20 ADD ADD DUP2 DUP2 MSTORE POP POP DUP4 DUP4 DUP2 MLOAD DUP2 LT PUSH2 0xD4D JUMPI PUSH2 0xD4D PUSH2 0x1FD9 JUMP JUMPDEST PUSH1 0x20 MUL PUSH1 0x20 ADD ADD MLOAD DUP6 PUSH2 0xD60 SWAP2 SWAP1 PUSH2 0x22EC JUMP JUMPDEST SWAP5 POP POP POP DUP1 DUP1 PUSH2 0xD6F SWAP1 PUSH2 0x2059 JUMP JUMPDEST SWAP2 POP POP PUSH2 0xC05 JUMP JUMPDEST POP DUP2 PUSH1 0x0 SUB PUSH2 0xD84 JUMPI POP POP JUMP JUMPDEST PUSH1 0x2 SLOAD PUSH1 0x0 SWAP1 PUSH2 0xD94 SWAP1 DUP5 PUSH2 0x2032 JUMP JUMPDEST SWAP1 POP PUSH1 0x0 PUSH1 0x64 PUSH2 0xDA5 DUP4 PUSH1 0x5 PUSH2 0x2005 JUMP JUMPDEST PUSH2 0xDAF SWAP2 SWAP1 PUSH2 0x2032 JUMP JUMPDEST SWAP1 POP PUSH1 0x0 JUMPDEST PUSH1 0x2 SLOAD DUP2 LT ISZERO PUSH2 0x1074 JUMPI PUSH1 0x0 PUSH1 0x2 DUP3 DUP2 SLOAD DUP2 LT PUSH2 0xDD3 JUMPI PUSH2 0xDD3 PUSH2 0x1FD9 JUMP JUMPDEST PUSH1 0x0 SWAP2 DUP3 MSTORE PUSH1 0x20 DUP3 KECCAK256 ADD SLOAD DUP7 MLOAD PUSH1 0x1 PUSH1 0x1 PUSH1 0xA0 SHL SUB SWAP1 SWAP2 AND SWAP3 POP PUSH2 0xE11 SWAP1 DUP8 SWAP1 DUP6 SWAP1 DUP2 LT PUSH2 0xE03 JUMPI PUSH2 0xE03 PUSH2 0x1FD9 JUMP JUMPDEST PUSH1 0x20 MUL PUSH1 0x20 ADD ADD MLOAD DUP7 PUSH2 0x1BEA JUMP JUMPDEST SWAP1 POP DUP4 DUP2 GT ISZERO PUSH2 0x105F JUMPI DUP5 DUP7 DUP5 DUP2 MLOAD DUP2 LT PUSH2 0xE2E JUMPI PUSH2 0xE2E PUSH2 0x1FD9 JUMP JUMPDEST PUSH1 0x20 MUL PUSH1 0x20 ADD ADD MLOAD GT ISZERO PUSH2 0xF50 JUMPI PUSH1 0x0 DUP6 DUP8 DUP6 DUP2 MLOAD DUP2 LT PUSH2 0xE51 JUMPI PUSH2 0xE51 PUSH2 0x1FD9 JUMP JUMPDEST PUSH1 0x20 MUL PUSH1 0x20 ADD ADD MLOAD PUSH2 0xE63 SWAP2 SWAP1 PUSH2 0x2046 JUMP JUMPDEST SWAP1 POP PUSH1 0x0 PUSH32 0x0 PUSH1 0x1 PUSH1 0x1 PUSH1 0xA0 SHL SUB AND PUSH4 0x42AC91A5 DUP7 PUSH1 0x40 MLOAD DUP3 PUSH4 0xFFFFFFFF AND PUSH1 0xE0 SHL DUP2 MSTORE PUSH1 0x4 ADD PUSH2 0xEB3 SWAP2 SWAP1 PUSH2 0x2283 JUMP JUMPDEST PUSH1 0x20 PUSH1 0x40 MLOAD DUP1 DUP4 SUB DUP2 DUP7 GAS STATICCALL ISZERO DUP1 ISZERO PUSH2 0xED0 JUMPI RETURNDATASIZE PUSH1 0x0 DUP1 RETURNDATACOPY RETURNDATASIZE PUSH1 0x0 REVERT JUMPDEST POP POP POP POP PUSH1 0x40 MLOAD RETURNDATASIZE PUSH1 0x1F NOT PUSH1 0x1F DUP3 ADD AND DUP3 ADD DUP1 PUSH1 0x40 MSTORE POP DUP2 ADD SWAP1 PUSH2 0xEF4 SWAP2 SWAP1 PUSH2 0x2292 JUMP JUMPDEST SWAP1 POP PUSH1 0x0 DUP2 PUSH2 0xF0B DUP5 PUSH8 0xDE0B6B3A7640000 PUSH2 0x2005 JUMP JUMPDEST PUSH2 0xF15 SWAP2 SWAP1 PUSH2 0x2032 JUMP JUMPDEST PUSH1 0x1 PUSH1 0x1 PUSH1 0xA0 SHL SUB DUP7 AND PUSH1 0x0 SWAP1 DUP2 MSTORE PUSH1 0x7 PUSH1 0x20 MSTORE PUSH1 0x40 DUP2 KECCAK256 DUP1 SLOAD SWAP3 SWAP4 POP DUP4 SWAP3 SWAP1 SWAP2 SWAP1 PUSH2 0xF42 SWAP1 DUP5 SWAP1 PUSH2 0x2046 JUMP JUMPDEST SWAP1 SWAP2 SSTORE POP PUSH2 0x105F SWAP4 POP POP POP POP JUMP JUMPDEST PUSH1 0x0 DUP7 DUP5 DUP2 MLOAD DUP2 LT PUSH2 0xF64 JUMPI PUSH2 0xF64 PUSH2 0x1FD9 JUMP JUMPDEST PUSH1 0x20 MUL PUSH1 0x20 ADD ADD MLOAD DUP7 PUSH2 0xF77 SWAP2 SWAP1 PUSH2 0x2046 JUMP JUMPDEST SWAP1 POP PUSH1 0x0 PUSH32 0x0 PUSH1 0x1 PUSH1 0x1 PUSH1 0xA0 SHL SUB AND PUSH4 0x42AC91A5 DUP7 PUSH1 0x40 MLOAD DUP3 PUSH4 0xFFFFFFFF AND PUSH1 0xE0 SHL DUP2 MSTORE PUSH1 0x4 ADD PUSH2 0xFC7 SWAP2 SWAP1 PUSH2 0x2283 JUMP JUMPDEST PUSH1 0x20 PUSH1 0x40 MLOAD DUP1 DUP4 SUB DUP2 DUP7 GAS STATICCALL ISZERO DUP1 ISZERO PUSH2 0xFE4 JUMPI RETURNDATASIZE PUSH1 0x0 DUP1 RETURNDATACOPY RETURNDATASIZE PUSH1 0x0 REVERT JUMPDEST POP POP POP POP PUSH1 0x40 MLOAD RETURNDATASIZE PUSH1 0x1F NOT PUSH1 0x1F DUP3 ADD AND DUP3 ADD DUP1 PUSH1 0x40 MSTORE POP DUP2 ADD SWAP1 PUSH2 0x1008 SWAP2 SWAP1 PUSH2 0x2292 JUMP JUMPDEST SWAP1 POP PUSH1 0x0 DUP2 PUSH2 0x101F DUP5 PUSH8 0xDE0B6B3A7640000 PUSH2 0x2005 JUMP JUMPDEST PUSH2 0x1029 SWAP2 SWAP1 PUSH2 0x2032 JUMP JUMPDEST PUSH1 0x1 PUSH1 0x1 PUSH1 0xA0 SHL SUB DUP7 AND PUSH1 0x0 SWAP1 DUP2 MSTORE PUSH1 0x7 PUSH1 0x20 MSTORE PUSH1 0x40 DUP2 KECCAK256 DUP1 SLOAD SWAP3 SWAP4 POP DUP4 SWAP3 SWAP1 SWAP2 SWAP1 PUSH2 0x1056 SWAP1 DUP5 SWAP1 PUSH2 0x22EC JUMP JUMPDEST SWAP1 SWAP2 SSTORE POP POP POP POP POP JUMPDEST POP POP DUP1 DUP1 PUSH2 0x106C SWAP1 PUSH2 0x2059 JUMP JUMPDEST SWAP2 POP POP PUSH2 0xDB4 JUMP JUMPDEST POP PUSH1 0x4 SLOAD PUSH1 0x40 MLOAD PUSH1 0x1 PUSH1 0x1 PUSH1 0xA0 SHL SUB SWAP1 SWAP2 AND SWAP1 PUSH32 0xB8815E3A0B9733F6390F55AB413C696EF91FCA3267F27F6C7E60FCD0984262CD SWAP1 PUSH1 0x0 SWAP1 LOG2 POP POP POP POP JUMP JUMPDEST PUSH1 0x0 SLOAD PUSH1 0x1 PUSH1 0x1 PUSH1 0xA0 SHL SUB AND CALLER EQ PUSH2 0x10DD JUMPI PUSH1 0x40 MLOAD PUSH3 0x461BCD PUSH1 0xE5 SHL DUP2 MSTORE PUSH1 0x4 ADD PUSH2 0x3C0 SWAP1 PUSH2 0x2218 JUMP JUMPDEST PUSH1 0x1 PUSH1 0x1 PUSH1 0xA0 SHL SUB DUP2 AND PUSH2 0x1147 JUMPI PUSH1 0x40 MLOAD PUSH3 0x461BCD PUSH1 0xE5 SHL DUP2 MSTORE PUSH1 0x20 PUSH1 0x4 DUP3 ADD MSTORE PUSH1 0x2B PUSH1 0x24 DUP3 ADD MSTORE PUSH32 0x4261736553747261746567793A204E65772061646D696E20697320746865207A PUSH1 0x44 DUP3 ADD MSTORE PUSH11 0x65726F2061646472657373 PUSH1 0xA8 SHL PUSH1 0x64 DUP3 ADD MSTORE PUSH1 0x84 ADD PUSH2 0x3C0 JUMP JUMPDEST PUSH1 0x0 DUP1 SLOAD PUSH1 0x1 PUSH1 0x1 PUSH1 0xA0 SHL SUB DUP4 DUP2 AND PUSH1 0x1 PUSH1 0x1 PUSH1 0xA0 SHL SUB NOT DUP4 AND DUP2 OR DUP5 SSTORE PUSH1 0x40 MLOAD SWAP2 SWAP1 SWAP3 AND SWAP3 DUP4 SWAP2 PUSH32 0xF8CCB027DFCD135E000E9D45E6CC2D662578A8825D4C45B5E32E0ADF67E79EC6 SWAP2 SWAP1 LOG3 POP POP JUMP JUMPDEST PUSH1 0x0 SLOAD PUSH1 0x1 PUSH1 0x1 PUSH1 0xA0 SHL SUB AND CALLER EQ PUSH2 0x11C1 JUMPI PUSH1 0x40 MLOAD PUSH3 0x461BCD PUSH1 0xE5 SHL DUP2 MSTORE PUSH1 0x4 ADD PUSH2 0x3C0 SWAP1 PUSH2 0x2218 JUMP JUMPDEST PUSH2 0x3E8 DUP2 GT ISZERO PUSH2 0x1210 JUMPI PUSH1 0x40 MLOAD PUSH3 0x461BCD PUSH1 0xE5 SHL DUP2 MSTORE PUSH1 0x20 PUSH1 0x4 DUP3 ADD MSTORE PUSH1 0x1A PUSH1 0x24 DUP3 ADD MSTORE PUSH26 0x84C2E6CAA6E8E4C2E8CACEF274408CCACA40E8DEDE40D0D2CED PUSH1 0x33 SHL PUSH1 0x44 DUP3 ADD MSTORE PUSH1 0x64 ADD PUSH2 0x3C0 JUMP JUMPDEST PUSH1 0x1 DUP2 SWAP1 SSTORE PUSH1 0x40 MLOAD DUP2 DUP2 MSTORE PUSH32 0x45610D581145924DD7090A5017E5F2B1D6F42213BB2E95707FF86846BBFCB1CA SWAP1 PUSH1 0x20 ADD PUSH2 0x855 JUMP JUMPDEST PUSH1 0x2 DUP2 DUP2 SLOAD DUP2 LT PUSH2 0x1255 JUMPI PUSH1 0x0 DUP1 REVERT JUMPDEST PUSH1 0x0 SWAP2 DUP3 MSTORE PUSH1 0x20 SWAP1 SWAP2 KECCAK256 ADD SLOAD PUSH1 0x1 PUSH1 0x1 PUSH1 0xA0 SHL SUB AND SWAP1 POP DUP2 JUMP JUMPDEST PUSH1 0x8 SLOAD PUSH1 0xFF AND ISZERO PUSH2 0x12CC JUMPI PUSH1 0x40 MLOAD PUSH3 0x461BCD PUSH1 0xE5 SHL DUP2 MSTORE PUSH1 0x20 PUSH1 0x4 DUP3 ADD MSTORE PUSH1 0x21 PUSH1 0x24 DUP3 ADD MSTORE PUSH32 0x446F776E53747261746567793A20416C726561647920696E697469616C697A65 PUSH1 0x44 DUP3 ADD MSTORE PUSH1 0x19 PUSH1 0xFA SHL PUSH1 0x64 DUP3 ADD MSTORE PUSH1 0x84 ADD PUSH2 0x3C0 JUMP JUMPDEST PUSH1 0x1 PUSH1 0x1 PUSH1 0xA0 SHL SUB DUP2 AND PUSH2 0x132D JUMPI PUSH1 0x40 MLOAD PUSH3 0x461BCD PUSH1 0xE5 SHL DUP2 MSTORE PUSH1 0x20 PUSH1 0x4 DUP3 ADD MSTORE PUSH1 0x22 PUSH1 0x24 DUP3 ADD MSTORE PUSH32 0x446F776E53747261746567793A204F776E65722063616E6E6F74206265207A65 PUSH1 0x44 DUP3 ADD MSTORE PUSH2 0x726F PUSH1 0xF0 SHL PUSH1 0x64 DUP3 ADD MSTORE PUSH1 0x84 ADD PUSH2 0x3C0 JUMP JUMPDEST PUSH1 0x4 DUP1 SLOAD PUSH1 0x1 PUSH1 0x1 PUSH1 0xA0 SHL SUB NOT AND PUSH1 0x1 PUSH1 0x1 PUSH1 0xA0 SHL SUB DUP4 AND SWAP1 DUP2 OR SWAP1 SWAP2 SSTORE PUSH1 0x8 DUP1 SLOAD PUSH1 0xFF NOT AND PUSH1 0x1 OR SWAP1 SSTORE PUSH1 0x40 MLOAD PUSH32 0x908408E307FC569B417F6CBEC5D5A06F44A0A505AC0479B47D421A4B2FD6A1E6 SWAP1 PUSH1 0x0 SWAP1 LOG2 POP JUMP JUMPDEST PUSH1 0x4 SLOAD PUSH1 0x1 PUSH1 0x1 PUSH1 0xA0 SHL SUB AND PUSH2 0x13AC JUMPI PUSH1 0x40 MLOAD PUSH3 0x461BCD PUSH1 0xE5 SHL DUP2 MSTORE PUSH1 0x4 ADD PUSH2 0x3C0 SWAP1 PUSH2 0x1FA2 JUMP JUMPDEST PUSH1 0x0 DUP3 GT PUSH2 0x140A JUMPI PUSH1 0x40 MLOAD PUSH3 0x461BCD PUSH1 0xE5 SHL DUP2 MSTORE PUSH1 0x20 PUSH1 0x4 DUP3 ADD MSTORE PUSH1 0x25 PUSH1 0x24 DUP3 ADD MSTORE PUSH32 0x446F776E53747261746567793A20416D6F756E74206D75737420626520706F73 PUSH1 0x44 DUP3 ADD MSTORE PUSH5 0x6974697665 PUSH1 0xD8 SHL PUSH1 0x64 DUP3 ADD MSTORE PUSH1 0x84 ADD PUSH2 0x3C0 JUMP JUMPDEST PUSH1 0x0 PUSH2 0x1415 DUP4 PUSH2 0x1BB5 JUMP JUMPDEST SWAP1 POP PUSH1 0x0 PUSH2 0x1423 DUP3 DUP6 PUSH2 0x2046 JUMP JUMPDEST SWAP1 POP DUP1 PUSH1 0x5 PUSH1 0x0 ADD PUSH1 0x0 DUP3 DUP3 SLOAD PUSH2 0x143A SWAP2 SWAP1 PUSH2 0x22EC JUMP JUMPDEST SWAP1 SWAP2 SSTORE POP POP PUSH1 0x2 SLOAD PUSH1 0x0 DUP1 SLOAD DUP3 SWAP1 PUSH2 0x145C SWAP1 PUSH1 0x1 PUSH1 0xA0 SHL SWAP1 DIV PUSH1 0xFF AND DUP6 PUSH2 0x2005 JUMP JUMPDEST PUSH2 0x1466 SWAP2 SWAP1 PUSH2 0x2032 JUMP JUMPDEST SWAP1 POP PUSH1 0x0 JUMPDEST DUP3 DUP2 LT ISZERO PUSH2 0x15B2 JUMPI PUSH1 0x0 PUSH1 0x2 DUP3 DUP2 SLOAD DUP2 LT PUSH2 0x1488 JUMPI PUSH2 0x1488 PUSH2 0x1FD9 JUMP JUMPDEST PUSH1 0x0 SWAP2 DUP3 MSTORE PUSH1 0x20 DUP3 KECCAK256 ADD SLOAD PUSH1 0x40 MLOAD PUSH4 0x42AC91A5 PUSH1 0xE0 SHL DUP2 MSTORE PUSH1 0x1 PUSH1 0x1 PUSH1 0xA0 SHL SUB SWAP2 DUP3 AND SWAP4 POP PUSH32 0x0 SWAP1 SWAP2 AND SWAP1 PUSH4 0x42AC91A5 SWAP1 PUSH2 0x14E6 SWAP1 DUP7 SWAP1 PUSH1 0x4 ADD PUSH2 0x2283 JUMP JUMPDEST PUSH1 0x20 PUSH1 0x40 MLOAD DUP1 DUP4 SUB DUP2 DUP7 GAS STATICCALL ISZERO DUP1 ISZERO PUSH2 0x1503 JUMPI RETURNDATASIZE PUSH1 0x0 DUP1 RETURNDATACOPY RETURNDATASIZE PUSH1 0x0 REVERT JUMPDEST POP POP POP POP PUSH1 0x40 MLOAD RETURNDATASIZE PUSH1 0x1F NOT PUSH1 0x1F DUP3 ADD AND DUP3 ADD DUP1 PUSH1 0x40 MSTORE POP DUP2 ADD SWAP1 PUSH2 0x1527 SWAP2 SWAP1 PUSH2 0x2292 JUMP JUMPDEST SWAP1 POP PUSH1 0x0 DUP2 GT PUSH2 0x1549 JUMPI PUSH1 0x40 MLOAD PUSH3 0x461BCD PUSH1 0xE5 SHL DUP2 MSTORE PUSH1 0x4 ADD PUSH2 0x3C0 SWAP1 PUSH2 0x22AB JUMP JUMPDEST PUSH1 0x0 DUP2 PUSH2 0x155E DUP7 PUSH8 0xDE0B6B3A7640000 PUSH2 0x2005 JUMP JUMPDEST PUSH2 0x1568 SWAP2 SWAP1 PUSH2 0x2032 JUMP JUMPDEST PUSH1 0x1 PUSH1 0x1 PUSH1 0xA0 SHL SUB DUP5 AND PUSH1 0x0 SWAP1 DUP2 MSTORE PUSH1 0x7 PUSH1 0x20 MSTORE PUSH1 0x40 DUP2 KECCAK256 DUP1 SLOAD SWAP3 SWAP4 POP DUP4 SWAP3 SWAP1 SWAP2 SWAP1 PUSH2 0x1595 SWAP1 DUP5 SWAP1 PUSH2 0x22EC JUMP JUMPDEST SWAP3 POP POP DUP2 SWAP1 SSTORE POP POP POP POP DUP1 DUP1 PUSH2 0x15AA SWAP1 PUSH2 0x2059 JUMP JUMPDEST SWAP2 POP POP PUSH2 0x146B JUMP JUMPDEST POP PUSH1 0x0 SLOAD PUSH2 0x15CA SWAP1 PUSH1 0x1 PUSH1 0xA0 SHL SWAP1 DIV PUSH1 0xFF AND DUP5 PUSH2 0x2005 JUMP JUMPDEST PUSH1 0x6 DUP1 SLOAD PUSH1 0x0 SWAP1 PUSH2 0x15DC SWAP1 DUP5 SWAP1 PUSH2 0x22EC JUMP JUMPDEST SWAP1 SWAP2 SSTORE POP POP PUSH1 0x40 DUP1 MLOAD PUSH2 0x100 DUP2 ADD DUP3 MSTORE TIMESTAMP DUP2 MSTORE DUP2 MLOAD DUP1 DUP4 ADD DUP4 MSTORE PUSH1 0x12 DUP2 MSTORE PUSH18 0x20B2321029B437B93A102837B9B4BA34B7B7 PUSH1 0x71 SHL PUSH1 0x20 DUP3 DUP2 ADD SWAP2 SWAP1 SWAP2 MSTORE DUP3 ADD SWAP1 DUP2 MSTORE PUSH20 0xA0B86991C6218B36C1D19D4A2E9EB0CE3606EB48 SWAP3 DUP3 ADD DUP4 SWAP1 MSTORE PUSH1 0x60 DUP3 ADD DUP10 SWAP1 MSTORE PUSH1 0x0 PUSH1 0x80 DUP4 ADD DUP2 SWAP1 MSTORE PUSH1 0xA0 DUP4 ADD DUP2 SWAP1 MSTORE PUSH1 0xC0 DUP4 ADD DUP9 SWAP1 MSTORE PUSH1 0xE0 DUP4 ADD SWAP4 SWAP1 SWAP4 MSTORE PUSH1 0x9 DUP1 SLOAD PUSH1 0x1 DUP2 ADD DUP3 SSTORE SWAP4 MSTORE DUP2 MLOAD PUSH1 0x8 SWAP1 SWAP4 MUL PUSH1 0x0 DUP1 MLOAD PUSH1 0x20 PUSH2 0x2360 DUP4 CODECOPY DUP2 MLOAD SWAP2 MSTORE DUP2 ADD SWAP4 DUP5 SSTORE SWAP1 MLOAD SWAP2 SWAP3 DUP4 SWAP3 SWAP1 SWAP2 PUSH1 0x0 DUP1 MLOAD PUSH1 0x20 PUSH2 0x2340 DUP4 CODECOPY DUP2 MLOAD SWAP2 MSTORE ADD SWAP1 PUSH2 0x16A9 SWAP1 DUP3 PUSH2 0x210B JUMP JUMPDEST POP PUSH1 0x40 DUP3 DUP2 ADD MLOAD PUSH1 0x2 DUP4 ADD DUP1 SLOAD PUSH1 0x1 PUSH1 0x1 PUSH1 0xA0 SHL SUB NOT SWAP1 DUP2 AND PUSH1 0x1 PUSH1 0x1 PUSH1 0xA0 SHL SUB SWAP4 DUP5 AND OR SWAP1 SWAP2 SSTORE PUSH1 0x60 DUP6 ADD MLOAD PUSH1 0x3 DUP6 ADD SSTORE PUSH1 0x80 DUP6 ADD MLOAD PUSH1 0x4 DUP1 DUP7 ADD DUP1 SLOAD DUP5 AND SWAP3 DUP6 AND SWAP3 SWAP1 SWAP3 OR SWAP1 SWAP2 SSTORE PUSH1 0xA0 DUP7 ADD MLOAD PUSH1 0x5 DUP7 ADD SSTORE PUSH1 0xC0 DUP7 ADD MLOAD PUSH1 0x6 DUP7 ADD SSTORE PUSH1 0xE0 SWAP1 SWAP6 ADD MLOAD PUSH1 0x7 SWAP1 SWAP5 ADD DUP1 SLOAD SWAP1 SWAP2 AND SWAP4 DUP3 AND SWAP4 SWAP1 SWAP4 OR SWAP1 SWAP3 SSTORE SWAP2 SLOAD SWAP2 MLOAD SWAP2 AND SWAP1 PUSH1 0x0 DUP1 MLOAD PUSH1 0x20 PUSH2 0x2320 DUP4 CODECOPY DUP2 MLOAD SWAP2 MSTORE SWAP1 PUSH2 0x1743 SWAP1 DUP5 SWAP1 PUSH2 0x21CA JUMP JUMPDEST PUSH1 0x40 MLOAD DUP1 SWAP2 SUB SWAP1 LOG2 PUSH1 0x0 DUP6 GT DUP1 ISZERO PUSH2 0x1763 JUMPI POP PUSH1 0x1 PUSH1 0x1 PUSH1 0xA0 SHL SUB DUP7 AND ISZERO ISZERO JUMPDEST ISZERO PUSH2 0x17E6 JUMPI PUSH1 0x40 MLOAD PUSH4 0xA9059CBB PUSH1 0xE0 SHL DUP2 MSTORE PUSH20 0xA0B86991C6218B36C1D19D4A2E9EB0CE3606EB48 SWAP1 PUSH4 0xA9059CBB SWAP1 PUSH2 0x17A1 SWAP1 DUP10 SWAP1 DUP10 SWAP1 PUSH1 0x4 ADD PUSH2 0x21DD JUMP JUMPDEST PUSH1 0x20 PUSH1 0x40 MLOAD DUP1 DUP4 SUB DUP2 PUSH1 0x0 DUP8 GAS CALL ISZERO DUP1 ISZERO PUSH2 0x17C0 JUMPI RETURNDATASIZE PUSH1 0x0 DUP1 RETURNDATACOPY RETURNDATASIZE PUSH1 0x0 REVERT JUMPDEST POP POP POP POP PUSH1 0x40 MLOAD RETURNDATASIZE PUSH1 0x1F NOT PUSH1 0x1F DUP3 ADD AND DUP3 ADD DUP1 PUSH1 0x40 MSTORE POP DUP2 ADD SWAP1 PUSH2 0x17E4 SWAP2 SWAP1 PUSH2 0x21F6 JUMP JUMPDEST POP JUMPDEST PUSH1 0x4 SLOAD PUSH1 0x40 DUP1 MLOAD DUP2 DUP2 MSTORE PUSH1 0x12 DUP2 DUP4 ADD MSTORE PUSH18 0x20B2321029B437B93A102837B9B4BA34B7B7 PUSH1 0x71 SHL PUSH1 0x60 DUP3 ADD MSTORE PUSH1 0x20 DUP2 ADD DUP11 SWAP1 MSTORE SWAP1 MLOAD PUSH1 0x1 PUSH1 0x1 PUSH1 0xA0 SHL SUB SWAP1 SWAP3 AND SWAP2 PUSH1 0x0 DUP1 MLOAD PUSH1 0x20 PUSH2 0x2300 DUP4 CODECOPY DUP2 MLOAD SWAP2 MSTORE SWAP2 DUP2 SWAP1 SUB PUSH1 0x80 ADD SWAP1 LOG2 POP POP POP POP POP POP POP JUMP JUMPDEST PUSH1 0x4 SLOAD PUSH1 0x60 SWAP1 PUSH1 0x1 PUSH1 0x1 PUSH1 0xA0 SHL SUB AND PUSH2 0x1872 JUMPI PUSH1 0x40 MLOAD PUSH3 0x461BCD PUSH1 0xE5 SHL DUP2 MSTORE PUSH1 0x4 ADD PUSH2 0x3C0 SWAP1 PUSH2 0x1FA2 JUMP JUMPDEST PUSH1 0x9 DUP1 SLOAD DUP1 PUSH1 0x20 MUL PUSH1 0x20 ADD PUSH1 0x40 MLOAD SWAP1 DUP2 ADD PUSH1 0x40 MSTORE DUP1 SWAP3 SWAP2 SWAP1 DUP2 DUP2 MSTORE PUSH1 0x20 ADD PUSH1 0x0 SWAP1 JUMPDEST DUP3 DUP3 LT ISZERO PUSH2 0x19B3 JUMPI DUP4 DUP3 SWAP1 PUSH1 0x0 MSTORE PUSH1 0x20 PUSH1 0x0 KECCAK256 SWAP1 PUSH1 0x8 MUL ADD PUSH1 0x40 MLOAD DUP1 PUSH2 0x100 ADD PUSH1 0x40 MSTORE SWAP1 DUP2 PUSH1 0x0 DUP3 ADD SLOAD DUP2 MSTORE PUSH1 0x20 ADD PUSH1 0x1 DUP3 ADD DUP1 SLOAD PUSH2 0x18D2 SWAP1 PUSH2 0x2088 JUMP JUMPDEST DUP1 PUSH1 0x1F ADD PUSH1 0x20 DUP1 SWAP2 DIV MUL PUSH1 0x20 ADD PUSH1 0x40 MLOAD SWAP1 DUP2 ADD PUSH1 0x40 MSTORE DUP1 SWAP3 SWAP2 SWAP1 DUP2 DUP2 MSTORE PUSH1 0x20 ADD DUP3 DUP1 SLOAD PUSH2 0x18FE SWAP1 PUSH2 0x2088 JUMP JUMPDEST DUP1 ISZERO PUSH2 0x194B JUMPI DUP1 PUSH1 0x1F LT PUSH2 0x1920 JUMPI PUSH2 0x100 DUP1 DUP4 SLOAD DIV MUL DUP4 MSTORE SWAP2 PUSH1 0x20 ADD SWAP2 PUSH2 0x194B JUMP JUMPDEST DUP3 ADD SWAP2 SWAP1 PUSH1 0x0 MSTORE PUSH1 0x20 PUSH1 0x0 KECCAK256 SWAP1 JUMPDEST DUP2 SLOAD DUP2 MSTORE SWAP1 PUSH1 0x1 ADD SWAP1 PUSH1 0x20 ADD DUP1 DUP4 GT PUSH2 0x192E JUMPI DUP3 SWAP1 SUB PUSH1 0x1F AND DUP3 ADD SWAP2 JUMPDEST POP POP POP SWAP2 DUP4 MSTORE POP POP PUSH1 0x2 DUP3 ADD SLOAD PUSH1 0x1 PUSH1 0x1 PUSH1 0xA0 SHL SUB SWAP1 DUP2 AND PUSH1 0x20 DUP1 DUP5 ADD SWAP2 SWAP1 SWAP2 MSTORE PUSH1 0x3 DUP5 ADD SLOAD PUSH1 0x40 DUP5 ADD MSTORE PUSH1 0x4 DUP5 ADD SLOAD DUP3 AND PUSH1 0x60 DUP5 ADD MSTORE PUSH1 0x5 DUP5 ADD SLOAD PUSH1 0x80 DUP5 ADD MSTORE PUSH1 0x6 DUP5 ADD SLOAD PUSH1 0xA0 DUP5 ADD MSTORE PUSH1 0x7 SWAP1 SWAP4 ADD SLOAD AND PUSH1 0xC0 SWAP1 SWAP2 ADD MSTORE SWAP1 DUP3 MSTORE PUSH1 0x1 SWAP3 SWAP1 SWAP3 ADD SWAP2 ADD PUSH2 0x1894 JUMP JUMPDEST POP POP POP POP SWAP1 POP SWAP1 JUMP JUMPDEST PUSH1 0x4 SLOAD PUSH1 0x60 SWAP1 PUSH1 0x1 PUSH1 0x1 PUSH1 0xA0 SHL SUB AND PUSH2 0x19E7 JUMPI PUSH1 0x40 MLOAD PUSH3 0x461BCD PUSH1 0xE5 SHL DUP2 MSTORE PUSH1 0x4 ADD PUSH2 0x3C0 SWAP1 PUSH2 0x1FA2 JUMP JUMPDEST PUSH1 0x2 SLOAD PUSH1 0x1 PUSH1 0x1 PUSH1 0x40 SHL SUB DUP2 GT ISZERO PUSH2 0x1A01 JUMPI PUSH2 0x1A01 PUSH2 0x2072 JUMP JUMPDEST PUSH1 0x40 MLOAD SWAP1 DUP1 DUP3 MSTORE DUP1 PUSH1 0x20 MUL PUSH1 0x20 ADD DUP3 ADD PUSH1 0x40 MSTORE DUP1 ISZERO PUSH2 0x1A5F JUMPI DUP2 PUSH1 0x20 ADD JUMPDEST PUSH2 0x1A4C PUSH1 0x40 MLOAD DUP1 PUSH1 0x60 ADD PUSH1 0x40 MSTORE DUP1 PUSH1 0x0 PUSH1 0x1 PUSH1 0x1 PUSH1 0xA0 SHL SUB AND DUP2 MSTORE PUSH1 0x20 ADD PUSH1 0x0 DUP2 MSTORE PUSH1 0x20 ADD PUSH1 0x0 DUP2 MSTORE POP SWAP1 JUMP JUMPDEST DUP2 MSTORE PUSH1 0x20 ADD SWAP1 PUSH1 0x1 SWAP1 SUB SWAP1 DUP2 PUSH2 0x1A1F JUMPI SWAP1 POP JUMPDEST POP SWAP1 POP PUSH1 0x0 JUMPDEST PUSH1 0x2 SLOAD DUP2 LT ISZERO PUSH2 0x1BB1 JUMPI PUSH1 0x0 PUSH1 0x2 DUP3 DUP2 SLOAD DUP2 LT PUSH2 0x1A84 JUMPI PUSH2 0x1A84 PUSH2 0x1FD9 JUMP JUMPDEST PUSH1 0x0 SWAP2 DUP3 MSTORE PUSH1 0x20 DUP1 DUP4 KECCAK256 SWAP1 SWAP2 ADD SLOAD PUSH1 0x1 PUSH1 0x1 PUSH1 0xA0 SHL SUB SWAP1 DUP2 AND DUP1 DUP5 MSTORE PUSH1 0x7 SWAP1 SWAP3 MSTORE PUSH1 0x40 DUP1 DUP5 KECCAK256 SLOAD SWAP1 MLOAD PUSH4 0x42AC91A5 PUSH1 0xE0 SHL DUP2 MSTORE SWAP3 SWAP5 POP SWAP3 SWAP2 PUSH32 0x0 SWAP1 SWAP2 AND SWAP1 PUSH4 0x42AC91A5 SWAP1 PUSH2 0x1AF5 SWAP1 DUP8 SWAP1 PUSH1 0x4 ADD PUSH2 0x2283 JUMP JUMPDEST PUSH1 0x20 PUSH1 0x40 MLOAD DUP1 DUP4 SUB DUP2 DUP7 GAS STATICCALL ISZERO DUP1 ISZERO PUSH2 0x1B12 JUMPI RETURNDATASIZE PUSH1 0x0 DUP1 RETURNDATACOPY RETURNDATASIZE PUSH1 0x0 REVERT JUMPDEST POP POP POP POP PUSH1 0x40 MLOAD RETURNDATASIZE PUSH1 0x1F NOT PUSH1 0x1F DUP3 ADD AND DUP3 ADD DUP1 PUSH1 0x40 MSTORE POP DUP2 ADD SWAP1 PUSH2 0x1B36 SWAP2 SWAP1 PUSH2 0x2292 JUMP JUMPDEST SWAP1 POP PUSH1 0x0 PUSH8 0xDE0B6B3A7640000 PUSH2 0x1B4D DUP4 DUP6 PUSH2 0x2005 JUMP JUMPDEST PUSH2 0x1B57 SWAP2 SWAP1 PUSH2 0x2032 JUMP JUMPDEST SWAP1 POP PUSH1 0x40 MLOAD DUP1 PUSH1 0x60 ADD PUSH1 0x40 MSTORE DUP1 DUP6 PUSH1 0x1 PUSH1 0x1 PUSH1 0xA0 SHL SUB AND DUP2 MSTORE PUSH1 0x20 ADD DUP5 DUP2 MSTORE PUSH1 0x20 ADD DUP3 DUP2 MSTORE POP DUP7 DUP7 DUP2 MLOAD DUP2 LT PUSH2 0x1B8F JUMPI PUSH2 0x1B8F PUSH2 0x1FD9 JUMP JUMPDEST PUSH1 0x20 MUL PUSH1 0x20 ADD ADD DUP2 SWAP1 MSTORE POP POP POP POP POP DUP1 DUP1 PUSH2 0x1BA9 SWAP1 PUSH2 0x2059 JUMP JUMPDEST SWAP2 POP POP PUSH2 0x1A65 JUMP JUMPDEST POP SWAP1 JUMP JUMPDEST PUSH1 0x0 PUSH1 0x1 SLOAD PUSH1 0x0 SUB PUSH2 0x1BC9 JUMPI POP PUSH1 0x0 SWAP2 SWAP1 POP JUMP JUMPDEST PUSH2 0x2710 PUSH1 0x1 SLOAD DUP4 PUSH2 0x1BDA SWAP2 SWAP1 PUSH2 0x2005 JUMP JUMPDEST PUSH2 0x1BE4 SWAP2 SWAP1 PUSH2 0x2032 JUMP JUMPDEST SWAP3 SWAP2 POP POP JUMP JUMPDEST PUSH1 0x0 DUP2 DUP4 GT PUSH2 0x1C02 JUMPI PUSH2 0x1BFD DUP4 DUP4 PUSH2 0x2046 JUMP JUMPDEST PUSH2 0x1C0C JUMP JUMPDEST PUSH2 0x1C0C DUP3 DUP5 PUSH2 0x2046 JUMP JUMPDEST SWAP4 SWAP3 POP POP POP JUMP JUMPDEST PUSH1 0x1 PUSH1 0x1 PUSH1 0xA0 SHL SUB AND SWAP1 MSTORE JUMP JUMPDEST DUP1 CALLDATALOAD PUSH1 0x1 PUSH1 0x1 PUSH1 0xA0 SHL SUB DUP2 AND DUP2 EQ PUSH2 0x1C37 JUMPI PUSH1 0x0 DUP1 REVERT JUMPDEST SWAP2 SWAP1 POP JUMP JUMPDEST PUSH1 0x0 DUP1 PUSH1 0x40 DUP4 DUP6 SUB SLT ISZERO PUSH2 0x1C4F JUMPI PUSH1 0x0 DUP1 REVERT JUMPDEST DUP3 CALLDATALOAD SWAP2 POP PUSH2 0x1C5F PUSH1 0x20 DUP5 ADD PUSH2 0x1C20 JUMP JUMPDEST SWAP1 POP SWAP3 POP SWAP3 SWAP1 POP JUMP JUMPDEST PUSH1 0x0 PUSH1 0x20 DUP3 DUP5 SUB SLT ISZERO PUSH2 0x1C7A JUMPI PUSH1 0x0 DUP1 REVERT JUMPDEST DUP2 CALLDATALOAD PUSH1 0xFF DUP2 AND DUP2 EQ PUSH2 0x1C0C JUMPI PUSH1 0x0 DUP1 REVERT JUMPDEST PUSH1 0x2 DUP2 LT PUSH2 0x1CA9 JUMPI PUSH4 0x4E487B71 PUSH1 0xE0 SHL PUSH1 0x0 MSTORE PUSH1 0x21 PUSH1 0x4 MSTORE PUSH1 0x24 PUSH1 0x0 REVERT JUMPDEST POP JUMP JUMPDEST PUSH1 0x20 DUP2 ADD PUSH2 0x1CB9 DUP4 PUSH2 0x1C8B JUMP JUMPDEST SWAP2 SWAP1 MSTORE SWAP1 JUMP JUMPDEST PUSH1 0x0 DUP1 PUSH1 0x40 DUP4 DUP6 SUB SLT ISZERO PUSH2 0x1CD2 JUMPI PUSH1 0x0 DUP1 REVERT JUMPDEST PUSH2 0x1CDB DUP4 PUSH2 0x1C20 JUMP JUMPDEST SWAP2 POP PUSH1 0x20 DUP4 ADD CALLDATALOAD PUSH1 0x1 PUSH1 0x1 PUSH1 0x40 SHL SUB DUP2 AND DUP2 EQ PUSH2 0x1CF7 JUMPI PUSH1 0x0 DUP1 REVERT JUMPDEST DUP1 SWAP2 POP POP SWAP3 POP SWAP3 SWAP1 POP JUMP JUMPDEST PUSH1 0x0 DUP2 MLOAD DUP1 DUP5 MSTORE PUSH1 0x20 DUP1 DUP6 ADD SWAP5 POP DUP1 DUP5 ADD PUSH1 0x0 JUMPDEST DUP4 DUP2 LT ISZERO PUSH2 0x1D36 JUMPI DUP2 MLOAD PUSH2 0xFFFF AND DUP8 MSTORE SWAP6 DUP3 ADD SWAP6 SWAP1 DUP3 ADD SWAP1 PUSH1 0x1 ADD PUSH2 0x1D16 JUMP JUMPDEST POP SWAP5 SWAP6 SWAP5 POP POP POP POP POP JUMP JUMPDEST PUSH1 0x60 DUP2 MSTORE PUSH1 0x0 PUSH2 0x1D54 PUSH1 0x60 DUP4 ADD DUP7 PUSH2 0x1D02 JUMP JUMPDEST DUP3 DUP2 SUB PUSH1 0x20 DUP5 DUP2 ADD SWAP2 SWAP1 SWAP2 MSTORE DUP6 MLOAD DUP1 DUP4 MSTORE DUP7 DUP3 ADD SWAP3 DUP3 ADD SWAP1 PUSH1 0x0 JUMPDEST DUP2 DUP2 LT ISZERO PUSH2 0x1D8D JUMPI DUP5 MLOAD ISZERO ISZERO DUP4 MSTORE SWAP4 DUP4 ADD SWAP4 SWAP2 DUP4 ADD SWAP2 PUSH1 0x1 ADD PUSH2 0x1D6F JUMP JUMPDEST POP POP DUP5 DUP2 SUB PUSH1 0x40 DUP7 ADD MSTORE DUP6 MLOAD DUP1 DUP3 MSTORE SWAP1 DUP3 ADD SWAP3 POP DUP2 DUP7 ADD SWAP1 PUSH1 0x0 JUMPDEST DUP2 DUP2 LT ISZERO PUSH2 0x1DCD JUMPI DUP3 MLOAD PUSH1 0x1 PUSH1 0x1 PUSH1 0x40 SHL SUB AND DUP6 MSTORE SWAP4 DUP4 ADD SWAP4 SWAP2 DUP4 ADD SWAP2 PUSH1 0x1 ADD PUSH2 0x1DA8 JUMP JUMPDEST POP SWAP3 SWAP9 SWAP8 POP POP POP POP POP POP POP POP JUMP JUMPDEST PUSH1 0x20 DUP2 MSTORE PUSH1 0x0 PUSH2 0x1C0C PUSH1 0x20 DUP4 ADD DUP5 PUSH2 0x1D02 JUMP JUMPDEST PUSH1 0x0 PUSH1 0x20 DUP3 DUP5 SUB SLT ISZERO PUSH2 0x1E00 JUMPI PUSH1 0x0 DUP1 REVERT JUMPDEST PUSH2 0x1C0C DUP3 PUSH2 0x1C20 JUMP JUMPDEST PUSH1 0x0 PUSH1 0x20 DUP3 DUP5 SUB SLT ISZERO PUSH2 0x1E1B JUMPI PUSH1 0x0 DUP1 REVERT JUMPDEST POP CALLDATALOAD SWAP2 SWAP1 POP JUMP JUMPDEST PUSH1 0x0 PUSH2 0x100 DUP3 MLOAD DUP5 MSTORE PUSH1 0x20 DUP1 DUP5 ADD MLOAD DUP3 DUP3 DUP8 ADD MSTORE DUP1 MLOAD DUP1 DUP5 DUP9 ADD MSTORE PUSH1 0x0 SWAP4 POP JUMPDEST DUP1 DUP5 LT ISZERO PUSH2 0x1E61 JUMPI DUP2 DUP5 ADD DUP4 ADD MLOAD DUP8 DUP6 ADD PUSH2 0x120 ADD MSTORE SWAP3 DUP3 ADD SWAP3 PUSH2 0x1E42 JUMP JUMPDEST PUSH2 0x120 SWAP4 POP PUSH1 0x0 DUP5 DUP3 DUP10 ADD ADD MSTORE PUSH1 0x40 DUP7 ADD MLOAD SWAP3 POP PUSH2 0x1E82 PUSH1 0x40 DUP9 ADD DUP5 PUSH2 0x1C13 JUMP JUMPDEST PUSH1 0x60 DUP7 ADD MLOAD PUSH1 0x60 DUP9 ADD MSTORE PUSH1 0x80 DUP7 ADD MLOAD SWAP3 POP PUSH2 0x1EA0 PUSH1 0x80 DUP9 ADD DUP5 PUSH2 0x1C13 JUMP JUMPDEST PUSH1 0xA0 DUP7 ADD MLOAD PUSH1 0xA0 DUP9 ADD MSTORE PUSH1 0xC0 DUP7 ADD MLOAD PUSH1 0xC0 DUP9 ADD MSTORE PUSH1 0xE0 DUP7 ADD MLOAD SWAP3 POP PUSH2 0x1EC8 PUSH1 0xE0 DUP9 ADD DUP5 PUSH2 0x1C13 JUMP JUMPDEST PUSH1 0x1F ADD PUSH1 0x1F NOT AND SWAP6 SWAP1 SWAP6 ADD SWAP1 SWAP2 ADD SWAP5 SWAP4 POP POP POP POP JUMP JUMPDEST PUSH1 0x0 PUSH1 0x20 DUP1 DUP4 ADD DUP2 DUP5 MSTORE DUP1 DUP6 MLOAD DUP1 DUP4 MSTORE PUSH1 0x40 DUP7 ADD SWAP2 POP PUSH1 0x40 DUP2 PUSH1 0x5 SHL DUP8 ADD ADD SWAP3 POP DUP4 DUP8 ADD PUSH1 0x0 JUMPDEST DUP3 DUP2 LT ISZERO PUSH2 0x1F33 JUMPI PUSH1 0x3F NOT DUP9 DUP7 SUB ADD DUP5 MSTORE PUSH2 0x1F21 DUP6 DUP4 MLOAD PUSH2 0x1E22 JUMP JUMPDEST SWAP5 POP SWAP3 DUP6 ADD SWAP3 SWAP1 DUP6 ADD SWAP1 PUSH1 0x1 ADD PUSH2 0x1F05 JUMP JUMPDEST POP SWAP3 SWAP8 SWAP7 POP POP POP POP POP POP POP JUMP JUMPDEST PUSH1 0x20 DUP1 DUP3 MSTORE DUP3 MLOAD DUP3 DUP3 ADD DUP2 SWAP1 MSTORE PUSH1 0x0 SWAP2 SWAP1 PUSH1 0x40 SWAP1 DUP2 DUP6 ADD SWAP1 DUP7 DUP5 ADD DUP6 JUMPDEST DUP3 DUP2 LT ISZERO PUSH2 0x1F95 JUMPI DUP2 MLOAD DUP1 MLOAD PUSH1 0x1 PUSH1 0x1 PUSH1 0xA0 SHL SUB AND DUP6 MSTORE DUP7 DUP2 ADD MLOAD DUP8 DUP7 ADD MSTORE DUP6 ADD MLOAD DUP6 DUP6 ADD MSTORE PUSH1 0x60 SWAP1 SWAP4 ADD SWAP3 SWAP1 DUP6 ADD SWAP1 PUSH1 0x1 ADD PUSH2 0x1F5D JUMP JUMPDEST POP SWAP2 SWAP8 SWAP7 POP POP POP POP POP POP POP JUMP JUMPDEST PUSH1 0x20 DUP1 DUP3 MSTORE PUSH1 0x1D SWAP1 DUP3 ADD MSTORE PUSH32 0x446F776E53747261746567793A204E6F7420696E697469616C697A6564000000 PUSH1 0x40 DUP3 ADD MSTORE PUSH1 0x60 ADD SWAP1 JUMP JUMPDEST PUSH4 0x4E487B71 PUSH1 0xE0 SHL PUSH1 0x0 MSTORE PUSH1 0x32 PUSH1 0x4 MSTORE PUSH1 0x24 PUSH1 0x0 REVERT JUMPDEST PUSH4 0x4E487B71 PUSH1 0xE0 SHL PUSH1 0x0 MSTORE PUSH1 0x11 PUSH1 0x4 MSTORE PUSH1 0x24 PUSH1 0x0 REVERT JUMPDEST DUP1 DUP3 MUL DUP2 ISZERO DUP3 DUP3 DIV DUP5 EQ OR PUSH2 0x1BE4 JUMPI PUSH2 0x1BE4 PUSH2 0x1FEF JUMP JUMPDEST PUSH4 0x4E487B71 PUSH1 0xE0 SHL PUSH1 0x0 MSTORE PUSH1 0x12 PUSH1 0x4 MSTORE PUSH1 0x24 PUSH1 0x0 REVERT JUMPDEST PUSH1 0x0 DUP3 PUSH2 0x2041 JUMPI PUSH2 0x2041 PUSH2 0x201C JUMP JUMPDEST POP DIV SWAP1 JUMP JUMPDEST DUP2 DUP2 SUB DUP2 DUP2 GT ISZERO PUSH2 0x1BE4 JUMPI PUSH2 0x1BE4 PUSH2 0x1FEF JUMP JUMPDEST PUSH1 0x0 PUSH1 0x1 DUP3 ADD PUSH2 0x206B JUMPI PUSH2 0x206B PUSH2 0x1FEF JUMP JUMPDEST POP PUSH1 0x1 ADD SWAP1 JUMP JUMPDEST PUSH4 0x4E487B71 PUSH1 0xE0 SHL PUSH1 0x0 MSTORE PUSH1 0x41 PUSH1 0x4 MSTORE PUSH1 0x24 PUSH1 0x0 REVERT JUMPDEST PUSH1 0x1 DUP2 DUP2 SHR SWAP1 DUP3 AND DUP1 PUSH2 0x209C JUMPI PUSH1 0x7F DUP3 AND SWAP2 POP JUMPDEST PUSH1 0x20 DUP3 LT DUP2 SUB PUSH2 0xB89 JUMPI PUSH4 0x4E487B71 PUSH1 0xE0 SHL PUSH1 0x0 MSTORE PUSH1 0x22 PUSH1 0x4 MSTORE PUSH1 0x24 PUSH1 0x0 REVERT JUMPDEST PUSH1 0x1F DUP3 GT ISZERO PUSH2 0x2106 JUMPI PUSH1 0x0 DUP2 DUP2 MSTORE PUSH1 0x20 DUP2 KECCAK256 PUSH1 0x1F DUP6 ADD PUSH1 0x5 SHR DUP2 ADD PUSH1 0x20 DUP7 LT ISZERO PUSH2 0x20E3 JUMPI POP DUP1 JUMPDEST PUSH1 0x1F DUP6 ADD PUSH1 0x5 SHR DUP3 ADD SWAP2 POP JUMPDEST DUP2 DUP2 LT ISZERO PUSH2 0x2102 JUMPI DUP3 DUP2 SSTORE PUSH1 0x1 ADD PUSH2 0x20EF JUMP JUMPDEST POP POP POP JUMPDEST POP POP POP JUMP JUMPDEST DUP2 MLOAD PUSH1 0x1 PUSH1 0x1 PUSH1 0x40 SHL SUB DUP2 GT ISZERO PUSH2 0x2124 JUMPI PUSH2 0x2124 PUSH2 0x2072 JUMP JUMPDEST PUSH2 0x2138 DUP2 PUSH2 0x2132 DUP5 SLOAD PUSH2 0x2088 JUMP JUMPDEST DUP5 PUSH2 0x20BC JUMP JUMPDEST PUSH1 0x20 DUP1 PUSH1 0x1F DUP4 GT PUSH1 0x1 DUP2 EQ PUSH2 0x216D JUMPI PUSH1 0x0 DUP5 ISZERO PUSH2 0x2155 JUMPI POP DUP6 DUP4 ADD MLOAD JUMPDEST PUSH1 0x0 NOT PUSH1 0x3 DUP7 SWAP1 SHL SHR NOT AND PUSH1 0x1 DUP6 SWAP1 SHL OR DUP6 SSTORE PUSH2 0x2102 JUMP JUMPDEST PUSH1 0x0 DUP6 DUP2 MSTORE PUSH1 0x20 DUP2 KECCAK256 PUSH1 0x1F NOT DUP7 AND SWAP2 JUMPDEST DUP3 DUP2 LT ISZERO PUSH2 0x219C JUMPI DUP9 DUP7 ADD MLOAD DUP3 SSTORE SWAP5 DUP5 ADD SWAP5 PUSH1 0x1 SWAP1 SWAP2 ADD SWAP1 DUP5 ADD PUSH2 0x217D JUMP JUMPDEST POP DUP6 DUP3 LT ISZERO PUSH2 0x21BA JUMPI DUP8 DUP6 ADD MLOAD PUSH1 0x0 NOT PUSH1 0x3 DUP9 SWAP1 SHL PUSH1 0xF8 AND SHR NOT AND DUP2 SSTORE JUMPDEST POP POP POP POP POP PUSH1 0x1 SWAP1 DUP2 SHL ADD SWAP1 SSTORE POP JUMP JUMPDEST PUSH1 0x20 DUP2 MSTORE PUSH1 0x0 PUSH2 0x1C0C PUSH1 0x20 DUP4 ADD DUP5 PUSH2 0x1E22 JUMP JUMPDEST PUSH1 0x1 PUSH1 0x1 PUSH1 0xA0 SHL SUB SWAP3 SWAP1 SWAP3 AND DUP3 MSTORE PUSH1 0x20 DUP3 ADD MSTORE PUSH1 0x40 ADD SWAP1 JUMP JUMPDEST PUSH1 0x0 PUSH1 0x20 DUP3 DUP5 SUB SLT ISZERO PUSH2 0x2208 JUMPI PUSH1 0x0 DUP1 REVERT JUMPDEST DUP2 MLOAD DUP1 ISZERO ISZERO DUP2 EQ PUSH2 0x1C0C JUMPI PUSH1 0x0 DUP1 REVERT JUMPDEST PUSH1 0x20 DUP1 DUP3 MSTORE PUSH1 0x25 SWAP1 DUP3 ADD MSTORE PUSH32 0x4261736553747261746567793A2043616C6C6572206973206E6F742074686520 PUSH1 0x40 DUP3 ADD MSTORE PUSH5 0x30B236B4B7 PUSH1 0xD9 SHL PUSH1 0x60 DUP3 ADD MSTORE PUSH1 0x80 ADD SWAP1 JUMP JUMPDEST PUSH1 0x0 PUSH1 0x1 PUSH1 0x1 PUSH1 0x40 SHL SUB DUP4 DUP2 AND DUP1 PUSH2 0x2277 JUMPI PUSH2 0x2277 PUSH2 0x201C JUMP JUMPDEST SWAP3 AND SWAP2 SWAP1 SWAP2 DIV SWAP3 SWAP2 POP POP JUMP JUMPDEST PUSH2 0xFFFF SWAP2 SWAP1 SWAP2 AND DUP2 MSTORE PUSH1 0x20 ADD SWAP1 JUMP JUMPDEST PUSH1 0x0 PUSH1 0x20 DUP3 DUP5 SUB SLT ISZERO PUSH2 0x22A4 JUMPI PUSH1 0x0 DUP1 REVERT JUMPDEST POP MLOAD SWAP2 SWAP1 POP JUMP JUMPDEST PUSH1 0x20 DUP1 DUP3 MSTORE PUSH1 0x21 SWAP1 DUP3 ADD MSTORE PUSH32 0x446F776E53747261746567793A20496E76616C69642061737365742070726963 PUSH1 0x40 DUP3 ADD MSTORE PUSH1 0x65 PUSH1 0xF8 SHL PUSH1 0x60 DUP3 ADD MSTORE PUSH1 0x80 ADD SWAP1 JUMP JUMPDEST DUP1 DUP3 ADD DUP1 DUP3 GT ISZERO PUSH2 0x1BE4 JUMPI PUSH2 0x1BE4 PUSH2 0x1FEF JUMP INVALID SWAP2 SHL DUP10 DUP9 PUSH32 0x1E582512ACFC0BB4B560349D3BA9C1E9D2B3038D38C3B05DC8FCFBAE31FCD154 0xD1 DUP5 SWAP16 LOG3 0xB9 0xE 0xC3 0xE0 0xE5 0xD3 BLOCKHASH DUP13 DUP13 0xC0 0xB6 0x21 0x2D 0x29 0x29 PUSH7 0x266B71E43CFF80 PUSH15 0x1540171B6C0C960B71A7020D9F6007 PUSH32 0x6AF931A8BBF590DA0223DACF75C7B06E1540171B6C0C960B71A7020D9F60077F PUSH11 0xF931A8BBF590DA0223DACF PUSH22 0xC7AFA164736F6C6343000814000A0000000000000000 "},"methodIdentifiers":{"USDC()":"89a30271","WBTC()":"4dede3de","WETH()":"ad5c4648","WSOL()":"9543de6f","addLiquidity(uint256,address)":"c95f9d0e","admin()":"f851a440","execute()":"61461954","getBalance()":"12065fe0","getCoinType()":"94149c1a","getHoldings()":"d353ac7c","getLeverage()":"baba68de","getOwner()":"893d20e8","getPortfolioIndices()":"5e293a4a","getPositionDirection()":"22d860c8","getProfitLoss()":"45f2a434","getTradeHistory()":"d251c05a","hypeliquidRouter()":"0e5930f5","initialize(address)":"c4d66de8","leverage()":"2c86d98e","openPositions(address,uint64)":"34344705","platformFeeBps()":"22dcd13e","proxyOwner()":"025313a2","removeLiquidity(uint256,address)":"05fe138b","strategyAssets(uint256)":"b2db983a","transferAdmin(address)":"75829def","updateLeverage(uint8)":"0a02630f","updatePlatformFee(uint256)":"aa0b5988"}}}}}