{"contracts/StrategyProxy.sol":{"StrategyProxy":{"abi":[{"inputs":[{"internalType":"address","name":"_owner","type":"address"},{"internalType":"address","name":"_implementation","type":"address"},{"internalType":"address","name":"_feeRecipient","type":"address"},{"internalType":"address","name":"_hypeliquidRouter","type":"address"},{"internalType":"address","name":"_admin","type":"address"},{"internalType":"uint8","name":"_leverage","type":"uint8"},{"internalType":"uint256","name":"_platformFeeBps","type":"uint256"}],"stateMutability":"nonpayable","type":"constructor"},{"anonymous":false,"inputs":[{"indexed":true,"internalType":"address","name":"user","type":"address"},{"indexed":false,"internalType":"uint256","name":"amount","type":"uint256"}],"name":"Deposited","type":"event"},{"anonymous":false,"inputs":[{"indexed":true,"internalType":"address","name":"user","type":"address"}],"name":"Executed","type":"event"},{"anonymous":false,"inputs":[{"indexed":true,"internalType":"address","name":"user","type":"address"},{"indexed":false,"internalType":"uint256","name":"amount","type":"uint256"}],"name":"LiquidityAdded","type":"event"},{"anonymous":false,"inputs":[{"indexed":true,"internalType":"address","name":"user","type":"address"},{"indexed":false,"internalType":"uint256","name":"amount","type":"uint256"}],"name":"LiquidityRemoved","type":"event"},{"anonymous":false,"inputs":[{"indexed":true,"internalType":"address","name":"previousOwner","type":"address"},{"indexed":true,"internalType":"address","name":"newOwner","type":"address"}],"name":"OwnershipTransferred","type":"event"},{"anonymous":false,"inputs":[{"indexed":true,"internalType":"address","name":"user","type":"address"},{"indexed":false,"internalType":"uint256","name":"amount","type":"uint256"}],"name":"Withdrawn","type":"event"},{"stateMutability":"payable","type":"fallback"},{"inputs":[{"internalType":"uint256","name":"amount","type":"uint256"}],"name":"addLiquidity","outputs":[],"stateMutability":"nonpayable","type":"function"},{"inputs":[],"name":"admin","outputs":[{"internalType":"address","name":"","type":"address"}],"stateMutability":"view","type":"function"},{"inputs":[{"internalType":"uint256","name":"amount","type":"uint256"}],"name":"deposit","outputs":[],"stateMutability":"payable","type":"function"},{"inputs":[],"name":"execute","outputs":[],"stateMutability":"nonpayable","type":"function"},{"inputs":[],"name":"feeRecipient","outputs":[{"internalType":"address","name":"","type":"address"}],"stateMutability":"view","type":"function"},{"inputs":[],"name":"getBalance","outputs":[{"internalType":"uint256","name":"balance","type":"uint256"}],"stateMutability":"view","type":"function"},{"inputs":[],"name":"getHoldings","outputs":[{"components":[{"internalType":"address","name":"asset","type":"address"},{"internalType":"uint256","name":"amount","type":"uint256"},{"internalType":"uint256","name":"valueUsd","type":"uint256"}],"internalType":"struct Holding[]","name":"holdings","type":"tuple[]"}],"stateMutability":"view","type":"function"},{"inputs":[],"name":"getOwner","outputs":[{"internalType":"address","name":"ownerAddress","type":"address"}],"stateMutability":"view","type":"function"},{"inputs":[],"name":"getProfitLoss","outputs":[{"internalType":"int256","name":"pnl","type":"int256"}],"stateMutability":"view","type":"function"},{"inputs":[],"name":"getTradeHistory","outputs":[{"components":[{"internalType":"uint256","name":"timestamp","type":"uint256"},{"internalType":"string","name":"tradeType","type":"string"},{"internalType":"address","name":"assetIn","type":"address"},{"internalType":"uint256","name":"amountIn","type":"uint256"},{"internalType":"address","name":"assetOut","type":"address"},{"internalType":"uint256","name":"amountOut","type":"uint256"},{"internalType":"uint256","name":"feeAmount","type":"uint256"},{"internalType":"address","name":"feeAsset","type":"address"}],"internalType":"struct Trade[]","name":"history","type":"tuple[]"}],"stateMutability":"view","type":"function"},{"inputs":[],"name":"hypeliquidRouter","outputs":[{"internalType":"address","name":"","type":"address"}],"stateMutability":"view","type":"function"},{"inputs":[],"name":"implementation","outputs":[{"internalType":"address","name":"","type":"address"}],"stateMutability":"view","type":"function"},{"inputs":[],"name":"leverage","outputs":[{"internalType":"uint8","name":"","type":"uint8"}],"stateMutability":"view","type":"function"},{"inputs":[],"name":"owner","outputs":[{"internalType":"address","name":"","type":"address"}],"stateMutability":"view","type":"function"},{"inputs":[],"name":"platformFeeBps","outputs":[{"internalType":"uint256","name":"","type":"uint256"}],"stateMutability":"view","type":"function"},{"inputs":[],"name":"proxyOwner","outputs":[{"internalType":"address","name":"","type":"address"}],"stateMutability":"view","type":"function"},{"inputs":[{"internalType":"uint256","name":"amount","type":"uint256"}],"name":"removeLiquidity","outputs":[],"stateMutability":"nonpayable","type":"function"},{"inputs":[{"internalType":"address","name":"newOwner","type":"address"}],"name":"transferOwnership","outputs":[],"stateMutability":"nonpayable","type":"function"},{"inputs":[],"name":"userBalance","outputs":[{"internalType":"uint256","name":"","type":"uint256"}],"stateMutability":"view","type":"function"},{"inputs":[{"internalType":"uint256","name":"amount","type":"uint256"}],"name":"withdraw","outputs":[],"stateMutability":"nonpayable","type":"function"},{"stateMutability":"payable","type":"receive"}],"evm":{"bytecode":{"linkReferences":{},"object":"60806040523480156200001157600080fd5b50604051620019fa380380620019fa8339810160408190526200003491620002cf565b6001600160a01b038716620000a45760405162461bcd60e51b815260206004820152602b60248201527f537472617465677950726f78793a204f776e65722063616e6e6f74206265207a60448201526a65726f206164647265737360a81b60648201526084015b60405180910390fd5b6001600160a01b038616620001225760405162461bcd60e51b815260206004820152603460248201527f537472617465677950726f78793a20496d706c656d656e746174696f6e20636160448201527f6e6e6f74206265207a65726f206164647265737300000000000000000000000060648201526084016200009b565b6001600160a01b038516620001a05760405162461bcd60e51b815260206004820152603360248201527f537472617465677950726f78793a2046656520726563697069656e742063616e60448201527f6e6f74206265207a65726f20616464726573730000000000000000000000000060648201526084016200009b565b6001600160a01b0384166200020d5760405162461bcd60e51b815260206004820152602c60248201527f537472617465677950726f78793a20526f757465722063616e6e6f742062652060448201526b7a65726f206164647265737360a01b60648201526084016200009b565b600480546001600160a01b03199081166001600160a01b038a81169182179093556005805483168a851617905560068054831689851617905560008054909216878416178255600180549387166001600160a81b031990941693909317600160a01b60ff8716021790925560028390556040517f8be0079c531659141344cd1fd0a4f28419497f9722a3daafe3b4186f6b6457e0908290a35050505050505062000364565b80516001600160a01b0381168114620002ca57600080fd5b919050565b600080600080600080600060e0888a031215620002eb57600080fd5b620002f688620002b2565b96506200030660208901620002b2565b95506200031660408901620002b2565b94506200032660608901620002b2565b93506200033660808901620002b2565b925060a088015160ff811681146200034d57600080fd5b8092505060c0880151905092959891949750929550565b61168680620003746000396000f3fe6080604052600436106100f35760003560e01c8063025313a2146101245780630e5930f51461016157806312065fe01461018157806322dcd13e146101a45780632c86d98e146101ba5780632e1a7d4d146101ed57806345f2a4341461020d578063469048401461022257806351c6590a146102425780635c60da1b146102625780636146195414610282578063893d20e8146102975780638da5cb5b146102ac5780639c8f9f23146102cc578063b6b55f25146102ec578063bf152765146102ff578063d251c05a14610315578063d353ac7c14610337578063f2fde38b14610359578063f851a440146103795761010f565b3661010f5760055461010d906001600160a01b0316610399565b005b60055461010d906001600160a01b0316610399565b34801561013057600080fd5b50600354610144906001600160a01b031681565b6040516001600160a01b0390911681526020015b60405180910390f35b34801561016d57600080fd5b50600054610144906001600160a01b031681565b34801561018d57600080fd5b506101966103bd565b604051908152602001610158565b3480156101b057600080fd5b5061019660025481565b3480156101c657600080fd5b506001546101db90600160a01b900460ff1681565b60405160ff9091168152602001610158565b3480156101f957600080fd5b5061010d6102083660046110c5565b6104cc565b34801561021957600080fd5b506101966105f0565b34801561022e57600080fd5b50600654610144906001600160a01b031681565b34801561024e57600080fd5b5061010d61025d3660046110c5565b6106e3565b34801561026e57600080fd5b50600554610144906001600160a01b031681565b34801561028e57600080fd5b5061010d6108c4565b3480156102a357600080fd5b506101446109eb565b3480156102b857600080fd5b50600454610144906001600160a01b031681565b3480156102d857600080fd5b5061010d6102e73660046110c5565b610aed565b61010d6102fa3660046110c5565b610cba565b34801561030b57600080fd5b5061019660075481565b34801561032157600080fd5b5061032a610d78565b6040516101589190611102565b34801561034357600080fd5b5061034c610e82565b60405161015891906111ef565b34801561036557600080fd5b5061010d610374366004611269565b610f88565b34801561038557600080fd5b50600154610144906001600160a01b031681565b3660008037600080366000845af43d6000803e8080156103b8573d6000f35b3d6000fd5b60055460408051600481526024810182526020810180516001600160e01b0316629032ff60e51b1790529051600092839283926001600160a01b0390921691610406919061128d565b600060405180830381855afa9150503d8060008114610441576040519150601f19603f3d011682016040523d82523d6000602084013e610446565b606091505b5091509150816104b15760405162461bcd60e51b815260206004820152602b60248201527f537472617465677950726f78793a2067657442616c616e63652073746174696360448201526a18d85b1b0819985a5b195960aa1b60648201526084015b60405180910390fd5b808060200190518101906104c591906112a9565b9250505090565b6004546001600160a01b031633146105355760405162461bcd60e51b815260206004820152602660248201527f537472617465677950726f78793a204f6e6c79206f776e65722063616e20776960448201526574686472617760d01b60648201526084016104a8565b8060075410156105935760405162461bcd60e51b815260206004820152602360248201527f537472617465677950726f78793a20496e73756666696369656e742062616c616044820152626e636560e81b60648201526084016104a8565b80600760008282546105a591906112d8565b90915550506004546040518281526001600160a01b03909116907f7084f5476618d8e60b11ef0d7d3f06914655adb8793e28ff7f018d4c76d505d5906020015b60405180910390a250565b60055460408051600481526024810182526020810180516001600160e01b031663117ca90d60e21b1790529051600092839283926001600160a01b039092169161063a919061128d565b600060405180830381855afa9150503d8060008114610675576040519150601f19603f3d011682016040523d82523d6000602084013e61067a565b606091505b5091509150816104b15760405162461bcd60e51b815260206004820152602e60248201527f537472617465677950726f78793a2067657450726f6669744c6f73732073746160448201526d1d1a58d8d85b1b0819985a5b195960921b60648201526084016104a8565b6004546001600160a01b031633146107515760405162461bcd60e51b815260206004820152602b60248201527f537472617465677950726f78793a204f6e6c79206f776e65722063616e20616460448201526a64206c697175696469747960a81b60648201526084016104a8565b60055460065460405160009283926001600160a01b03918216926364afce8760e11b926107859288929116906024016112f1565b60408051601f198184030181529181526020820180516001600160e01b03166001600160e01b03199094169390931790925290516107c3919061128d565b600060405180830381855af49150503d80600081146107fe576040519150601f19603f3d011682016040523d82523d6000602084013e610803565b606091505b50915091508161087c5780511561081e578051602082018181fd5b60405162461bcd60e51b815260206004820152602d60248201527f537472617465677950726f78793a206164644c69717569646974792064656c6560448201526c19d85d1a5bdb8819985a5b1959609a1b60648201526084016104a8565b6004546040518481526001600160a01b03909116907fc17cea59c2955cb181b03393209566960365771dbba9dc3d510180e7cb312088906020015b60405180910390a2505050565b60055460408051600481526024810182526020810180516001600160e01b0316631851865560e21b179052905160009283926001600160a01b039091169161090c919061128d565b600060405180830381855af49150503d8060008114610947576040519150601f19603f3d011682016040523d82523d6000602084013e61094c565b606091505b5091509150816109af5760405162461bcd60e51b815260206004820152602860248201527f537472617465677950726f78793a20657865637574652064656c65676174696f6044820152671b8819985a5b195960c21b60648201526084016104a8565b6004546040516001600160a01b03909116907fdf42bfa876a741bbe542cf1a563269e1390bf03901b5d433a6e8afd6ee36dbfe90600090a25050565b60055460408051600481526024810182526020810180516001600160e01b0316631127a41d60e31b1790529051600092839283926001600160a01b0390921691610a35919061128d565b600060405180830381855afa9150503d8060008114610a70576040519150601f19603f3d011682016040523d82523d6000602084013e610a75565b606091505b509150915081610ad95760405162461bcd60e51b815260206004820152602960248201527f537472617465677950726f78793a206765744f776e65722073746174696363616044820152681b1b0819985a5b195960ba1b60648201526084016104a8565b808060200190518101906104c59190611308565b6004546001600160a01b03163314610b5e5760405162461bcd60e51b815260206004820152602e60248201527f537472617465677950726f78793a204f6e6c79206f776e65722063616e20726560448201526d6d6f7665206c697175696469747960901b60648201526084016104a8565b60055460065460405160009283926001600160a01b03918216926305fe138b60e01b92610b929288929116906024016112f1565b60408051601f198184030181529181526020820180516001600160e01b03166001600160e01b0319909416939093179092529051610bd0919061128d565b600060405180830381855af49150503d8060008114610c0b576040519150601f19603f3d011682016040523d82523d6000602084013e610c10565b606091505b509150915081610c7b5760405162461bcd60e51b815260206004820152603060248201527f537472617465677950726f78793a2072656d6f76654c6971756964697479206460448201526f195b1959d85d1a5bdb8819985a5b195960821b60648201526084016104a8565b6004546040518481526001600160a01b03909116907fc2c3f06e49b9f15e7b4af9055e183b0d73362e033ad82a07dec9bf9840171719906020016108b7565b6004546001600160a01b03163314610d225760405162461bcd60e51b815260206004820152602560248201527f537472617465677950726f78793a204f6e6c79206f776e65722063616e2064656044820152641c1bdcda5d60da1b60648201526084016104a8565b8060076000828254610d349190611325565b90915550506004546040518281526001600160a01b03909116907f2da466a7b24304f47e87fa2e1e5a81b9831ce54fec19055ce277ca2f39ba42c4906020016105e5565b60055460408051600481526024810182526020810180516001600160e01b0316636928e02d60e11b179052905160609260009283926001600160a01b0390921691610dc3919061128d565b600060405180830381855afa9150503d8060008114610dfe576040519150601f19603f3d011682016040523d82523d6000602084013e610e03565b606091505b509150915081610e6e5760405162461bcd60e51b815260206004820152603060248201527f537472617465677950726f78793a206765745472616465486973746f7279207360448201526f1d185d1a58d8d85b1b0819985a5b195960821b60648201526084016104a8565b808060200190518101906104c59190611467565b60055460408051600481526024810182526020810180516001600160e01b03166334d4eb1f60e21b179052905160609260009283926001600160a01b0390921691610ecd919061128d565b600060405180830381855afa9150503d8060008114610f08576040519150601f19603f3d011682016040523d82523d6000602084013e610f0d565b606091505b509150915081610f745760405162461bcd60e51b815260206004820152602c60248201527f537472617465677950726f78793a20676574486f6c64696e677320737461746960448201526b18d8d85b1b0819985a5b195960a21b60648201526084016104a8565b808060200190518101906104c591906115b3565b6004546001600160a01b03163314610ff15760405162461bcd60e51b815260206004820152602660248201527f537472617465677950726f78793a2063616c6c6572206973206e6f74207468656044820152651037bbb732b960d11b60648201526084016104a8565b6001600160a01b03811661105c5760405162461bcd60e51b815260206004820152602c60248201527f537472617465677950726f78793a206e6577206f776e6572206973207468652060448201526b7a65726f206164647265737360a01b60648201526084016104a8565b6004546040516001600160a01b038084169216907f8be0079c531659141344cd1fd0a4f28419497f9722a3daafe3b4186f6b6457e090600090a3600480546001600160a01b0319166001600160a01b0392909216919091179055565b6001600160a01b03169052565b6000602082840312156110d757600080fd5b5035919050565b60005b838110156110f95781810151838201526020016110e1565b50506000910152565b60006020808301818452808551808352604092508286019150828160051b87010184880160005b838110156111e157603f1989840301855281516101008151855288820151818a870152805180838801526101209250611167818489018d85016110de565b8984015191506111798a8801836110b8565b60608481015190880152608080850151909250611198838901826110b8565b5060a0848101519088015260c0808501519088015260e0938401519391506111c2828801856110b8565b978a0197601f01601f1916959095010193505090860190600101611129565b509098975050505050505050565b602080825282518282018190526000919060409081850190868401855b8281101561124457815180516001600160a01b031685528681015187860152850151858501526060909301929085019060010161120c565b5091979650505050505050565b6001600160a01b038116811461126657600080fd5b50565b60006020828403121561127b57600080fd5b813561128681611251565b9392505050565b6000825161129f8184602087016110de565b9190910192915050565b6000602082840312156112bb57600080fd5b5051919050565b634e487b7160e01b600052601160045260246000fd5b818103818111156112eb576112eb6112c2565b92915050565b9182526001600160a01b0316602082015260400190565b60006020828403121561131a57600080fd5b815161128681611251565b808201808211156112eb576112eb6112c2565b634e487b7160e01b600052604160045260246000fd5b60405161010081016001600160401b038111828210171561137157611371611338565b60405290565b604051606081016001600160401b038111828210171561137157611371611338565b604051601f8201601f191681016001600160401b03811182821017156113c1576113c1611338565b604052919050565b60006001600160401b038211156113e2576113e2611338565b5060051b60200190565b600082601f8301126113fd57600080fd5b81516001600160401b0381111561141657611416611338565b611429601f8201601f1916602001611399565b81815284602083860101111561143e57600080fd5b61144f8260208301602087016110de565b949350505050565b805161146281611251565b919050565b6000602080838503121561147a57600080fd5b82516001600160401b038082111561149157600080fd5b818501915085601f8301126114a557600080fd5b81516114b86114b3826113c9565b611399565b81815260059190911b830184019084810190888311156114d757600080fd5b8585015b838110156115a6578051858111156114f35760008081fd5b8601610100818c03601f190181131561150c5760008081fd5b61151461134e565b8983015181526040808401518981111561152e5760008081fd5b61153c8f8d838801016113ec565b8c84015250606061154e818601611457565b828401526080915081850151818401525060a061156c818601611457565b8284015260c0915081850151818401525060e08085015182840152611592848601611457565b9083015250855250509186019186016114db565b5098975050505050505050565b600060208083850312156115c657600080fd5b82516001600160401b038111156115dc57600080fd5b8301601f810185136115ed57600080fd5b80516115fb6114b3826113c9565b8181526060918202830184019184820191908884111561161a57600080fd5b938501935b8385101561166d5780858a0312156116375760008081fd5b61163f611377565b855161164a81611251565b81528587015187820152604080870151908201528352938401939185019161161f565b5097965050505050505056fea164736f6c6343000814000a","opcodes":"PUSH1 0x80 PUSH1 0x40 MSTORE CALLVALUE DUP1 ISZERO PUSH3 0x11 JUMPI PUSH1 0x0 DUP1 REVERT JUMPDEST POP PUSH1 0x40 MLOAD PUSH3 0x19FA CODESIZE SUB DUP1 PUSH3 0x19FA DUP4 CODECOPY DUP2 ADD PUSH1 0x40 DUP2 SWAP1 MSTORE PUSH3 0x34 SWAP2 PUSH3 0x2CF JUMP JUMPDEST PUSH1 0x1 PUSH1 0x1 PUSH1 0xA0 SHL SUB DUP8 AND PUSH3 0xA4 JUMPI PUSH1 0x40 MLOAD PUSH3 0x461BCD PUSH1 0xE5 SHL DUP2 MSTORE PUSH1 0x20 PUSH1 0x4 DUP3 ADD MSTORE PUSH1 0x2B PUSH1 0x24 DUP3 ADD MSTORE PUSH32 0x537472617465677950726F78793A204F776E65722063616E6E6F74206265207A PUSH1 0x44 DUP3 ADD MSTORE PUSH11 0x65726F2061646472657373 PUSH1 0xA8 SHL PUSH1 0x64 DUP3 ADD MSTORE PUSH1 0x84 ADD JUMPDEST PUSH1 0x40 MLOAD DUP1 SWAP2 SUB SWAP1 REVERT JUMPDEST PUSH1 0x1 PUSH1 0x1 PUSH1 0xA0 SHL SUB DUP7 AND PUSH3 0x122 JUMPI PUSH1 0x40 MLOAD PUSH3 0x461BCD PUSH1 0xE5 SHL DUP2 MSTORE PUSH1 0x20 PUSH1 0x4 DUP3 ADD MSTORE PUSH1 0x34 PUSH1 0x24 DUP3 ADD MSTORE PUSH32 0x537472617465677950726F78793A20496D706C656D656E746174696F6E206361 PUSH1 0x44 DUP3 ADD MSTORE PUSH32 0x6E6E6F74206265207A65726F2061646472657373000000000000000000000000 PUSH1 0x64 DUP3 ADD MSTORE PUSH1 0x84 ADD PUSH3 0x9B JUMP JUMPDEST PUSH1 0x1 PUSH1 0x1 PUSH1 0xA0 SHL SUB DUP6 AND PUSH3 0x1A0 JUMPI PUSH1 0x40 MLOAD PUSH3 0x461BCD PUSH1 0xE5 SHL DUP2 MSTORE PUSH1 0x20 PUSH1 0x4 DUP3 ADD MSTORE PUSH1 0x33 PUSH1 0x24 DUP3 ADD MSTORE PUSH32 0x537472617465677950726F78793A2046656520726563697069656E742063616E PUSH1 0x44 DUP3 ADD MSTORE PUSH32 0x6E6F74206265207A65726F206164647265737300000000000000000000000000 PUSH1 0x64 DUP3 ADD MSTORE PUSH1 0x84 ADD PUSH3 0x9B JUMP JUMPDEST PUSH1 0x1 PUSH1 0x1 PUSH1 0xA0 SHL SUB DUP5 AND PUSH3 0x20D JUMPI PUSH1 0x40 MLOAD PUSH3 0x461BCD PUSH1 0xE5 SHL DUP2 MSTORE PUSH1 0x20 PUSH1 0x4 DUP3 ADD MSTORE PUSH1 0x2C PUSH1 0x24 DUP3 ADD MSTORE PUSH32 0x537472617465677950726F78793A20526F757465722063616E6E6F7420626520 PUSH1 0x44 DUP3 ADD MSTORE PUSH12 0x7A65726F2061646472657373 PUSH1 0xA0 SHL PUSH1 0x64 DUP3 ADD MSTORE PUSH1 0x84 ADD PUSH3 0x9B JUMP JUMPDEST PUSH1 0x4 DUP1 SLOAD PUSH1 0x1 PUSH1 0x1 PUSH1 0xA0 SHL SUB NOT SWAP1 DUP2 AND PUSH1 0x1 PUSH1 0x1 PUSH1 0xA0 SHL SUB DUP11 DUP2 AND SWAP2 DUP3 OR SWAP1 SWAP4 SSTORE PUSH1 0x5 DUP1 SLOAD DUP4 AND DUP11 DUP6 AND OR SWAP1 SSTORE PUSH1 0x6 DUP1 SLOAD DUP4 AND DUP10 DUP6 AND OR SWAP1 SSTORE PUSH1 0x0 DUP1 SLOAD SWAP1 SWAP3 AND DUP8 DUP5 AND OR DUP3 SSTORE PUSH1 0x1 DUP1 SLOAD SWAP4 DUP8 AND PUSH1 0x1 PUSH1 0x1 PUSH1 0xA8 SHL SUB NOT SWAP1 SWAP5 AND SWAP4 SWAP1 SWAP4 OR PUSH1 0x1 PUSH1 0xA0 SHL PUSH1 0xFF DUP8 AND MUL OR SWAP1 SWAP3 SSTORE PUSH1 0x2 DUP4 SWAP1 SSTORE PUSH1 0x40 MLOAD PUSH32 0x8BE0079C531659141344CD1FD0A4F28419497F9722A3DAAFE3B4186F6B6457E0 SWAP1 DUP3 SWAP1 LOG3 POP POP POP POP POP POP POP PUSH3 0x364 JUMP JUMPDEST DUP1 MLOAD PUSH1 0x1 PUSH1 0x1 PUSH1 0xA0 SHL SUB DUP2 AND DUP2 EQ PUSH3 0x2CA JUMPI PUSH1 0x0 DUP1 REVERT JUMPDEST SWAP2 SWAP1 POP JUMP JUMPDEST PUSH1 0x0 DUP1 PUSH1 0x0 DUP1 PUSH1 0x0 DUP1 PUSH1 0x0 PUSH1 0xE0 DUP9 DUP11 SUB SLT ISZERO PUSH3 0x2EB JUMPI PUSH1 0x0 DUP1 REVERT JUMPDEST PUSH3 0x2F6 DUP9 PUSH3 0x2B2 JUMP JUMPDEST SWAP7 POP PUSH3 0x306 PUSH1 0x20 DUP10 ADD PUSH3 0x2B2 JUMP JUMPDEST SWAP6 POP PUSH3 0x316 PUSH1 0x40 DUP10 ADD PUSH3 0x2B2 JUMP JUMPDEST SWAP5 POP PUSH3 0x326 PUSH1 0x60 DUP10 ADD PUSH3 0x2B2 JUMP JUMPDEST SWAP4 POP PUSH3 0x336 PUSH1 0x80 DUP10 ADD PUSH3 0x2B2 JUMP JUMPDEST SWAP3 POP PUSH1 0xA0 DUP9 ADD MLOAD PUSH1 0xFF DUP2 AND DUP2 EQ PUSH3 0x34D JUMPI PUSH1 0x0 DUP1 REVERT JUMPDEST DUP1 SWAP3 POP POP PUSH1 0xC0 DUP9 ADD MLOAD SWAP1 POP SWAP3 SWAP6 SWAP9 SWAP2 SWAP5 SWAP8 POP SWAP3 SWAP6 POP JUMP JUMPDEST PUSH2 0x1686 DUP1 PUSH3 0x374 PUSH1 0x0 CODECOPY PUSH1 0x0 RETURN INVALID PUSH1 0x80 PUSH1 0x40 MSTORE PUSH1 0x4 CALLDATASIZE LT PUSH2 0xF3 JUMPI PUSH1 0x0 CALLDATALOAD PUSH1 0xE0 SHR DUP1 PUSH4 0x25313A2 EQ PUSH2 0x124 JUMPI DUP1 PUSH4 0xE5930F5 EQ PUSH2 0x161 JUMPI DUP1 PUSH4 0x12065FE0 EQ PUSH2 0x181 JUMPI DUP1 PUSH4 0x22DCD13E EQ PUSH2 0x1A4 JUMPI DUP1 PUSH4 0x2C86D98E EQ PUSH2 0x1BA JUMPI DUP1 PUSH4 0x2E1A7D4D EQ PUSH2 0x1ED JUMPI DUP1 PUSH4 0x45F2A434 EQ PUSH2 0x20D JUMPI DUP1 PUSH4 0x46904840 EQ PUSH2 0x222 JUMPI DUP1 PUSH4 0x51C6590A EQ PUSH2 0x242 JUMPI DUP1 PUSH4 0x5C60DA1B EQ PUSH2 0x262 JUMPI DUP1 PUSH4 0x61461954 EQ PUSH2 0x282 JUMPI DUP1 PUSH4 0x893D20E8 EQ PUSH2 0x297 JUMPI DUP1 PUSH4 0x8DA5CB5B EQ PUSH2 0x2AC JUMPI DUP1 PUSH4 0x9C8F9F23 EQ PUSH2 0x2CC JUMPI DUP1 PUSH4 0xB6B55F25 EQ PUSH2 0x2EC JUMPI DUP1 PUSH4 0xBF152765 EQ PUSH2 0x2FF JUMPI DUP1 PUSH4 0xD251C05A EQ PUSH2 0x315 JUMPI DUP1 PUSH4 0xD353AC7C EQ PUSH2 0x337 JUMPI DUP1 PUSH4 0xF2FDE38B EQ PUSH2 0x359 JUMPI DUP1 PUSH4 0xF851A440 EQ PUSH2 0x379 JUMPI PUSH2 0x10F JUMP JUMPDEST CALLDATASIZE PUSH2 0x10F JUMPI PUSH1 0x5 SLOAD PUSH2 0x10D SWAP1 PUSH1 0x1 PUSH1 0x1 PUSH1 0xA0 SHL SUB AND PUSH2 0x399 JUMP JUMPDEST STOP JUMPDEST PUSH1 0x5 SLOAD PUSH2 0x10D SWAP1 PUSH1 0x1 PUSH1 0x1 PUSH1 0xA0 SHL SUB AND PUSH2 0x399 JUMP JUMPDEST CALLVALUE DUP1 ISZERO PUSH2 0x130 JUMPI PUSH1 0x0 DUP1 REVERT JUMPDEST POP PUSH1 0x3 SLOAD PUSH2 0x144 SWAP1 PUSH1 0x1 PUSH1 0x1 PUSH1 0xA0 SHL SUB AND DUP2 JUMP JUMPDEST PUSH1 0x40 MLOAD PUSH1 0x1 PUSH1 0x1 PUSH1 0xA0 SHL SUB SWAP1 SWAP2 AND DUP2 MSTORE PUSH1 0x20 ADD JUMPDEST PUSH1 0x40 MLOAD DUP1 SWAP2 SUB SWAP1 RETURN JUMPDEST CALLVALUE DUP1 ISZERO PUSH2 0x16D JUMPI PUSH1 0x0 DUP1 REVERT JUMPDEST POP PUSH1 0x0 SLOAD PUSH2 0x144 SWAP1 PUSH1 0x1 PUSH1 0x1 PUSH1 0xA0 SHL SUB AND DUP2 JUMP JUMPDEST CALLVALUE DUP1 ISZERO PUSH2 0x18D JUMPI PUSH1 0x0 DUP1 REVERT JUMPDEST POP PUSH2 0x196 PUSH2 0x3BD JUMP JUMPDEST PUSH1 0x40 MLOAD SWAP1 DUP2 MSTORE PUSH1 0x20 ADD PUSH2 0x158 JUMP JUMPDEST CALLVALUE DUP1 ISZERO PUSH2 0x1B0 JUMPI PUSH1 0x0 DUP1 REVERT JUMPDEST POP PUSH2 0x196 PUSH1 0x2 SLOAD DUP2 JUMP JUMPDEST CALLVALUE DUP1 ISZERO PUSH2 0x1C6 JUMPI PUSH1 0x0 DUP1 REVERT JUMPDEST POP PUSH1 0x1 SLOAD PUSH2 0x1DB SWAP1 PUSH1 0x1 PUSH1 0xA0 SHL SWAP1 DIV PUSH1 0xFF AND DUP2 JUMP JUMPDEST PUSH1 0x40 MLOAD PUSH1 0xFF SWAP1 SWAP2 AND DUP2 MSTORE PUSH1 0x20 ADD PUSH2 0x158 JUMP JUMPDEST CALLVALUE DUP1 ISZERO PUSH2 0x1F9 JUMPI PUSH1 0x0 DUP1 REVERT JUMPDEST POP PUSH2 0x10D PUSH2 0x208 CALLDATASIZE PUSH1 0x4 PUSH2 0x10C5 JUMP JUMPDEST PUSH2 0x4CC JUMP JUMPDEST CALLVALUE DUP1 ISZERO PUSH2 0x219 JUMPI PUSH1 0x0 DUP1 REVERT JUMPDEST POP PUSH2 0x196 PUSH2 0x5F0 JUMP JUMPDEST CALLVALUE DUP1 ISZERO PUSH2 0x22E JUMPI PUSH1 0x0 DUP1 REVERT JUMPDEST POP PUSH1 0x6 SLOAD PUSH2 0x144 SWAP1 PUSH1 0x1 PUSH1 0x1 PUSH1 0xA0 SHL SUB AND DUP2 JUMP JUMPDEST CALLVALUE DUP1 ISZERO PUSH2 0x24E JUMPI PUSH1 0x0 DUP1 REVERT JUMPDEST POP PUSH2 0x10D PUSH2 0x25D CALLDATASIZE PUSH1 0x4 PUSH2 0x10C5 JUMP JUMPDEST PUSH2 0x6E3 JUMP JUMPDEST CALLVALUE DUP1 ISZERO PUSH2 0x26E JUMPI PUSH1 0x0 DUP1 REVERT JUMPDEST POP PUSH1 0x5 SLOAD PUSH2 0x144 SWAP1 PUSH1 0x1 PUSH1 0x1 PUSH1 0xA0 SHL SUB AND DUP2 JUMP JUMPDEST CALLVALUE DUP1 ISZERO PUSH2 0x28E JUMPI PUSH1 0x0 DUP1 REVERT JUMPDEST POP PUSH2 0x10D PUSH2 0x8C4 JUMP JUMPDEST CALLVALUE DUP1 ISZERO PUSH2 0x2A3 JUMPI PUSH1 0x0 DUP1 REVERT JUMPDEST POP PUSH2 0x144 PUSH2 0x9EB JUMP JUMPDEST CALLVALUE DUP1 ISZERO PUSH2 0x2B8 JUMPI PUSH1 0x0 DUP1 REVERT JUMPDEST POP PUSH1 0x4 SLOAD PUSH2 0x144 SWAP1 PUSH1 0x1 PUSH1 0x1 PUSH1 0xA0 SHL SUB AND DUP2 JUMP JUMPDEST CALLVALUE DUP1 ISZERO PUSH2 0x2D8 JUMPI PUSH1 0x0 DUP1 REVERT JUMPDEST POP PUSH2 0x10D PUSH2 0x2E7 CALLDATASIZE PUSH1 0x4 PUSH2 0x10C5 JUMP JUMPDEST PUSH2 0xAED JUMP JUMPDEST PUSH2 0x10D PUSH2 0x2FA CALLDATASIZE PUSH1 0x4 PUSH2 0x10C5 JUMP JUMPDEST PUSH2 0xCBA JUMP JUMPDEST CALLVALUE DUP1 ISZERO PUSH2 0x30B JUMPI PUSH1 0x0 DUP1 REVERT JUMPDEST POP PUSH2 0x196 PUSH1 0x7 SLOAD DUP2 JUMP JUMPDEST CALLVALUE DUP1 ISZERO PUSH2 0x321 JUMPI PUSH1 0x0 DUP1 REVERT JUMPDEST POP PUSH2 0x32A PUSH2 0xD78 JUMP JUMPDEST PUSH1 0x40 MLOAD PUSH2 0x158 SWAP2 SWAP1 PUSH2 0x1102 JUMP JUMPDEST CALLVALUE DUP1 ISZERO PUSH2 0x343 JUMPI PUSH1 0x0 DUP1 REVERT JUMPDEST POP PUSH2 0x34C PUSH2 0xE82 JUMP JUMPDEST PUSH1 0x40 MLOAD PUSH2 0x158 SWAP2 SWAP1 PUSH2 0x11EF JUMP JUMPDEST CALLVALUE DUP1 ISZERO PUSH2 0x365 JUMPI PUSH1 0x0 DUP1 REVERT JUMPDEST POP PUSH2 0x10D PUSH2 0x374 CALLDATASIZE PUSH1 0x4 PUSH2 0x1269 JUMP JUMPDEST PUSH2 0xF88 JUMP JUMPDEST CALLVALUE DUP1 ISZERO PUSH2 0x385 JUMPI PUSH1 0x0 DUP1 REVERT JUMPDEST POP PUSH1 0x1 SLOAD PUSH2 0x144 SWAP1 PUSH1 0x1 PUSH1 0x1 PUSH1 0xA0 SHL SUB AND DUP2 JUMP JUMPDEST CALLDATASIZE PUSH1 0x0 DUP1 CALLDATACOPY PUSH1 0x0 DUP1 CALLDATASIZE PUSH1 0x0 DUP5 GAS DELEGATECALL RETURNDATASIZE PUSH1 0x0 DUP1 RETURNDATACOPY DUP1 DUP1 ISZERO PUSH2 0x3B8 JUMPI RETURNDATASIZE PUSH1 0x0 RETURN JUMPDEST RETURNDATASIZE PUSH1 0x0 REVERT JUMPDEST PUSH1 0x5 SLOAD PUSH1 0x40 DUP1 MLOAD PUSH1 0x4 DUP2 MSTORE PUSH1 0x24 DUP2 ADD DUP3 MSTORE PUSH1 0x20 DUP2 ADD DUP1 MLOAD PUSH1 0x1 PUSH1 0x1 PUSH1 0xE0 SHL SUB AND PUSH3 0x9032FF PUSH1 0xE5 SHL OR SWAP1 MSTORE SWAP1 MLOAD PUSH1 0x0 SWAP3 DUP4 SWAP3 DUP4 SWAP3 PUSH1 0x1 PUSH1 0x1 PUSH1 0xA0 SHL SUB SWAP1 SWAP3 AND SWAP2 PUSH2 0x406 SWAP2 SWAP1 PUSH2 0x128D JUMP JUMPDEST PUSH1 0x0 PUSH1 0x40 MLOAD DUP1 DUP4 SUB DUP2 DUP6 GAS STATICCALL SWAP2 POP POP RETURNDATASIZE DUP1 PUSH1 0x0 DUP2 EQ PUSH2 0x441 JUMPI PUSH1 0x40 MLOAD SWAP2 POP PUSH1 0x1F NOT PUSH1 0x3F RETURNDATASIZE ADD AND DUP3 ADD PUSH1 0x40 MSTORE RETURNDATASIZE DUP3 MSTORE RETURNDATASIZE PUSH1 0x0 PUSH1 0x20 DUP5 ADD RETURNDATACOPY PUSH2 0x446 JUMP JUMPDEST PUSH1 0x60 SWAP2 POP JUMPDEST POP SWAP2 POP SWAP2 POP DUP2 PUSH2 0x4B1 JUMPI PUSH1 0x40 MLOAD PUSH3 0x461BCD PUSH1 0xE5 SHL DUP2 MSTORE PUSH1 0x20 PUSH1 0x4 DUP3 ADD MSTORE PUSH1 0x2B PUSH1 0x24 DUP3 ADD MSTORE PUSH32 0x537472617465677950726F78793A2067657442616C616E636520737461746963 PUSH1 0x44 DUP3 ADD MSTORE PUSH11 0x18D85B1B0819985A5B1959 PUSH1 0xAA SHL PUSH1 0x64 DUP3 ADD MSTORE PUSH1 0x84 ADD JUMPDEST PUSH1 0x40 MLOAD DUP1 SWAP2 SUB SWAP1 REVERT JUMPDEST DUP1 DUP1 PUSH1 0x20 ADD SWAP1 MLOAD DUP2 ADD SWAP1 PUSH2 0x4C5 SWAP2 SWAP1 PUSH2 0x12A9 JUMP JUMPDEST SWAP3 POP POP POP SWAP1 JUMP JUMPDEST PUSH1 0x4 SLOAD PUSH1 0x1 PUSH1 0x1 PUSH1 0xA0 SHL SUB AND CALLER EQ PUSH2 0x535 JUMPI PUSH1 0x40 MLOAD PUSH3 0x461BCD PUSH1 0xE5 SHL DUP2 MSTORE PUSH1 0x20 PUSH1 0x4 DUP3 ADD MSTORE PUSH1 0x26 PUSH1 0x24 DUP3 ADD MSTORE PUSH32 0x537472617465677950726F78793A204F6E6C79206F776E65722063616E207769 PUSH1 0x44 DUP3 ADD MSTORE PUSH6 0x746864726177 PUSH1 0xD0 SHL PUSH1 0x64 DUP3 ADD MSTORE PUSH1 0x84 ADD PUSH2 0x4A8 JUMP JUMPDEST DUP1 PUSH1 0x7 SLOAD LT ISZERO PUSH2 0x593 JUMPI PUSH1 0x40 MLOAD PUSH3 0x461BCD PUSH1 0xE5 SHL DUP2 MSTORE PUSH1 0x20 PUSH1 0x4 DUP3 ADD MSTORE PUSH1 0x23 PUSH1 0x24 DUP3 ADD MSTORE PUSH32 0x537472617465677950726F78793A20496E73756666696369656E742062616C61 PUSH1 0x44 DUP3 ADD MSTORE PUSH3 0x6E6365 PUSH1 0xE8 SHL PUSH1 0x64 DUP3 ADD MSTORE PUSH1 0x84 ADD PUSH2 0x4A8 JUMP JUMPDEST DUP1 PUSH1 0x7 PUSH1 0x0 DUP3 DUP3 SLOAD PUSH2 0x5A5 SWAP2 SWAP1 PUSH2 0x12D8 JUMP JUMPDEST SWAP1 SWAP2 SSTORE POP POP PUSH1 0x4 SLOAD PUSH1 0x40 MLOAD DUP3 DUP2 MSTORE PUSH1 0x1 PUSH1 0x1 PUSH1 0xA0 SHL SUB SWAP1 SWAP2 AND SWAP1 PUSH32 0x7084F5476618D8E60B11EF0D7D3F06914655ADB8793E28FF7F018D4C76D505D5 SWAP1 PUSH1 0x20 ADD JUMPDEST PUSH1 0x40 MLOAD DUP1 SWAP2 SUB SWAP1 LOG2 POP JUMP JUMPDEST PUSH1 0x5 SLOAD PUSH1 0x40 DUP1 MLOAD PUSH1 0x4 DUP2 MSTORE PUSH1 0x24 DUP2 ADD DUP3 MSTORE PUSH1 0x20 DUP2 ADD DUP1 MLOAD PUSH1 0x1 PUSH1 0x1 PUSH1 0xE0 SHL SUB AND PUSH4 0x117CA90D PUSH1 0xE2 SHL OR SWAP1 MSTORE SWAP1 MLOAD PUSH1 0x0 SWAP3 DUP4 SWAP3 DUP4 SWAP3 PUSH1 0x1 PUSH1 0x1 PUSH1 0xA0 SHL SUB SWAP1 SWAP3 AND SWAP2 PUSH2 0x63A SWAP2 SWAP1 PUSH2 0x128D JUMP JUMPDEST PUSH1 0x0 PUSH1 0x40 MLOAD DUP1 DUP4 SUB DUP2 DUP6 GAS STATICCALL SWAP2 POP POP RETURNDATASIZE DUP1 PUSH1 0x0 DUP2 EQ PUSH2 0x675 JUMPI PUSH1 0x40 MLOAD SWAP2 POP PUSH1 0x1F NOT PUSH1 0x3F RETURNDATASIZE ADD AND DUP3 ADD PUSH1 0x40 MSTORE RETURNDATASIZE DUP3 MSTORE RETURNDATASIZE PUSH1 0x0 PUSH1 0x20 DUP5 ADD RETURNDATACOPY PUSH2 0x67A JUMP JUMPDEST PUSH1 0x60 SWAP2 POP JUMPDEST POP SWAP2 POP SWAP2 POP DUP2 PUSH2 0x4B1 JUMPI PUSH1 0x40 MLOAD PUSH3 0x461BCD PUSH1 0xE5 SHL DUP2 MSTORE PUSH1 0x20 PUSH1 0x4 DUP3 ADD MSTORE PUSH1 0x2E PUSH1 0x24 DUP3 ADD MSTORE PUSH32 0x537472617465677950726F78793A2067657450726F6669744C6F737320737461 PUSH1 0x44 DUP3 ADD MSTORE PUSH14 0x1D1A58D8D85B1B0819985A5B1959 PUSH1 0x92 SHL PUSH1 0x64 DUP3 ADD MSTORE PUSH1 0x84 ADD PUSH2 0x4A8 JUMP JUMPDEST PUSH1 0x4 SLOAD PUSH1 0x1 PUSH1 0x1 PUSH1 0xA0 SHL SUB AND CALLER EQ PUSH2 0x751 JUMPI PUSH1 0x40 MLOAD PUSH3 0x461BCD PUSH1 0xE5 SHL DUP2 MSTORE PUSH1 0x20 PUSH1 0x4 DUP3 ADD MSTORE PUSH1 0x2B PUSH1 0x24 DUP3 ADD MSTORE PUSH32 0x537472617465677950726F78793A204F6E6C79206F776E65722063616E206164 PUSH1 0x44 DUP3 ADD MSTORE PUSH11 0x64206C6971756964697479 PUSH1 0xA8 SHL PUSH1 0x64 DUP3 ADD MSTORE PUSH1 0x84 ADD PUSH2 0x4A8 JUMP JUMPDEST PUSH1 0x5 SLOAD PUSH1 0x6 SLOAD PUSH1 0x40 MLOAD PUSH1 0x0 SWAP3 DUP4 SWAP3 PUSH1 0x1 PUSH1 0x1 PUSH1 0xA0 SHL SUB SWAP2 DUP3 AND SWAP3 PUSH4 0x64AFCE87 PUSH1 0xE1 SHL SWAP3 PUSH2 0x785 SWAP3 DUP9 SWAP3 SWAP2 AND SWAP1 PUSH1 0x24 ADD PUSH2 0x12F1 JUMP JUMPDEST PUSH1 0x40 DUP1 MLOAD PUSH1 0x1F NOT DUP2 DUP5 SUB ADD DUP2 MSTORE SWAP2 DUP2 MSTORE PUSH1 0x20 DUP3 ADD DUP1 MLOAD PUSH1 0x1 PUSH1 0x1 PUSH1 0xE0 SHL SUB AND PUSH1 0x1 PUSH1 0x1 PUSH1 0xE0 SHL SUB NOT SWAP1 SWAP5 AND SWAP4 SWAP1 SWAP4 OR SWAP1 SWAP3 MSTORE SWAP1 MLOAD PUSH2 0x7C3 SWAP2 SWAP1 PUSH2 0x128D JUMP JUMPDEST PUSH1 0x0 PUSH1 0x40 MLOAD DUP1 DUP4 SUB DUP2 DUP6 GAS DELEGATECALL SWAP2 POP POP RETURNDATASIZE DUP1 PUSH1 0x0 DUP2 EQ PUSH2 0x7FE JUMPI PUSH1 0x40 MLOAD SWAP2 POP PUSH1 0x1F NOT PUSH1 0x3F RETURNDATASIZE ADD AND DUP3 ADD PUSH1 0x40 MSTORE RETURNDATASIZE DUP3 MSTORE RETURNDATASIZE PUSH1 0x0 PUSH1 0x20 DUP5 ADD RETURNDATACOPY PUSH2 0x803 JUMP JUMPDEST PUSH1 0x60 SWAP2 POP JUMPDEST POP SWAP2 POP SWAP2 POP DUP2 PUSH2 0x87C JUMPI DUP1 MLOAD ISZERO PUSH2 0x81E JUMPI DUP1 MLOAD PUSH1 0x20 DUP3 ADD DUP2 DUP2 REVERT JUMPDEST PUSH1 0x40 MLOAD PUSH3 0x461BCD PUSH1 0xE5 SHL DUP2 MSTORE PUSH1 0x20 PUSH1 0x4 DUP3 ADD MSTORE PUSH1 0x2D PUSH1 0x24 DUP3 ADD MSTORE PUSH32 0x537472617465677950726F78793A206164644C69717569646974792064656C65 PUSH1 0x44 DUP3 ADD MSTORE PUSH13 0x19D85D1A5BDB8819985A5B1959 PUSH1 0x9A SHL PUSH1 0x64 DUP3 ADD MSTORE PUSH1 0x84 ADD PUSH2 0x4A8 JUMP JUMPDEST PUSH1 0x4 SLOAD PUSH1 0x40 MLOAD DUP5 DUP2 MSTORE PUSH1 0x1 PUSH1 0x1 PUSH1 0xA0 SHL SUB SWAP1 SWAP2 AND SWAP1 PUSH32 0xC17CEA59C2955CB181B03393209566960365771DBBA9DC3D510180E7CB312088 SWAP1 PUSH1 0x20 ADD JUMPDEST PUSH1 0x40 MLOAD DUP1 SWAP2 SUB SWAP1 LOG2 POP POP POP JUMP JUMPDEST PUSH1 0x5 SLOAD PUSH1 0x40 DUP1 MLOAD PUSH1 0x4 DUP2 MSTORE PUSH1 0x24 DUP2 ADD DUP3 MSTORE PUSH1 0x20 DUP2 ADD DUP1 MLOAD PUSH1 0x1 PUSH1 0x1 PUSH1 0xE0 SHL SUB AND PUSH4 0x18518655 PUSH1 0xE2 SHL OR SWAP1 MSTORE SWAP1 MLOAD PUSH1 0x0 SWAP3 DUP4 SWAP3 PUSH1 0x1 PUSH1 0x1 PUSH1 0xA0 SHL SUB SWAP1 SWAP2 AND SWAP2 PUSH2 0x90C SWAP2 SWAP1 PUSH2 0x128D JUMP JUMPDEST PUSH1 0x0 PUSH1 0x40 MLOAD DUP1 DUP4 SUB DUP2 DUP6 GAS DELEGATECALL SWAP2 POP POP RETURNDATASIZE DUP1 PUSH1 0x0 DUP2 EQ PUSH2 0x947 JUMPI PUSH1 0x40 MLOAD SWAP2 POP PUSH1 0x1F NOT PUSH1 0x3F RETURNDATASIZE ADD AND DUP3 ADD PUSH1 0x40 MSTORE RETURNDATASIZE DUP3 MSTORE RETURNDATASIZE PUSH1 0x0 PUSH1 0x20 DUP5 ADD RETURNDATACOPY PUSH2 0x94C JUMP JUMPDEST PUSH1 0x60 SWAP2 POP JUMPDEST POP SWAP2 POP SWAP2 POP DUP2 PUSH2 0x9AF JUMPI PUSH1 0x40 MLOAD PUSH3 0x461BCD PUSH1 0xE5 SHL DUP2 MSTORE PUSH1 0x20 PUSH1 0x4 DUP3 ADD MSTORE PUSH1 0x28 PUSH1 0x24 DUP3 ADD MSTORE PUSH32 0x537472617465677950726F78793A20657865637574652064656C65676174696F PUSH1 0x44 DUP3 ADD MSTORE PUSH8 0x1B8819985A5B1959 PUSH1 0xC2 SHL PUSH1 0x64 DUP3 ADD MSTORE PUSH1 0x84 ADD PUSH2 0x4A8 JUMP JUMPDEST PUSH1 0x4 SLOAD PUSH1 0x40 MLOAD PUSH1 0x1 PUSH1 0x1 PUSH1 0xA0 SHL SUB SWAP1 SWAP2 AND SWAP1 PUSH32 0xDF42BFA876A741BBE542CF1A563269E1390BF03901B5D433A6E8AFD6EE36DBFE SWAP1 PUSH1 0x0 SWAP1 LOG2 POP POP JUMP JUMPDEST PUSH1 0x5 SLOAD PUSH1 0x40 DUP1 MLOAD PUSH1 0x4 DUP2 MSTORE PUSH1 0x24 DUP2 ADD DUP3 MSTORE PUSH1 0x20 DUP2 ADD DUP1 MLOAD PUSH1 0x1 PUSH1 0x1 PUSH1 0xE0 SHL SUB AND PUSH4 0x1127A41D PUSH1 0xE3 SHL OR SWAP1 MSTORE SWAP1 MLOAD PUSH1 0x0 SWAP3 DUP4 SWAP3 DUP4 SWAP3 PUSH1 0x1 PUSH1 0x1 PUSH1 0xA0 SHL SUB SWAP1 SWAP3 AND SWAP2 PUSH2 0xA35 SWAP2 SWAP1 PUSH2 0x128D JUMP JUMPDEST PUSH1 0x0 PUSH1 0x40 MLOAD DUP1 DUP4 SUB DUP2 DUP6 GAS STATICCALL SWAP2 POP POP RETURNDATASIZE DUP1 PUSH1 0x0 DUP2 EQ PUSH2 0xA70 JUMPI PUSH1 0x40 MLOAD SWAP2 POP PUSH1 0x1F NOT PUSH1 0x3F RETURNDATASIZE ADD AND DUP3 ADD PUSH1 0x40 MSTORE RETURNDATASIZE DUP3 MSTORE RETURNDATASIZE PUSH1 0x0 PUSH1 0x20 DUP5 ADD RETURNDATACOPY PUSH2 0xA75 JUMP JUMPDEST PUSH1 0x60 SWAP2 POP JUMPDEST POP SWAP2 POP SWAP2 POP DUP2 PUSH2 0xAD9 JUMPI PUSH1 0x40 MLOAD PUSH3 0x461BCD PUSH1 0xE5 SHL DUP2 MSTORE PUSH1 0x20 PUSH1 0x4 DUP3 ADD MSTORE PUSH1 0x29 PUSH1 0x24 DUP3 ADD MSTORE PUSH32 0x537472617465677950726F78793A206765744F776E6572207374617469636361 PUSH1 0x44 DUP3 ADD MSTORE PUSH9 0x1B1B0819985A5B1959 PUSH1 0xBA SHL PUSH1 0x64 DUP3 ADD MSTORE PUSH1 0x84 ADD PUSH2 0x4A8 JUMP JUMPDEST DUP1 DUP1 PUSH1 0x20 ADD SWAP1 MLOAD DUP2 ADD SWAP1 PUSH2 0x4C5 SWAP2 SWAP1 PUSH2 0x1308 JUMP JUMPDEST PUSH1 0x4 SLOAD PUSH1 0x1 PUSH1 0x1 PUSH1 0xA0 SHL SUB AND CALLER EQ PUSH2 0xB5E JUMPI PUSH1 0x40 MLOAD PUSH3 0x461BCD PUSH1 0xE5 SHL DUP2 MSTORE PUSH1 0x20 PUSH1 0x4 DUP3 ADD MSTORE PUSH1 0x2E PUSH1 0x24 DUP3 ADD MSTORE PUSH32 0x537472617465677950726F78793A204F6E6C79206F776E65722063616E207265 PUSH1 0x44 DUP3 ADD MSTORE PUSH14 0x6D6F7665206C6971756964697479 PUSH1 0x90 SHL PUSH1 0x64 DUP3 ADD MSTORE PUSH1 0x84 ADD PUSH2 0x4A8 JUMP JUMPDEST PUSH1 0x5 SLOAD PUSH1 0x6 SLOAD PUSH1 0x40 MLOAD PUSH1 0x0 SWAP3 DUP4 SWAP3 PUSH1 0x1 PUSH1 0x1 PUSH1 0xA0 SHL SUB SWAP2 DUP3 AND SWAP3 PUSH4 0x5FE138B PUSH1 0xE0 SHL SWAP3 PUSH2 0xB92 SWAP3 DUP9 SWAP3 SWAP2 AND SWAP1 PUSH1 0x24 ADD PUSH2 0x12F1 JUMP JUMPDEST PUSH1 0x40 DUP1 MLOAD PUSH1 0x1F NOT DUP2 DUP5 SUB ADD DUP2 MSTORE SWAP2 DUP2 MSTORE PUSH1 0x20 DUP3 ADD DUP1 MLOAD PUSH1 0x1 PUSH1 0x1 PUSH1 0xE0 SHL SUB AND PUSH1 0x1 PUSH1 0x1 PUSH1 0xE0 SHL SUB NOT SWAP1 SWAP5 AND SWAP4 SWAP1 SWAP4 OR SWAP1 SWAP3 MSTORE SWAP1 MLOAD PUSH2 0xBD0 SWAP2 SWAP1 PUSH2 0x128D JUMP JUMPDEST PUSH1 0x0 PUSH1 0x40 MLOAD DUP1 DUP4 SUB DUP2 DUP6 GAS DELEGATECALL SWAP2 POP POP RETURNDATASIZE DUP1 PUSH1 0x0 DUP2 EQ PUSH2 0xC0B JUMPI PUSH1 0x40 MLOAD SWAP2 POP PUSH1 0x1F NOT PUSH1 0x3F RETURNDATASIZE ADD AND DUP3 ADD PUSH1 0x40 MSTORE RETURNDATASIZE DUP3 MSTORE RETURNDATASIZE PUSH1 0x0 PUSH1 0x20 DUP5 ADD RETURNDATACOPY PUSH2 0xC10 JUMP JUMPDEST PUSH1 0x60 SWAP2 POP JUMPDEST POP SWAP2 POP SWAP2 POP DUP2 PUSH2 0xC7B JUMPI PUSH1 0x40 MLOAD PUSH3 0x461BCD PUSH1 0xE5 SHL DUP2 MSTORE PUSH1 0x20 PUSH1 0x4 DUP3 ADD MSTORE PUSH1 0x30 PUSH1 0x24 DUP3 ADD MSTORE PUSH32 0x537472617465677950726F78793A2072656D6F76654C69717569646974792064 PUSH1 0x44 DUP3 ADD MSTORE PUSH16 0x195B1959D85D1A5BDB8819985A5B1959 PUSH1 0x82 SHL PUSH1 0x64 DUP3 ADD MSTORE PUSH1 0x84 ADD PUSH2 0x4A8 JUMP JUMPDEST PUSH1 0x4 SLOAD PUSH1 0x40 MLOAD DUP5 DUP2 MSTORE PUSH1 0x1 PUSH1 0x1 PUSH1 0xA0 SHL SUB SWAP1 SWAP2 AND SWAP1 PUSH32 0xC2C3F06E49B9F15E7B4AF9055E183B0D73362E033AD82A07DEC9BF9840171719 SWAP1 PUSH1 0x20 ADD PUSH2 0x8B7 JUMP JUMPDEST PUSH1 0x4 SLOAD PUSH1 0x1 PUSH1 0x1 PUSH1 0xA0 SHL SUB AND CALLER EQ PUSH2 0xD22 JUMPI PUSH1 0x40 MLOAD PUSH3 0x461BCD PUSH1 0xE5 SHL DUP2 MSTORE PUSH1 0x20 PUSH1 0x4 DUP3 ADD MSTORE PUSH1 0x25 PUSH1 0x24 DUP3 ADD MSTORE PUSH32 0x537472617465677950726F78793A204F6E6C79206F776E65722063616E206465 PUSH1 0x44 DUP3 ADD MSTORE PUSH5 0x1C1BDCDA5D PUSH1 0xDA SHL PUSH1 0x64 DUP3 ADD MSTORE PUSH1 0x84 ADD PUSH2 0x4A8 JUMP JUMPDEST DUP1 PUSH1 0x7 PUSH1 0x0 DUP3 DUP3 SLOAD PUSH2 0xD34 SWAP2 SWAP1 PUSH2 0x1325 JUMP JUMPDEST SWAP1 SWAP2 SSTORE POP POP PUSH1 0x4 SLOAD PUSH1 0x40 MLOAD DUP3 DUP2 MSTORE PUSH1 0x1 PUSH1 0x1 PUSH1 0xA0 SHL SUB SWAP1 SWAP2 AND SWAP1 PUSH32 0x2DA466A7B24304F47E87FA2E1E5A81B9831CE54FEC19055CE277CA2F39BA42C4 SWAP1 PUSH1 0x20 ADD PUSH2 0x5E5 JUMP JUMPDEST PUSH1 0x5 SLOAD PUSH1 0x40 DUP1 MLOAD PUSH1 0x4 DUP2 MSTORE PUSH1 0x24 DUP2 ADD DUP3 MSTORE PUSH1 0x20 DUP2 ADD DUP1 MLOAD PUSH1 0x1 PUSH1 0x1 PUSH1 0xE0 SHL SUB AND PUSH4 0x6928E02D PUSH1 0xE1 SHL OR SWAP1 MSTORE SWAP1 MLOAD PUSH1 0x60 SWAP3 PUSH1 0x0 SWAP3 DUP4 SWAP3 PUSH1 0x1 PUSH1 0x1 PUSH1 0xA0 SHL SUB SWAP1 SWAP3 AND SWAP2 PUSH2 0xDC3 SWAP2 SWAP1 PUSH2 0x128D JUMP JUMPDEST PUSH1 0x0 PUSH1 0x40 MLOAD DUP1 DUP4 SUB DUP2 DUP6 GAS STATICCALL SWAP2 POP POP RETURNDATASIZE DUP1 PUSH1 0x0 DUP2 EQ PUSH2 0xDFE JUMPI PUSH1 0x40 MLOAD SWAP2 POP PUSH1 0x1F NOT PUSH1 0x3F RETURNDATASIZE ADD AND DUP3 ADD PUSH1 0x40 MSTORE RETURNDATASIZE DUP3 MSTORE RETURNDATASIZE PUSH1 0x0 PUSH1 0x20 DUP5 ADD RETURNDATACOPY PUSH2 0xE03 JUMP JUMPDEST PUSH1 0x60 SWAP2 POP JUMPDEST POP SWAP2 POP SWAP2 POP DUP2 PUSH2 0xE6E JUMPI PUSH1 0x40 MLOAD PUSH3 0x461BCD PUSH1 0xE5 SHL DUP2 MSTORE PUSH1 0x20 PUSH1 0x4 DUP3 ADD MSTORE PUSH1 0x30 PUSH1 0x24 DUP3 ADD MSTORE PUSH32 0x537472617465677950726F78793A206765745472616465486973746F72792073 PUSH1 0x44 DUP3 ADD MSTORE PUSH16 0x1D185D1A58D8D85B1B0819985A5B1959 PUSH1 0x82 SHL PUSH1 0x64 DUP3 ADD MSTORE PUSH1 0x84 ADD PUSH2 0x4A8 JUMP JUMPDEST DUP1 DUP1 PUSH1 0x20 ADD SWAP1 MLOAD DUP2 ADD SWAP1 PUSH2 0x4C5 SWAP2 SWAP1 PUSH2 0x1467 JUMP JUMPDEST PUSH1 0x5 SLOAD PUSH1 0x40 DUP1 MLOAD PUSH1 0x4 DUP2 MSTORE PUSH1 0x24 DUP2 ADD DUP3 MSTORE PUSH1 0x20 DUP2 ADD DUP1 MLOAD PUSH1 0x1 PUSH1 0x1 PUSH1 0xE0 SHL SUB AND PUSH4 0x34D4EB1F PUSH1 0xE2 SHL OR SWAP1 MSTORE SWAP1 MLOAD PUSH1 0x60 SWAP3 PUSH1 0x0 SWAP3 DUP4 SWAP3 PUSH1 0x1 PUSH1 0x1 PUSH1 0xA0 SHL SUB SWAP1 SWAP3 AND SWAP2 PUSH2 0xECD SWAP2 SWAP1 PUSH2 0x128D JUMP JUMPDEST PUSH1 0x0 PUSH1 0x40 MLOAD DUP1 DUP4 SUB DUP2 DUP6 GAS STATICCALL SWAP2 POP POP RETURNDATASIZE DUP1 PUSH1 0x0 DUP2 EQ PUSH2 0xF08 JUMPI PUSH1 0x40 MLOAD SWAP2 POP PUSH1 0x1F NOT PUSH1 0x3F RETURNDATASIZE ADD AND DUP3 ADD PUSH1 0x40 MSTORE RETURNDATASIZE DUP3 MSTORE RETURNDATASIZE PUSH1 0x0 PUSH1 0x20 DUP5 ADD RETURNDATACOPY PUSH2 0xF0D JUMP JUMPDEST PUSH1 0x60 SWAP2 POP JUMPDEST POP SWAP2 POP SWAP2 POP DUP2 PUSH2 0xF74 JUMPI PUSH1 0x40 MLOAD PUSH3 0x461BCD PUSH1 0xE5 SHL DUP2 MSTORE PUSH1 0x20 PUSH1 0x4 DUP3 ADD MSTORE PUSH1 0x2C PUSH1 0x24 DUP3 ADD MSTORE PUSH32 0x537472617465677950726F78793A20676574486F6C64696E6773207374617469 PUSH1 0x44 DUP3 ADD MSTORE PUSH12 0x18D8D85B1B0819985A5B1959 PUSH1 0xA2 SHL PUSH1 0x64 DUP3 ADD MSTORE PUSH1 0x84 ADD PUSH2 0x4A8 JUMP JUMPDEST DUP1 DUP1 PUSH1 0x20 ADD SWAP1 MLOAD DUP2 ADD SWAP1 PUSH2 0x4C5 SWAP2 SWAP1 PUSH2 0x15B3 JUMP JUMPDEST PUSH1 0x4 SLOAD PUSH1 0x1 PUSH1 0x1 PUSH1 0xA0 SHL SUB AND CALLER EQ PUSH2 0xFF1 JUMPI PUSH1 0x40 MLOAD PUSH3 0x461BCD PUSH1 0xE5 SHL DUP2 MSTORE PUSH1 0x20 PUSH1 0x4 DUP3 ADD MSTORE PUSH1 0x26 PUSH1 0x24 DUP3 ADD MSTORE PUSH32 0x537472617465677950726F78793A2063616C6C6572206973206E6F7420746865 PUSH1 0x44 DUP3 ADD MSTORE PUSH6 0x1037BBB732B9 PUSH1 0xD1 SHL PUSH1 0x64 DUP3 ADD MSTORE PUSH1 0x84 ADD PUSH2 0x4A8 JUMP JUMPDEST PUSH1 0x1 PUSH1 0x1 PUSH1 0xA0 SHL SUB DUP2 AND PUSH2 0x105C JUMPI PUSH1 0x40 MLOAD PUSH3 0x461BCD PUSH1 0xE5 SHL DUP2 MSTORE PUSH1 0x20 PUSH1 0x4 DUP3 ADD MSTORE PUSH1 0x2C PUSH1 0x24 DUP3 ADD MSTORE PUSH32 0x537472617465677950726F78793A206E6577206F776E65722069732074686520 PUSH1 0x44 DUP3 ADD MSTORE PUSH12 0x7A65726F2061646472657373 PUSH1 0xA0 SHL PUSH1 0x64 DUP3 ADD MSTORE PUSH1 0x84 ADD PUSH2 0x4A8 JUMP JUMPDEST PUSH1 0x4 SLOAD PUSH1 0x40 MLOAD PUSH1 0x1 PUSH1 0x1 PUSH1 0xA0 SHL SUB DUP1 DUP5 AND SWAP3 AND SWAP1 PUSH32 0x8BE0079C531659141344CD1FD0A4F28419497F9722A3DAAFE3B4186F6B6457E0 SWAP1 PUSH1 0x0 SWAP1 LOG3 PUSH1 0x4 DUP1 SLOAD PUSH1 0x1 PUSH1 0x1 PUSH1 0xA0 SHL SUB NOT AND PUSH1 0x1 PUSH1 0x1 PUSH1 0xA0 SHL SUB SWAP3 SWAP1 SWAP3 AND SWAP2 SWAP1 SWAP2 OR SWAP1 SSTORE JUMP JUMPDEST PUSH1 0x1 PUSH1 0x1 PUSH1 0xA0 SHL SUB AND SWAP1 MSTORE JUMP JUMPDEST PUSH1 0x0 PUSH1 0x20 DUP3 DUP5 SUB SLT ISZERO PUSH2 0x10D7 JUMPI PUSH1 0x0 DUP1 REVERT JUMPDEST POP CALLDATALOAD SWAP2 SWAP1 POP JUMP JUMPDEST PUSH1 0x0 JUMPDEST DUP4 DUP2 LT ISZERO PUSH2 0x10F9 JUMPI DUP2 DUP2 ADD MLOAD DUP4 DUP3 ADD MSTORE PUSH1 0x20 ADD PUSH2 0x10E1 JUMP JUMPDEST POP POP PUSH1 0x0 SWAP2 ADD MSTORE JUMP JUMPDEST PUSH1 0x0 PUSH1 0x20 DUP1 DUP4 ADD DUP2 DUP5 MSTORE DUP1 DUP6 MLOAD DUP1 DUP4 MSTORE PUSH1 0x40 SWAP3 POP DUP3 DUP7 ADD SWAP2 POP DUP3 DUP2 PUSH1 0x5 SHL DUP8 ADD ADD DUP5 DUP9 ADD PUSH1 0x0 JUMPDEST DUP4 DUP2 LT ISZERO PUSH2 0x11E1 JUMPI PUSH1 0x3F NOT DUP10 DUP5 SUB ADD DUP6 MSTORE DUP2 MLOAD PUSH2 0x100 DUP2 MLOAD DUP6 MSTORE DUP9 DUP3 ADD MLOAD DUP2 DUP11 DUP8 ADD MSTORE DUP1 MLOAD DUP1 DUP4 DUP9 ADD MSTORE PUSH2 0x120 SWAP3 POP PUSH2 0x1167 DUP2 DUP5 DUP10 ADD DUP14 DUP6 ADD PUSH2 0x10DE JUMP JUMPDEST DUP10 DUP5 ADD MLOAD SWAP2 POP PUSH2 0x1179 DUP11 DUP9 ADD DUP4 PUSH2 0x10B8 JUMP JUMPDEST PUSH1 0x60 DUP5 DUP2 ADD MLOAD SWAP1 DUP9 ADD MSTORE PUSH1 0x80 DUP1 DUP6 ADD MLOAD SWAP1 SWAP3 POP PUSH2 0x1198 DUP4 DUP10 ADD DUP3 PUSH2 0x10B8 JUMP JUMPDEST POP PUSH1 0xA0 DUP5 DUP2 ADD MLOAD SWAP1 DUP9 ADD MSTORE PUSH1 0xC0 DUP1 DUP6 ADD MLOAD SWAP1 DUP9 ADD MSTORE PUSH1 0xE0 SWAP4 DUP5 ADD MLOAD SWAP4 SWAP2 POP PUSH2 0x11C2 DUP3 DUP9 ADD DUP6 PUSH2 0x10B8 JUMP JUMPDEST SWAP8 DUP11 ADD SWAP8 PUSH1 0x1F ADD PUSH1 0x1F NOT AND SWAP6 SWAP1 SWAP6 ADD ADD SWAP4 POP POP SWAP1 DUP7 ADD SWAP1 PUSH1 0x1 ADD PUSH2 0x1129 JUMP JUMPDEST POP SWAP1 SWAP9 SWAP8 POP POP POP POP POP POP POP POP JUMP JUMPDEST PUSH1 0x20 DUP1 DUP3 MSTORE DUP3 MLOAD DUP3 DUP3 ADD DUP2 SWAP1 MSTORE PUSH1 0x0 SWAP2 SWAP1 PUSH1 0x40 SWAP1 DUP2 DUP6 ADD SWAP1 DUP7 DUP5 ADD DUP6 JUMPDEST DUP3 DUP2 LT ISZERO PUSH2 0x1244 JUMPI DUP2 MLOAD DUP1 MLOAD PUSH1 0x1 PUSH1 0x1 PUSH1 0xA0 SHL SUB AND DUP6 MSTORE DUP7 DUP2 ADD MLOAD DUP8 DUP7 ADD MSTORE DUP6 ADD MLOAD DUP6 DUP6 ADD MSTORE PUSH1 0x60 SWAP1 SWAP4 ADD SWAP3 SWAP1 DUP6 ADD SWAP1 PUSH1 0x1 ADD PUSH2 0x120C JUMP JUMPDEST POP SWAP2 SWAP8 SWAP7 POP POP POP POP POP POP POP JUMP JUMPDEST PUSH1 0x1 PUSH1 0x1 PUSH1 0xA0 SHL SUB DUP2 AND DUP2 EQ PUSH2 0x1266 JUMPI PUSH1 0x0 DUP1 REVERT JUMPDEST POP JUMP JUMPDEST PUSH1 0x0 PUSH1 0x20 DUP3 DUP5 SUB SLT ISZERO PUSH2 0x127B JUMPI PUSH1 0x0 DUP1 REVERT JUMPDEST DUP2 CALLDATALOAD PUSH2 0x1286 DUP2 PUSH2 0x1251 JUMP JUMPDEST SWAP4 SWAP3 POP POP POP JUMP JUMPDEST PUSH1 0x0 DUP3 MLOAD PUSH2 0x129F DUP2 DUP5 PUSH1 0x20 DUP8 ADD PUSH2 0x10DE JUMP JUMPDEST SWAP2 SWAP1 SWAP2 ADD SWAP3 SWAP2 POP POP JUMP JUMPDEST PUSH1 0x0 PUSH1 0x20 DUP3 DUP5 SUB SLT ISZERO PUSH2 0x12BB JUMPI PUSH1 0x0 DUP1 REVERT JUMPDEST POP MLOAD SWAP2 SWAP1 POP JUMP JUMPDEST PUSH4 0x4E487B71 PUSH1 0xE0 SHL PUSH1 0x0 MSTORE PUSH1 0x11 PUSH1 0x4 MSTORE PUSH1 0x24 PUSH1 0x0 REVERT JUMPDEST DUP2 DUP2 SUB DUP2 DUP2 GT ISZERO PUSH2 0x12EB JUMPI PUSH2 0x12EB PUSH2 0x12C2 JUMP JUMPDEST SWAP3 SWAP2 POP POP JUMP JUMPDEST SWAP2 DUP3 MSTORE PUSH1 0x1 PUSH1 0x1 PUSH1 0xA0 SHL SUB AND PUSH1 0x20 DUP3 ADD MSTORE PUSH1 0x40 ADD SWAP1 JUMP JUMPDEST PUSH1 0x0 PUSH1 0x20 DUP3 DUP5 SUB SLT ISZERO PUSH2 0x131A JUMPI PUSH1 0x0 DUP1 REVERT JUMPDEST DUP2 MLOAD PUSH2 0x1286 DUP2 PUSH2 0x1251 JUMP JUMPDEST DUP1 DUP3 ADD DUP1 DUP3 GT ISZERO PUSH2 0x12EB JUMPI PUSH2 0x12EB PUSH2 0x12C2 JUMP JUMPDEST PUSH4 0x4E487B71 PUSH1 0xE0 SHL PUSH1 0x0 MSTORE PUSH1 0x41 PUSH1 0x4 MSTORE PUSH1 0x24 PUSH1 0x0 REVERT JUMPDEST PUSH1 0x40 MLOAD PUSH2 0x100 DUP2 ADD PUSH1 0x1 PUSH1 0x1 PUSH1 0x40 SHL SUB DUP2 GT DUP3 DUP3 LT OR ISZERO PUSH2 0x1371 JUMPI PUSH2 0x1371 PUSH2 0x1338 JUMP JUMPDEST PUSH1 0x40 MSTORE SWAP1 JUMP JUMPDEST PUSH1 0x40 MLOAD PUSH1 0x60 DUP2 ADD PUSH1 0x1 PUSH1 0x1 PUSH1 0x40 SHL SUB DUP2 GT DUP3 DUP3 LT OR ISZERO PUSH2 0x1371 JUMPI PUSH2 0x1371 PUSH2 0x1338 JUMP JUMPDEST PUSH1 0x40 MLOAD PUSH1 0x1F DUP3 ADD PUSH1 0x1F NOT AND DUP2 ADD PUSH1 0x1 PUSH1 0x1 PUSH1 0x40 SHL SUB DUP2 GT DUP3 DUP3 LT OR ISZERO PUSH2 0x13C1 JUMPI PUSH2 0x13C1 PUSH2 0x1338 JUMP JUMPDEST PUSH1 0x40 MSTORE SWAP2 SWAP1 POP JUMP JUMPDEST PUSH1 0x0 PUSH1 0x1 PUSH1 0x1 PUSH1 0x40 SHL SUB DUP3 GT ISZERO PUSH2 0x13E2 JUMPI PUSH2 0x13E2 PUSH2 0x1338 JUMP JUMPDEST POP PUSH1 0x5 SHL PUSH1 0x20 ADD SWAP1 JUMP JUMPDEST PUSH1 0x0 DUP3 PUSH1 0x1F DUP4 ADD SLT PUSH2 0x13FD JUMPI PUSH1 0x0 DUP1 REVERT JUMPDEST DUP2 MLOAD PUSH1 0x1 PUSH1 0x1 PUSH1 0x40 SHL SUB DUP2 GT ISZERO PUSH2 0x1416 JUMPI PUSH2 0x1416 PUSH2 0x1338 JUMP JUMPDEST PUSH2 0x1429 PUSH1 0x1F DUP3 ADD PUSH1 0x1F NOT AND PUSH1 0x20 ADD PUSH2 0x1399 JUMP JUMPDEST DUP2 DUP2 MSTORE DUP5 PUSH1 0x20 DUP4 DUP7 ADD ADD GT ISZERO PUSH2 0x143E JUMPI PUSH1 0x0 DUP1 REVERT JUMPDEST PUSH2 0x144F DUP3 PUSH1 0x20 DUP4 ADD PUSH1 0x20 DUP8 ADD PUSH2 0x10DE JUMP JUMPDEST SWAP5 SWAP4 POP POP POP POP JUMP JUMPDEST DUP1 MLOAD PUSH2 0x1462 DUP2 PUSH2 0x1251 JUMP JUMPDEST SWAP2 SWAP1 POP JUMP JUMPDEST PUSH1 0x0 PUSH1 0x20 DUP1 DUP4 DUP6 SUB SLT ISZERO PUSH2 0x147A JUMPI PUSH1 0x0 DUP1 REVERT JUMPDEST DUP3 MLOAD PUSH1 0x1 PUSH1 0x1 PUSH1 0x40 SHL SUB DUP1 DUP3 GT ISZERO PUSH2 0x1491 JUMPI PUSH1 0x0 DUP1 REVERT JUMPDEST DUP2 DUP6 ADD SWAP2 POP DUP6 PUSH1 0x1F DUP4 ADD SLT PUSH2 0x14A5 JUMPI PUSH1 0x0 DUP1 REVERT JUMPDEST DUP2 MLOAD PUSH2 0x14B8 PUSH2 0x14B3 DUP3 PUSH2 0x13C9 JUMP JUMPDEST PUSH2 0x1399 JUMP JUMPDEST DUP2 DUP2 MSTORE PUSH1 0x5 SWAP2 SWAP1 SWAP2 SHL DUP4 ADD DUP5 ADD SWAP1 DUP5 DUP2 ADD SWAP1 DUP9 DUP4 GT ISZERO PUSH2 0x14D7 JUMPI PUSH1 0x0 DUP1 REVERT JUMPDEST DUP6 DUP6 ADD JUMPDEST DUP4 DUP2 LT ISZERO PUSH2 0x15A6 JUMPI DUP1 MLOAD DUP6 DUP2 GT ISZERO PUSH2 0x14F3 JUMPI PUSH1 0x0 DUP1 DUP2 REVERT JUMPDEST DUP7 ADD PUSH2 0x100 DUP2 DUP13 SUB PUSH1 0x1F NOT ADD DUP2 SGT ISZERO PUSH2 0x150C JUMPI PUSH1 0x0 DUP1 DUP2 REVERT JUMPDEST PUSH2 0x1514 PUSH2 0x134E JUMP JUMPDEST DUP10 DUP4 ADD MLOAD DUP2 MSTORE PUSH1 0x40 DUP1 DUP5 ADD MLOAD DUP10 DUP2 GT ISZERO PUSH2 0x152E JUMPI PUSH1 0x0 DUP1 DUP2 REVERT JUMPDEST PUSH2 0x153C DUP16 DUP14 DUP4 DUP9 ADD ADD PUSH2 0x13EC JUMP JUMPDEST DUP13 DUP5 ADD MSTORE POP PUSH1 0x60 PUSH2 0x154E DUP2 DUP7 ADD PUSH2 0x1457 JUMP JUMPDEST DUP3 DUP5 ADD MSTORE PUSH1 0x80 SWAP2 POP DUP2 DUP6 ADD MLOAD DUP2 DUP5 ADD MSTORE POP PUSH1 0xA0 PUSH2 0x156C DUP2 DUP7 ADD PUSH2 0x1457 JUMP JUMPDEST DUP3 DUP5 ADD MSTORE PUSH1 0xC0 SWAP2 POP DUP2 DUP6 ADD MLOAD DUP2 DUP5 ADD MSTORE POP PUSH1 0xE0 DUP1 DUP6 ADD MLOAD DUP3 DUP5 ADD MSTORE PUSH2 0x1592 DUP5 DUP7 ADD PUSH2 0x1457 JUMP JUMPDEST SWAP1 DUP4 ADD MSTORE POP DUP6 MSTORE POP POP SWAP2 DUP7 ADD SWAP2 DUP7 ADD PUSH2 0x14DB JUMP JUMPDEST POP SWAP9 SWAP8 POP POP POP POP POP POP POP POP JUMP JUMPDEST PUSH1 0x0 PUSH1 0x20 DUP1 DUP4 DUP6 SUB SLT ISZERO PUSH2 0x15C6 JUMPI PUSH1 0x0 DUP1 REVERT JUMPDEST DUP3 MLOAD PUSH1 0x1 PUSH1 0x1 PUSH1 0x40 SHL SUB DUP2 GT ISZERO PUSH2 0x15DC JUMPI PUSH1 0x0 DUP1 REVERT JUMPDEST DUP4 ADD PUSH1 0x1F DUP2 ADD DUP6 SGT PUSH2 0x15ED JUMPI PUSH1 0x0 DUP1 REVERT JUMPDEST DUP1 MLOAD PUSH2 0x15FB PUSH2 0x14B3 DUP3 PUSH2 0x13C9 JUMP JUMPDEST DUP2 DUP2 MSTORE PUSH1 0x60 SWAP2 DUP3 MUL DUP4 ADD DUP5 ADD SWAP2 DUP5 DUP3 ADD SWAP2 SWAP1 DUP9 DUP5 GT ISZERO PUSH2 0x161A JUMPI PUSH1 0x0 DUP1 REVERT JUMPDEST SWAP4 DUP6 ADD SWAP4 JUMPDEST DUP4 DUP6 LT ISZERO PUSH2 0x166D JUMPI DUP1 DUP6 DUP11 SUB SLT ISZERO PUSH2 0x1637 JUMPI PUSH1 0x0 DUP1 DUP2 REVERT JUMPDEST PUSH2 0x163F PUSH2 0x1377 JUMP JUMPDEST DUP6 MLOAD PUSH2 0x164A DUP2 PUSH2 0x1251 JUMP JUMPDEST DUP2 MSTORE DUP6 DUP8 ADD MLOAD DUP8 DUP3 ADD MSTORE PUSH1 0x40 DUP1 DUP8 ADD MLOAD SWAP1 DUP3 ADD MSTORE DUP4 MSTORE SWAP4 DUP5 ADD SWAP4 SWAP2 DUP6 ADD SWAP2 PUSH2 0x161F JUMP JUMPDEST POP SWAP8 SWAP7 POP POP POP POP POP POP POP JUMP INVALID LOG1 PUSH5 0x736F6C6343 STOP ADDMOD EQ STOP EXP "},"methodIdentifiers":{"addLiquidity(uint256)":"51c6590a","admin()":"f851a440","deposit(uint256)":"b6b55f25","execute()":"61461954","feeRecipient()":"46904840","getBalance()":"12065fe0","getHoldings()":"d353ac7c","getOwner()":"893d20e8","getProfitLoss()":"45f2a434","getTradeHistory()":"d251c05a","hypeliquidRouter()":"0e5930f5","implementation()":"5c60da1b","leverage()":"2c86d98e","owner()":"8da5cb5b","platformFeeBps()":"22dcd13e","proxyOwner()":"025313a2","removeLiquidity(uint256)":"9c8f9f23","transferOwnership(address)":"f2fde38b","userBalance()":"bf152765","withdraw(uint256)":"2e1a7d4d"}}}}}