{
  "_format": "hh-sol-artifact-1",
  "contractName": "DownStrategy",
  "sourceName": "contracts/DownStrategy.sol",
  "abi": [
    {
      "inputs": [
        {
          "internalType": "address",
          "name": "_hypeliquidRouter",
          "type": "address"
        },
        {
          "internalType": "uint256",
          "name": "_platformFeeBps",
          "type": "uint256"
        }
      ],
      "stateMutability": "nonpayable",
      "type": "constructor"
    },
    {
      "anonymous": false,
      "inputs": [
        {
          "indexed": true,
          "internalType": "address",
          "name": "previousAdmin",
          "type": "address"
        },
        {
          "indexed": true,
          "internalType": "address",
          "name": "newAdmin",
          "type": "address"
        }
      ],
      "name": "AdminTransferred",
      "type": "event"
    },
    {
      "anonymous": false,
      "inputs": [
        {
          "indexed": true,
          "internalType": "address",
          "name": "owner",
          "type": "address"
        }
      ],
      "name": "Initialized",
      "type": "event"
    },
    {
      "anonymous": false,
      "inputs": [
        {
          "indexed": false,
          "internalType": "uint8",
          "name": "newLeverage",
          "type": "uint8"
        }
      ],
      "name": "LeverageUpdated",
      "type": "event"
    },
    {
      "anonymous": false,
      "inputs": [
        {
          "indexed": false,
          "internalType": "uint256",
          "name": "newPlatformFeeBps",
          "type": "uint256"
        }
      ],
      "name": "PlatformFeeUpdated",
      "type": "event"
    },
    {
      "anonymous": false,
      "inputs": [
        {
          "indexed": true,
          "internalType": "address",
          "name": "owner",
          "type": "address"
        },
        {
          "indexed": false,
          "internalType": "string",
          "name": "action",
          "type": "string"
        },
        {
          "indexed": false,
          "internalType": "uint256",
          "name": "amount",
          "type": "uint256"
        }
      ],
      "name": "PositionUpdated",
      "type": "event"
    },
    {
      "anonymous": false,
      "inputs": [
        {
          "indexed": true,
          "internalType": "address",
          "name": "owner",
          "type": "address"
        }
      ],
      "name": "Rebalanced",
      "type": "event"
    },
    {
      "anonymous": false,
      "inputs": [
        {
          "indexed": true,
          "internalType": "address",
          "name": "owner",
          "type": "address"
        },
        {
          "components": [
            {
              "internalType": "uint256",
              "name": "timestamp",
              "type": "uint256"
            },
            {
              "internalType": "string",
              "name": "tradeType",
              "type": "string"
            },
            {
              "internalType": "address",
              "name": "assetIn",
              "type": "address"
            },
            {
              "internalType": "uint256",
              "name": "amountIn",
              "type": "uint256"
            },
            {
              "internalType": "address",
              "name": "assetOut",
              "type": "address"
            },
            {
              "internalType": "uint256",
              "name": "amountOut",
              "type": "uint256"
            },
            {
              "internalType": "uint256",
              "name": "feeAmount",
              "type": "uint256"
            },
            {
              "internalType": "address",
              "name": "feeAsset",
              "type": "address"
            }
          ],
          "indexed": false,
          "internalType": "struct Trade",
          "name": "trade",
          "type": "tuple"
        }
      ],
      "name": "TradeRecorded",
      "type": "event"
    },
    {
      "inputs": [],
      "name": "USDC",
      "outputs": [
        {
          "internalType": "address",
          "name": "",
          "type": "address"
        }
      ],
      "stateMutability": "view",
      "type": "function"
    },
    {
      "inputs": [],
      "name": "WBTC",
      "outputs": [
        {
          "internalType": "address",
          "name": "",
          "type": "address"
        }
      ],
      "stateMutability": "view",
      "type": "function"
    },
    {
      "inputs": [],
      "name": "WETH",
      "outputs": [
        {
          "internalType": "address",
          "name": "",
          "type": "address"
        }
      ],
      "stateMutability": "view",
      "type": "function"
    },
    {
      "inputs": [],
      "name": "WSOL",
      "outputs": [
        {
          "internalType": "address",
          "name": "",
          "type": "address"
        }
      ],
      "stateMutability": "view",
      "type": "function"
    },
    {
      "inputs": [
        {
          "internalType": "uint256",
          "name": "amount",
          "type": "uint256"
        },
        {
          "internalType": "address",
          "name": "feeRecipient",
          "type": "address"
        }
      ],
      "name": "addLiquidity",
      "outputs": [],
      "stateMutability": "nonpayable",
      "type": "function"
    },
    {
      "inputs": [],
      "name": "admin",
      "outputs": [
        {
          "internalType": "address",
          "name": "",
          "type": "address"
        }
      ],
      "stateMutability": "view",
      "type": "function"
    },
    {
      "inputs": [],
      "name": "execute",
      "outputs": [],
      "stateMutability": "nonpayable",
      "type": "function"
    },
    {
      "inputs": [],
      "name": "getBalance",
      "outputs": [
        {
          "internalType": "uint256",
          "name": "balance",
          "type": "uint256"
        }
      ],
      "stateMutability": "view",
      "type": "function"
    },
    {
      "inputs": [],
      "name": "getCoinType",
      "outputs": [
        {
          "internalType": "enum CoinType",
          "name": "",
          "type": "uint8"
        }
      ],
      "stateMutability": "pure",
      "type": "function"
    },
    {
      "inputs": [],
      "name": "getHoldings",
      "outputs": [
        {
          "components": [
            {
              "internalType": "address",
              "name": "asset",
              "type": "address"
            },
            {
              "internalType": "uint256",
              "name": "amount",
              "type": "uint256"
            },
            {
              "internalType": "uint256",
              "name": "valueUsd",
              "type": "uint256"
            }
          ],
          "internalType": "struct Holding[]",
          "name": "holdings",
          "type": "tuple[]"
        }
      ],
      "stateMutability": "view",
      "type": "function"
    },
    {
      "inputs": [],
      "name": "getLeverage",
      "outputs": [
        {
          "internalType": "uint32",
          "name": "",
          "type": "uint32"
        }
      ],
      "stateMutability": "pure",
      "type": "function"
    },
    {
      "inputs": [],
      "name": "getOwner",
      "outputs": [
        {
          "internalType": "address",
          "name": "ownerAddress",
          "type": "address"
        }
      ],
      "stateMutability": "view",
      "type": "function"
    },
    {
      "inputs": [],
      "name": "getPortfolioIndices",
      "outputs": [
        {
          "internalType": "uint16[]",
          "name": "",
          "type": "uint16[]"
        }
      ],
      "stateMutability": "view",
      "type": "function"
    },
    {
      "inputs": [],
      "name": "getPositionDirection",
      "outputs": [
        {
          "internalType": "enum PositionDirection",
          "name": "",
          "type": "uint8"
        }
      ],
      "stateMutability": "pure",
      "type": "function"
    },
    {
      "inputs": [],
      "name": "getProfitLoss",
      "outputs": [
        {
          "internalType": "int256",
          "name": "pnl",
          "type": "int256"
        }
      ],
      "stateMutability": "view",
      "type": "function"
    },
    {
      "inputs": [],
      "name": "getTradeHistory",
      "outputs": [
        {
          "components": [
            {
              "internalType": "uint256",
              "name": "timestamp",
              "type": "uint256"
            },
            {
              "internalType": "string",
              "name": "tradeType",
              "type": "string"
            },
            {
              "internalType": "address",
              "name": "assetIn",
              "type": "address"
            },
            {
              "internalType": "uint256",
              "name": "amountIn",
              "type": "uint256"
            },
            {
              "internalType": "address",
              "name": "assetOut",
              "type": "address"
            },
            {
              "internalType": "uint256",
              "name": "amountOut",
              "type": "uint256"
            },
            {
              "internalType": "uint256",
              "name": "feeAmount",
              "type": "uint256"
            },
            {
              "internalType": "address",
              "name": "feeAsset",
              "type": "address"
            }
          ],
          "internalType": "struct Trade[]",
          "name": "history",
          "type": "tuple[]"
        }
      ],
      "stateMutability": "view",
      "type": "function"
    },
    {
      "inputs": [],
      "name": "hypeliquidRouter",
      "outputs": [
        {
          "internalType": "address",
          "name": "",
          "type": "address"
        }
      ],
      "stateMutability": "view",
      "type": "function"
    },
    {
      "inputs": [
        {
          "internalType": "address",
          "name": "_owner",
          "type": "address"
        }
      ],
      "name": "initialize",
      "outputs": [],
      "stateMutability": "nonpayable",
      "type": "function"
    },
    {
      "inputs": [],
      "name": "leverage",
      "outputs": [
        {
          "internalType": "uint8",
          "name": "",
          "type": "uint8"
        }
      ],
      "stateMutability": "view",
      "type": "function"
    },
    {
      "inputs": [
        {
          "internalType": "address",
          "name": "holder",
          "type": "address"
        },
        {
          "internalType": "uint64",
          "name": "usdcAmount",
          "type": "uint64"
        }
      ],
      "name": "openPositions",
      "outputs": [
        {
          "internalType": "uint16[]",
          "name": "indices",
          "type": "uint16[]"
        },
        {
          "internalType": "bool[]",
          "name": "isBuy",
          "type": "bool[]"
        },
        {
          "internalType": "uint64[]",
          "name": "sz",
          "type": "uint64[]"
        }
      ],
      "stateMutability": "nonpayable",
      "type": "function"
    },
    {
      "inputs": [],
      "name": "platformFeeBps",
      "outputs": [
        {
          "internalType": "uint256",
          "name": "",
          "type": "uint256"
        }
      ],
      "stateMutability": "view",
      "type": "function"
    },
    {
      "inputs": [],
      "name": "proxyOwner",
      "outputs": [
        {
          "internalType": "address",
          "name": "",
          "type": "address"
        }
      ],
      "stateMutability": "view",
      "type": "function"
    },
    {
      "inputs": [
        {
          "internalType": "uint256",
          "name": "amount",
          "type": "uint256"
        },
        {
          "internalType": "address",
          "name": "feeRecipient",
          "type": "address"
        }
      ],
      "name": "removeLiquidity",
      "outputs": [],
      "stateMutability": "nonpayable",
      "type": "function"
    },
    {
      "inputs": [
        {
          "internalType": "uint256",
          "name": "",
          "type": "uint256"
        }
      ],
      "name": "strategyAssets",
      "outputs": [
        {
          "internalType": "address",
          "name": "",
          "type": "address"
        }
      ],
      "stateMutability": "view",
      "type": "function"
    },
    {
      "inputs": [
        {
          "internalType": "address",
          "name": "_newAdmin",
          "type": "address"
        }
      ],
      "name": "transferAdmin",
      "outputs": [],
      "stateMutability": "nonpayable",
      "type": "function"
    },
    {
      "inputs": [
        {
          "internalType": "uint8",
          "name": "_newLeverage",
          "type": "uint8"
        }
      ],
      "name": "updateLeverage",
      "outputs": [],
      "stateMutability": "nonpayable",
      "type": "function"
    },
    {
      "inputs": [
        {
          "internalType": "uint256",
          "name": "_newPlatformFeeBps",
          "type": "uint256"
        }
      ],
      "name": "updatePlatformFee",
      "outputs": [],
      "stateMutability": "nonpayable",
      "type": "function"
    }
  ],
  "bytecode": "0x60a06040523480156200001157600080fd5b50604051620027ca380380620027ca8339810160408190526200003491620003c3565b818160036001600160a01b038316620000a85760405162461bcd60e51b815260206004820152602b60248201527f4261736553747261746567793a20526f757465722063616e6e6f74206265207a60448201526a65726f206164647265737360a81b60648201526084015b60405180910390fd5b6103e8821115620000fc5760405162461bcd60e51b815260206004820152601a60248201527f4261736553747261746567793a2046656520746f6f206869676800000000000060448201526064016200009f565b60008160ff16118015620001145750600a8160ff1611155b620001625760405162461bcd60e51b815260206004820152601e60248201527f4261736553747261746567793a20496e76616c6964206c65766572616765000060448201526064016200009f565b600080546001600160a01b03851660805260018490556001600160a81b0319163360ff60a01b19811691909117600160a01b60ff8516021782556040519091907ff8ccb027dfcd135e000e9d45e6cc2d662578a8825d4c45b5e32e0adf67e79ec6908290a36040518281527f45610d581145924dd7090a5017e5f2b1d6f42213bb2e95707ff86846bbfcb1ca9060200160405180910390a160405160ff821681527fe0ce029e30f26500c1c82ed34083b224b849ea080699f46c290e6216cf35a07d9060200160405180910390a1505060408051606081018252732260fac5e5542a773aa44fbcfedf7c193bc2c599815273c02aaa39b223fe8d0a0e5c4f27ead9083c756cc2602082015273d31a59c85ae9d8edefec411d448f90841571b89c918101919091526200029a9150600290600362000342565b50506003602052507f292c1cbcd8fcde54e8ba0732ed4e92022ba7ccc86bf9c562e47c88a765f35ad1805461ffff199081169091557f67aa9b7d2b6d14f3837d07b1073399a41e4104b1d98f169f02cc04f44f14f4b080548216600117905573d31a59c85ae9d8edefec411d448f90841571b89c6000527fb9584cfb4115640001ada8b6a0dca86dfb6cb53435c9d1bad0c07df22182e8b180549091166002179055620003ff565b8280548282559060005260206000209081019282156200039a579160200282015b828111156200039a57825182546001600160a01b0319166001600160a01b0390911617825560209092019160019091019062000363565b50620003a8929150620003ac565b5090565b5b80821115620003a85760008155600101620003ad565b60008060408385031215620003d757600080fd5b82516001600160a01b0381168114620003ef57600080fd5b6020939093015192949293505050565b60805161238c6200043e600039600081816101ab01528181610c4b01528181610e6901528181610f7d015281816114af0152611abe015261238c6000f3fe608060405234801561001057600080fd5b50600436106101495760003560e01c8063025313a21461014e57806305fe138b1461017e5780630a02630f146101935780630e5930f5146101a657806312065fe0146101cd57806322d860c8146101e357806322dcd13e146101f35780632c86d98e146101fc578063343447051461022257806345f2a434146102445780634dede3de1461024c5780635e293a4a14610267578063614619541461027c57806375829def14610284578063893d20e81461029757806389a30271146102a857806394149c1a146102c35780639543de6f146102ca578063aa0b5988146102e5578063ad5c4648146102f8578063b2db983a14610313578063baba68de14610326578063c4d66de814610335578063c95f9d0e14610348578063d251c05a1461035b578063d353ac7c14610370578063f851a44014610385575b600080fd5b600454610161906001600160a01b031681565b6040516001600160a01b0390911681526020015b60405180910390f35b61019161018c366004611c3c565b610398565b005b6101916101a1366004611c68565b61077e565b6101617f000000000000000000000000000000000000000000000000000000000000000081565b6101d5610860565b604051908152602001610175565b60015b6040516101759190611cac565b6101d560015481565b60005461021090600160a01b900460ff1681565b60405160ff9091168152602001610175565b610235610230366004611cbf565b610892565b60405161017593929190611d41565b6101d5610a83565b610161732260fac5e5542a773aa44fbcfedf7c193bc2c59981565b61026f610ab4565b6040516101759190611ddb565b610191610b8f565b610191610292366004611dee565b6110b3565b6004546001600160a01b0316610161565b61016173a0b86991c6218b36c1d19d4a2e9eb0ce3606eb4881565b60006101e6565b61016173d31a59c85ae9d8edefec411d448f90841571b89c81565b6101916102f3366004611e09565b611197565b61016173c02aaa39b223fe8d0a0e5c4f27ead9083c756cc281565b610161610321366004611e09565b611245565b60405160038152602001610175565b610191610343366004611dee565b61126f565b610191610356366004611c3c565b611384565b610363611847565b6040516101759190611ede565b6103786119bc565b6040516101759190611f40565b600054610161906001600160a01b031681565b6004546001600160a01b03166103c95760405162461bcd60e51b81526004016103c090611fa2565b60405180910390fd5b6005548211156104275760405162461bcd60e51b8152602060048201526024808201527f446f776e53747261746567793a20496e73756666696369656e74206c697175696044820152636469747960e01b60648201526084016103c0565b600061043283611bb5565b600254909150839060005b818110156104e65760006002828154811061045a5761045a611fd9565b60009182526020808320909101546001600160a01b03168083526007909152604082205460055491935091906104908a84612005565b61049a9190612032565b905080156104d0576001600160a01b038316600090815260076020526040812080548392906104ca908490612046565b90915550505b50505080806104de90612059565b91505061043d565b5081600560000160008282546104fc9190612046565b909155505060005461051890600160a01b900460ff1683612005565b6006805460009061052a908490612046565b9091555050604080516101008101825242815281518083018352601481527321b637b9b29029b437b93a102837b9b4ba34b7b760611b602082810191909152820190815260009282018390526060820183905273a0b86991c6218b36c1d19d4a2e9eb0ce3606eb486080830181905260a0830186905260c0830187905260e0830152600980546001810182559352815160089093026000805160206123608339815191528101938455905191928392909160008051602061234083398151915201906105f6908261210b565b506040828101516002830180546001600160a01b03199081166001600160a01b03938416179091556060850151600385015560808501516004808601805484169285169290921790915560a0860151600586015560c0860151600686015560e090950151600790940180549091169382169390931790925591549151911690600080516020612320833981519152906106909084906121ca565b60405180910390a2831561071c5760405163a9059cbb60e01b815273a0b86991c6218b36c1d19d4a2e9eb0ce3606eb489063a9059cbb906106d790889088906004016121dd565b6020604051808303816000875af11580156106f6573d6000803e3d6000fd5b505050506040513d601f19601f8201168201806040525081019061071a91906121f6565b505b600454604080518181526014818301527321b637b9b29029b437b93a102837b9b4ba34b7b760611b60608201526020810189905290516001600160a01b03909216916000805160206123008339815191529181900360800190a2505050505050565b6000546001600160a01b031633146107a85760405162461bcd60e51b81526004016103c090612218565b60008160ff161180156107bf5750600a8160ff1611155b61080b5760405162461bcd60e51b815260206004820152601e60248201527f4261736553747261746567793a20496e76616c6964206c65766572616765000060448201526064016103c0565b6000805460ff60a01b1916600160a01b60ff8416908102919091179091556040519081527fe0ce029e30f26500c1c82ed34083b224b849ea080699f46c290e6216cf35a07d906020015b60405180910390a150565b6004546000906001600160a01b031661088b5760405162461bcd60e51b81526004016103c090611fa2565b5060055490565b600454606090819081906001600160a01b03166108c15760405162461bcd60e51b81526004016103c090611fa2565b600254806001600160401b038111156108dc576108dc612072565b604051908082528060200260200182016040528015610905578160200160208202803683370190505b509350806001600160401b0381111561092057610920612072565b604051908082528060200260200182016040528015610949578160200160208202803683370190505b509250806001600160401b0381111561096457610964612072565b60405190808252806020026020018201604052801561098d578160200160208202803683370190505b509150600061099c828761225d565b905060005b82811015610a795760036000600283815481106109c0576109c0611fd9565b60009182526020808320909101546001600160a01b03168352820192909252604001902054865161ffff90911690879083908110610a0057610a00611fd9565b602002602001019061ffff16908161ffff16815250506000858281518110610a2a57610a2a611fd9565b60200260200101901515908115158152505081848281518110610a4f57610a4f611fd9565b6001600160401b039092166020928302919091019091015280610a7181612059565b9150506109a1565b5050509250925092565b6004546000906001600160a01b0316610aae5760405162461bcd60e51b81526004016103c090611fa2565b50600090565b6002546060906000906001600160401b03811115610ad457610ad4612072565b604051908082528060200260200182016040528015610afd578160200160208202803683370190505b50905060005b600254811015610b89576003600060028381548110610b2457610b24611fd9565b60009182526020808320909101546001600160a01b03168352820192909252604001902054825161ffff90911690839083908110610b6457610b64611fd9565b61ffff9092166020928302919091019091015280610b8181612059565b915050610b03565b50919050565b6004546001600160a01b0316610bb75760405162461bcd60e51b81526004016103c090611fa2565b60025460009081906001600160401b03811115610bd657610bd6612072565b604051908082528060200260200182016040528015610bff578160200160208202803683370190505b50905060005b600254811015610d7757600060028281548110610c2457610c24611fd9565b60009182526020822001546040516342ac91a560e01b81526001600160a01b0391821693507f0000000000000000000000000000000000000000000000000000000000000000909116906342ac91a590610c82908690600401612283565b602060405180830381865afa158015610c9f573d6000803e3d6000fd5b505050506040513d601f19601f82011682018060405250810190610cc39190612292565b905060008111610ce55760405162461bcd60e51b81526004016103c0906122ab565b6001600160a01b038216600090815260076020526040902054670de0b6b3a764000090610d13908390612005565b610d1d9190612032565b848481518110610d2f57610d2f611fd9565b602002602001018181525050838381518110610d4d57610d4d611fd9565b602002602001015185610d6091906122ec565b945050508080610d6f90612059565b915050610c05565b5081600003610d84575050565b600254600090610d949084612032565b905060006064610da5836005612005565b610daf9190612032565b905060005b60025481101561107457600060028281548110610dd357610dd3611fd9565b600091825260208220015486516001600160a01b039091169250610e1190879085908110610e0357610e03611fd9565b602002602001015186611bea565b90508381111561105f5784868481518110610e2e57610e2e611fd9565b60200260200101511115610f5057600085878581518110610e5157610e51611fd9565b6020026020010151610e639190612046565b905060007f00000000000000000000000000000000000000000000000000000000000000006001600160a01b03166342ac91a5866040518263ffffffff1660e01b8152600401610eb39190612283565b602060405180830381865afa158015610ed0573d6000803e3d6000fd5b505050506040513d601f19601f82011682018060405250810190610ef49190612292565b9050600081610f0b84670de0b6b3a7640000612005565b610f159190612032565b6001600160a01b038616600090815260076020526040812080549293508392909190610f42908490612046565b9091555061105f9350505050565b6000868481518110610f6457610f64611fd9565b602002602001015186610f779190612046565b905060007f00000000000000000000000000000000000000000000000000000000000000006001600160a01b03166342ac91a5866040518263ffffffff1660e01b8152600401610fc79190612283565b602060405180830381865afa158015610fe4573d6000803e3d6000fd5b505050506040513d601f19601f820116820180604052508101906110089190612292565b905060008161101f84670de0b6b3a7640000612005565b6110299190612032565b6001600160a01b0386166000908152600760205260408120805492935083929091906110569084906122ec565b90915550505050505b5050808061106c90612059565b915050610db4565b506004546040516001600160a01b03909116907fb8815e3a0b9733f6390f55ab413c696ef91fca3267f27f6c7e60fcd0984262cd90600090a250505050565b6000546001600160a01b031633146110dd5760405162461bcd60e51b81526004016103c090612218565b6001600160a01b0381166111475760405162461bcd60e51b815260206004820152602b60248201527f4261736553747261746567793a204e65772061646d696e20697320746865207a60448201526a65726f206164647265737360a81b60648201526084016103c0565b600080546001600160a01b038381166001600160a01b0319831681178455604051919092169283917ff8ccb027dfcd135e000e9d45e6cc2d662578a8825d4c45b5e32e0adf67e79ec69190a35050565b6000546001600160a01b031633146111c15760405162461bcd60e51b81526004016103c090612218565b6103e88111156112105760405162461bcd60e51b815260206004820152601a602482015279084c2e6caa6e8e4c2e8cacef274408ccaca40e8dede40d0d2ced60331b60448201526064016103c0565b60018190556040518181527f45610d581145924dd7090a5017e5f2b1d6f42213bb2e95707ff86846bbfcb1ca90602001610855565b6002818154811061125557600080fd5b6000918252602090912001546001600160a01b0316905081565b60085460ff16156112cc5760405162461bcd60e51b815260206004820152602160248201527f446f776e53747261746567793a20416c726561647920696e697469616c697a656044820152601960fa1b60648201526084016103c0565b6001600160a01b03811661132d5760405162461bcd60e51b815260206004820152602260248201527f446f776e53747261746567793a204f776e65722063616e6e6f74206265207a65604482015261726f60f01b60648201526084016103c0565b600480546001600160a01b0319166001600160a01b0383169081179091556008805460ff191660011790556040517f908408e307fc569b417f6cbec5d5a06f44a0a505ac0479b47d421a4b2fd6a1e690600090a250565b6004546001600160a01b03166113ac5760405162461bcd60e51b81526004016103c090611fa2565b6000821161140a5760405162461bcd60e51b815260206004820152602560248201527f446f776e53747261746567793a20416d6f756e74206d75737420626520706f73604482015264697469766560d81b60648201526084016103c0565b600061141583611bb5565b905060006114238285612046565b9050806005600001600082825461143a91906122ec565b909155505060025460008054829061145c90600160a01b900460ff1685612005565b6114669190612032565b905060005b828110156115b25760006002828154811061148857611488611fd9565b60009182526020822001546040516342ac91a560e01b81526001600160a01b0391821693507f0000000000000000000000000000000000000000000000000000000000000000909116906342ac91a5906114e6908690600401612283565b602060405180830381865afa158015611503573d6000803e3d6000fd5b505050506040513d601f19601f820116820180604052508101906115279190612292565b9050600081116115495760405162461bcd60e51b81526004016103c0906122ab565b60008161155e86670de0b6b3a7640000612005565b6115689190612032565b6001600160a01b0384166000908152600760205260408120805492935083929091906115959084906122ec565b9250508190555050505080806115aa90612059565b91505061146b565b506000546115ca90600160a01b900460ff1684612005565b600680546000906115dc9084906122ec565b9091555050604080516101008101825242815281518083018352601281527120b2321029b437b93a102837b9b4ba34b7b760711b602082810191909152820190815273a0b86991c6218b36c1d19d4a2e9eb0ce3606eb489282018390526060820189905260006080830181905260a0830181905260c0830188905260e0830193909352600980546001810182559352815160089093026000805160206123608339815191528101938455905191928392909160008051602061234083398151915201906116a9908261210b565b506040828101516002830180546001600160a01b03199081166001600160a01b03938416179091556060850151600385015560808501516004808601805484169285169290921790915560a0860151600586015560c0860151600686015560e090950151600790940180549091169382169390931790925591549151911690600080516020612320833981519152906117439084906121ca565b60405180910390a260008511801561176357506001600160a01b03861615155b156117e65760405163a9059cbb60e01b815273a0b86991c6218b36c1d19d4a2e9eb0ce3606eb489063a9059cbb906117a190899089906004016121dd565b6020604051808303816000875af11580156117c0573d6000803e3d6000fd5b505050506040513d601f19601f820116820180604052508101906117e491906121f6565b505b600454604080518181526012818301527120b2321029b437b93a102837b9b4ba34b7b760711b6060820152602081018a905290516001600160a01b03909216916000805160206123008339815191529181900360800190a250505050505050565b6004546060906001600160a01b03166118725760405162461bcd60e51b81526004016103c090611fa2565b6009805480602002602001604051908101604052809291908181526020016000905b828210156119b3578382906000526020600020906008020160405180610100016040529081600082015481526020016001820180546118d290612088565b80601f01602080910402602001604051908101604052809291908181526020018280546118fe90612088565b801561194b5780601f106119205761010080835404028352916020019161194b565b820191906000526020600020905b81548152906001019060200180831161192e57829003601f168201915b505050918352505060028201546001600160a01b039081166020808401919091526003840154604084015260048401548216606084015260058401546080840152600684015460a08401526007909301541660c0909101529082526001929092019101611894565b50505050905090565b6004546060906001600160a01b03166119e75760405162461bcd60e51b81526004016103c090611fa2565b6002546001600160401b03811115611a0157611a01612072565b604051908082528060200260200182016040528015611a5f57816020015b611a4c604051806060016040528060006001600160a01b0316815260200160008152602001600081525090565b815260200190600190039081611a1f5790505b50905060005b600254811015611bb157600060028281548110611a8457611a84611fd9565b60009182526020808320909101546001600160a01b03908116808452600790925260408084205490516342ac91a560e01b815292945092917f0000000000000000000000000000000000000000000000000000000000000000909116906342ac91a590611af5908790600401612283565b602060405180830381865afa158015611b12573d6000803e3d6000fd5b505050506040513d601f19601f82011682018060405250810190611b369190612292565b90506000670de0b6b3a7640000611b4d8385612005565b611b579190612032565b90506040518060600160405280856001600160a01b0316815260200184815260200182815250868681518110611b8f57611b8f611fd9565b6020026020010181905250505050508080611ba990612059565b915050611a65565b5090565b6000600154600003611bc957506000919050565b61271060015483611bda9190612005565b611be49190612032565b92915050565b6000818311611c0257611bfd8383612046565b611c0c565b611c0c8284612046565b9392505050565b6001600160a01b03169052565b80356001600160a01b0381168114611c3757600080fd5b919050565b60008060408385031215611c4f57600080fd5b82359150611c5f60208401611c20565b90509250929050565b600060208284031215611c7a57600080fd5b813560ff81168114611c0c57600080fd5b60028110611ca957634e487b7160e01b600052602160045260246000fd5b50565b60208101611cb983611c8b565b91905290565b60008060408385031215611cd257600080fd5b611cdb83611c20565b915060208301356001600160401b0381168114611cf757600080fd5b809150509250929050565b600081518084526020808501945080840160005b83811015611d3657815161ffff1687529582019590820190600101611d16565b509495945050505050565b606081526000611d546060830186611d02565b82810360208481019190915285518083528682019282019060005b81811015611d8d578451151583529383019391830191600101611d6f565b50508481036040860152855180825290820192508186019060005b81811015611dcd5782516001600160401b031685529383019391830191600101611da8565b509298975050505050505050565b602081526000611c0c6020830184611d02565b600060208284031215611e0057600080fd5b611c0c82611c20565b600060208284031215611e1b57600080fd5b5035919050565b600061010082518452602080840151828287015280518084880152600093505b80841015611e6157818401830151878501610120015292820192611e42565b6101209350600084828901015260408601519250611e826040880184611c13565b6060860151606088015260808601519250611ea06080880184611c13565b60a086015160a088015260c086015160c088015260e08601519250611ec860e0880184611c13565b601f01601f191695909501909101949350505050565b6000602080830181845280855180835260408601915060408160051b870101925083870160005b82811015611f3357603f19888603018452611f21858351611e22565b94509285019290850190600101611f05565b5092979650505050505050565b602080825282518282018190526000919060409081850190868401855b82811015611f9557815180516001600160a01b0316855286810151878601528501518585015260609093019290850190600101611f5d565b5091979650505050505050565b6020808252601d908201527f446f776e53747261746567793a204e6f7420696e697469616c697a6564000000604082015260600190565b634e487b7160e01b600052603260045260246000fd5b634e487b7160e01b600052601160045260246000fd5b8082028115828204841417611be457611be4611fef565b634e487b7160e01b600052601260045260246000fd5b6000826120415761204161201c565b500490565b81810381811115611be457611be4611fef565b60006001820161206b5761206b611fef565b5060010190565b634e487b7160e01b600052604160045260246000fd5b600181811c9082168061209c57607f821691505b602082108103610b8957634e487b7160e01b600052602260045260246000fd5b601f82111561210657600081815260208120601f850160051c810160208610156120e35750805b601f850160051c820191505b81811015612102578281556001016120ef565b5050505b505050565b81516001600160401b0381111561212457612124612072565b612138816121328454612088565b846120bc565b602080601f83116001811461216d57600084156121555750858301515b600019600386901b1c1916600185901b178555612102565b600085815260208120601f198616915b8281101561219c5788860151825594840194600190910190840161217d565b50858210156121ba5787850151600019600388901b60f8161c191681555b5050505050600190811b01905550565b602081526000611c0c6020830184611e22565b6001600160a01b03929092168252602082015260400190565b60006020828403121561220857600080fd5b81518015158114611c0c57600080fd5b60208082526025908201527f4261736553747261746567793a2043616c6c6572206973206e6f74207468652060408201526430b236b4b760d91b606082015260800190565b60006001600160401b03838116806122775761227761201c565b92169190910492915050565b61ffff91909116815260200190565b6000602082840312156122a457600080fd5b5051919050565b60208082526021908201527f446f776e53747261746567793a20496e76616c696420617373657420707269636040820152606560f81b606082015260800190565b80820180821115611be457611be4611fef56fe911b89887f1e582512acfc0bb4b560349d3ba9c1e9d2b3038d38c3b05dc8fcfbae31fcd154d1849fa3b90ec3e0e5d3408c8cc0b6212d292966266b71e43cff806e1540171b6c0c960b71a7020d9f60077f6af931a8bbf590da0223dacf75c7b06e1540171b6c0c960b71a7020d9f60077f6af931a8bbf590da0223dacf75c7afa164736f6c6343000814000a",
  "linkReferences": {},
  "deployedLinkReferences": {}
}