{
  "_format": "hh-sol-artifact-1",
  "contractName": "DumpStrategy",
  "sourceName": "contracts/DumpStrategy.sol",
  "abi": [
    {
      "inputs": [
        {
          "internalType": "address",
          "name": "_hypeliquidRouter",
          "type": "address"
        },
        {
          "internalType": "uint256",
          "name": "_platformFeeBps",
          "type": "uint256"
        }
      ],
      "stateMutability": "nonpayable",
      "type": "constructor"
    },
    {
      "anonymous": false,
      "inputs": [
        {
          "indexed": true,
          "internalType": "address",
          "name": "previousAdmin",
          "type": "address"
        },
        {
          "indexed": true,
          "internalType": "address",
          "name": "newAdmin",
          "type": "address"
        }
      ],
      "name": "AdminTransferred",
      "type": "event"
    },
    {
      "anonymous": false,
      "inputs": [
        {
          "indexed": true,
          "internalType": "address",
          "name": "owner",
          "type": "address"
        }
      ],
      "name": "Initialized",
      "type": "event"
    },
    {
      "anonymous": false,
      "inputs": [
        {
          "indexed": false,
          "internalType": "uint8",
          "name": "newLeverage",
          "type": "uint8"
        }
      ],
      "name": "LeverageUpdated",
      "type": "event"
    },
    {
      "anonymous": false,
      "inputs": [
        {
          "indexed": false,
          "internalType": "uint256",
          "name": "newPlatformFeeBps",
          "type": "uint256"
        }
      ],
      "name": "PlatformFeeUpdated",
      "type": "event"
    },
    {
      "anonymous": false,
      "inputs": [
        {
          "indexed": true,
          "internalType": "address",
          "name": "owner",
          "type": "address"
        },
        {
          "indexed": false,
          "internalType": "string",
          "name": "action",
          "type": "string"
        },
        {
          "indexed": false,
          "internalType": "uint256",
          "name": "amount",
          "type": "uint256"
        }
      ],
      "name": "PositionUpdated",
      "type": "event"
    },
    {
      "anonymous": false,
      "inputs": [
        {
          "indexed": true,
          "internalType": "address",
          "name": "owner",
          "type": "address"
        }
      ],
      "name": "Rebalanced",
      "type": "event"
    },
    {
      "anonymous": false,
      "inputs": [
        {
          "indexed": true,
          "internalType": "address",
          "name": "owner",
          "type": "address"
        },
        {
          "components": [
            {
              "internalType": "uint256",
              "name": "timestamp",
              "type": "uint256"
            },
            {
              "internalType": "string",
              "name": "tradeType",
              "type": "string"
            },
            {
              "internalType": "address",
              "name": "assetIn",
              "type": "address"
            },
            {
              "internalType": "uint256",
              "name": "amountIn",
              "type": "uint256"
            },
            {
              "internalType": "address",
              "name": "assetOut",
              "type": "address"
            },
            {
              "internalType": "uint256",
              "name": "amountOut",
              "type": "uint256"
            },
            {
              "internalType": "uint256",
              "name": "feeAmount",
              "type": "uint256"
            },
            {
              "internalType": "address",
              "name": "feeAsset",
              "type": "address"
            }
          ],
          "indexed": false,
          "internalType": "struct Trade",
          "name": "trade",
          "type": "tuple"
        }
      ],
      "name": "TradeRecorded",
      "type": "event"
    },
    {
      "inputs": [],
      "name": "BONK",
      "outputs": [
        {
          "internalType": "address",
          "name": "",
          "type": "address"
        }
      ],
      "stateMutability": "view",
      "type": "function"
    },
    {
      "inputs": [],
      "name": "DOGE",
      "outputs": [
        {
          "internalType": "address",
          "name": "",
          "type": "address"
        }
      ],
      "stateMutability": "view",
      "type": "function"
    },
    {
      "inputs": [],
      "name": "PEPE",
      "outputs": [
        {
          "internalType": "address",
          "name": "",
          "type": "address"
        }
      ],
      "stateMutability": "view",
      "type": "function"
    },
    {
      "inputs": [],
      "name": "SHIB",
      "outputs": [
        {
          "internalType": "address",
          "name": "",
          "type": "address"
        }
      ],
      "stateMutability": "view",
      "type": "function"
    },
    {
      "inputs": [],
      "name": "USDC",
      "outputs": [
        {
          "internalType": "address",
          "name": "",
          "type": "address"
        }
      ],
      "stateMutability": "view",
      "type": "function"
    },
    {
      "inputs": [],
      "name": "WIF",
      "outputs": [
        {
          "internalType": "address",
          "name": "",
          "type": "address"
        }
      ],
      "stateMutability": "view",
      "type": "function"
    },
    {
      "inputs": [
        {
          "internalType": "uint256",
          "name": "amount",
          "type": "uint256"
        },
        {
          "internalType": "address",
          "name": "feeRecipient",
          "type": "address"
        }
      ],
      "name": "addLiquidity",
      "outputs": [],
      "stateMutability": "nonpayable",
      "type": "function"
    },
    {
      "inputs": [],
      "name": "admin",
      "outputs": [
        {
          "internalType": "address",
          "name": "",
          "type": "address"
        }
      ],
      "stateMutability": "view",
      "type": "function"
    },
    {
      "inputs": [],
      "name": "execute",
      "outputs": [],
      "stateMutability": "nonpayable",
      "type": "function"
    },
    {
      "inputs": [],
      "name": "getBalance",
      "outputs": [
        {
          "internalType": "uint256",
          "name": "balance",
          "type": "uint256"
        }
      ],
      "stateMutability": "view",
      "type": "function"
    },
    {
      "inputs": [],
      "name": "getCoinType",
      "outputs": [
        {
          "internalType": "enum CoinType",
          "name": "",
          "type": "uint8"
        }
      ],
      "stateMutability": "pure",
      "type": "function"
    },
    {
      "inputs": [],
      "name": "getHoldings",
      "outputs": [
        {
          "components": [
            {
              "internalType": "address",
              "name": "asset",
              "type": "address"
            },
            {
              "internalType": "uint256",
              "name": "amount",
              "type": "uint256"
            },
            {
              "internalType": "uint256",
              "name": "valueUsd",
              "type": "uint256"
            }
          ],
          "internalType": "struct Holding[]",
          "name": "holdings",
          "type": "tuple[]"
        }
      ],
      "stateMutability": "view",
      "type": "function"
    },
    {
      "inputs": [],
      "name": "getLeverage",
      "outputs": [
        {
          "internalType": "uint32",
          "name": "",
          "type": "uint32"
        }
      ],
      "stateMutability": "pure",
      "type": "function"
    },
    {
      "inputs": [],
      "name": "getOwner",
      "outputs": [
        {
          "internalType": "address",
          "name": "ownerAddress",
          "type": "address"
        }
      ],
      "stateMutability": "view",
      "type": "function"
    },
    {
      "inputs": [],
      "name": "getPortfolioIndices",
      "outputs": [
        {
          "internalType": "uint16[]",
          "name": "",
          "type": "uint16[]"
        }
      ],
      "stateMutability": "view",
      "type": "function"
    },
    {
      "inputs": [],
      "name": "getPositionDirection",
      "outputs": [
        {
          "internalType": "enum PositionDirection",
          "name": "",
          "type": "uint8"
        }
      ],
      "stateMutability": "pure",
      "type": "function"
    },
    {
      "inputs": [],
      "name": "getProfitLoss",
      "outputs": [
        {
          "internalType": "int256",
          "name": "pnl",
          "type": "int256"
        }
      ],
      "stateMutability": "view",
      "type": "function"
    },
    {
      "inputs": [],
      "name": "getTradeHistory",
      "outputs": [
        {
          "components": [
            {
              "internalType": "uint256",
              "name": "timestamp",
              "type": "uint256"
            },
            {
              "internalType": "string",
              "name": "tradeType",
              "type": "string"
            },
            {
              "internalType": "address",
              "name": "assetIn",
              "type": "address"
            },
            {
              "internalType": "uint256",
              "name": "amountIn",
              "type": "uint256"
            },
            {
              "internalType": "address",
              "name": "assetOut",
              "type": "address"
            },
            {
              "internalType": "uint256",
              "name": "amountOut",
              "type": "uint256"
            },
            {
              "internalType": "uint256",
              "name": "feeAmount",
              "type": "uint256"
            },
            {
              "internalType": "address",
              "name": "feeAsset",
              "type": "address"
            }
          ],
          "internalType": "struct Trade[]",
          "name": "history",
          "type": "tuple[]"
        }
      ],
      "stateMutability": "view",
      "type": "function"
    },
    {
      "inputs": [],
      "name": "hypeliquidRouter",
      "outputs": [
        {
          "internalType": "address",
          "name": "",
          "type": "address"
        }
      ],
      "stateMutability": "view",
      "type": "function"
    },
    {
      "inputs": [
        {
          "internalType": "address",
          "name": "_owner",
          "type": "address"
        }
      ],
      "name": "initialize",
      "outputs": [],
      "stateMutability": "nonpayable",
      "type": "function"
    },
    {
      "inputs": [],
      "name": "leverage",
      "outputs": [
        {
          "internalType": "uint8",
          "name": "",
          "type": "uint8"
        }
      ],
      "stateMutability": "view",
      "type": "function"
    },
    {
      "inputs": [
        {
          "internalType": "address",
          "name": "holder",
          "type": "address"
        },
        {
          "internalType": "uint64",
          "name": "usdcAmount",
          "type": "uint64"
        }
      ],
      "name": "openPositions",
      "outputs": [
        {
          "internalType": "uint16[]",
          "name": "indices",
          "type": "uint16[]"
        },
        {
          "internalType": "bool[]",
          "name": "isBuy",
          "type": "bool[]"
        },
        {
          "internalType": "uint64[]",
          "name": "sz",
          "type": "uint64[]"
        }
      ],
      "stateMutability": "nonpayable",
      "type": "function"
    },
    {
      "inputs": [],
      "name": "platformFeeBps",
      "outputs": [
        {
          "internalType": "uint256",
          "name": "",
          "type": "uint256"
        }
      ],
      "stateMutability": "view",
      "type": "function"
    },
    {
      "inputs": [],
      "name": "proxyOwner",
      "outputs": [
        {
          "internalType": "address",
          "name": "",
          "type": "address"
        }
      ],
      "stateMutability": "view",
      "type": "function"
    },
    {
      "inputs": [
        {
          "internalType": "uint256",
          "name": "amount",
          "type": "uint256"
        },
        {
          "internalType": "address",
          "name": "feeRecipient",
          "type": "address"
        }
      ],
      "name": "removeLiquidity",
      "outputs": [],
      "stateMutability": "nonpayable",
      "type": "function"
    },
    {
      "inputs": [
        {
          "internalType": "uint256",
          "name": "",
          "type": "uint256"
        }
      ],
      "name": "strategyAssets",
      "outputs": [
        {
          "internalType": "address",
          "name": "",
          "type": "address"
        }
      ],
      "stateMutability": "view",
      "type": "function"
    },
    {
      "inputs": [
        {
          "internalType": "address",
          "name": "_newAdmin",
          "type": "address"
        }
      ],
      "name": "transferAdmin",
      "outputs": [],
      "stateMutability": "nonpayable",
      "type": "function"
    },
    {
      "inputs": [
        {
          "internalType": "uint8",
          "name": "_newLeverage",
          "type": "uint8"
        }
      ],
      "name": "updateLeverage",
      "outputs": [],
      "stateMutability": "nonpayable",
      "type": "function"
    },
    {
      "inputs": [
        {
          "internalType": "uint256",
          "name": "_newPlatformFeeBps",
          "type": "uint256"
        }
      ],
      "name": "updatePlatformFee",
      "outputs": [],
      "stateMutability": "nonpayable",
      "type": "function"
    }
  ],
  "bytecode": "0x60a06040523480156200001157600080fd5b50604051620029963803806200299683398101604081905262000034916200044e565b818160036001600160a01b038316620000a85760405162461bcd60e51b815260206004820152602b60248201527f4261736553747261746567793a20526f757465722063616e6e6f74206265207a60448201526a65726f206164647265737360a81b60648201526084015b60405180910390fd5b6103e8821115620000fc5760405162461bcd60e51b815260206004820152601a60248201527f4261736553747261746567793a2046656520746f6f206869676800000000000060448201526064016200009f565b60008160ff16118015620001145750600a8160ff1611155b620001625760405162461bcd60e51b815260206004820152601e60248201527f4261736553747261746567793a20496e76616c6964206c65766572616765000060448201526064016200009f565b600080546001600160a01b03851660805260018490556001600160a81b0319163360ff60a01b19811691909117600160a01b60ff8516021782556040519091907ff8ccb027dfcd135e000e9d45e6cc2d662578a8825d4c45b5e32e0adf67e79ec6908290a36040518281527f45610d581145924dd7090a5017e5f2b1d6f42213bb2e95707ff86846bbfcb1ca9060200160405180910390a160405160ff821681527fe0ce029e30f26500c1c82ed34083b224b849ea080699f46c290e6216cf35a07d9060200160405180910390a150506040805160a081018252731121acc14c63f3c872bfca497d10926a6098aac581527395ad61b0a150d79219dcf64e1e6cc01f0b64c4ce60208201527325d887ce7a35172c62febfd67a1856f20faebb00918101919091527309199d9a5f4448d0848e4395d065e1ad9c4a1f74606082015273886c869cdc619214138c87f1db0ada522b16dfa36080820152620002ce91506002906005620003cd565b5050600360208190527f4be3007d060beba2d273bc51c12193065229c039cc86edc353bcd54d312b894f805461ffff199081169091557f80e9b62734cc9ba7ec9f8108a636cf1e66a419b10d576d443f6c3a53e90e42848054821660011790557f12182a31406167d7f815a4dc0eefcf15c5c9b685f7e7c5df5f3f48a168b96f558054821660021790557f4de0e1380f5ca97ecc6c8bb33992d35a657b68828995c07f9158382c8f525f828054821690921790915573886c869cdc619214138c87f1db0ada522b16dfa36000527f97840d653e666ceb3ad58ceb921d5f7f0d422a2ba0c744ef3758c26926940f3380549091166004179055506200048a565b82805482825590600052602060002090810192821562000425579160200282015b828111156200042557825182546001600160a01b0319166001600160a01b03909116178255602090920191600190910190620003ee565b506200043392915062000437565b5090565b5b8082111562000433576000815560010162000438565b600080604083850312156200046257600080fd5b82516001600160a01b03811681146200047a57600080fd5b6020939093015192949293505050565b6080516124d4620004c2600039600081816101ba01528181610dd501528181610ff80152818161110c01526116ea01526124d46000f3fe608060405234801561001057600080fd5b506004361061015f5760003560e01c8063025313a21461016457806305fe138b1461018d5780630a02630f146101a25780630e5930f5146101b557806312065fe0146101dc57806322d860c8146101f257806322dcd13e146102015780632c86d98e1461020a57806332abd05814610230578063343447051461024b57806345f2a4341461026d57806358919155146102755780635e293a4a1461029057806361461954146102a557806375829def146102ad578063893d20e8146102c057806389a30271146102d157806394149c1a146101f2578063aa0b5988146102ec578063b2db983a146102ff578063baba68de14610312578063bfbba31714610321578063c4d66de81461033c578063c95f9d0e1461034f578063d251c05a14610362578063d353ac7c14610377578063e24b85e71461038c578063e4fbaecb146103a7578063f851a440146103c2575b600080fd5b600454610177906001600160a01b031681565b6040516101849190611d79565b60405180910390f35b6101a061019b366004611da9565b6103d5565b005b6101a06101b0366004611dd5565b6107b3565b6101777f000000000000000000000000000000000000000000000000000000000000000081565b6101e4610895565b604051908152602001610184565b60016040516101849190611e19565b6101e460015481565b60005461021e90600160a01b900460ff1681565b60405160ff9091168152602001610184565b61017773886c869cdc619214138c87f1db0ada522b16dfa381565b61025e610259366004611e2c565b6108c7565b60405161018493929190611eae565b6101e4610b1e565b610177731121acc14c63f3c872bfca497d10926a6098aac581565b610298610b4f565b6040516101849190611f48565b6101a0610c2a565b6101a06102bb366004611f5b565b611243565b6004546001600160a01b0316610177565b61017773a0b86991c6218b36c1d19d4a2e9eb0ce3606eb4881565b6101a06102fa366004611f76565b611327565b61017761030d366004611f76565b6113d5565b60405160058152602001610184565b6101777309199d9a5f4448d0848e4395d065e1ad9c4a1f7481565b6101a061034a366004611f5b565b6113ff565b6101a061035d366004611da9565b611514565b61036a611a57565b604051610184919061204b565b61037f611bcc565b60405161018491906120ad565b6101777395ad61b0a150d79219dcf64e1e6cc01f0b64c4ce81565b6101777325d887ce7a35172c62febfd67a1856f20faebb0081565b600054610177906001600160a01b031681565b6004546001600160a01b03166104065760405162461bcd60e51b81526004016103fd9061210f565b60405180910390fd5b6005548211156104645760405162461bcd60e51b8152602060048201526024808201527f44756d7053747261746567793a20496e73756666696369656e74206c697175696044820152636469747960e01b60648201526084016103fd565b600061046f83611d0e565b600254909150839060005b818110156105235760006002828154811061049757610497612146565b60009182526020808320909101546001600160a01b03168083526007909152604082205460055491935091906104cd8a84612172565b6104d7919061219f565b9050801561050d576001600160a01b038316600090815260076020526040812080548392906105079084906121b3565b90915550505b505050808061051b906121c6565b91505061047a565b50816005600001600082825461053991906121b3565b909155505060005461055590600160a01b900460ff1683612172565b600680546000906105679084906121b3565b9091555050604080516101008101825242815281518083018352601081526f10db1bdcd94813595b594814da1bdc9d60821b602082810191909152820190815260009282018390526060820183905273a0b86991c6218b36c1d19d4a2e9eb0ce3606eb486080830181905260a0830186905260c0830187905260e0830152600980546001810182559352815160089093026000805160206124a883398151915281019384559051919283929091600080516020612488833981519152019061062f9082612278565b506040828101516002830180546001600160a01b03199081166001600160a01b03938416179091556060850151600385015560808501516004808601805484169285169290921790915560a0860151600586015560c0860151600686015560e090950151600790940180549091169382169390931790925591549151911690600080516020612468833981519152906106c9908490612337565b60405180910390a283156107555760405163a9059cbb60e01b815273a0b86991c6218b36c1d19d4a2e9eb0ce3606eb489063a9059cbb90610710908890889060040161234a565b6020604051808303816000875af115801561072f573d6000803e3d6000fd5b505050506040513d601f19601f820116820180604052508101906107539190612363565b505b600454604080518181526010818301526f10db1bdcd94813595b594814da1bdc9d60821b60608201526020810189905290516001600160a01b03909216916000805160206124488339815191529181900360800190a2505050505050565b6000546001600160a01b031633146107dd5760405162461bcd60e51b81526004016103fd90612385565b60008160ff161180156107f45750600a8160ff1611155b6108405760405162461bcd60e51b815260206004820152601e60248201527f4261736553747261746567793a20496e76616c6964206c65766572616765000060448201526064016103fd565b6000805460ff60a01b1916600160a01b60ff8416908102919091179091556040519081527fe0ce029e30f26500c1c82ed34083b224b849ea080699f46c290e6216cf35a07d906020015b60405180910390a150565b6004546000906001600160a01b03166108c05760405162461bcd60e51b81526004016103fd9061210f565b5060055490565b600454606090819081906001600160a01b03166108f65760405162461bcd60e51b81526004016103fd9061210f565b600254806001600160401b03811115610911576109116121df565b60405190808252806020026020018201604052801561093a578160200160208202803683370190505b509350806001600160401b03811115610955576109556121df565b60405190808252806020026020018201604052801561097e578160200160208202803683370190505b509250806001600160401b03811115610999576109996121df565b6040519080825280602002602001820160405280156109c2578160200160208202803683370190505b50915060005b81811015610b155760036000600283815481106109e7576109e7612146565b60009182526020808320909101546001600160a01b03168352820192909252604001902054855161ffff90911690869083908110610a2757610a27612146565b602002602001019061ffff16908161ffff16815250506000848281518110610a5157610a51612146565b911515602092830291909101909101526002811015610ab8576064610a7787601e6123ca565b610a8191906123f5565b838281518110610a9357610a93612146565b60200260200101906001600160401b031690816001600160401b031681525050610b03565b61012c610ac68760286123ca565b610ad091906123f5565b838281518110610ae257610ae2612146565b60200260200101906001600160401b031690816001600160401b0316815250505b80610b0d816121c6565b9150506109c8565b50509250925092565b6004546000906001600160a01b0316610b495760405162461bcd60e51b81526004016103fd9061210f565b50600090565b6002546060906000906001600160401b03811115610b6f57610b6f6121df565b604051908082528060200260200182016040528015610b98578160200160208202803683370190505b50905060005b600254811015610c24576003600060028381548110610bbf57610bbf612146565b60009182526020808320909101546001600160a01b03168352820192909252604001902054825161ffff90911690839083908110610bff57610bff612146565b61ffff9092166020928302919091019091015280610c1c816121c6565b915050610b9e565b50919050565b6004546001600160a01b0316610c525760405162461bcd60e51b81526004016103fd9061210f565b60025460009081906001600160401b03811115610c7157610c716121df565b604051908082528060200260200182016040528015610c9a578160200160208202803683370190505b506002549091506000906001600160401b03811115610cbb57610cbb6121df565b604051908082528060200260200182016040528015610ce4578160200160208202803683370190505b509050601e81600081518110610cfc57610cfc612146565b602002602001018181525050601e81600181518110610d1d57610d1d612146565b602002602001018181525050600e81600281518110610d3e57610d3e612146565b602002602001018181525050600d81600381518110610d5f57610d5f612146565b602002602001018181525050600d81600481518110610d8057610d80612146565b60200260200101818152505060005b600254811015610ee257600060028281548110610dae57610dae612146565b60009182526020822001546040516370a0823160e01b81526001600160a01b0391821693507f0000000000000000000000000000000000000000000000000000000000000000909116906370a0823190610e0c908590600401611d79565b602060405180830381865afa158015610e29573d6000803e3d6000fd5b505050506040513d601f19601f82011682018060405250810190610e4d919061241b565b6001600160a01b038316600090815260076020526040902054909150670de0b6b3a764000090610e7e908390612172565b610e88919061219f565b858481518110610e9a57610e9a612146565b602002602001018181525050848381518110610eb857610eb8612146565b602002602001015186610ecb9190612434565b955050508080610eda906121c6565b915050610d8f565b5082600003610ef057505050565b60005b60025481101561120557600060028281548110610f1257610f12612146565b600091825260208220015484516001600160a01b039091169250606490859085908110610f4157610f41612146565b602002602001015187610f549190612172565b610f5e919061219f565b90506000610f85868581518110610f7757610f77612146565b602002602001015183611d43565b905060006064610f96846005612172565b610fa0919061219f565b9050808211156111ee5782878681518110610fbd57610fbd612146565b602002602001015111156110df57600083888781518110610fe057610fe0612146565b6020026020010151610ff291906121b3565b905060007f00000000000000000000000000000000000000000000000000000000000000006001600160a01b03166370a08231876040518263ffffffff1660e01b81526004016110429190611d79565b602060405180830381865afa15801561105f573d6000803e3d6000fd5b505050506040513d601f19601f82011682018060405250810190611083919061241b565b905060008161109a84670de0b6b3a7640000612172565b6110a4919061219f565b6001600160a01b0388166000908152600760205260408120805492935083929091906110d19084906121b3565b909155506111ee9350505050565b60008786815181106110f3576110f3612146565b60200260200101518461110691906121b3565b905060007f00000000000000000000000000000000000000000000000000000000000000006001600160a01b03166370a08231876040518263ffffffff1660e01b81526004016111569190611d79565b602060405180830381865afa158015611173573d6000803e3d6000fd5b505050506040513d601f19601f82011682018060405250810190611197919061241b565b90506000816111ae84670de0b6b3a7640000612172565b6111b8919061219f565b6001600160a01b0388166000908152600760205260408120805492935083929091906111e5908490612434565b90915550505050505b5050505080806111fd906121c6565b915050610ef3565b506004546040516001600160a01b03909116907fb8815e3a0b9733f6390f55ab413c696ef91fca3267f27f6c7e60fcd0984262cd90600090a2505050565b6000546001600160a01b0316331461126d5760405162461bcd60e51b81526004016103fd90612385565b6001600160a01b0381166112d75760405162461bcd60e51b815260206004820152602b60248201527f4261736553747261746567793a204e65772061646d696e20697320746865207a60448201526a65726f206164647265737360a81b60648201526084016103fd565b600080546001600160a01b038381166001600160a01b0319831681178455604051919092169283917ff8ccb027dfcd135e000e9d45e6cc2d662578a8825d4c45b5e32e0adf67e79ec69190a35050565b6000546001600160a01b031633146113515760405162461bcd60e51b81526004016103fd90612385565b6103e88111156113a05760405162461bcd60e51b815260206004820152601a602482015279084c2e6caa6e8e4c2e8cacef274408ccaca40e8dede40d0d2ced60331b60448201526064016103fd565b60018190556040518181527f45610d581145924dd7090a5017e5f2b1d6f42213bb2e95707ff86846bbfcb1ca9060200161088a565b600281815481106113e557600080fd5b6000918252602090912001546001600160a01b0316905081565b60085460ff161561145c5760405162461bcd60e51b815260206004820152602160248201527f44756d7053747261746567793a20416c726561647920696e697469616c697a656044820152601960fa1b60648201526084016103fd565b6001600160a01b0381166114bd5760405162461bcd60e51b815260206004820152602260248201527f44756d7053747261746567793a204f776e65722063616e6e6f74206265207a65604482015261726f60f01b60648201526084016103fd565b600480546001600160a01b0319166001600160a01b0383169081179091556008805460ff191660011790556040517f908408e307fc569b417f6cbec5d5a06f44a0a505ac0479b47d421a4b2fd6a1e690600090a250565b6004546001600160a01b031661153c5760405162461bcd60e51b81526004016103fd9061210f565b600061154783611d0e565b9050600061155582856121b3565b9050806005600001600082825461156c9190612434565b90915550506002546000816001600160401b0381111561158e5761158e6121df565b6040519080825280602002602001820160405280156115b7578160200160208202803683370190505b509050601e816000815181106115cf576115cf612146565b602002602001018181525050601e816001815181106115f0576115f0612146565b602002602001018181525050600e8160028151811061161157611611612146565b602002602001018181525050600d8160038151811061163257611632612146565b602002602001018181525050600d8160048151811061165357611653612146565b60200260200101818152505060005b828110156117e15760006002828154811061167f5761167f612146565b600091825260208220015484516001600160a01b0390911692506064908590859081106116ae576116ae612146565b60209081029190910101516000546116d090600160a01b900460ff1689612172565b6116da9190612172565b6116e4919061219f565b905060007f00000000000000000000000000000000000000000000000000000000000000006001600160a01b03166370a08231846040518263ffffffff1660e01b81526004016117349190611d79565b602060405180830381865afa158015611751573d6000803e3d6000fd5b505050506040513d601f19601f82011682018060405250810190611775919061241b565b905060008161178c84670de0b6b3a7640000612172565b611796919061219f565b6001600160a01b0385166000908152600760205260408120805492935083929091906117c3908490612434565b925050819055505050505080806117d9906121c6565b915050611662565b506000546117f990600160a01b900460ff1684612172565b6006805460009061180b908490612434565b9091555050604080516101008101825242815281518083018352600e81526d1059190813595b594814da1bdc9d60921b602082810191909152820190815273a0b86991c6218b36c1d19d4a2e9eb0ce3606eb489282018390526060820189905260006080830181905260a0830181905260c0830188905260e0830193909352600980546001810182559352815160089093026000805160206124a88339815191528101938455905191928392909160008051602061248883398151915201906118d49082612278565b506040828101516002830180546001600160a01b03199081166001600160a01b03938416179091556060850151600385015560808501516004808601805484169285169290921790915560a0860151600586015560c0860151600686015560e0909501516007909401805490911693821693909317909255915491519116906000805160206124688339815191529061196e908490612337565b60405180910390a284156119fa5760405163a9059cbb60e01b815273a0b86991c6218b36c1d19d4a2e9eb0ce3606eb489063a9059cbb906119b5908990899060040161234a565b6020604051808303816000875af11580156119d4573d6000803e3d6000fd5b505050506040513d601f19601f820116820180604052508101906119f89190612363565b505b60045460408051818152600e818301526d1059190813595b594814da1bdc9d60921b6060820152602081018a905290516001600160a01b03909216916000805160206124488339815191529181900360800190a250505050505050565b6004546060906001600160a01b0316611a825760405162461bcd60e51b81526004016103fd9061210f565b6009805480602002602001604051908101604052809291908181526020016000905b82821015611bc357838290600052602060002090600802016040518061010001604052908160008201548152602001600182018054611ae2906121f5565b80601f0160208091040260200160405190810160405280929190818152602001828054611b0e906121f5565b8015611b5b5780601f10611b3057610100808354040283529160200191611b5b565b820191906000526020600020905b815481529060010190602001808311611b3e57829003601f168201915b505050918352505060028201546001600160a01b039081166020808401919091526003840154604084015260048401548216606084015260058401546080840152600684015460a08401526007909301541660c0909101529082526001929092019101611aa4565b50505050905090565b6004546060906001600160a01b0316611bf75760405162461bcd60e51b81526004016103fd9061210f565b6002546001600160401b03811115611c1157611c116121df565b604051908082528060200260200182016040528015611c6f57816020015b611c5c604051806060016040528060006001600160a01b0316815260200160008152602001600081525090565b815260200190600190039081611c2f5790505b50905060005b600254811015611d0a57600060028281548110611c9457611c94612146565b60009182526020808320909101546001600160a01b03168083526007825260408084205481516060810183528381529384018190529083018490528651919450929190869086908110611ce957611ce9612146565b60200260200101819052505050508080611d02906121c6565b915050611c75565b5090565b6000600154600003611d2257506000919050565b61271060015483611d339190612172565b611d3d919061219f565b92915050565b6000818311611d5b57611d5683836121b3565b611d65565b611d6582846121b3565b9392505050565b6001600160a01b03169052565b6001600160a01b0391909116815260200190565b80356001600160a01b0381168114611da457600080fd5b919050565b60008060408385031215611dbc57600080fd5b82359150611dcc60208401611d8d565b90509250929050565b600060208284031215611de757600080fd5b813560ff81168114611d6557600080fd5b60028110611e1657634e487b7160e01b600052602160045260246000fd5b50565b60208101611e2683611df8565b91905290565b60008060408385031215611e3f57600080fd5b611e4883611d8d565b915060208301356001600160401b0381168114611e6457600080fd5b809150509250929050565b600081518084526020808501945080840160005b83811015611ea357815161ffff1687529582019590820190600101611e83565b509495945050505050565b606081526000611ec16060830186611e6f565b82810360208481019190915285518083528682019282019060005b81811015611efa578451151583529383019391830191600101611edc565b50508481036040860152855180825290820192508186019060005b81811015611f3a5782516001600160401b031685529383019391830191600101611f15565b509298975050505050505050565b602081526000611d656020830184611e6f565b600060208284031215611f6d57600080fd5b611d6582611d8d565b600060208284031215611f8857600080fd5b5035919050565b600061010082518452602080840151828287015280518084880152600093505b80841015611fce57818401830151878501610120015292820192611faf565b6101209350600084828901015260408601519250611fef6040880184611d6c565b606086015160608801526080860151925061200d6080880184611d6c565b60a086015160a088015260c086015160c088015260e0860151925061203560e0880184611d6c565b601f01601f191695909501909101949350505050565b6000602080830181845280855180835260408601915060408160051b870101925083870160005b828110156120a057603f1988860301845261208e858351611f8f565b94509285019290850190600101612072565b5092979650505050505050565b602080825282518282018190526000919060409081850190868401855b8281101561210257815180516001600160a01b03168552868101518786015285015185850152606090930192908501906001016120ca565b5091979650505050505050565b6020808252601d908201527f44756d7053747261746567793a204e6f7420696e697469616c697a6564000000604082015260600190565b634e487b7160e01b600052603260045260246000fd5b634e487b7160e01b600052601160045260246000fd5b8082028115828204841417611d3d57611d3d61215c565b634e487b7160e01b600052601260045260246000fd5b6000826121ae576121ae612189565b500490565b81810381811115611d3d57611d3d61215c565b6000600182016121d8576121d861215c565b5060010190565b634e487b7160e01b600052604160045260246000fd5b600181811c9082168061220957607f821691505b602082108103610c2457634e487b7160e01b600052602260045260246000fd5b601f82111561227357600081815260208120601f850160051c810160208610156122505750805b601f850160051c820191505b8181101561226f5782815560010161225c565b5050505b505050565b81516001600160401b03811115612291576122916121df565b6122a58161229f84546121f5565b84612229565b602080601f8311600181146122da57600084156122c25750858301515b600019600386901b1c1916600185901b17855561226f565b600085815260208120601f198616915b82811015612309578886015182559484019460019091019084016122ea565b50858210156123275787850151600019600388901b60f8161c191681555b5050505050600190811b01905550565b602081526000611d656020830184611f8f565b6001600160a01b03929092168252602082015260400190565b60006020828403121561237557600080fd5b81518015158114611d6557600080fd5b60208082526025908201527f4261736553747261746567793a2043616c6c6572206973206e6f74207468652060408201526430b236b4b760d91b606082015260800190565b6001600160401b038181168382160280821691908281146123ed576123ed61215c565b505092915050565b60006001600160401b038381168061240f5761240f612189565b92169190910492915050565b60006020828403121561242d57600080fd5b5051919050565b80820180821115611d3d57611d3d61215c56fe911b89887f1e582512acfc0bb4b560349d3ba9c1e9d2b3038d38c3b05dc8fcfbae31fcd154d1849fa3b90ec3e0e5d3408c8cc0b6212d292966266b71e43cff806e1540171b6c0c960b71a7020d9f60077f6af931a8bbf590da0223dacf75c7b06e1540171b6c0c960b71a7020d9f60077f6af931a8bbf590da0223dacf75c7afa164736f6c6343000814000a",
  "linkReferences": {},
  "deployedLinkReferences": {}
}