{
  "_format": "hh-sol-artifact-1",
  "contractName": "L1Read",
  "sourceName": "contracts/L1Read.sol",
  "abi": [
    {
      "inputs": [
        {
          "internalType": "address",
          "name": "user",
          "type": "address"
        }
      ],
      "name": "delegations",
      "outputs": [
        {
          "components": [
            {
              "internalType": "address",
              "name": "validator",
              "type": "address"
            },
            {
              "internalType": "uint64",
              "name": "amount",
              "type": "uint64"
            },
            {
              "internalType": "uint64",
              "name": "lockedUntilTimestamp",
              "type": "uint64"
            }
          ],
          "internalType": "struct L1Read.Delegation[]",
          "name": "",
          "type": "tuple[]"
        }
      ],
      "stateMutability": "view",
      "type": "function"
    },
    {
      "inputs": [
        {
          "internalType": "address",
          "name": "user",
          "type": "address"
        }
      ],
      "name": "delegatorSummary",
      "outputs": [
        {
          "components": [
            {
              "internalType": "uint64",
              "name": "delegated",
              "type": "uint64"
            },
            {
              "internalType": "uint64",
              "name": "undelegated",
              "type": "uint64"
            },
            {
              "internalType": "uint64",
              "name": "totalPendingWithdrawal",
              "type": "uint64"
            },
            {
              "internalType": "uint64",
              "name": "nPendingWithdrawals",
              "type": "uint64"
            }
          ],
          "internalType": "struct L1Read.DelegatorSummary",
          "name": "",
          "type": "tuple"
        }
      ],
      "stateMutability": "view",
      "type": "function"
    },
    {
      "inputs": [],
      "name": "l1BlockNumber",
      "outputs": [
        {
          "internalType": "uint64",
          "name": "",
          "type": "uint64"
        }
      ],
      "stateMutability": "view",
      "type": "function"
    },
    {
      "inputs": [
        {
          "internalType": "uint16",
          "name": "index",
          "type": "uint16"
        }
      ],
      "name": "markPx",
      "outputs": [
        {
          "internalType": "uint64",
          "name": "",
          "type": "uint64"
        }
      ],
      "stateMutability": "view",
      "type": "function"
    },
    {
      "inputs": [
        {
          "internalType": "uint16",
          "name": "index",
          "type": "uint16"
        }
      ],
      "name": "oraclePx",
      "outputs": [
        {
          "internalType": "uint64",
          "name": "",
          "type": "uint64"
        }
      ],
      "stateMutability": "view",
      "type": "function"
    },
    {
      "inputs": [
        {
          "internalType": "address",
          "name": "user",
          "type": "address"
        },
        {
          "internalType": "uint16",
          "name": "perp",
          "type": "uint16"
        }
      ],
      "name": "position",
      "outputs": [
        {
          "components": [
            {
              "internalType": "int64",
              "name": "szi",
              "type": "int64"
            },
            {
              "internalType": "uint32",
              "name": "leverage",
              "type": "uint32"
            },
            {
              "internalType": "uint64",
              "name": "entryNtl",
              "type": "uint64"
            }
          ],
          "internalType": "struct L1Read.Position",
          "name": "",
          "type": "tuple"
        }
      ],
      "stateMutability": "view",
      "type": "function"
    },
    {
      "inputs": [
        {
          "internalType": "address",
          "name": "user",
          "type": "address"
        },
        {
          "internalType": "uint64",
          "name": "token",
          "type": "uint64"
        }
      ],
      "name": "spotBalance",
      "outputs": [
        {
          "components": [
            {
              "internalType": "uint64",
              "name": "total",
              "type": "uint64"
            },
            {
              "internalType": "uint64",
              "name": "hold",
              "type": "uint64"
            },
            {
              "internalType": "uint64",
              "name": "entryNtl",
              "type": "uint64"
            }
          ],
          "internalType": "struct L1Read.SpotBalance",
          "name": "",
          "type": "tuple"
        }
      ],
      "stateMutability": "view",
      "type": "function"
    },
    {
      "inputs": [
        {
          "internalType": "uint32",
          "name": "index",
          "type": "uint32"
        }
      ],
      "name": "spotPx",
      "outputs": [
        {
          "internalType": "uint64",
          "name": "",
          "type": "uint64"
        }
      ],
      "stateMutability": "view",
      "type": "function"
    },
    {
      "inputs": [
        {
          "internalType": "address",
          "name": "user",
          "type": "address"
        },
        {
          "internalType": "address",
          "name": "vault",
          "type": "address"
        }
      ],
      "name": "userVaultEquity",
      "outputs": [
        {
          "components": [
            {
              "internalType": "uint64",
              "name": "equity",
              "type": "uint64"
            }
          ],
          "internalType": "struct L1Read.UserVaultEquity",
          "name": "",
          "type": "tuple"
        }
      ],
      "stateMutability": "view",
      "type": "function"
    },
    {
      "inputs": [
        {
          "internalType": "address",
          "name": "user",
          "type": "address"
        }
      ],
      "name": "withdrawable",
      "outputs": [
        {
          "components": [
            {
              "internalType": "uint64",
              "name": "withdrawable",
              "type": "uint64"
            }
          ],
          "internalType": "struct L1Read.Withdrawable",
          "name": "",
          "type": "tuple"
        }
      ],
      "stateMutability": "view",
      "type": "function"
    }
  ],
  "bytecode": "0x608060405234801561001057600080fd5b506110c0806100206000396000f3fe608060405234801561001057600080fd5b506004361061008e5760003560e01c8063298c90051461009357806329ebb2ba146100b857806337f980a5146100cb5780633e37cfff1461012157806389cf7c8914610134578063907027591461017b578063a69610d11461018e578063bffe3486146101d3578063ce513b6f146101f3578063ee1b5af11461021e575b600080fd5b61009b610231565b6040516001600160401b0390911681526020015b60405180910390f35b61009b6100c6366004610bd3565b610314565b6100de6100d9366004610c0d565b6103f8565b6040516100af919081516001600160401b039081168252602080840151821690830152604083810151821690830152606092830151169181019190915260800190565b61009b61012f366004610bd3565b61050f565b610147610142366004610c2a565b6105d7565b60408051825160070b815260208084015163ffffffff1690820152918101516001600160401b0316908201526060016100af565b61009b610189366004610c71565b6106e9565b6101a161019c366004610ca3565b6107b3565b6040805182516001600160401b03908116825260208085015182169083015292820151909216908201526060016100af565b6101e66101e1366004610c0d565b6108cc565b6040516100af9190610cdc565b610206610201366004610c0d565b6109bb565b60405190516001600160401b031681526020016100af565b61020661022c366004610d4b565b610ab8565b60408051600080825260208201928390529182916060916108099161025591610d79565b600060405180830381855afa9150503d8060008114610290576040519150601f19603f3d011682016040523d82523d6000602084013e610295565b606091505b509092509050816102f95760405162461bcd60e51b8152602060048201526024808201527f4c31426c6f636b4e756d62657220707265636f6d70696c652063616c6c2066616044820152631a5b195960e21b60648201526084015b60405180910390fd5b8080602001905181019061030d9190610da8565b9250505090565b6040805161ffff831660208201526000918291606091610807910160408051601f198184030181529082905261034991610d79565b600060405180830381855afa9150503d8060008114610384576040519150601f19603f3d011682016040523d82523d6000602084013e610389565b606091505b509092509050816103dc5760405162461bcd60e51b815260206004820152601f60248201527f4f7261636c65507820707265636f6d70696c652063616c6c206661696c65640060448201526064016102f0565b808060200190518101906103f09190610da8565b949350505050565b604080516080810182526000808252602082018190529181018290526060810191909152600060606108056001600160a01b03168460405160200161043d9190610dc5565b60408051601f198184030181529082905261045791610d79565b600060405180830381855afa9150503d8060008114610492576040519150601f19603f3d011682016040523d82523d6000602084013e610497565b606091505b509092509050816104fb5760405162461bcd60e51b815260206004820152602860248201527f44656c656761746f727953756d6d61727920707265636f6d70696c652063616c6044820152671b0819985a5b195960c21b60648201526084016102f0565b808060200190518101906103f09190610e47565b6040805161ffff831660208201526000918291606091610806910160408051601f198184030181529082905261054491610d79565b600060405180830381855afa9150503d806000811461057f576040519150601f19603f3d011682016040523d82523d6000602084013e610584565b606091505b509092509050816103dc5760405162461bcd60e51b815260206004820152601d60248201527f4d61726b507820707265636f6d70696c652063616c6c206661696c656400000060448201526064016102f0565b6040805160608101825260008082526020820181905291810191909152604080516001600160a01b038516602082015261ffff84169181019190915260009060609061080090820160408051601f198184030181529082905261063991610d79565b600060405180830381855afa9150503d8060008114610674576040519150601f19603f3d011682016040523d82523d6000602084013e610679565b606091505b509092509050816106cc5760405162461bcd60e51b815260206004820152601f60248201527f506f736974696f6e20707265636f6d70696c652063616c6c206661696c65640060448201526064016102f0565b808060200190518101906106e09190610ecb565b95945050505050565b6040805163ffffffff831660208201526000918291606091610808910160408051601f198184030181529082905261072091610d79565b600060405180830381855afa9150503d806000811461075b576040519150601f19603f3d011682016040523d82523d6000602084013e610760565b606091505b509092509050816103dc5760405162461bcd60e51b815260206004820152601d60248201527f53706f74507820707265636f6d70696c652063616c6c206661696c656400000060448201526064016102f0565b6040805160608101825260008082526020820181905291810191909152604080516001600160a01b03851660208201526001600160401b0384169181019190915260009060609061080190820160408051601f198184030181529082905261081a91610d79565b600060405180830381855afa9150503d8060008114610855576040519150601f19603f3d011682016040523d82523d6000602084013e61085a565b606091505b509092509050816108b85760405162461bcd60e51b815260206004820152602260248201527f53706f7442616c616e636520707265636f6d70696c652063616c6c206661696c604482015261195960f21b60648201526084016102f0565b808060200190518101906106e09190610f25565b6060600060606108046001600160a01b0316846040516020016108ef9190610dc5565b60408051601f198184030181529082905261090991610d79565b600060405180830381855afa9150503d8060008114610944576040519150601f19603f3d011682016040523d82523d6000602084013e610949565b606091505b509092509050816109a75760405162461bcd60e51b815260206004820152602260248201527f44656c65676174696f6e7320707265636f6d70696c652063616c6c206661696c604482015261195960f21b60648201526084016102f0565b808060200190518101906103f09190610f5a565b604080516020810190915260008152600060606108036001600160a01b0316846040516020016109eb9190610dc5565b60408051601f1981840301815290829052610a0591610d79565b600060405180830381855afa9150503d8060008114610a40576040519150601f19603f3d011682016040523d82523d6000602084013e610a45565b606091505b50909250905081610aa45760405162461bcd60e51b815260206004820152602360248201527f576974686472617761626c6520707265636f6d70696c652063616c6c206661696044820152621b195960ea1b60648201526084016102f0565b808060200190518101906103f09190611097565b604080516020810190915260008152604080516001600160a01b03858116602083015284169181019190915260009060609061080290820160408051601f1981840301815290829052610b0a91610d79565b600060405180830381855afa9150503d8060008114610b45576040519150601f19603f3d011682016040523d82523d6000602084013e610b4a565b606091505b50909250905081610ba85760405162461bcd60e51b815260206004820152602260248201527f5661756c7445717569747920707265636f6d70696c652063616c6c206661696c604482015261195960f21b60648201526084016102f0565b808060200190518101906106e09190611097565b803561ffff81168114610bce57600080fd5b919050565b600060208284031215610be557600080fd5b610bee82610bbc565b9392505050565b6001600160a01b0381168114610c0a57600080fd5b50565b600060208284031215610c1f57600080fd5b8135610bee81610bf5565b60008060408385031215610c3d57600080fd5b8235610c4881610bf5565b9150610c5660208401610bbc565b90509250929050565b63ffffffff81168114610c0a57600080fd5b600060208284031215610c8357600080fd5b8135610bee81610c5f565b6001600160401b0381168114610c0a57600080fd5b60008060408385031215610cb657600080fd5b8235610cc181610bf5565b91506020830135610cd181610c8e565b809150509250929050565b602080825282518282018190526000919060409081850190868401855b82811015610d3e57815180516001600160a01b03168552868101516001600160401b039081168887015290860151168585015260609093019290850190600101610cf9565b5091979650505050505050565b60008060408385031215610d5e57600080fd5b8235610d6981610bf5565b91506020830135610cd181610bf5565b6000825160005b81811015610d9a5760208186018101518583015201610d80565b506000920191825250919050565b600060208284031215610dba57600080fd5b8151610bee81610c8e565b6001600160a01b0391909116815260200190565b634e487b7160e01b600052604160045260246000fd5b604051606081016001600160401b0381118282101715610e1157610e11610dd9565b60405290565b604051601f8201601f191681016001600160401b0381118282101715610e3f57610e3f610dd9565b604052919050565b600060808284031215610e5957600080fd5b604051608081016001600160401b0381118282101715610e7b57610e7b610dd9565b6040528251610e8981610c8e565b81526020830151610e9981610c8e565b60208201526040830151610eac81610c8e565b60408201526060830151610ebf81610c8e565b60608201529392505050565b600060608284031215610edd57600080fd5b610ee5610def565b82518060070b8114610ef657600080fd5b81526020830151610f0681610c5f565b60208201526040830151610f1981610c8e565b60408201529392505050565b600060608284031215610f3757600080fd5b610f3f610def565b8251610f4a81610c8e565b81526020830151610f0681610c8e565b60006020808385031215610f6d57600080fd5b82516001600160401b0380821115610f8457600080fd5b818501915085601f830112610f9857600080fd5b815181811115610faa57610faa610dd9565b610fb8848260051b01610e17565b81815284810192506060918202840185019188831115610fd757600080fd5b938501935b8285101561103c5780858a031215610ff45760008081fd5b610ffc610def565b855161100781610bf5565b81528587015161101681610c8e565b8188015260408681015161102981610c8e565b9082015284529384019392850192610fdc565b50979650505050505050565b60006020828403121561105a57600080fd5b604051602081016001600160401b038111828210171561107c5761107c610dd9565b8060405250809150825161108f81610c8e565b905292915050565b6000602082840312156110a957600080fd5b610bee838361104856fea164736f6c6343000814000a",
  "linkReferences": {},
  "deployedLinkReferences": {}
}