{
  "_format": "hh-sol-artifact-1",
  "contractName": "MockStrategy",
  "sourceName": "contracts/mock/MockStrategy.sol",
  "abi": [
    {
      "inputs": [],
      "stateMutability": "nonpayable",
      "type": "constructor"
    },
    {
      "inputs": [
        {
          "internalType": "uint256",
          "name": "amount",
          "type": "uint256"
        },
        {
          "internalType": "address",
          "name": "feeRecipient",
          "type": "address"
        }
      ],
      "name": "addLiquidity",
      "outputs": [],
      "stateMutability": "nonpayable",
      "type": "function"
    },
    {
      "inputs": [
        {
          "internalType": "address",
          "name": "holder",
          "type": "address"
        },
        {
          "internalType": "uint64",
          "name": "usdcAmount",
          "type": "uint64"
        }
      ],
      "name": "closePositions",
      "outputs": [
        {
          "internalType": "uint16[]",
          "name": "indices",
          "type": "uint16[]"
        },
        {
          "internalType": "bool[]",
          "name": "isBuy",
          "type": "bool[]"
        },
        {
          "internalType": "uint64[]",
          "name": "sz",
          "type": "uint64[]"
        }
      ],
      "stateMutability": "nonpayable",
      "type": "function"
    },
    {
      "inputs": [],
      "name": "execute",
      "outputs": [],
      "stateMutability": "nonpayable",
      "type": "function"
    },
    {
      "inputs": [
        {
          "internalType": "uint16",
          "name": "index",
          "type": "uint16"
        }
      ],
      "name": "getAllocation",
      "outputs": [
        {
          "internalType": "uint256",
          "name": "",
          "type": "uint256"
        }
      ],
      "stateMutability": "view",
      "type": "function"
    },
    {
      "inputs": [],
      "name": "getBalance",
      "outputs": [
        {
          "internalType": "uint256",
          "name": "",
          "type": "uint256"
        }
      ],
      "stateMutability": "view",
      "type": "function"
    },
    {
      "inputs": [],
      "name": "getCoinType",
      "outputs": [
        {
          "internalType": "enum CoinType",
          "name": "",
          "type": "uint8"
        }
      ],
      "stateMutability": "pure",
      "type": "function"
    },
    {
      "inputs": [],
      "name": "getHoldings",
      "outputs": [
        {
          "components": [
            {
              "internalType": "address",
              "name": "asset",
              "type": "address"
            },
            {
              "internalType": "uint256",
              "name": "amount",
              "type": "uint256"
            },
            {
              "internalType": "uint256",
              "name": "valueUsd",
              "type": "uint256"
            }
          ],
          "internalType": "struct Holding[]",
          "name": "",
          "type": "tuple[]"
        }
      ],
      "stateMutability": "view",
      "type": "function"
    },
    {
      "inputs": [],
      "name": "getLeverage",
      "outputs": [
        {
          "internalType": "uint32",
          "name": "",
          "type": "uint32"
        }
      ],
      "stateMutability": "pure",
      "type": "function"
    },
    {
      "inputs": [],
      "name": "getOwner",
      "outputs": [
        {
          "internalType": "address",
          "name": "",
          "type": "address"
        }
      ],
      "stateMutability": "view",
      "type": "function"
    },
    {
      "inputs": [],
      "name": "getPortfolioIndices",
      "outputs": [
        {
          "internalType": "uint16[]",
          "name": "",
          "type": "uint16[]"
        }
      ],
      "stateMutability": "view",
      "type": "function"
    },
    {
      "inputs": [],
      "name": "getPositionDirection",
      "outputs": [
        {
          "internalType": "enum PositionDirection",
          "name": "",
          "type": "uint8"
        }
      ],
      "stateMutability": "pure",
      "type": "function"
    },
    {
      "inputs": [],
      "name": "getProfitLoss",
      "outputs": [
        {
          "internalType": "int256",
          "name": "",
          "type": "int256"
        }
      ],
      "stateMutability": "view",
      "type": "function"
    },
    {
      "inputs": [],
      "name": "getTradeHistory",
      "outputs": [
        {
          "components": [
            {
              "internalType": "uint256",
              "name": "timestamp",
              "type": "uint256"
            },
            {
              "internalType": "string",
              "name": "tradeType",
              "type": "string"
            },
            {
              "internalType": "address",
              "name": "assetIn",
              "type": "address"
            },
            {
              "internalType": "uint256",
              "name": "amountIn",
              "type": "uint256"
            },
            {
              "internalType": "address",
              "name": "assetOut",
              "type": "address"
            },
            {
              "internalType": "uint256",
              "name": "amountOut",
              "type": "uint256"
            },
            {
              "internalType": "uint256",
              "name": "feeAmount",
              "type": "uint256"
            },
            {
              "internalType": "address",
              "name": "feeAsset",
              "type": "address"
            }
          ],
          "internalType": "struct Trade[]",
          "name": "",
          "type": "tuple[]"
        }
      ],
      "stateMutability": "view",
      "type": "function"
    },
    {
      "inputs": [
        {
          "internalType": "address",
          "name": "holder",
          "type": "address"
        }
      ],
      "name": "needsRebalancing",
      "outputs": [
        {
          "internalType": "bool",
          "name": "",
          "type": "bool"
        }
      ],
      "stateMutability": "pure",
      "type": "function"
    },
    {
      "inputs": [
        {
          "internalType": "address",
          "name": "holder",
          "type": "address"
        },
        {
          "internalType": "uint64",
          "name": "usdcAmount",
          "type": "uint64"
        }
      ],
      "name": "openPositions",
      "outputs": [
        {
          "internalType": "uint16[]",
          "name": "indices",
          "type": "uint16[]"
        },
        {
          "internalType": "bool[]",
          "name": "isBuy",
          "type": "bool[]"
        },
        {
          "internalType": "uint64[]",
          "name": "sz",
          "type": "uint64[]"
        }
      ],
      "stateMutability": "nonpayable",
      "type": "function"
    },
    {
      "inputs": [],
      "name": "proxyOwner",
      "outputs": [
        {
          "internalType": "address",
          "name": "",
          "type": "address"
        }
      ],
      "stateMutability": "view",
      "type": "function"
    },
    {
      "inputs": [
        {
          "internalType": "uint256",
          "name": "amount",
          "type": "uint256"
        },
        {
          "internalType": "address",
          "name": "feeRecipient",
          "type": "address"
        }
      ],
      "name": "removeLiquidity",
      "outputs": [],
      "stateMutability": "nonpayable",
      "type": "function"
    }
  ],
  "bytecode": "0x60e060405260006080908152600160a0819052600260c0526100229160036100ad565b5034801561002f57600080fd5b5060026020819052610fa07fac33ff75c19e70fe83507db0d683fd3465c996598dc972688b7ace676c89077b8190557fe90b7bceb6e7df5418fb78d8ee546e97c83a08bbccc01a0644d599ccd2a7c2e0556000526107d07f679795a0195a1b76cdebb7c51d74e058aee92919b8c3389af86ef24535e8a28c5561016a565b82805482825590600052602060002090600f016010900481019282156101455791602002820160005b8382111561011557835183826101000a81548161ffff021916908360ff16021790555092602001926002016020816001010492830192600103026100d6565b80156101435782816101000a81549061ffff0219169055600201602081600101049283019260010302610115565b505b50610151929150610155565b5090565b5b808211156101515760008155600101610156565b610c6d806101796000396000f3fe608060405234801561001057600080fd5b50600436106100db5760003560e01c8063025313a2146100e057806305fe138b1461011057806312065fe01461012557806322d860c8146101445780632ee4a29014610153578063343447051461017757806345f2a434146101995780635e293a4a146101a05780636146195414610123578063893d20e8146101b557806394149c1a14610144578063b7c5149a146101c6578063baba68de146101d9578063c95f9d0e146101e8578063d251c05a146101fb578063d353ac7c14610210578063e6c5ee9314610225575b600080fd5b6000546100f3906001600160a01b031681565b6040516001600160a01b0390911681526020015b60405180910390f35b61012361011e366004610835565b610249565b005b336000908152600360205260409020545b604051908152602001610107565b60006040516101079190610882565b610167610161366004610895565b50600090565b6040519015158152602001610107565b61018a6101853660046108b7565b6102eb565b60405161010793929190610939565b6000610136565b6101a8610522565b60405161010791906109d3565b6000546001600160a01b03166100f3565b61018a6101d43660046108b7565b6105a2565b60405160038152602001610107565b6101236101f6366004610835565b6106ee565b610203610733565b60405161010791906109e6565b610218610733565b6040516101079190610af0565b610136610233366004610b52565b61ffff1660009081526002602052604090205490565b336000908152600360205260409020548211156102a35760405162461bcd60e51b8152602060048201526014602482015273496e73756666696369656e742062616c616e636560601b604482015260640160405180910390fd5b60006127106102b3846064610b8c565b6102bd9190610bbf565b336000908152600360205260408120805492935085929091906102e1908490610bd3565b9091555050505050565b604080516003808252608082019092526060918291829160208201838036833750506040805160038082526080820190925292955090506020820160608036833750506040805160038082526080820190925292945090506020820160608036833701905050905060008360008151811061036857610368610be6565b602002602001019061ffff16908161ffff168152505060018360018151811061039357610393610be6565b602002602001019061ffff16908161ffff16815250506002836002815181106103be576103be610be6565b602002602001019061ffff16908161ffff16815250506001826000815181106103e9576103e9610be6565b60200260200101901515908115158152505060018260018151811061041057610410610be6565b60200260200101901515908115158152505060018260028151811061043757610437610be6565b9115156020928302919091019091015261271061045685610fa0610bfc565b6104609190610c27565b8160008151811061047357610473610be6565b6001600160401b039092166020928302919091019091015261271061049a85610fa0610bfc565b6104a49190610c27565b816001815181106104b7576104b7610be6565b6001600160401b03909216602092830291909101909101526127106104de856107d0610bfc565b6104e89190610c27565b816002815181106104fb576104fb610be6565b60200260200101906001600160401b031690816001600160401b0316815250509250925092565b6060600180548060200260200160405190810160405280929190818152602001828054801561059857602002820191906000526020600020906000905b82829054906101000a900461ffff1661ffff168152602001906002019060208260010104928301926001038202915080841161055f5790505b5050505050905090565b604080516003808252608082019092526060918291829160208201838036833750506040805160038082526080820190925292955090506020820160608036833750506040805160038082526080820190925292945090506020820160608036833701905050905060008360008151811061061f5761061f610be6565b602002602001019061ffff16908161ffff168152505060018360018151811061064a5761064a610be6565b602002602001019061ffff16908161ffff168152505060028360028151811061067557610675610be6565b602002602001019061ffff16908161ffff16815250506000826000815181106106a0576106a0610be6565b6020026020010190151590811515815250506000826001815181106106c7576106c7610be6565b60200260200101901515908115158152505060008260028151811061043757610437610be6565b60006127106106fe846064610b8c565b6107089190610bbf565b90506107148184610bd3565b33600090815260036020526040812080549091906102e1908490610c4d565b604080516000808252602082019092526060916107c1565b6107ae604051806101000160405280600081526020016060815260200160006001600160a01b031681526020016000815260200160006001600160a01b03168152602001600081526020016000815260200160006001600160a01b031681525090565b81526020019060019003908161074b5790505b50905090565b6107f4604051806060016040528060006001600160a01b0316815260200160008152602001600081525090565b8152602001906001900390816107c757905050905090565b6001600160a01b03169052565b80356001600160a01b038116811461083057600080fd5b919050565b6000806040838503121561084857600080fd5b8235915061085860208401610819565b90509250929050565b6002811061087f57634e487b7160e01b600052602160045260246000fd5b50565b6020810161088f83610861565b91905290565b6000602082840312156108a757600080fd5b6108b082610819565b9392505050565b600080604083850312156108ca57600080fd5b6108d383610819565b915060208301356001600160401b03811681146108ef57600080fd5b809150509250929050565b600081518084526020808501945080840160005b8381101561092e57815161ffff168752958201959082019060010161090e565b509495945050505050565b60608152600061094c60608301866108fa565b82810360208481019190915285518083528682019282019060005b81811015610985578451151583529383019391830191600101610967565b50508481036040860152855180825290820192508186019060005b818110156109c55782516001600160401b0316855293830193918301916001016109a0565b509298975050505050505050565b6020815260006108b060208301846108fa565b60006020808301818452808551808352604092508286019150828160051b8701018488016000805b84811015610ae157603f198a850301865282516101008151865289820151818b880152805180838901528592505b80831015610a5b578183018c01518884016101200152918b0191610a3c565b61012092508583828a0101528a8401519150610a798b89018361080c565b60608481015190890152608080850151909250610a98838a018261080c565b5060a0848101519089015260c0808501519089015260e093840151939150610ac28289018561080c565b988b0198601f01601f1916969096010194505091870191600101610a0e565b50919998505050505050505050565b602080825282518282018190526000919060409081850190868401855b82811015610b4557815180516001600160a01b0316855286810151878601528501518585015260609093019290850190600101610b0d565b5091979650505050505050565b600060208284031215610b6457600080fd5b813561ffff811681146108b057600080fd5b634e487b7160e01b600052601160045260246000fd5b8082028115828204841417610ba357610ba3610b76565b92915050565b634e487b7160e01b600052601260045260246000fd5b600082610bce57610bce610ba9565b500490565b81810381811115610ba357610ba3610b76565b634e487b7160e01b600052603260045260246000fd5b6001600160401b03818116838216028082169190828114610c1f57610c1f610b76565b505092915050565b60006001600160401b0383811680610c4157610c41610ba9565b92169190910492915050565b80820180821115610ba357610ba3610b7656fea164736f6c6343000814000a",
  "linkReferences": {},
  "deployedLinkReferences": {}
}