{
  "_format": "hh-sol-artifact-1",
  "contractName": "MockL1Read",
  "sourceName": "contracts/mock/MockL1Read.sol",
  "abi": [
    {
      "inputs": [
        {
          "internalType": "address",
          "name": "",
          "type": "address"
        },
        {
          "internalType": "uint256",
          "name": "",
          "type": "uint256"
        }
      ],
      "name": "delegations",
      "outputs": [
        {
          "internalType": "address",
          "name": "validator",
          "type": "address"
        },
        {
          "internalType": "uint64",
          "name": "amount",
          "type": "uint64"
        },
        {
          "internalType": "uint64",
          "name": "lockedUntilTimestamp",
          "type": "uint64"
        }
      ],
      "stateMutability": "view",
      "type": "function"
    },
    {
      "inputs": [
        {
          "internalType": "address",
          "name": "",
          "type": "address"
        }
      ],
      "name": "delegatorSummary",
      "outputs": [
        {
          "internalType": "uint64",
          "name": "delegated",
          "type": "uint64"
        },
        {
          "internalType": "uint64",
          "name": "undelegated",
          "type": "uint64"
        },
        {
          "internalType": "uint64",
          "name": "totalPendingWithdrawal",
          "type": "uint64"
        },
        {
          "internalType": "uint64",
          "name": "nPendingWithdrawals",
          "type": "uint64"
        }
      ],
      "stateMutability": "view",
      "type": "function"
    },
    {
      "inputs": [
        {
          "internalType": "uint16",
          "name": "assetId",
          "type": "uint16"
        }
      ],
      "name": "getCurrentPrice",
      "outputs": [
        {
          "internalType": "uint256",
          "name": "",
          "type": "uint256"
        }
      ],
      "stateMutability": "pure",
      "type": "function"
    },
    {
      "inputs": [
        {
          "internalType": "address",
          "name": "account",
          "type": "address"
        }
      ],
      "name": "getSpotBalance",
      "outputs": [
        {
          "internalType": "uint256",
          "name": "",
          "type": "uint256"
        }
      ],
      "stateMutability": "view",
      "type": "function"
    },
    {
      "inputs": [],
      "name": "l1BlockNumber",
      "outputs": [
        {
          "internalType": "uint64",
          "name": "",
          "type": "uint64"
        }
      ],
      "stateMutability": "view",
      "type": "function"
    },
    {
      "inputs": [
        {
          "internalType": "uint16",
          "name": "",
          "type": "uint16"
        }
      ],
      "name": "markPx",
      "outputs": [
        {
          "internalType": "uint64",
          "name": "",
          "type": "uint64"
        }
      ],
      "stateMutability": "view",
      "type": "function"
    },
    {
      "inputs": [
        {
          "internalType": "uint16",
          "name": "",
          "type": "uint16"
        }
      ],
      "name": "oraclePx",
      "outputs": [
        {
          "internalType": "uint64",
          "name": "",
          "type": "uint64"
        }
      ],
      "stateMutability": "view",
      "type": "function"
    },
    {
      "inputs": [
        {
          "internalType": "address",
          "name": "",
          "type": "address"
        },
        {
          "internalType": "uint16",
          "name": "",
          "type": "uint16"
        }
      ],
      "name": "position",
      "outputs": [
        {
          "internalType": "int64",
          "name": "szi",
          "type": "int64"
        },
        {
          "internalType": "uint32",
          "name": "leverage",
          "type": "uint32"
        },
        {
          "internalType": "uint64",
          "name": "entryNtl",
          "type": "uint64"
        }
      ],
      "stateMutability": "view",
      "type": "function"
    },
    {
      "inputs": [
        {
          "internalType": "address",
          "name": "account",
          "type": "address"
        },
        {
          "internalType": "uint256",
          "name": "balance",
          "type": "uint256"
        }
      ],
      "name": "setBalance",
      "outputs": [],
      "stateMutability": "nonpayable",
      "type": "function"
    },
    {
      "inputs": [
        {
          "internalType": "address",
          "name": "user",
          "type": "address"
        },
        {
          "components": [
            {
              "internalType": "address",
              "name": "validator",
              "type": "address"
            },
            {
              "internalType": "uint64",
              "name": "amount",
              "type": "uint64"
            },
            {
              "internalType": "uint64",
              "name": "lockedUntilTimestamp",
              "type": "uint64"
            }
          ],
          "internalType": "struct MockL1Read.Delegation[]",
          "name": "delegations_",
          "type": "tuple[]"
        }
      ],
      "name": "setDelegations",
      "outputs": [],
      "stateMutability": "nonpayable",
      "type": "function"
    },
    {
      "inputs": [
        {
          "internalType": "address",
          "name": "user",
          "type": "address"
        },
        {
          "components": [
            {
              "internalType": "uint64",
              "name": "delegated",
              "type": "uint64"
            },
            {
              "internalType": "uint64",
              "name": "undelegated",
              "type": "uint64"
            },
            {
              "internalType": "uint64",
              "name": "totalPendingWithdrawal",
              "type": "uint64"
            },
            {
              "internalType": "uint64",
              "name": "nPendingWithdrawals",
              "type": "uint64"
            }
          ],
          "internalType": "struct MockL1Read.DelegatorSummary",
          "name": "summary",
          "type": "tuple"
        }
      ],
      "name": "setDelegatorSummary",
      "outputs": [],
      "stateMutability": "nonpayable",
      "type": "function"
    },
    {
      "inputs": [
        {
          "internalType": "uint64",
          "name": "blockNumber",
          "type": "uint64"
        }
      ],
      "name": "setL1BlockNumber",
      "outputs": [],
      "stateMutability": "nonpayable",
      "type": "function"
    },
    {
      "inputs": [
        {
          "internalType": "uint16",
          "name": "index",
          "type": "uint16"
        },
        {
          "internalType": "uint64",
          "name": "price",
          "type": "uint64"
        }
      ],
      "name": "setMarkPx",
      "outputs": [],
      "stateMutability": "nonpayable",
      "type": "function"
    },
    {
      "inputs": [
        {
          "internalType": "uint16",
          "name": "index",
          "type": "uint16"
        },
        {
          "internalType": "uint64",
          "name": "price",
          "type": "uint64"
        }
      ],
      "name": "setOraclePx",
      "outputs": [],
      "stateMutability": "nonpayable",
      "type": "function"
    },
    {
      "inputs": [
        {
          "internalType": "address",
          "name": "user",
          "type": "address"
        },
        {
          "internalType": "uint16",
          "name": "perp",
          "type": "uint16"
        },
        {
          "components": [
            {
              "internalType": "int64",
              "name": "szi",
              "type": "int64"
            },
            {
              "internalType": "uint32",
              "name": "leverage",
              "type": "uint32"
            },
            {
              "internalType": "uint64",
              "name": "entryNtl",
              "type": "uint64"
            }
          ],
          "internalType": "struct MockL1Read.Position",
          "name": "pos",
          "type": "tuple"
        }
      ],
      "name": "setPosition",
      "outputs": [],
      "stateMutability": "nonpayable",
      "type": "function"
    },
    {
      "inputs": [
        {
          "internalType": "address",
          "name": "user",
          "type": "address"
        },
        {
          "internalType": "uint64",
          "name": "token",
          "type": "uint64"
        },
        {
          "components": [
            {
              "internalType": "uint64",
              "name": "total",
              "type": "uint64"
            },
            {
              "internalType": "uint64",
              "name": "hold",
              "type": "uint64"
            },
            {
              "internalType": "uint64",
              "name": "entryNtl",
              "type": "uint64"
            }
          ],
          "internalType": "struct MockL1Read.SpotBalance",
          "name": "bal",
          "type": "tuple"
        }
      ],
      "name": "setSpotBalance",
      "outputs": [],
      "stateMutability": "nonpayable",
      "type": "function"
    },
    {
      "inputs": [
        {
          "internalType": "uint32",
          "name": "index",
          "type": "uint32"
        },
        {
          "internalType": "uint64",
          "name": "price",
          "type": "uint64"
        }
      ],
      "name": "setSpotPx",
      "outputs": [],
      "stateMutability": "nonpayable",
      "type": "function"
    },
    {
      "inputs": [
        {
          "internalType": "address",
          "name": "user",
          "type": "address"
        },
        {
          "internalType": "address",
          "name": "vault",
          "type": "address"
        },
        {
          "components": [
            {
              "internalType": "uint64",
              "name": "equity",
              "type": "uint64"
            }
          ],
          "internalType": "struct MockL1Read.UserVaultEquity",
          "name": "equity",
          "type": "tuple"
        }
      ],
      "name": "setUserVaultEquity",
      "outputs": [],
      "stateMutability": "nonpayable",
      "type": "function"
    },
    {
      "inputs": [
        {
          "internalType": "address",
          "name": "user",
          "type": "address"
        },
        {
          "components": [
            {
              "internalType": "uint64",
              "name": "withdrawable",
              "type": "uint64"
            }
          ],
          "internalType": "struct MockL1Read.Withdrawable",
          "name": "withdrawable_",
          "type": "tuple"
        }
      ],
      "name": "setWithdrawable",
      "outputs": [],
      "stateMutability": "nonpayable",
      "type": "function"
    },
    {
      "inputs": [
        {
          "internalType": "address",
          "name": "",
          "type": "address"
        },
        {
          "internalType": "uint64",
          "name": "",
          "type": "uint64"
        }
      ],
      "name": "spotBalance",
      "outputs": [
        {
          "internalType": "uint64",
          "name": "total",
          "type": "uint64"
        },
        {
          "internalType": "uint64",
          "name": "hold",
          "type": "uint64"
        },
        {
          "internalType": "uint64",
          "name": "entryNtl",
          "type": "uint64"
        }
      ],
      "stateMutability": "view",
      "type": "function"
    },
    {
      "inputs": [
        {
          "internalType": "uint32",
          "name": "",
          "type": "uint32"
        }
      ],
      "name": "spotPx",
      "outputs": [
        {
          "internalType": "uint64",
          "name": "",
          "type": "uint64"
        }
      ],
      "stateMutability": "view",
      "type": "function"
    },
    {
      "inputs": [
        {
          "internalType": "address",
          "name": "",
          "type": "address"
        },
        {
          "internalType": "address",
          "name": "",
          "type": "address"
        }
      ],
      "name": "userVaultEquity",
      "outputs": [
        {
          "internalType": "uint64",
          "name": "equity",
          "type": "uint64"
        }
      ],
      "stateMutability": "view",
      "type": "function"
    },
    {
      "inputs": [
        {
          "internalType": "address",
          "name": "",
          "type": "address"
        }
      ],
      "name": "withdrawable",
      "outputs": [
        {
          "internalType": "uint64",
          "name": "withdrawable",
          "type": "uint64"
        }
      ],
      "stateMutability": "view",
      "type": "function"
    }
  ],
  "bytecode": "0x608060405234801561001057600080fd5b50610f32806100206000396000f3fe608060405234801561001057600080fd5b506004361061011d5760003560e01c806301e372d914610122578063223fae0914610154578063298c90051461019b57806329ebb2ba146101c057806337f980a5146101e9578063385a1950146102645780633e37cfff146102775780636da31338146102a05780636e8d06c9146102e657806370d1bcc81461033b57806389cf7c891461037d57806390702759146103f757806394a0b771146104205780639bad0eb314610464578063a69610d1146104f4578063a9a954dd14610568578063aa2381101461059f578063ce513b6f146105b2578063e30443bc146105db578063e995299b14610605578063ee1b5af114610647578063ee8dead91461067b578063f4d52a6014610711575b600080fd5b610152610130366004610998565b600980546001600160401b0319166001600160401b0392909216919091179055565b005b6101676101623660046109d1565b610793565b604080516001600160a01b0390941684526001600160401b0392831660208501529116908201526060015b60405180910390f35b6009546001600160401b03165b6040516001600160401b039091168152602001610192565b6101a86101ce366004610a0d565b6007602052600090815260409020546001600160401b031681565b6102316101f7366004610a28565b6005602052600090815260409020546001600160401b0380821691600160401b8104821691600160801b8204811691600160c01b90041684565b604080516001600160401b0395861681529385166020850152918416918301919091529091166060820152608001610192565b610152610272366004610ab1565b6107eb565b6101a8610285366004610a0d565b6006602052600090815260409020546001600160401b031681565b6101526102ae366004610bf7565b6001600160a01b03919091166000908152600360205260409020905181546001600160401b0319166001600160401b03909116179055565b6101526102f4366004610c2b565b6001600160a01b03928316600090815260026020908152604080832094909516825292909252919020905181546001600160401b0319166001600160401b03909116179055565b610152610349366004610c6f565b61ffff91909116600090815260076020526040902080546001600160401b0319166001600160401b03909216919091179055565b6103c961038b366004610c99565b6000602081815292815260408082209093529081522054600781900b90600160401b810463ffffffff1690600160601b90046001600160401b031683565b6040805160079490940b845263ffffffff90921660208401526001600160401b031690820152606001610192565b6101a8610405366004610cd7565b6008602052600090815260409020546001600160401b031681565b61015261042e366004610cf2565b63ffffffff91909116600090815260086020526040902080546001600160401b0319166001600160401b03909216919091179055565b610152610472366004610d0e565b6001600160a01b0390921660009081526020818152604080832061ffff909416835292815290829020835181549285015193909401516001600160401b03908116600160601b02600160601b600160a01b031963ffffffff909516600160401b026001600160601b031990941691909516179190911791909116919091179055565b61053e610502366004610d9b565b60016020908152600092835260408084209091529082529020546001600160401b0380821691600160401b8104821691600160801b9091041683565b604080516001600160401b0394851681529284166020840152921691810191909152606001610192565b610591610576366004610a28565b6001600160a01b03166000908152600a602052604090205490565b604051908152602001610192565b6105916105ad366004610a0d565b6108d3565b6101a86105c0366004610a28565b6003602052600090815260409020546001600160401b031681565b6101526105e93660046109d1565b6001600160a01b039091166000908152600a6020526040902055565b610152610613366004610c6f565b61ffff91909116600090815260066020526040902080546001600160401b0319166001600160401b03909216919091179055565b6101a8610655366004610db7565b60026020908152600092835260408084209091529082529020546001600160401b031681565b610152610689366004610de1565b6001600160a01b039091166000908152600560209081526040918290208351815492850151938501516060909501516001600160401b03908116600160c01b026001600160c01b03968216600160801b02969096166001600160801b03958216600160401b026001600160801b03199095169190921617929092179290921617919091179055565b61015261071f366004610e84565b6001600160a01b0390921660009081526001602090815260408083206001600160401b039485168452825291829020845181549286015193909501518416600160801b02600160801b600160c01b0319938516600160401b026001600160801b031990931695909416949094171716179055565b600460205281600052604060002081815481106107af57600080fd5b6000918252602090912060029091020180546001909101546001600160a01b03821693506001600160401b03600160a01b909204821692501683565b6001600160a01b038216600090815260046020526040812061080c91610923565b60005b81518110156108ce576001600160a01b0383166000908152600460205260409020825183908390811061084457610844610ee8565b60209081029190910181015182546001808201855560009485529383902082516002909202018054938301516001600160a01b039092166001600160e01b031990941693909317600160a01b6001600160401b03928316021783556040909101519190920180546001600160401b03191691909216179055806108c681610efe565b91505061080f565b505050565b60008161ffff166000036108ed57506406fc23ac00919050565b8161ffff1660010361090457506377359400919050565b8161ffff1660020361091b57506305f5e100919050565b506000919050565b50805460008255600202906000526020600020908101906109449190610947565b50565b5b808211156109785780546001600160e01b03191681556001810180546001600160401b0319169055600201610948565b5090565b80356001600160401b038116811461099357600080fd5b919050565b6000602082840312156109aa57600080fd5b6109b38261097c565b9392505050565b80356001600160a01b038116811461099357600080fd5b600080604083850312156109e457600080fd5b6109ed836109ba565b946020939093013593505050565b803561ffff8116811461099357600080fd5b600060208284031215610a1f57600080fd5b6109b3826109fb565b600060208284031215610a3a57600080fd5b6109b3826109ba565b634e487b7160e01b600052604160045260246000fd5b604051606081016001600160401b0381118282101715610a7b57610a7b610a43565b60405290565b604051601f8201601f191681016001600160401b0381118282101715610aa957610aa9610a43565b604052919050565b6000806040808486031215610ac557600080fd5b610ace846109ba565b92506020848101356001600160401b0380821115610aeb57600080fd5b818701915087601f830112610aff57600080fd5b813581811115610b1157610b11610a43565b610b1f848260051b01610a81565b8181528481019250606091820284018501918a831115610b3e57600080fd5b938501935b82851015610b9b5780858c031215610b5b5760008081fd5b610b63610a59565b610b6c866109ba565b8152610b7987870161097c565b87820152610b8888870161097c565b8189015284529384019392850192610b43565b508096505050505050509250929050565b600060208284031215610bbe57600080fd5b604051602081016001600160401b0381118282101715610be057610be0610a43565b604052905080610bef8361097c565b905292915050565b60008060408385031215610c0a57600080fd5b610c13836109ba565b9150610c228460208501610bac565b90509250929050565b600080600060608486031215610c4057600080fd5b610c49846109ba565b9250610c57602085016109ba565b9150610c668560408601610bac565b90509250925092565b60008060408385031215610c8257600080fd5b610c8b836109fb565b9150610c226020840161097c565b60008060408385031215610cac57600080fd5b610cb5836109ba565b9150610c22602084016109fb565b803563ffffffff8116811461099357600080fd5b600060208284031215610ce957600080fd5b6109b382610cc3565b60008060408385031215610d0557600080fd5b610c8b83610cc3565b600080600083850360a0811215610d2457600080fd5b610d2d856109ba565b9350610d3b602086016109fb565b92506060603f1982011215610d4f57600080fd5b50610d58610a59565b60408501358060070b8114610d6c57600080fd5b8152610d7a60608601610cc3565b6020820152610d8b6080860161097c565b6040820152809150509250925092565b60008060408385031215610dae57600080fd5b610c8b836109ba565b60008060408385031215610dca57600080fd5b610dd3836109ba565b9150610c22602084016109ba565b60008082840360a0811215610df557600080fd5b610dfe846109ba565b92506080601f1982011215610e1257600080fd5b50604051608081016001600160401b0381118282101715610e3557610e35610a43565b604052610e446020850161097c565b8152610e526040850161097c565b6020820152610e636060850161097c565b6040820152610e746080850161097c565b6060820152809150509250929050565b600080600083850360a0811215610e9a57600080fd5b610ea3856109ba565b9350610eb16020860161097c565b92506060603f1982011215610ec557600080fd5b50610ece610a59565b610eda6040860161097c565b8152610d7a6060860161097c565b634e487b7160e01b600052603260045260246000fd5b600060018201610f1e57634e487b7160e01b600052601160045260246000fd5b506001019056fea164736f6c6343000814000a",
  "linkReferences": {},
  "deployedLinkReferences": {}
}