{
  "_format": "hh-sol-artifact-1",
  "contractName": "StrategyProxy",
  "sourceName": "contracts/StrategyProxy.sol",
  "abi": [
    {
      "inputs": [
        {
          "internalType": "address",
          "name": "_owner",
          "type": "address"
        },
        {
          "internalType": "address",
          "name": "_implementation",
          "type": "address"
        },
        {
          "internalType": "address",
          "name": "_feeRecipient",
          "type": "address"
        },
        {
          "internalType": "address",
          "name": "_hypeliquidRouter",
          "type": "address"
        },
        {
          "internalType": "address",
          "name": "_admin",
          "type": "address"
        },
        {
          "internalType": "uint8",
          "name": "_leverage",
          "type": "uint8"
        },
        {
          "internalType": "uint256",
          "name": "_platformFeeBps",
          "type": "uint256"
        }
      ],
      "stateMutability": "nonpayable",
      "type": "constructor"
    },
    {
      "anonymous": false,
      "inputs": [
        {
          "indexed": true,
          "internalType": "address",
          "name": "user",
          "type": "address"
        },
        {
          "indexed": false,
          "internalType": "uint256",
          "name": "amount",
          "type": "uint256"
        }
      ],
      "name": "Deposited",
      "type": "event"
    },
    {
      "anonymous": false,
      "inputs": [
        {
          "indexed": true,
          "internalType": "address",
          "name": "user",
          "type": "address"
        }
      ],
      "name": "Executed",
      "type": "event"
    },
    {
      "anonymous": false,
      "inputs": [
        {
          "indexed": true,
          "internalType": "address",
          "name": "user",
          "type": "address"
        },
        {
          "indexed": false,
          "internalType": "uint256",
          "name": "amount",
          "type": "uint256"
        }
      ],
      "name": "LiquidityAdded",
      "type": "event"
    },
    {
      "anonymous": false,
      "inputs": [
        {
          "indexed": true,
          "internalType": "address",
          "name": "user",
          "type": "address"
        },
        {
          "indexed": false,
          "internalType": "uint256",
          "name": "amount",
          "type": "uint256"
        }
      ],
      "name": "LiquidityRemoved",
      "type": "event"
    },
    {
      "anonymous": false,
      "inputs": [
        {
          "indexed": true,
          "internalType": "address",
          "name": "previousOwner",
          "type": "address"
        },
        {
          "indexed": true,
          "internalType": "address",
          "name": "newOwner",
          "type": "address"
        }
      ],
      "name": "OwnershipTransferred",
      "type": "event"
    },
    {
      "anonymous": false,
      "inputs": [
        {
          "indexed": true,
          "internalType": "address",
          "name": "user",
          "type": "address"
        },
        {
          "indexed": false,
          "internalType": "uint256",
          "name": "amount",
          "type": "uint256"
        }
      ],
      "name": "Withdrawn",
      "type": "event"
    },
    {
      "stateMutability": "payable",
      "type": "fallback"
    },
    {
      "inputs": [
        {
          "internalType": "uint256",
          "name": "amount",
          "type": "uint256"
        }
      ],
      "name": "addLiquidity",
      "outputs": [],
      "stateMutability": "nonpayable",
      "type": "function"
    },
    {
      "inputs": [],
      "name": "admin",
      "outputs": [
        {
          "internalType": "address",
          "name": "",
          "type": "address"
        }
      ],
      "stateMutability": "view",
      "type": "function"
    },
    {
      "inputs": [
        {
          "internalType": "uint256",
          "name": "amount",
          "type": "uint256"
        }
      ],
      "name": "deposit",
      "outputs": [],
      "stateMutability": "payable",
      "type": "function"
    },
    {
      "inputs": [],
      "name": "execute",
      "outputs": [],
      "stateMutability": "nonpayable",
      "type": "function"
    },
    {
      "inputs": [],
      "name": "feeRecipient",
      "outputs": [
        {
          "internalType": "address",
          "name": "",
          "type": "address"
        }
      ],
      "stateMutability": "view",
      "type": "function"
    },
    {
      "inputs": [],
      "name": "getBalance",
      "outputs": [
        {
          "internalType": "uint256",
          "name": "balance",
          "type": "uint256"
        }
      ],
      "stateMutability": "view",
      "type": "function"
    },
    {
      "inputs": [],
      "name": "getHoldings",
      "outputs": [
        {
          "components": [
            {
              "internalType": "address",
              "name": "asset",
              "type": "address"
            },
            {
              "internalType": "uint256",
              "name": "amount",
              "type": "uint256"
            },
            {
              "internalType": "uint256",
              "name": "valueUsd",
              "type": "uint256"
            }
          ],
          "internalType": "struct Holding[]",
          "name": "holdings",
          "type": "tuple[]"
        }
      ],
      "stateMutability": "view",
      "type": "function"
    },
    {
      "inputs": [],
      "name": "getOwner",
      "outputs": [
        {
          "internalType": "address",
          "name": "ownerAddress",
          "type": "address"
        }
      ],
      "stateMutability": "view",
      "type": "function"
    },
    {
      "inputs": [],
      "name": "getProfitLoss",
      "outputs": [
        {
          "internalType": "int256",
          "name": "pnl",
          "type": "int256"
        }
      ],
      "stateMutability": "view",
      "type": "function"
    },
    {
      "inputs": [],
      "name": "getTradeHistory",
      "outputs": [
        {
          "components": [
            {
              "internalType": "uint256",
              "name": "timestamp",
              "type": "uint256"
            },
            {
              "internalType": "string",
              "name": "tradeType",
              "type": "string"
            },
            {
              "internalType": "address",
              "name": "assetIn",
              "type": "address"
            },
            {
              "internalType": "uint256",
              "name": "amountIn",
              "type": "uint256"
            },
            {
              "internalType": "address",
              "name": "assetOut",
              "type": "address"
            },
            {
              "internalType": "uint256",
              "name": "amountOut",
              "type": "uint256"
            },
            {
              "internalType": "uint256",
              "name": "feeAmount",
              "type": "uint256"
            },
            {
              "internalType": "address",
              "name": "feeAsset",
              "type": "address"
            }
          ],
          "internalType": "struct Trade[]",
          "name": "history",
          "type": "tuple[]"
        }
      ],
      "stateMutability": "view",
      "type": "function"
    },
    {
      "inputs": [],
      "name": "hypeliquidRouter",
      "outputs": [
        {
          "internalType": "address",
          "name": "",
          "type": "address"
        }
      ],
      "stateMutability": "view",
      "type": "function"
    },
    {
      "inputs": [],
      "name": "implementation",
      "outputs": [
        {
          "internalType": "address",
          "name": "",
          "type": "address"
        }
      ],
      "stateMutability": "view",
      "type": "function"
    },
    {
      "inputs": [],
      "name": "leverage",
      "outputs": [
        {
          "internalType": "uint8",
          "name": "",
          "type": "uint8"
        }
      ],
      "stateMutability": "view",
      "type": "function"
    },
    {
      "inputs": [],
      "name": "owner",
      "outputs": [
        {
          "internalType": "address",
          "name": "",
          "type": "address"
        }
      ],
      "stateMutability": "view",
      "type": "function"
    },
    {
      "inputs": [],
      "name": "platformFeeBps",
      "outputs": [
        {
          "internalType": "uint256",
          "name": "",
          "type": "uint256"
        }
      ],
      "stateMutability": "view",
      "type": "function"
    },
    {
      "inputs": [],
      "name": "proxyOwner",
      "outputs": [
        {
          "internalType": "address",
          "name": "",
          "type": "address"
        }
      ],
      "stateMutability": "view",
      "type": "function"
    },
    {
      "inputs": [
        {
          "internalType": "uint256",
          "name": "amount",
          "type": "uint256"
        }
      ],
      "name": "removeLiquidity",
      "outputs": [],
      "stateMutability": "nonpayable",
      "type": "function"
    },
    {
      "inputs": [
        {
          "internalType": "address",
          "name": "newOwner",
          "type": "address"
        }
      ],
      "name": "transferOwnership",
      "outputs": [],
      "stateMutability": "nonpayable",
      "type": "function"
    },
    {
      "inputs": [],
      "name": "userBalance",
      "outputs": [
        {
          "internalType": "uint256",
          "name": "",
          "type": "uint256"
        }
      ],
      "stateMutability": "view",
      "type": "function"
    },
    {
      "inputs": [
        {
          "internalType": "uint256",
          "name": "amount",
          "type": "uint256"
        }
      ],
      "name": "withdraw",
      "outputs": [],
      "stateMutability": "nonpayable",
      "type": "function"
    },
    {
      "stateMutability": "payable",
      "type": "receive"
    }
  ],
  "bytecode": "0x60806040523480156200001157600080fd5b50604051620019fa380380620019fa8339810160408190526200003491620002cf565b6001600160a01b038716620000a45760405162461bcd60e51b815260206004820152602b60248201527f537472617465677950726f78793a204f776e65722063616e6e6f74206265207a60448201526a65726f206164647265737360a81b60648201526084015b60405180910390fd5b6001600160a01b038616620001225760405162461bcd60e51b815260206004820152603460248201527f537472617465677950726f78793a20496d706c656d656e746174696f6e20636160448201527f6e6e6f74206265207a65726f206164647265737300000000000000000000000060648201526084016200009b565b6001600160a01b038516620001a05760405162461bcd60e51b815260206004820152603360248201527f537472617465677950726f78793a2046656520726563697069656e742063616e60448201527f6e6f74206265207a65726f20616464726573730000000000000000000000000060648201526084016200009b565b6001600160a01b0384166200020d5760405162461bcd60e51b815260206004820152602c60248201527f537472617465677950726f78793a20526f757465722063616e6e6f742062652060448201526b7a65726f206164647265737360a01b60648201526084016200009b565b600480546001600160a01b03199081166001600160a01b038a81169182179093556005805483168a851617905560068054831689851617905560008054909216878416178255600180549387166001600160a81b031990941693909317600160a01b60ff8716021790925560028390556040517f8be0079c531659141344cd1fd0a4f28419497f9722a3daafe3b4186f6b6457e0908290a35050505050505062000364565b80516001600160a01b0381168114620002ca57600080fd5b919050565b600080600080600080600060e0888a031215620002eb57600080fd5b620002f688620002b2565b96506200030660208901620002b2565b95506200031660408901620002b2565b94506200032660608901620002b2565b93506200033660808901620002b2565b925060a088015160ff811681146200034d57600080fd5b8092505060c0880151905092959891949750929550565b61168680620003746000396000f3fe6080604052600436106100f35760003560e01c8063025313a2146101245780630e5930f51461016157806312065fe01461018157806322dcd13e146101a45780632c86d98e146101ba5780632e1a7d4d146101ed57806345f2a4341461020d578063469048401461022257806351c6590a146102425780635c60da1b146102625780636146195414610282578063893d20e8146102975780638da5cb5b146102ac5780639c8f9f23146102cc578063b6b55f25146102ec578063bf152765146102ff578063d251c05a14610315578063d353ac7c14610337578063f2fde38b14610359578063f851a440146103795761010f565b3661010f5760055461010d906001600160a01b0316610399565b005b60055461010d906001600160a01b0316610399565b34801561013057600080fd5b50600354610144906001600160a01b031681565b6040516001600160a01b0390911681526020015b60405180910390f35b34801561016d57600080fd5b50600054610144906001600160a01b031681565b34801561018d57600080fd5b506101966103bd565b604051908152602001610158565b3480156101b057600080fd5b5061019660025481565b3480156101c657600080fd5b506001546101db90600160a01b900460ff1681565b60405160ff9091168152602001610158565b3480156101f957600080fd5b5061010d6102083660046110c5565b6104cc565b34801561021957600080fd5b506101966105f0565b34801561022e57600080fd5b50600654610144906001600160a01b031681565b34801561024e57600080fd5b5061010d61025d3660046110c5565b6106e3565b34801561026e57600080fd5b50600554610144906001600160a01b031681565b34801561028e57600080fd5b5061010d6108c4565b3480156102a357600080fd5b506101446109eb565b3480156102b857600080fd5b50600454610144906001600160a01b031681565b3480156102d857600080fd5b5061010d6102e73660046110c5565b610aed565b61010d6102fa3660046110c5565b610cba565b34801561030b57600080fd5b5061019660075481565b34801561032157600080fd5b5061032a610d78565b6040516101589190611102565b34801561034357600080fd5b5061034c610e82565b60405161015891906111ef565b34801561036557600080fd5b5061010d610374366004611269565b610f88565b34801561038557600080fd5b50600154610144906001600160a01b031681565b3660008037600080366000845af43d6000803e8080156103b8573d6000f35b3d6000fd5b60055460408051600481526024810182526020810180516001600160e01b0316629032ff60e51b1790529051600092839283926001600160a01b0390921691610406919061128d565b600060405180830381855afa9150503d8060008114610441576040519150601f19603f3d011682016040523d82523d6000602084013e610446565b606091505b5091509150816104b15760405162461bcd60e51b815260206004820152602b60248201527f537472617465677950726f78793a2067657442616c616e63652073746174696360448201526a18d85b1b0819985a5b195960aa1b60648201526084015b60405180910390fd5b808060200190518101906104c591906112a9565b9250505090565b6004546001600160a01b031633146105355760405162461bcd60e51b815260206004820152602660248201527f537472617465677950726f78793a204f6e6c79206f776e65722063616e20776960448201526574686472617760d01b60648201526084016104a8565b8060075410156105935760405162461bcd60e51b815260206004820152602360248201527f537472617465677950726f78793a20496e73756666696369656e742062616c616044820152626e636560e81b60648201526084016104a8565b80600760008282546105a591906112d8565b90915550506004546040518281526001600160a01b03909116907f7084f5476618d8e60b11ef0d7d3f06914655adb8793e28ff7f018d4c76d505d5906020015b60405180910390a250565b60055460408051600481526024810182526020810180516001600160e01b031663117ca90d60e21b1790529051600092839283926001600160a01b039092169161063a919061128d565b600060405180830381855afa9150503d8060008114610675576040519150601f19603f3d011682016040523d82523d6000602084013e61067a565b606091505b5091509150816104b15760405162461bcd60e51b815260206004820152602e60248201527f537472617465677950726f78793a2067657450726f6669744c6f73732073746160448201526d1d1a58d8d85b1b0819985a5b195960921b60648201526084016104a8565b6004546001600160a01b031633146107515760405162461bcd60e51b815260206004820152602b60248201527f537472617465677950726f78793a204f6e6c79206f776e65722063616e20616460448201526a64206c697175696469747960a81b60648201526084016104a8565b60055460065460405160009283926001600160a01b03918216926364afce8760e11b926107859288929116906024016112f1565b60408051601f198184030181529181526020820180516001600160e01b03166001600160e01b03199094169390931790925290516107c3919061128d565b600060405180830381855af49150503d80600081146107fe576040519150601f19603f3d011682016040523d82523d6000602084013e610803565b606091505b50915091508161087c5780511561081e578051602082018181fd5b60405162461bcd60e51b815260206004820152602d60248201527f537472617465677950726f78793a206164644c69717569646974792064656c6560448201526c19d85d1a5bdb8819985a5b1959609a1b60648201526084016104a8565b6004546040518481526001600160a01b03909116907fc17cea59c2955cb181b03393209566960365771dbba9dc3d510180e7cb312088906020015b60405180910390a2505050565b60055460408051600481526024810182526020810180516001600160e01b0316631851865560e21b179052905160009283926001600160a01b039091169161090c919061128d565b600060405180830381855af49150503d8060008114610947576040519150601f19603f3d011682016040523d82523d6000602084013e61094c565b606091505b5091509150816109af5760405162461bcd60e51b815260206004820152602860248201527f537472617465677950726f78793a20657865637574652064656c65676174696f6044820152671b8819985a5b195960c21b60648201526084016104a8565b6004546040516001600160a01b03909116907fdf42bfa876a741bbe542cf1a563269e1390bf03901b5d433a6e8afd6ee36dbfe90600090a25050565b60055460408051600481526024810182526020810180516001600160e01b0316631127a41d60e31b1790529051600092839283926001600160a01b0390921691610a35919061128d565b600060405180830381855afa9150503d8060008114610a70576040519150601f19603f3d011682016040523d82523d6000602084013e610a75565b606091505b509150915081610ad95760405162461bcd60e51b815260206004820152602960248201527f537472617465677950726f78793a206765744f776e65722073746174696363616044820152681b1b0819985a5b195960ba1b60648201526084016104a8565b808060200190518101906104c59190611308565b6004546001600160a01b03163314610b5e5760405162461bcd60e51b815260206004820152602e60248201527f537472617465677950726f78793a204f6e6c79206f776e65722063616e20726560448201526d6d6f7665206c697175696469747960901b60648201526084016104a8565b60055460065460405160009283926001600160a01b03918216926305fe138b60e01b92610b929288929116906024016112f1565b60408051601f198184030181529181526020820180516001600160e01b03166001600160e01b0319909416939093179092529051610bd0919061128d565b600060405180830381855af49150503d8060008114610c0b576040519150601f19603f3d011682016040523d82523d6000602084013e610c10565b606091505b509150915081610c7b5760405162461bcd60e51b815260206004820152603060248201527f537472617465677950726f78793a2072656d6f76654c6971756964697479206460448201526f195b1959d85d1a5bdb8819985a5b195960821b60648201526084016104a8565b6004546040518481526001600160a01b03909116907fc2c3f06e49b9f15e7b4af9055e183b0d73362e033ad82a07dec9bf9840171719906020016108b7565b6004546001600160a01b03163314610d225760405162461bcd60e51b815260206004820152602560248201527f537472617465677950726f78793a204f6e6c79206f776e65722063616e2064656044820152641c1bdcda5d60da1b60648201526084016104a8565b8060076000828254610d349190611325565b90915550506004546040518281526001600160a01b03909116907f2da466a7b24304f47e87fa2e1e5a81b9831ce54fec19055ce277ca2f39ba42c4906020016105e5565b60055460408051600481526024810182526020810180516001600160e01b0316636928e02d60e11b179052905160609260009283926001600160a01b0390921691610dc3919061128d565b600060405180830381855afa9150503d8060008114610dfe576040519150601f19603f3d011682016040523d82523d6000602084013e610e03565b606091505b509150915081610e6e5760405162461bcd60e51b815260206004820152603060248201527f537472617465677950726f78793a206765745472616465486973746f7279207360448201526f1d185d1a58d8d85b1b0819985a5b195960821b60648201526084016104a8565b808060200190518101906104c59190611467565b60055460408051600481526024810182526020810180516001600160e01b03166334d4eb1f60e21b179052905160609260009283926001600160a01b0390921691610ecd919061128d565b600060405180830381855afa9150503d8060008114610f08576040519150601f19603f3d011682016040523d82523d6000602084013e610f0d565b606091505b509150915081610f745760405162461bcd60e51b815260206004820152602c60248201527f537472617465677950726f78793a20676574486f6c64696e677320737461746960448201526b18d8d85b1b0819985a5b195960a21b60648201526084016104a8565b808060200190518101906104c591906115b3565b6004546001600160a01b03163314610ff15760405162461bcd60e51b815260206004820152602660248201527f537472617465677950726f78793a2063616c6c6572206973206e6f74207468656044820152651037bbb732b960d11b60648201526084016104a8565b6001600160a01b03811661105c5760405162461bcd60e51b815260206004820152602c60248201527f537472617465677950726f78793a206e6577206f776e6572206973207468652060448201526b7a65726f206164647265737360a01b60648201526084016104a8565b6004546040516001600160a01b038084169216907f8be0079c531659141344cd1fd0a4f28419497f9722a3daafe3b4186f6b6457e090600090a3600480546001600160a01b0319166001600160a01b0392909216919091179055565b6001600160a01b03169052565b6000602082840312156110d757600080fd5b5035919050565b60005b838110156110f95781810151838201526020016110e1565b50506000910152565b60006020808301818452808551808352604092508286019150828160051b87010184880160005b838110156111e157603f1989840301855281516101008151855288820151818a870152805180838801526101209250611167818489018d85016110de565b8984015191506111798a8801836110b8565b60608481015190880152608080850151909250611198838901826110b8565b5060a0848101519088015260c0808501519088015260e0938401519391506111c2828801856110b8565b978a0197601f01601f1916959095010193505090860190600101611129565b509098975050505050505050565b602080825282518282018190526000919060409081850190868401855b8281101561124457815180516001600160a01b031685528681015187860152850151858501526060909301929085019060010161120c565b5091979650505050505050565b6001600160a01b038116811461126657600080fd5b50565b60006020828403121561127b57600080fd5b813561128681611251565b9392505050565b6000825161129f8184602087016110de565b9190910192915050565b6000602082840312156112bb57600080fd5b5051919050565b634e487b7160e01b600052601160045260246000fd5b818103818111156112eb576112eb6112c2565b92915050565b9182526001600160a01b0316602082015260400190565b60006020828403121561131a57600080fd5b815161128681611251565b808201808211156112eb576112eb6112c2565b634e487b7160e01b600052604160045260246000fd5b60405161010081016001600160401b038111828210171561137157611371611338565b60405290565b604051606081016001600160401b038111828210171561137157611371611338565b604051601f8201601f191681016001600160401b03811182821017156113c1576113c1611338565b604052919050565b60006001600160401b038211156113e2576113e2611338565b5060051b60200190565b600082601f8301126113fd57600080fd5b81516001600160401b0381111561141657611416611338565b611429601f8201601f1916602001611399565b81815284602083860101111561143e57600080fd5b61144f8260208301602087016110de565b949350505050565b805161146281611251565b919050565b6000602080838503121561147a57600080fd5b82516001600160401b038082111561149157600080fd5b818501915085601f8301126114a557600080fd5b81516114b86114b3826113c9565b611399565b81815260059190911b830184019084810190888311156114d757600080fd5b8585015b838110156115a6578051858111156114f35760008081fd5b8601610100818c03601f190181131561150c5760008081fd5b61151461134e565b8983015181526040808401518981111561152e5760008081fd5b61153c8f8d838801016113ec565b8c84015250606061154e818601611457565b828401526080915081850151818401525060a061156c818601611457565b8284015260c0915081850151818401525060e08085015182840152611592848601611457565b9083015250855250509186019186016114db565b5098975050505050505050565b600060208083850312156115c657600080fd5b82516001600160401b038111156115dc57600080fd5b8301601f810185136115ed57600080fd5b80516115fb6114b3826113c9565b8181526060918202830184019184820191908884111561161a57600080fd5b938501935b8385101561166d5780858a0312156116375760008081fd5b61163f611377565b855161164a81611251565b81528587015187820152604080870151908201528352938401939185019161161f565b5097965050505050505056fea164736f6c6343000814000a",
  "linkReferences": {},
  "deployedLinkReferences": {}
}