{
  "_format": "hh-sol-artifact-1",
  "contractName": "MockHyperliquidDEX",
  "sourceName": "contracts/mock/MockHyperliquidDEX.sol",
  "abi": [
    {
      "inputs": [],
      "stateMutability": "nonpayable",
      "type": "constructor"
    },
    {
      "inputs": [
        {
          "internalType": "address",
          "name": "asset",
          "type": "address"
        }
      ],
      "name": "getBalance",
      "outputs": [
        {
          "internalType": "uint256",
          "name": "",
          "type": "uint256"
        }
      ],
      "stateMutability": "view",
      "type": "function"
    },
    {
      "inputs": [
        {
          "internalType": "uint16",
          "name": "assetIndex",
          "type": "uint16"
        }
      ],
      "name": "getPrice",
      "outputs": [
        {
          "internalType": "uint256",
          "name": "",
          "type": "uint256"
        }
      ],
      "stateMutability": "view",
      "type": "function"
    },
    {
      "inputs": [
        {
          "internalType": "address",
          "name": "asset",
          "type": "address"
        },
        {
          "internalType": "uint256",
          "name": "balance",
          "type": "uint256"
        }
      ],
      "name": "setBalance",
      "outputs": [],
      "stateMutability": "nonpayable",
      "type": "function"
    },
    {
      "inputs": [
        {
          "internalType": "uint16",
          "name": "assetIndex",
          "type": "uint16"
        },
        {
          "internalType": "uint256",
          "name": "price",
          "type": "uint256"
        }
      ],
      "name": "setPrice",
      "outputs": [],
      "stateMutability": "nonpayable",
      "type": "function"
    },
    {
      "inputs": [
        {
          "internalType": "address",
          "name": "assetIn",
          "type": "address"
        },
        {
          "internalType": "address",
          "name": "assetOut",
          "type": "address"
        },
        {
          "internalType": "uint256",
          "name": "amount",
          "type": "uint256"
        }
      ],
      "name": "swap",
      "outputs": [
        {
          "internalType": "uint256",
          "name": "",
          "type": "uint256"
        }
      ],
      "stateMutability": "nonpayable",
      "type": "function"
    }
  ],
  "bytecode": "0x608060405234801561001057600080fd5b50600060208190526406fc23ac007fad3228b676f7d3cd4284a5443f17f1962b36e491b30a40b2405849e597ba5fb55563773594007fada5013122d395ba3c54772283fb069b10426056ef8ca54750cb9bb552a59e7d55600290526305f5e1007fabbb5caa7dda850e60932de0934eb1f9d0f59695050f761dc64e443e5030a569556102bf806100a16000396000f3fe608060405234801561001057600080fd5b50600436106100575760003560e01c8063bbc2986c1461005c578063df791e5014610083578063e0ad121a146100a8578063e30443bc146100cc578063f8b2cb4f146100f6575b600080fd5b61008161006a36600461019a565b61ffff909116600090815260208190526040902055565b005b6100966100913660046101db565b61011f565b60405190815260200160405180910390f35b6100966100b6366004610217565b61ffff1660009081526020819052604090205490565b6100816100da366004610239565b6001600160a01b03909116600090815260016020526040902055565b610096610104366004610255565b6001600160a01b031660009081526001602052604090205490565b6001600160a01b038316600090815260016020526040812080548391908390610149908490610286565b90915550506001600160a01b0383166000908152600160205260408120805484929061017690849061029f565b9091555091949350505050565b803561ffff8116811461019557600080fd5b919050565b600080604083850312156101ad57600080fd5b6101b683610183565b946020939093013593505050565b80356001600160a01b038116811461019557600080fd5b6000806000606084860312156101f057600080fd5b6101f9846101c4565b9250610207602085016101c4565b9150604084013590509250925092565b60006020828403121561022957600080fd5b61023282610183565b9392505050565b6000806040838503121561024c57600080fd5b6101b6836101c4565b60006020828403121561026757600080fd5b610232826101c4565b634e487b7160e01b600052601160045260246000fd5b8181038181111561029957610299610270565b92915050565b808201808211156102995761029961027056fea164736f6c6343000814000a",
  "linkReferences": {},
  "deployedLinkReferences": {}
}