{
  "_format": "hh-sol-artifact-1",
  "contractName": "MegaStrategy",
  "sourceName": "contracts/MegaStrategy.sol",
  "abi": [
    {
      "inputs": [
        {
          "internalType": "address",
          "name": "_hypeliquidRouter",
          "type": "address"
        },
        {
          "internalType": "uint256",
          "name": "_platformFeeBps",
          "type": "uint256"
        }
      ],
      "stateMutability": "nonpayable",
      "type": "constructor"
    },
    {
      "anonymous": false,
      "inputs": [
        {
          "indexed": true,
          "internalType": "address",
          "name": "previousAdmin",
          "type": "address"
        },
        {
          "indexed": true,
          "internalType": "address",
          "name": "newAdmin",
          "type": "address"
        }
      ],
      "name": "AdminTransferred",
      "type": "event"
    },
    {
      "anonymous": false,
      "inputs": [
        {
          "indexed": true,
          "internalType": "address",
          "name": "owner",
          "type": "address"
        }
      ],
      "name": "Initialized",
      "type": "event"
    },
    {
      "anonymous": false,
      "inputs": [
        {
          "indexed": false,
          "internalType": "uint8",
          "name": "newLeverage",
          "type": "uint8"
        }
      ],
      "name": "LeverageUpdated",
      "type": "event"
    },
    {
      "anonymous": false,
      "inputs": [
        {
          "indexed": true,
          "internalType": "address",
          "name": "owner",
          "type": "address"
        },
        {
          "indexed": false,
          "internalType": "uint256",
          "name": "amount",
          "type": "uint256"
        }
      ],
      "name": "LiquidityAdded",
      "type": "event"
    },
    {
      "anonymous": false,
      "inputs": [
        {
          "indexed": true,
          "internalType": "address",
          "name": "owner",
          "type": "address"
        },
        {
          "indexed": false,
          "internalType": "uint256",
          "name": "amount",
          "type": "uint256"
        }
      ],
      "name": "LiquidityRemoved",
      "type": "event"
    },
    {
      "anonymous": false,
      "inputs": [
        {
          "indexed": false,
          "internalType": "uint256",
          "name": "newPlatformFeeBps",
          "type": "uint256"
        }
      ],
      "name": "PlatformFeeUpdated",
      "type": "event"
    },
    {
      "anonymous": false,
      "inputs": [
        {
          "indexed": true,
          "internalType": "address",
          "name": "owner",
          "type": "address"
        },
        {
          "indexed": false,
          "internalType": "string",
          "name": "action",
          "type": "string"
        },
        {
          "indexed": false,
          "internalType": "uint256",
          "name": "amount",
          "type": "uint256"
        }
      ],
      "name": "PositionUpdated",
      "type": "event"
    },
    {
      "anonymous": false,
      "inputs": [
        {
          "indexed": true,
          "internalType": "address",
          "name": "owner",
          "type": "address"
        }
      ],
      "name": "Rebalanced",
      "type": "event"
    },
    {
      "anonymous": false,
      "inputs": [
        {
          "indexed": true,
          "internalType": "address",
          "name": "owner",
          "type": "address"
        },
        {
          "components": [
            {
              "internalType": "uint256",
              "name": "timestamp",
              "type": "uint256"
            },
            {
              "internalType": "string",
              "name": "tradeType",
              "type": "string"
            },
            {
              "internalType": "address",
              "name": "assetIn",
              "type": "address"
            },
            {
              "internalType": "uint256",
              "name": "amountIn",
              "type": "uint256"
            },
            {
              "internalType": "address",
              "name": "assetOut",
              "type": "address"
            },
            {
              "internalType": "uint256",
              "name": "amountOut",
              "type": "uint256"
            },
            {
              "internalType": "uint256",
              "name": "feeAmount",
              "type": "uint256"
            },
            {
              "internalType": "address",
              "name": "feeAsset",
              "type": "address"
            }
          ],
          "indexed": false,
          "internalType": "struct Trade",
          "name": "trade",
          "type": "tuple"
        }
      ],
      "name": "TradeRecorded",
      "type": "event"
    },
    {
      "inputs": [],
      "name": "USDC",
      "outputs": [
        {
          "internalType": "address",
          "name": "",
          "type": "address"
        }
      ],
      "stateMutability": "view",
      "type": "function"
    },
    {
      "inputs": [],
      "name": "WBTC",
      "outputs": [
        {
          "internalType": "address",
          "name": "",
          "type": "address"
        }
      ],
      "stateMutability": "view",
      "type": "function"
    },
    {
      "inputs": [],
      "name": "WETH",
      "outputs": [
        {
          "internalType": "address",
          "name": "",
          "type": "address"
        }
      ],
      "stateMutability": "view",
      "type": "function"
    },
    {
      "inputs": [],
      "name": "WSOL",
      "outputs": [
        {
          "internalType": "address",
          "name": "",
          "type": "address"
        }
      ],
      "stateMutability": "view",
      "type": "function"
    },
    {
      "inputs": [
        {
          "internalType": "uint256",
          "name": "amount",
          "type": "uint256"
        },
        {
          "internalType": "address",
          "name": "feeRecipient",
          "type": "address"
        }
      ],
      "name": "addLiquidity",
      "outputs": [],
      "stateMutability": "nonpayable",
      "type": "function"
    },
    {
      "inputs": [],
      "name": "admin",
      "outputs": [
        {
          "internalType": "address",
          "name": "",
          "type": "address"
        }
      ],
      "stateMutability": "view",
      "type": "function"
    },
    {
      "inputs": [],
      "name": "execute",
      "outputs": [],
      "stateMutability": "nonpayable",
      "type": "function"
    },
    {
      "inputs": [],
      "name": "getBalance",
      "outputs": [
        {
          "internalType": "uint256",
          "name": "",
          "type": "uint256"
        }
      ],
      "stateMutability": "view",
      "type": "function"
    },
    {
      "inputs": [],
      "name": "getHoldings",
      "outputs": [
        {
          "components": [
            {
              "internalType": "address",
              "name": "asset",
              "type": "address"
            },
            {
              "internalType": "uint256",
              "name": "amount",
              "type": "uint256"
            },
            {
              "internalType": "uint256",
              "name": "valueUsd",
              "type": "uint256"
            }
          ],
          "internalType": "struct Holding[]",
          "name": "",
          "type": "tuple[]"
        }
      ],
      "stateMutability": "view",
      "type": "function"
    },
    {
      "inputs": [],
      "name": "getOwner",
      "outputs": [
        {
          "internalType": "address",
          "name": "ownerAddress",
          "type": "address"
        }
      ],
      "stateMutability": "view",
      "type": "function"
    },
    {
      "inputs": [],
      "name": "getProfitLoss",
      "outputs": [
        {
          "internalType": "int256",
          "name": "pnl",
          "type": "int256"
        }
      ],
      "stateMutability": "view",
      "type": "function"
    },
    {
      "inputs": [],
      "name": "getTradeHistory",
      "outputs": [
        {
          "components": [
            {
              "internalType": "uint256",
              "name": "timestamp",
              "type": "uint256"
            },
            {
              "internalType": "string",
              "name": "tradeType",
              "type": "string"
            },
            {
              "internalType": "address",
              "name": "assetIn",
              "type": "address"
            },
            {
              "internalType": "uint256",
              "name": "amountIn",
              "type": "uint256"
            },
            {
              "internalType": "address",
              "name": "assetOut",
              "type": "address"
            },
            {
              "internalType": "uint256",
              "name": "amountOut",
              "type": "uint256"
            },
            {
              "internalType": "uint256",
              "name": "feeAmount",
              "type": "uint256"
            },
            {
              "internalType": "address",
              "name": "feeAsset",
              "type": "address"
            }
          ],
          "internalType": "struct Trade[]",
          "name": "",
          "type": "tuple[]"
        }
      ],
      "stateMutability": "view",
      "type": "function"
    },
    {
      "inputs": [],
      "name": "hypeliquidRouter",
      "outputs": [
        {
          "internalType": "address",
          "name": "",
          "type": "address"
        }
      ],
      "stateMutability": "view",
      "type": "function"
    },
    {
      "inputs": [
        {
          "internalType": "address",
          "name": "_owner",
          "type": "address"
        }
      ],
      "name": "initialize",
      "outputs": [],
      "stateMutability": "nonpayable",
      "type": "function"
    },
    {
      "inputs": [],
      "name": "leverage",
      "outputs": [
        {
          "internalType": "uint8",
          "name": "",
          "type": "uint8"
        }
      ],
      "stateMutability": "view",
      "type": "function"
    },
    {
      "inputs": [],
      "name": "platformFeeBps",
      "outputs": [
        {
          "internalType": "uint256",
          "name": "",
          "type": "uint256"
        }
      ],
      "stateMutability": "view",
      "type": "function"
    },
    {
      "inputs": [],
      "name": "proxyOwner",
      "outputs": [
        {
          "internalType": "address",
          "name": "",
          "type": "address"
        }
      ],
      "stateMutability": "view",
      "type": "function"
    },
    {
      "inputs": [
        {
          "internalType": "uint256",
          "name": "amount",
          "type": "uint256"
        },
        {
          "internalType": "address",
          "name": "feeRecipient",
          "type": "address"
        }
      ],
      "name": "removeLiquidity",
      "outputs": [],
      "stateMutability": "nonpayable",
      "type": "function"
    },
    {
      "inputs": [
        {
          "internalType": "uint256",
          "name": "",
          "type": "uint256"
        }
      ],
      "name": "strategyAssets",
      "outputs": [
        {
          "internalType": "address",
          "name": "",
          "type": "address"
        }
      ],
      "stateMutability": "view",
      "type": "function"
    },
    {
      "inputs": [
        {
          "internalType": "address",
          "name": "_newAdmin",
          "type": "address"
        }
      ],
      "name": "transferAdmin",
      "outputs": [],
      "stateMutability": "nonpayable",
      "type": "function"
    },
    {
      "inputs": [
        {
          "internalType": "uint8",
          "name": "_newLeverage",
          "type": "uint8"
        }
      ],
      "name": "updateLeverage",
      "outputs": [],
      "stateMutability": "nonpayable",
      "type": "function"
    },
    {
      "inputs": [
        {
          "internalType": "uint256",
          "name": "_newPlatformFeeBps",
          "type": "uint256"
        }
      ],
      "name": "updatePlatformFee",
      "outputs": [],
      "stateMutability": "nonpayable",
      "type": "function"
    }
  ],
  "bytecode": "0x60a06040523480156200001157600080fd5b5060405162002556380380620025568339810160408190526200003491620003c3565b818160036001600160a01b038316620000a85760405162461bcd60e51b815260206004820152602b60248201527f4261736553747261746567793a20526f757465722063616e6e6f74206265207a60448201526a65726f206164647265737360a81b60648201526084015b60405180910390fd5b6103e8821115620000fc5760405162461bcd60e51b815260206004820152601a60248201527f4261736553747261746567793a2046656520746f6f206869676800000000000060448201526064016200009f565b60008160ff16118015620001145750600a8160ff1611155b620001625760405162461bcd60e51b815260206004820152601e60248201527f4261736553747261746567793a20496e76616c6964206c65766572616765000060448201526064016200009f565b600080546001600160a01b03851660805260018490556001600160a81b0319163360ff60a01b19811691909117600160a01b60ff8516021782556040519091907ff8ccb027dfcd135e000e9d45e6cc2d662578a8825d4c45b5e32e0adf67e79ec6908290a36040518281527f45610d581145924dd7090a5017e5f2b1d6f42213bb2e95707ff86846bbfcb1ca9060200160405180910390a160405160ff821681527fe0ce029e30f26500c1c82ed34083b224b849ea080699f46c290e6216cf35a07d9060200160405180910390a1505060408051606081018252732260fac5e5542a773aa44fbcfedf7c193bc2c599815273c02aaa39b223fe8d0a0e5c4f27ead9083c756cc2602082015273d31a59c85ae9d8edefec411d448f90841571b89c918101919091526200029a9150600290600362000342565b50506003602052507f292c1cbcd8fcde54e8ba0732ed4e92022ba7ccc86bf9c562e47c88a765f35ad1805461ffff199081169091557f67aa9b7d2b6d14f3837d07b1073399a41e4104b1d98f169f02cc04f44f14f4b080548216600117905573d31a59c85ae9d8edefec411d448f90841571b89c6000527fb9584cfb4115640001ada8b6a0dca86dfb6cb53435c9d1bad0c07df22182e8b180549091166002179055620003ff565b8280548282559060005260206000209081019282156200039a579160200282015b828111156200039a57825182546001600160a01b0319166001600160a01b0390911617825560209092019160019091019062000363565b50620003a8929150620003ac565b5090565b5b80821115620003a85760008155600101620003ad565b60008060408385031215620003d757600080fd5b82516001600160a01b0381168114620003ef57600080fd5b6020939093015192949293505050565b60805161211162000445600039600081816101740152818161096301528181610be501528181610cf101528181610e0d01528181610f1801526113de01526121116000f3fe608060405234801561001057600080fd5b50600436106101125760003560e01c8063025313a21461011757806305fe138b146101475780630a02630f1461015c5780630e5930f51461016f57806312065fe01461019657806322dcd13e146101ac5780632c86d98e146101b557806345f2a434146101db5780634dede3de146101e357806361461954146101fe57806375829def14610206578063893d20e81461021957806389a302711461022a5780639543de6f1461023f578063aa0b59881461025a578063ad5c46481461026d578063b2db983a14610288578063c4d66de81461029b578063c95f9d0e146102ae578063d251c05a146102c1578063d353ac7c146102d6578063f851a440146102eb575b600080fd5b60045461012a906001600160a01b031681565b6040516001600160a01b0390911681526020015b60405180910390f35b61015a610155366004611b2f565b6102fe565b005b61015a61016a366004611b5b565b61074c565b61012a7f000000000000000000000000000000000000000000000000000000000000000081565b61019e61082e565b60405190815260200161013e565b61019e60015481565b6000546101c990600160a01b900460ff1681565b60405160ff909116815260200161013e565b61019e610860565b61012a732260fac5e5542a773aa44fbcfedf7c193bc2c59981565b61015a610891565b61015a610214366004611b7e565b611029565b6004546001600160a01b031661012a565b61012a6000805160206120a583398151915281565b61012a73d31a59c85ae9d8edefec411d448f90841571b89c81565b61015a610268366004611b99565b61110d565b61012a73c02aaa39b223fe8d0a0e5c4f27ead9083c756cc281565b61012a610296366004611b99565b6111bb565b61015a6102a9366004611b7e565b6111e5565b61015a6102bc366004611b2f565b6112fa565b6102c96117c3565b60405161013e9190611c6e565b6102de611938565b60405161013e9190611cd0565b60005461012a906001600160a01b031681565b6004546001600160a01b031661032f5760405162461bcd60e51b815260040161032690611d32565b60405180910390fd5b60055482111561038d5760405162461bcd60e51b8152602060048201526024808201527f4d65676153747261746567793a20496e73756666696369656e74206c697175696044820152636469747960e01b6064820152608401610326565b600061039883611aa8565b90508260006103a78383611d7f565b60025490915060005b81811015610469576000600282815481106103cd576103cd611d92565b6000918252602090912001546005546001600160a01b03909116915015610456576005546001600160a01b038216600090815260076020526040812054909190610418908b90611da8565b6104229190611dbf565b6001600160a01b03831660009081526007602052604081208054929350839290919061044f908490611d7f565b9091555050505b508061046181611de1565b9150506103b0565b50826005600001600082825461047f9190611d7f565b909155505060005461049b90600160a01b900460ff1684611da8565b600680546000906104ad908490611d7f565b9091555050604080516101008101825242815281518083018352601081526f52656d6f7665204c697175696469747960801b60208281019190915282019081526000928201839052606082018390526000805160206120a58339815191526080830181905260a0830187905260c0830188905260e0830152600980546001810182559352815160089093026000805160206120e5833981519152810193845590519192839290916000805160206120c5833981519152019061056f9082611e93565b506040828101516002830180546001600160a01b03199081166001600160a01b03938416179091556060850151600385015560808501516004808601805484169285169290921790915560a0860151600586015560c0860151600686015560e09095015160079094018054909116938216939093179092559154915191169060008051602061208583398151915290610609908490611f52565b60405180910390a260008511801561062957506001600160a01b03861615155b156106a65760405163a9059cbb60e01b81526000805160206120a58339815191529063a9059cbb906106619089908990600401611f65565b6020604051808303816000875af1158015610680573d6000803e3d6000fd5b505050506040513d601f19601f820116820180604052508101906106a49190611f7e565b505b6004546040518881526001600160a01b03909116907fc2c3f06e49b9f15e7b4af9055e183b0d73362e033ad82a07dec9bf98401717199060200160405180910390a2600454604080518181526010918101919091526f52656d6f7665204c697175696469747960801b6060820152602081018990526001600160a01b0390911690600080516020612065833981519152906080015b60405180910390a250505050505050565b6000546001600160a01b031633146107765760405162461bcd60e51b815260040161032690611fa0565b60008160ff1611801561078d5750600a8160ff1611155b6107d95760405162461bcd60e51b815260206004820152601e60248201527f4261736553747261746567793a20496e76616c6964206c6576657261676500006044820152606401610326565b6000805460ff60a01b1916600160a01b60ff8416908102919091179091556040519081527fe0ce029e30f26500c1c82ed34083b224b849ea080699f46c290e6216cf35a07d906020015b60405180910390a150565b6004546000906001600160a01b03166108595760405162461bcd60e51b815260040161032690611d32565b5060055490565b6004546000906001600160a01b031661088b5760405162461bcd60e51b815260040161032690611d32565b50600090565b6004546001600160a01b03166108b95760405162461bcd60e51b815260040161032690611d32565b6002546000906001600160401b038111156108d6576108d6611dfa565b6040519080825280602002602001820160405280156108ff578160200160208202803683370190505b5090506000805b600254811015610ac65760006002828154811061092557610925611d92565b60009182526020808320909101546001600160a01b0390811680845260039092526040808420549051637056890d60e11b815292945061ffff1692917f00000000000000000000000000000000000000000000000000000000000000009091169063e0ad121a9061099a908590600401611fe5565b602060405180830381865afa1580156109b7573d6000803e3d6000fd5b505050506040513d601f19601f820116820180604052508101906109db9190611ff4565b905060008111610a335760405162461bcd60e51b815260206004820152602f602482015260008051602061204583398151915260448201526e6520666f7220726562616c616e636560881b6064820152608401610326565b6001600160a01b038316600090815260076020526040902054670de0b6b3a764000090610a61908390611da8565b610a6b9190611dbf565b868581518110610a7d57610a7d611d92565b602002602001018181525050858481518110610a9b57610a9b611d92565b602002602001015185610aae919061200d565b94505050508080610abe90611de1565b915050610906565b5080600003610ad3575050565b600254600090610ae39083611dbf565b905060006064610af4836005611da8565b610afe9190611dbf565b905060005b600254811015610fea57600060028281548110610b2257610b22611d92565b600091825260208220015487516001600160a01b039091169250610b6090889085908110610b5257610b52611d92565b602002602001015186611add565b905083811115610fd55784878481518110610b7d57610b7d611d92565b60200260200101511115610db357600085888581518110610ba057610ba0611d92565b6020026020010151610bb29190611d7f565b6001600160a01b03808516600090815260036020526040808220549051637056890d60e11b815293945061ffff169290917f0000000000000000000000000000000000000000000000000000000000000000169063e0ad121a90610c1a908590600401611fe5565b602060405180830381865afa158015610c37573d6000803e3d6000fd5b505050506040513d601f19601f82011682018060405250810190610c5b9190611ff4565b905060008111610cb85760405162461bcd60e51b815260206004820152603460248201526000805160206120458339815191526044820152736520666f722073656c6c20726562616c616e636560601b6064820152608401610326565b600081610ccd85670de0b6b3a7640000611da8565b610cd79190611dbf565b604051630df791e560e41b81529091506001600160a01b037f0000000000000000000000000000000000000000000000000000000000000000169063df791e5090610d389089906000805160206120a5833981519152908690600401612020565b6020604051808303816000875af1158015610d57573d6000803e3d6000fd5b505050506040513d601f19601f82011682018060405250810190610d7b9190611ff4565b506001600160a01b03861660009081526007602052604081208054839290610da4908490611d7f565b90915550610fd5945050505050565b6000878481518110610dc757610dc7611d92565b602002602001015186610dda9190611d7f565b6001600160a01b03808516600090815260036020526040808220549051637056890d60e11b815293945061ffff169290917f0000000000000000000000000000000000000000000000000000000000000000169063e0ad121a90610e42908590600401611fe5565b602060405180830381865afa158015610e5f573d6000803e3d6000fd5b505050506040513d601f19601f82011682018060405250810190610e839190611ff4565b905060008111610edf5760405162461bcd60e51b815260206004820152603360248201526000805160206120458339815191526044820152726520666f722062757920726562616c616e636560681b6064820152608401610326565b600081610ef485670de0b6b3a7640000611da8565b610efe9190611dbf565b604051630df791e560e41b81529091506001600160a01b037f0000000000000000000000000000000000000000000000000000000000000000169063df791e5090610f5f906000805160206120a5833981519152908a908690600401612020565b6020604051808303816000875af1158015610f7e573d6000803e3d6000fd5b505050506040513d601f19601f82011682018060405250810190610fa29190611ff4565b506001600160a01b03861660009081526007602052604081208054839290610fcb90849061200d565b9091555050505050505b50508080610fe290611de1565b915050610b03565b506004546040516001600160a01b03909116907fb8815e3a0b9733f6390f55ab413c696ef91fca3267f27f6c7e60fcd0984262cd90600090a250505050565b6000546001600160a01b031633146110535760405162461bcd60e51b815260040161032690611fa0565b6001600160a01b0381166110bd5760405162461bcd60e51b815260206004820152602b60248201527f4261736553747261746567793a204e65772061646d696e20697320746865207a60448201526a65726f206164647265737360a81b6064820152608401610326565b600080546001600160a01b038381166001600160a01b0319831681178455604051919092169283917ff8ccb027dfcd135e000e9d45e6cc2d662578a8825d4c45b5e32e0adf67e79ec69190a35050565b6000546001600160a01b031633146111375760405162461bcd60e51b815260040161032690611fa0565b6103e88111156111865760405162461bcd60e51b815260206004820152601a602482015279084c2e6caa6e8e4c2e8cacef274408ccaca40e8dede40d0d2ced60331b6044820152606401610326565b60018190556040518181527f45610d581145924dd7090a5017e5f2b1d6f42213bb2e95707ff86846bbfcb1ca90602001610823565b600281815481106111cb57600080fd5b6000918252602090912001546001600160a01b0316905081565b60085460ff16156112425760405162461bcd60e51b815260206004820152602160248201527f4d65676153747261746567793a20416c726561647920696e697469616c697a656044820152601960fa1b6064820152608401610326565b6001600160a01b0381166112a35760405162461bcd60e51b815260206004820152602260248201527f4d65676153747261746567793a204f776e65722063616e6e6f74206265207a65604482015261726f60f01b6064820152608401610326565b600480546001600160a01b0319166001600160a01b0383169081179091556008805460ff191660011790556040517f908408e307fc569b417f6cbec5d5a06f44a0a505ac0479b47d421a4b2fd6a1e690600090a250565b6004546001600160a01b03166113225760405162461bcd60e51b815260040161032690611d32565b600061132d83611aa8565b9050600061133b8285611d7f565b90508060056000016000828254611352919061200d565b909155505060025460008054829061137490600160a01b900460ff1685611da8565b61137e9190611dbf565b905060005b8281101561150a576000600282815481106113a0576113a0611d92565b60009182526020808320909101546001600160a01b0390811680845260039092526040808420549051637056890d60e11b815292945061ffff1692917f00000000000000000000000000000000000000000000000000000000000000009091169063e0ad121a90611415908590600401611fe5565b602060405180830381865afa158015611432573d6000803e3d6000fd5b505050506040513d601f19601f820116820180604052508101906114569190611ff4565b9050600081116114a05760405162461bcd60e51b815260206004820152602160248201526000805160206120458339815191526044820152606560f81b6064820152608401610326565b6000816114b587670de0b6b3a7640000611da8565b6114bf9190611dbf565b6001600160a01b0385166000908152600760205260408120805492935083929091906114ec90849061200d565b9250508190555050505050808061150290611de1565b915050611383565b5060005461152290600160a01b900460ff1684611da8565b6006805460009061153490849061200d565b9091555050604080516101008101825242815281518083018352600d81526c416464204c697175696469747960981b60208281019190915282019081526000805160206120a58339815191529282018390526060820189905260006080830181905260a0830181905260c0830188905260e0830193909352600980546001810182559352815160089093026000805160206120e5833981519152810193845590519192839290916000805160206120c583398151915201906115f69082611e93565b506040828101516002830180546001600160a01b03199081166001600160a01b03938416179091556060850151600385015560808501516004808601805484169285169290921790915560a0860151600586015560c0860151600686015560e09095015160079094018054909116938216939093179092559154915191169060008051602061208583398151915290611690908490611f52565b60405180910390a26000851180156116b057506001600160a01b03861615155b1561172d5760405163a9059cbb60e01b81526000805160206120a58339815191529063a9059cbb906116e89089908990600401611f65565b6020604051808303816000875af1158015611707573d6000803e3d6000fd5b505050506040513d601f19601f8201168201806040525081019061172b9190611f7e565b505b6004546040518881526001600160a01b03909116907fc17cea59c2955cb181b03393209566960365771dbba9dc3d510180e7cb3120889060200160405180910390a260045460408051818152600d918101919091526c416464204c697175696469747960981b6060820152602081018990526001600160a01b03909116906000805160206120658339815191529060800161073b565b6004546060906001600160a01b03166117ee5760405162461bcd60e51b815260040161032690611d32565b6009805480602002602001604051908101604052809291908181526020016000905b8282101561192f5783829060005260206000209060080201604051806101000160405290816000820154815260200160018201805461184e90611e10565b80601f016020809104026020016040519081016040528092919081815260200182805461187a90611e10565b80156118c75780601f1061189c576101008083540402835291602001916118c7565b820191906000526020600020905b8154815290600101906020018083116118aa57829003601f168201915b505050918352505060028201546001600160a01b039081166020808401919091526003840154604084015260048401548216606084015260058401546080840152600684015460a08401526007909301541660c0909101529082526001929092019101611810565b50505050905090565b6004546060906001600160a01b03166119635760405162461bcd60e51b815260040161032690611d32565b6002546000906001600160401b0381111561198057611980611dfa565b6040519080825280602002602001820160405280156119de57816020015b6119cb604051806060016040528060006001600160a01b0316815260200160008152602001600081525090565b81526020019060019003908161199e5790505b50905060005b600254811015611aa257604051806060016040528060028381548110611a0c57611a0c611d92565b60009182526020808320909101546001600160a01b03168352600280549390910192600792919086908110611a4357611a43611d92565b60009182526020808320909101546001600160a01b0316835282810193909352604090910181205483529101528251839083908110611a8457611a84611d92565b60200260200101819052508080611a9a90611de1565b9150506119e4565b50919050565b6000600154600003611abc57506000919050565b61271060015483611acd9190611da8565b611ad79190611dbf565b92915050565b6000818311611af557611af08383611d7f565b611aff565b611aff8284611d7f565b9392505050565b6001600160a01b03169052565b80356001600160a01b0381168114611b2a57600080fd5b919050565b60008060408385031215611b4257600080fd5b82359150611b5260208401611b13565b90509250929050565b600060208284031215611b6d57600080fd5b813560ff81168114611aff57600080fd5b600060208284031215611b9057600080fd5b611aff82611b13565b600060208284031215611bab57600080fd5b5035919050565b600061010082518452602080840151828287015280518084880152600093505b80841015611bf157818401830151878501610120015292820192611bd2565b6101209350600084828901015260408601519250611c126040880184611b06565b6060860151606088015260808601519250611c306080880184611b06565b60a086015160a088015260c086015160c088015260e08601519250611c5860e0880184611b06565b601f01601f191695909501909101949350505050565b6000602080830181845280855180835260408601915060408160051b870101925083870160005b82811015611cc357603f19888603018452611cb1858351611bb2565b94509285019290850190600101611c95565b5092979650505050505050565b602080825282518282018190526000919060409081850190868401855b82811015611d2557815180516001600160a01b0316855286810151878601528501518585015260609093019290850190600101611ced565b5091979650505050505050565b6020808252601d908201527f4d65676153747261746567793a204e6f7420696e697469616c697a6564000000604082015260600190565b634e487b7160e01b600052601160045260246000fd5b81810381811115611ad757611ad7611d69565b634e487b7160e01b600052603260045260246000fd5b8082028115828204841417611ad757611ad7611d69565b600082611ddc57634e487b7160e01b600052601260045260246000fd5b500490565b600060018201611df357611df3611d69565b5060010190565b634e487b7160e01b600052604160045260246000fd5b600181811c90821680611e2457607f821691505b602082108103611aa257634e487b7160e01b600052602260045260246000fd5b601f821115611e8e57600081815260208120601f850160051c81016020861015611e6b5750805b601f850160051c820191505b81811015611e8a57828155600101611e77565b5050505b505050565b81516001600160401b03811115611eac57611eac611dfa565b611ec081611eba8454611e10565b84611e44565b602080601f831160018114611ef55760008415611edd5750858301515b600019600386901b1c1916600185901b178555611e8a565b600085815260208120601f198616915b82811015611f2457888601518255948401946001909101908401611f05565b5085821015611f425787850151600019600388901b60f8161c191681555b5050505050600190811b01905550565b602081526000611aff6020830184611bb2565b6001600160a01b03929092168252602082015260400190565b600060208284031215611f9057600080fd5b81518015158114611aff57600080fd5b60208082526025908201527f4261736553747261746567793a2043616c6c6572206973206e6f74207468652060408201526430b236b4b760d91b606082015260800190565b61ffff91909116815260200190565b60006020828403121561200657600080fd5b5051919050565b80820180821115611ad757611ad7611d69565b6001600160a01b03938416815291909216602082015260408101919091526060019056fe4d65676153747261746567793a20496e76616c69642061737365742070726963911b89887f1e582512acfc0bb4b560349d3ba9c1e9d2b3038d38c3b05dc8fcfbae31fcd154d1849fa3b90ec3e0e5d3408c8cc0b6212d292966266b71e43cff80000000000000000000000000a0b86991c6218b36c1d19d4a2e9eb0ce3606eb486e1540171b6c0c960b71a7020d9f60077f6af931a8bbf590da0223dacf75c7b06e1540171b6c0c960b71a7020d9f60077f6af931a8bbf590da0223dacf75c7afa164736f6c6343000814000a",
  "linkReferences": {},
  "deployedLinkReferences": {}
}