{
  "_format": "hh-sol-artifact-1",
  "contractName": "ZoomStrategy",
  "sourceName": "contracts/ZoomStrategy.sol",
  "abi": [
    {
      "inputs": [
        {
          "internalType": "address",
          "name": "_hypeliquidRouter",
          "type": "address"
        },
        {
          "internalType": "uint256",
          "name": "_platformFeeBps",
          "type": "uint256"
        }
      ],
      "stateMutability": "nonpayable",
      "type": "constructor"
    },
    {
      "anonymous": false,
      "inputs": [
        {
          "indexed": true,
          "internalType": "address",
          "name": "previousAdmin",
          "type": "address"
        },
        {
          "indexed": true,
          "internalType": "address",
          "name": "newAdmin",
          "type": "address"
        }
      ],
      "name": "AdminTransferred",
      "type": "event"
    },
    {
      "anonymous": false,
      "inputs": [
        {
          "indexed": true,
          "internalType": "address",
          "name": "owner",
          "type": "address"
        }
      ],
      "name": "Initialized",
      "type": "event"
    },
    {
      "anonymous": false,
      "inputs": [
        {
          "indexed": false,
          "internalType": "uint8",
          "name": "newLeverage",
          "type": "uint8"
        }
      ],
      "name": "LeverageUpdated",
      "type": "event"
    },
    {
      "anonymous": false,
      "inputs": [
        {
          "indexed": false,
          "internalType": "uint256",
          "name": "newPlatformFeeBps",
          "type": "uint256"
        }
      ],
      "name": "PlatformFeeUpdated",
      "type": "event"
    },
    {
      "anonymous": false,
      "inputs": [
        {
          "indexed": true,
          "internalType": "address",
          "name": "owner",
          "type": "address"
        },
        {
          "indexed": false,
          "internalType": "string",
          "name": "action",
          "type": "string"
        },
        {
          "indexed": false,
          "internalType": "uint256",
          "name": "amount",
          "type": "uint256"
        }
      ],
      "name": "PositionUpdated",
      "type": "event"
    },
    {
      "anonymous": false,
      "inputs": [
        {
          "indexed": true,
          "internalType": "address",
          "name": "owner",
          "type": "address"
        }
      ],
      "name": "Rebalanced",
      "type": "event"
    },
    {
      "anonymous": false,
      "inputs": [
        {
          "indexed": true,
          "internalType": "address",
          "name": "owner",
          "type": "address"
        },
        {
          "components": [
            {
              "internalType": "uint256",
              "name": "timestamp",
              "type": "uint256"
            },
            {
              "internalType": "string",
              "name": "tradeType",
              "type": "string"
            },
            {
              "internalType": "address",
              "name": "assetIn",
              "type": "address"
            },
            {
              "internalType": "uint256",
              "name": "amountIn",
              "type": "uint256"
            },
            {
              "internalType": "address",
              "name": "assetOut",
              "type": "address"
            },
            {
              "internalType": "uint256",
              "name": "amountOut",
              "type": "uint256"
            },
            {
              "internalType": "uint256",
              "name": "feeAmount",
              "type": "uint256"
            },
            {
              "internalType": "address",
              "name": "feeAsset",
              "type": "address"
            }
          ],
          "indexed": false,
          "internalType": "struct Trade",
          "name": "trade",
          "type": "tuple"
        }
      ],
      "name": "TradeRecorded",
      "type": "event"
    },
    {
      "inputs": [],
      "name": "BONK",
      "outputs": [
        {
          "internalType": "address",
          "name": "",
          "type": "address"
        }
      ],
      "stateMutability": "view",
      "type": "function"
    },
    {
      "inputs": [],
      "name": "DOGE",
      "outputs": [
        {
          "internalType": "address",
          "name": "",
          "type": "address"
        }
      ],
      "stateMutability": "view",
      "type": "function"
    },
    {
      "inputs": [],
      "name": "PEPE",
      "outputs": [
        {
          "internalType": "address",
          "name": "",
          "type": "address"
        }
      ],
      "stateMutability": "view",
      "type": "function"
    },
    {
      "inputs": [],
      "name": "SHIB",
      "outputs": [
        {
          "internalType": "address",
          "name": "",
          "type": "address"
        }
      ],
      "stateMutability": "view",
      "type": "function"
    },
    {
      "inputs": [],
      "name": "USDC",
      "outputs": [
        {
          "internalType": "address",
          "name": "",
          "type": "address"
        }
      ],
      "stateMutability": "view",
      "type": "function"
    },
    {
      "inputs": [],
      "name": "WIF",
      "outputs": [
        {
          "internalType": "address",
          "name": "",
          "type": "address"
        }
      ],
      "stateMutability": "view",
      "type": "function"
    },
    {
      "inputs": [
        {
          "internalType": "uint256",
          "name": "amount",
          "type": "uint256"
        },
        {
          "internalType": "address",
          "name": "feeRecipient",
          "type": "address"
        }
      ],
      "name": "addLiquidity",
      "outputs": [],
      "stateMutability": "nonpayable",
      "type": "function"
    },
    {
      "inputs": [],
      "name": "admin",
      "outputs": [
        {
          "internalType": "address",
          "name": "",
          "type": "address"
        }
      ],
      "stateMutability": "view",
      "type": "function"
    },
    {
      "inputs": [],
      "name": "execute",
      "outputs": [],
      "stateMutability": "nonpayable",
      "type": "function"
    },
    {
      "inputs": [],
      "name": "getBalance",
      "outputs": [
        {
          "internalType": "uint256",
          "name": "balance",
          "type": "uint256"
        }
      ],
      "stateMutability": "view",
      "type": "function"
    },
    {
      "inputs": [],
      "name": "getCoinType",
      "outputs": [
        {
          "internalType": "enum CoinType",
          "name": "",
          "type": "uint8"
        }
      ],
      "stateMutability": "pure",
      "type": "function"
    },
    {
      "inputs": [],
      "name": "getHoldings",
      "outputs": [
        {
          "components": [
            {
              "internalType": "address",
              "name": "asset",
              "type": "address"
            },
            {
              "internalType": "uint256",
              "name": "amount",
              "type": "uint256"
            },
            {
              "internalType": "uint256",
              "name": "valueUsd",
              "type": "uint256"
            }
          ],
          "internalType": "struct Holding[]",
          "name": "holdings",
          "type": "tuple[]"
        }
      ],
      "stateMutability": "view",
      "type": "function"
    },
    {
      "inputs": [],
      "name": "getLeverage",
      "outputs": [
        {
          "internalType": "uint32",
          "name": "",
          "type": "uint32"
        }
      ],
      "stateMutability": "pure",
      "type": "function"
    },
    {
      "inputs": [],
      "name": "getOwner",
      "outputs": [
        {
          "internalType": "address",
          "name": "ownerAddress",
          "type": "address"
        }
      ],
      "stateMutability": "view",
      "type": "function"
    },
    {
      "inputs": [],
      "name": "getPortfolioIndices",
      "outputs": [
        {
          "internalType": "uint16[]",
          "name": "",
          "type": "uint16[]"
        }
      ],
      "stateMutability": "view",
      "type": "function"
    },
    {
      "inputs": [],
      "name": "getPositionDirection",
      "outputs": [
        {
          "internalType": "enum PositionDirection",
          "name": "",
          "type": "uint8"
        }
      ],
      "stateMutability": "pure",
      "type": "function"
    },
    {
      "inputs": [],
      "name": "getProfitLoss",
      "outputs": [
        {
          "internalType": "int256",
          "name": "pnl",
          "type": "int256"
        }
      ],
      "stateMutability": "view",
      "type": "function"
    },
    {
      "inputs": [],
      "name": "getTradeHistory",
      "outputs": [
        {
          "components": [
            {
              "internalType": "uint256",
              "name": "timestamp",
              "type": "uint256"
            },
            {
              "internalType": "string",
              "name": "tradeType",
              "type": "string"
            },
            {
              "internalType": "address",
              "name": "assetIn",
              "type": "address"
            },
            {
              "internalType": "uint256",
              "name": "amountIn",
              "type": "uint256"
            },
            {
              "internalType": "address",
              "name": "assetOut",
              "type": "address"
            },
            {
              "internalType": "uint256",
              "name": "amountOut",
              "type": "uint256"
            },
            {
              "internalType": "uint256",
              "name": "feeAmount",
              "type": "uint256"
            },
            {
              "internalType": "address",
              "name": "feeAsset",
              "type": "address"
            }
          ],
          "internalType": "struct Trade[]",
          "name": "history",
          "type": "tuple[]"
        }
      ],
      "stateMutability": "view",
      "type": "function"
    },
    {
      "inputs": [],
      "name": "hypeliquidRouter",
      "outputs": [
        {
          "internalType": "address",
          "name": "",
          "type": "address"
        }
      ],
      "stateMutability": "view",
      "type": "function"
    },
    {
      "inputs": [
        {
          "internalType": "address",
          "name": "_owner",
          "type": "address"
        }
      ],
      "name": "initialize",
      "outputs": [],
      "stateMutability": "nonpayable",
      "type": "function"
    },
    {
      "inputs": [],
      "name": "leverage",
      "outputs": [
        {
          "internalType": "uint8",
          "name": "",
          "type": "uint8"
        }
      ],
      "stateMutability": "view",
      "type": "function"
    },
    {
      "inputs": [
        {
          "internalType": "address",
          "name": "holder",
          "type": "address"
        },
        {
          "internalType": "uint64",
          "name": "usdcAmount",
          "type": "uint64"
        }
      ],
      "name": "openPositions",
      "outputs": [
        {
          "internalType": "uint16[]",
          "name": "indices",
          "type": "uint16[]"
        },
        {
          "internalType": "bool[]",
          "name": "isBuy",
          "type": "bool[]"
        },
        {
          "internalType": "uint64[]",
          "name": "sz",
          "type": "uint64[]"
        }
      ],
      "stateMutability": "nonpayable",
      "type": "function"
    },
    {
      "inputs": [],
      "name": "platformFeeBps",
      "outputs": [
        {
          "internalType": "uint256",
          "name": "",
          "type": "uint256"
        }
      ],
      "stateMutability": "view",
      "type": "function"
    },
    {
      "inputs": [],
      "name": "proxyOwner",
      "outputs": [
        {
          "internalType": "address",
          "name": "",
          "type": "address"
        }
      ],
      "stateMutability": "view",
      "type": "function"
    },
    {
      "inputs": [
        {
          "internalType": "uint256",
          "name": "amount",
          "type": "uint256"
        },
        {
          "internalType": "address",
          "name": "feeRecipient",
          "type": "address"
        }
      ],
      "name": "removeLiquidity",
      "outputs": [],
      "stateMutability": "nonpayable",
      "type": "function"
    },
    {
      "inputs": [
        {
          "internalType": "uint256",
          "name": "",
          "type": "uint256"
        }
      ],
      "name": "strategyAssets",
      "outputs": [
        {
          "internalType": "address",
          "name": "",
          "type": "address"
        }
      ],
      "stateMutability": "view",
      "type": "function"
    },
    {
      "inputs": [
        {
          "internalType": "address",
          "name": "_newAdmin",
          "type": "address"
        }
      ],
      "name": "transferAdmin",
      "outputs": [],
      "stateMutability": "nonpayable",
      "type": "function"
    },
    {
      "inputs": [
        {
          "internalType": "uint8",
          "name": "_newLeverage",
          "type": "uint8"
        }
      ],
      "name": "updateLeverage",
      "outputs": [],
      "stateMutability": "nonpayable",
      "type": "function"
    },
    {
      "inputs": [
        {
          "internalType": "uint256",
          "name": "_newPlatformFeeBps",
          "type": "uint256"
        }
      ],
      "name": "updatePlatformFee",
      "outputs": [],
      "stateMutability": "nonpayable",
      "type": "function"
    }
  ],
  "bytecode": "0x60a06040523480156200001157600080fd5b5060405162002ba038038062002ba08339810160408190526200003491620004b2565b818160036001600160a01b038316620000a85760405162461bcd60e51b815260206004820152602b60248201527f4261736553747261746567793a20526f757465722063616e6e6f74206265207a60448201526a65726f206164647265737360a81b60648201526084015b60405180910390fd5b6103e8821115620000fc5760405162461bcd60e51b815260206004820152601a60248201527f4261736553747261746567793a2046656520746f6f206869676800000000000060448201526064016200009f565b60008160ff16118015620001145750600a8160ff1611155b620001625760405162461bcd60e51b815260206004820152601e60248201527f4261736553747261746567793a20496e76616c6964206c65766572616765000060448201526064016200009f565b600080546001600160a01b03851660805260018490556001600160a81b0319163360ff60a01b19811691909117600160a01b60ff8516021782556040519091907ff8ccb027dfcd135e000e9d45e6cc2d662578a8825d4c45b5e32e0adf67e79ec6908290a36040518281527f45610d581145924dd7090a5017e5f2b1d6f42213bb2e95707ff86846bbfcb1ca9060200160405180910390a160405160ff821681527fe0ce029e30f26500c1c82ed34083b224b849ea080699f46c290e6216cf35a07d9060200160405180910390a15050506001600160a01b038216620002975760405162461bcd60e51b815260206004820152602360248201527f5a6f6f6d53747261746567793a20526f757465722063616e6e6f74206265207a60448201526265726f60e81b60648201526084016200009f565b6040805160a081018252731121acc14c63f3c872bfca497d10926a6098aac581527395ad61b0a150d79219dcf64e1e6cc01f0b64c4ce60208201527325d887ce7a35172c62febfd67a1856f20faebb00918101919091527309199d9a5f4448d0848e4395d065e1ad9c4a1f74606082015273886c869cdc619214138c87f1db0ada522b16dfa360808201526200033290600290600562000431565b5050600360208190527f4be3007d060beba2d273bc51c12193065229c039cc86edc353bcd54d312b894f805461ffff199081169091557f80e9b62734cc9ba7ec9f8108a636cf1e66a419b10d576d443f6c3a53e90e42848054821660011790557f12182a31406167d7f815a4dc0eefcf15c5c9b685f7e7c5df5f3f48a168b96f558054821660021790557f4de0e1380f5ca97ecc6c8bb33992d35a657b68828995c07f9158382c8f525f828054821690921790915573886c869cdc619214138c87f1db0ada522b16dfa36000527f97840d653e666ceb3ad58ceb921d5f7f0d422a2ba0c744ef3758c26926940f338054909116600417905550620004ee565b82805482825590600052602060002090810192821562000489579160200282015b828111156200048957825182546001600160a01b0319166001600160a01b0390911617825560209092019160019091019062000452565b50620004979291506200049b565b5090565b5b808211156200049757600081556001016200049c565b60008060408385031215620004c657600080fd5b82516001600160a01b0381168114620004de57600080fd5b6020939093015192949293505050565b6080516126736200052d600039600081816101c101528181610ded0152818161101001528181611124015281816117600152611dbb01526126736000f3fe608060405234801561001057600080fd5b506004361061015f5760003560e01c8063025313a21461016457806305fe138b146101945780630a02630f146101a95780630e5930f5146101bc57806312065fe0146101e357806322d860c8146101f957806322dcd13e146102095780632c86d98e1461021257806332abd05814610238578063343447051461025357806345f2a43414610275578063589191551461027d5780635e293a4a1461029857806361461954146102ad57806375829def146102b5578063893d20e8146102c857806389a30271146102d957806394149c1a146102f4578063aa0b5988146102fb578063b2db983a1461030e578063baba68de14610321578063bfbba31714610330578063c4d66de81461034b578063c95f9d0e1461035e578063d251c05a14610371578063d353ac7c14610386578063e24b85e71461039b578063e4fbaecb146103b6578063f851a440146103d1575b600080fd5b600454610177906001600160a01b031681565b6040516001600160a01b0390911681526020015b60405180910390f35b6101a76101a2366004611f39565b6103e4565b005b6101a76101b7366004611f65565b6107cb565b6101777f000000000000000000000000000000000000000000000000000000000000000081565b6101eb6108ad565b60405190815260200161018b565b60005b60405161018b9190611fa9565b6101eb60015481565b60005461022690600160a01b900460ff1681565b60405160ff909116815260200161018b565b61017773886c869cdc619214138c87f1db0ada522b16dfa381565b610266610261366004611fbc565b6108df565b60405161018b9392919061203e565b6101eb610b36565b610177731121acc14c63f3c872bfca497d10926a6098aac581565b6102a0610b67565b60405161018b91906120d8565b6101a7610c42565b6101a76102c33660046120eb565b61125b565b6004546001600160a01b0316610177565b61017773a0b86991c6218b36c1d19d4a2e9eb0ce3606eb4881565b60016101fc565b6101a7610309366004612106565b61133f565b61017761031c366004612106565b6113ed565b6040516003815260200161018b565b6101777309199d9a5f4448d0848e4395d065e1ad9c4a1f7481565b6101a76103593660046120eb565b611417565b6101a761036c366004611f39565b61152c565b610379611b44565b60405161018b91906121db565b61038e611cb9565b60405161018b919061223d565b6101777395ad61b0a150d79219dcf64e1e6cc01f0b64c4ce81565b6101777325d887ce7a35172c62febfd67a1856f20faebb0081565b600054610177906001600160a01b031681565b6004546001600160a01b03166104155760405162461bcd60e51b815260040161040c9061229f565b60405180910390fd5b6005548211156104735760405162461bcd60e51b8152602060048201526024808201527f5a6f6f6d53747261746567793a20496e73756666696369656e74206c697175696044820152636469747960e01b606482015260840161040c565b600061047e83611eb2565b600254909150839060005b81811015610533576000600282815481106104a6576104a66122d6565b60009182526020808320909101546005546001600160a01b0390911680845260079092526040832054919350906104de908a90612302565b6104e8919061232f565b9050801561051e576001600160a01b03821660009081526007602052604081208054839290610518908490612343565b90915550505b5050808061052b90612356565b915050610489565b5081600560000160008282546105499190612343565b909155505060005461056590600160a01b900460ff1683612302565b60068054600090610577908490612343565b909155505060408051610100810182524281528151808301835260148152732932b6b7bb329026b2b6b2902837b9b4ba34b7b760611b602082810191909152820190815260009282018390526060820183905273a0b86991c6218b36c1d19d4a2e9eb0ce3606eb486080830181905260a0830186905260c0830187905260e0830152600980546001810182559352815160089093026000805160206126478339815191528101938455905191928392909160008051602061262783398151915201906106439082612408565b506040828101516002830180546001600160a01b03199081166001600160a01b03938416179091556060850151600385015560808501516004808601805484169285169290921790915560a0860151600586015560c0860151600686015560e090950151600790940180549091169382169390931790925591549151911690600080516020612607833981519152906106dd9084906124c7565b60405180910390a283156107695760405163a9059cbb60e01b815273a0b86991c6218b36c1d19d4a2e9eb0ce3606eb489063a9059cbb9061072490889088906004016124da565b6020604051808303816000875af1158015610743573d6000803e3d6000fd5b505050506040513d601f19601f8201168201806040525081019061076791906124f3565b505b60045460408051818152601481830152732932b6b7bb329026b2b6b2902837b9b4ba34b7b760611b60608201526020810189905290516001600160a01b03909216916000805160206125e78339815191529181900360800190a2505050505050565b6000546001600160a01b031633146107f55760405162461bcd60e51b815260040161040c90612515565b60008160ff1611801561080c5750600a8160ff1611155b6108585760405162461bcd60e51b815260206004820152601e60248201527f4261736553747261746567793a20496e76616c6964206c657665726167650000604482015260640161040c565b6000805460ff60a01b1916600160a01b60ff8416908102919091179091556040519081527fe0ce029e30f26500c1c82ed34083b224b849ea080699f46c290e6216cf35a07d906020015b60405180910390a150565b6004546000906001600160a01b03166108d85760405162461bcd60e51b815260040161040c9061229f565b5060055490565b600454606090819081906001600160a01b031661090e5760405162461bcd60e51b815260040161040c9061229f565b600254806001600160401b038111156109295761092961236f565b604051908082528060200260200182016040528015610952578160200160208202803683370190505b509350806001600160401b0381111561096d5761096d61236f565b604051908082528060200260200182016040528015610996578160200160208202803683370190505b509250806001600160401b038111156109b1576109b161236f565b6040519080825280602002602001820160405280156109da578160200160208202803683370190505b50915060005b81811015610b2d5760036000600283815481106109ff576109ff6122d6565b60009182526020808320909101546001600160a01b03168352820192909252604001902054855161ffff90911690869083908110610a3f57610a3f6122d6565b602002602001019061ffff16908161ffff16815250506001848281518110610a6957610a696122d6565b911515602092830291909101909101526002811015610ad0576064610a8f87601e61255a565b610a999190612585565b838281518110610aab57610aab6122d6565b60200260200101906001600160401b031690816001600160401b031681525050610b1b565b61012c610ade87602861255a565b610ae89190612585565b838281518110610afa57610afa6122d6565b60200260200101906001600160401b031690816001600160401b0316815250505b80610b2581612356565b9150506109e0565b50509250925092565b6004546000906001600160a01b0316610b615760405162461bcd60e51b815260040161040c9061229f565b50600090565b6002546060906000906001600160401b03811115610b8757610b8761236f565b604051908082528060200260200182016040528015610bb0578160200160208202803683370190505b50905060005b600254811015610c3c576003600060028381548110610bd757610bd76122d6565b60009182526020808320909101546001600160a01b03168352820192909252604001902054825161ffff90911690839083908110610c1757610c176122d6565b61ffff9092166020928302919091019091015280610c3481612356565b915050610bb6565b50919050565b6004546001600160a01b0316610c6a5760405162461bcd60e51b815260040161040c9061229f565b60025460009081906001600160401b03811115610c8957610c8961236f565b604051908082528060200260200182016040528015610cb2578160200160208202803683370190505b506002549091506000906001600160401b03811115610cd357610cd361236f565b604051908082528060200260200182016040528015610cfc578160200160208202803683370190505b509050601e81600081518110610d1457610d146122d6565b602002602001018181525050601e81600181518110610d3557610d356122d6565b602002602001018181525050600e81600281518110610d5657610d566122d6565b602002602001018181525050600d81600381518110610d7757610d776122d6565b602002602001018181525050600d81600481518110610d9857610d986122d6565b60200260200101818152505060005b600254811015610efa57600060028281548110610dc657610dc66122d6565b60009182526020822001546040516342ac91a560e01b81526001600160a01b0391821693507f0000000000000000000000000000000000000000000000000000000000000000909116906342ac91a590610e249086906004016125ab565b602060405180830381865afa158015610e41573d6000803e3d6000fd5b505050506040513d601f19601f82011682018060405250810190610e6591906125ba565b6001600160a01b038316600090815260076020526040902054909150670de0b6b3a764000090610e96908390612302565b610ea0919061232f565b858481518110610eb257610eb26122d6565b602002602001018181525050848381518110610ed057610ed06122d6565b602002602001015186610ee391906125d3565b955050508080610ef290612356565b915050610da7565b5082600003610f0857505050565b60005b60025481101561121d57600060028281548110610f2a57610f2a6122d6565b600091825260208220015484516001600160a01b039091169250606490859085908110610f5957610f596122d6565b602002602001015187610f6c9190612302565b610f76919061232f565b90506000610f9d868581518110610f8f57610f8f6122d6565b602002602001015183611ee7565b905060006064610fae846005612302565b610fb8919061232f565b9050808211156112065782878681518110610fd557610fd56122d6565b602002602001015111156110f757600083888781518110610ff857610ff86122d6565b602002602001015161100a9190612343565b905060007f00000000000000000000000000000000000000000000000000000000000000006001600160a01b03166342ac91a5886040518263ffffffff1660e01b815260040161105a91906125ab565b602060405180830381865afa158015611077573d6000803e3d6000fd5b505050506040513d601f19601f8201168201806040525081019061109b91906125ba565b90506000816110b284670de0b6b3a7640000612302565b6110bc919061232f565b6001600160a01b0388166000908152600760205260408120805492935083929091906110e9908490612343565b909155506112069350505050565b600087868151811061110b5761110b6122d6565b60200260200101518461111e9190612343565b905060007f00000000000000000000000000000000000000000000000000000000000000006001600160a01b03166342ac91a5886040518263ffffffff1660e01b815260040161116e91906125ab565b602060405180830381865afa15801561118b573d6000803e3d6000fd5b505050506040513d601f19601f820116820180604052508101906111af91906125ba565b90506000816111c684670de0b6b3a7640000612302565b6111d0919061232f565b6001600160a01b0388166000908152600760205260408120805492935083929091906111fd9084906125d3565b90915550505050505b50505050808061121590612356565b915050610f0b565b506004546040516001600160a01b03909116907fb8815e3a0b9733f6390f55ab413c696ef91fca3267f27f6c7e60fcd0984262cd90600090a2505050565b6000546001600160a01b031633146112855760405162461bcd60e51b815260040161040c90612515565b6001600160a01b0381166112ef5760405162461bcd60e51b815260206004820152602b60248201527f4261736553747261746567793a204e65772061646d696e20697320746865207a60448201526a65726f206164647265737360a81b606482015260840161040c565b600080546001600160a01b038381166001600160a01b0319831681178455604051919092169283917ff8ccb027dfcd135e000e9d45e6cc2d662578a8825d4c45b5e32e0adf67e79ec69190a35050565b6000546001600160a01b031633146113695760405162461bcd60e51b815260040161040c90612515565b6103e88111156113b85760405162461bcd60e51b815260206004820152601a602482015279084c2e6caa6e8e4c2e8cacef274408ccaca40e8dede40d0d2ced60331b604482015260640161040c565b60018190556040518181527f45610d581145924dd7090a5017e5f2b1d6f42213bb2e95707ff86846bbfcb1ca906020016108a2565b600281815481106113fd57600080fd5b6000918252602090912001546001600160a01b0316905081565b60085460ff16156114745760405162461bcd60e51b815260206004820152602160248201527f5a6f6f6d53747261746567793a20416c726561647920696e697469616c697a656044820152601960fa1b606482015260840161040c565b6001600160a01b0381166114d55760405162461bcd60e51b815260206004820152602260248201527f5a6f6f6d53747261746567793a204f776e65722063616e6e6f74206265207a65604482015261726f60f01b606482015260840161040c565b600480546001600160a01b0319166001600160a01b0383169081179091556008805460ff191660011790556040517f908408e307fc569b417f6cbec5d5a06f44a0a505ac0479b47d421a4b2fd6a1e690600090a250565b6004546001600160a01b03166115545760405162461bcd60e51b815260040161040c9061229f565b600082116115b25760405162461bcd60e51b815260206004820152602560248201527f5a6f6f6d53747261746567793a20416d6f756e74206d75737420626520706f73604482015264697469766560d81b606482015260840161040c565b60006115bd83611eb2565b905060006115cb8285612343565b905080600560000160008282546115e291906125d3565b90915550506002546000816001600160401b038111156116045761160461236f565b60405190808252806020026020018201604052801561162d578160200160208202803683370190505b509050601e81600081518110611645576116456122d6565b602002602001018181525050601e81600181518110611666576116666122d6565b602002602001018181525050600e81600281518110611687576116876122d6565b602002602001018181525050600d816003815181106116a8576116a86122d6565b602002602001018181525050600d816004815181106116c9576116c96122d6565b60200260200101818152505060005b828110156118b1576000600282815481106116f5576116f56122d6565b600091825260208220015484516001600160a01b039091169250606490859085908110611724576117246122d6565b602090810291909101015160005461174690600160a01b900460ff1689612302565b6117509190612302565b61175a919061232f565b905060007f00000000000000000000000000000000000000000000000000000000000000006001600160a01b03166342ac91a5856040518263ffffffff1660e01b81526004016117aa91906125ab565b602060405180830381865afa1580156117c7573d6000803e3d6000fd5b505050506040513d601f19601f820116820180604052508101906117eb91906125ba565b9050600081116118475760405162461bcd60e51b815260206004820152602160248201527f5a6f6f6d53747261746567793a20496e76616c696420617373657420707269636044820152606560f81b606482015260840161040c565b60008161185c84670de0b6b3a7640000612302565b611866919061232f565b6001600160a01b0385166000908152600760205260408120805492935083929091906118939084906125d3565b925050819055505050505080806118a990612356565b9150506116d8565b506000546118c990600160a01b900460ff1684612302565b600680546000906118db9084906125d3565b9091555050604080516101008101825242815281518083018352601181527020b2321026b2b6b2902837b9b4ba34b7b760791b602082810191909152820190815273a0b86991c6218b36c1d19d4a2e9eb0ce3606eb489282018390526060820189905260006080830181905260a0830181905260c0830188905260e0830193909352600980546001810182559352815160089093026000805160206126478339815191528101938455905191928392909160008051602061262783398151915201906119a79082612408565b506040828101516002830180546001600160a01b03199081166001600160a01b03938416179091556060850151600385015560808501516004808601805484169285169290921790915560a0860151600586015560c0860151600686015560e09095015160079094018054909116938216939093179092559154915191169060008051602061260783398151915290611a419084906124c7565b60405180910390a2600085118015611a6157506001600160a01b03861615155b15611ae45760405163a9059cbb60e01b815273a0b86991c6218b36c1d19d4a2e9eb0ce3606eb489063a9059cbb90611a9f90899089906004016124da565b6020604051808303816000875af1158015611abe573d6000803e3d6000fd5b505050506040513d601f19601f82011682018060405250810190611ae291906124f3565b505b600454604080518181526011818301527020b2321026b2b6b2902837b9b4ba34b7b760791b6060820152602081018a905290516001600160a01b03909216916000805160206125e78339815191529181900360800190a250505050505050565b6004546060906001600160a01b0316611b6f5760405162461bcd60e51b815260040161040c9061229f565b6009805480602002602001604051908101604052809291908181526020016000905b82821015611cb057838290600052602060002090600802016040518061010001604052908160008201548152602001600182018054611bcf90612385565b80601f0160208091040260200160405190810160405280929190818152602001828054611bfb90612385565b8015611c485780601f10611c1d57610100808354040283529160200191611c48565b820191906000526020600020905b815481529060010190602001808311611c2b57829003601f168201915b505050918352505060028201546001600160a01b039081166020808401919091526003840154604084015260048401548216606084015260058401546080840152600684015460a08401526007909301541660c0909101529082526001929092019101611b91565b50505050905090565b6004546060906001600160a01b0316611ce45760405162461bcd60e51b815260040161040c9061229f565b6002546001600160401b03811115611cfe57611cfe61236f565b604051908082528060200260200182016040528015611d5c57816020015b611d49604051806060016040528060006001600160a01b0316815260200160008152602001600081525090565b815260200190600190039081611d1c5790505b50905060005b600254811015611eae57600060028281548110611d8157611d816122d6565b60009182526020808320909101546001600160a01b03908116808452600790925260408084205490516342ac91a560e01b815292945092917f0000000000000000000000000000000000000000000000000000000000000000909116906342ac91a590611df29087906004016125ab565b602060405180830381865afa158015611e0f573d6000803e3d6000fd5b505050506040513d601f19601f82011682018060405250810190611e3391906125ba565b90506000670de0b6b3a7640000611e4a8385612302565b611e54919061232f565b90506040518060600160405280856001600160a01b0316815260200184815260200182815250868681518110611e8c57611e8c6122d6565b6020026020010181905250505050508080611ea690612356565b915050611d62565b5090565b6000600154600003611ec657506000919050565b61271060015483611ed79190612302565b611ee1919061232f565b92915050565b6000818311611eff57611efa8383612343565b611f09565b611f098284612343565b9392505050565b6001600160a01b03169052565b80356001600160a01b0381168114611f3457600080fd5b919050565b60008060408385031215611f4c57600080fd5b82359150611f5c60208401611f1d565b90509250929050565b600060208284031215611f7757600080fd5b813560ff81168114611f0957600080fd5b60028110611fa657634e487b7160e01b600052602160045260246000fd5b50565b60208101611fb683611f88565b91905290565b60008060408385031215611fcf57600080fd5b611fd883611f1d565b915060208301356001600160401b0381168114611ff457600080fd5b809150509250929050565b600081518084526020808501945080840160005b8381101561203357815161ffff1687529582019590820190600101612013565b509495945050505050565b6060815260006120516060830186611fff565b82810360208481019190915285518083528682019282019060005b8181101561208a57845115158352938301939183019160010161206c565b50508481036040860152855180825290820192508186019060005b818110156120ca5782516001600160401b0316855293830193918301916001016120a5565b509298975050505050505050565b602081526000611f096020830184611fff565b6000602082840312156120fd57600080fd5b611f0982611f1d565b60006020828403121561211857600080fd5b5035919050565b600061010082518452602080840151828287015280518084880152600093505b8084101561215e5781840183015187850161012001529282019261213f565b610120935060008482890101526040860151925061217f6040880184611f10565b606086015160608801526080860151925061219d6080880184611f10565b60a086015160a088015260c086015160c088015260e086015192506121c560e0880184611f10565b601f01601f191695909501909101949350505050565b6000602080830181845280855180835260408601915060408160051b870101925083870160005b8281101561223057603f1988860301845261221e85835161211f565b94509285019290850190600101612202565b5092979650505050505050565b602080825282518282018190526000919060409081850190868401855b8281101561229257815180516001600160a01b031685528681015187860152850151858501526060909301929085019060010161225a565b5091979650505050505050565b6020808252601d908201527f5a6f6f6d53747261746567793a204e6f7420696e697469616c697a6564000000604082015260600190565b634e487b7160e01b600052603260045260246000fd5b634e487b7160e01b600052601160045260246000fd5b8082028115828204841417611ee157611ee16122ec565b634e487b7160e01b600052601260045260246000fd5b60008261233e5761233e612319565b500490565b81810381811115611ee157611ee16122ec565b600060018201612368576123686122ec565b5060010190565b634e487b7160e01b600052604160045260246000fd5b600181811c9082168061239957607f821691505b602082108103610c3c57634e487b7160e01b600052602260045260246000fd5b601f82111561240357600081815260208120601f850160051c810160208610156123e05750805b601f850160051c820191505b818110156123ff578281556001016123ec565b5050505b505050565b81516001600160401b038111156124215761242161236f565b6124358161242f8454612385565b846123b9565b602080601f83116001811461246a57600084156124525750858301515b600019600386901b1c1916600185901b1785556123ff565b600085815260208120601f198616915b828110156124995788860151825594840194600190910190840161247a565b50858210156124b75787850151600019600388901b60f8161c191681555b5050505050600190811b01905550565b602081526000611f09602083018461211f565b6001600160a01b03929092168252602082015260400190565b60006020828403121561250557600080fd5b81518015158114611f0957600080fd5b60208082526025908201527f4261736553747261746567793a2043616c6c6572206973206e6f74207468652060408201526430b236b4b760d91b606082015260800190565b6001600160401b0381811683821602808216919082811461257d5761257d6122ec565b505092915050565b60006001600160401b038381168061259f5761259f612319565b92169190910492915050565b61ffff91909116815260200190565b6000602082840312156125cc57600080fd5b5051919050565b80820180821115611ee157611ee16122ec56fe911b89887f1e582512acfc0bb4b560349d3ba9c1e9d2b3038d38c3b05dc8fcfbae31fcd154d1849fa3b90ec3e0e5d3408c8cc0b6212d292966266b71e43cff806e1540171b6c0c960b71a7020d9f60077f6af931a8bbf590da0223dacf75c7b06e1540171b6c0c960b71a7020d9f60077f6af931a8bbf590da0223dacf75c7afa164736f6c6343000814000a",
  "linkReferences": {},
  "deployedLinkReferences": {}
}